{
  "contractName": "CodeVerification",
  "abi": [
    {
      "inputs": [],
      "name": "VERSION",
      "outputs": [
        {
          "internalType": "string",
          "name": "",
          "type": "string"
        }
      ],
      "stateMutability": "view",
      "type": "function"
    },
    {
      "inputs": [
        {
          "internalType": "address",
          "name": "address_",
          "type": "address"
        }
      ],
      "name": "readCodeHash",
      "outputs": [
        {
          "internalType": "bytes32",
          "name": "",
          "type": "bytes32"
        }
      ],
      "stateMutability": "view",
      "type": "function"
    }
  ],
  "bytecode": "0x610291610053600b82828239805160001a607314610046577f4e487b7100000000000000000000000000000000000000000000000000000000600052600060045260246000fd5b30600052607381538281f3fe73000000000000000000000000000000000000000030146080604052600436106100405760003560e01c80636e1d8a9d14610045578063ffa1ad7414610075575b600080fd5b61005f600480360381019061005a919061013f565b610093565b60405161006c9190610185565b60405180910390f35b61007d6100a3565b60405161008a9190610239565b60405180910390f35b600080823f905080915050919050565b6040518060400160405280600581526020017f312e302e3000000000000000000000000000000000000000000000000000000081525081565b600080fd5b600073ffffffffffffffffffffffffffffffffffffffff82169050919050565b600061010c826100e1565b9050919050565b61011c81610101565b811461012757600080fd5b50565b60008135905061013981610113565b92915050565b600060208284031215610155576101546100dc565b5b60006101638482850161012a565b91505092915050565b6000819050919050565b61017f8161016c565b82525050565b600060208201905061019a6000830184610176565b92915050565b600081519050919050565b600082825260208201905092915050565b60005b838110156101da5780820151818401526020810190506101bf565b838111156101e9576000848401525b50505050565b6000601f19601f8301169050919050565b600061020b826101a0565b61021581856101ab565b93506102258185602086016101bc565b61022e816101ef565b840191505092915050565b600060208201905081810360008301526102538184610200565b90509291505056fea26469706673582212201953744058b9db91faf8e67a1c1963baa71239ccd5b7530a4036e5148aa1e59964736f6c634300080b0033",
  "immutableReferences": {},
  "source": "// SPDX-License-Identifier: UNLICENSED\n// \n// \n// \n// \n// \n// \n// \n// https://formless.xyz/opportunities\n//\npragma solidity >=0.8.0 <0.9.0;\n\nimport \"@openzeppelin/contracts/utils/Address.sol\";\n\n/// @title Contract code verification.\n/// @author brandon@formless.xyz\n/// @notice Code verification library for determining the keccak256\n/// hash of the runtime bytecode for deployed contracts.\nlibrary CodeVerification {\n    enum BuildType {\n        WALLET, /* 0 */\n        SPLIT, /* 1 */\n        PFA_UNIT, /* 2 */\n        PFA_COLLECTION /* 3 */\n    }\n    string public constant VERSION = \"1.0.0\";\n\n    /// @notice Returns the keccak256 hash of the runtime bytecode\n    /// stored at the supplied `address_`.\n    function readCodeHash(address address_) public view returns (bytes32) {\n        bytes32 codeHash;\n        assembly {\n            codeHash := extcodehash(address_)\n        }\n        return codeHash;\n    }\n}\n",
  "sourcePath": "/Users/xiang2011w/Desktop/formless/smartContractGithub/share-v1-core/contracts/libraries/CodeVerification.sol",
  "compiler": {
    "name": "solc",
    "version": "0.8.11+commit.d7f03943.Emscripten.clang"
  },
  "schemaVersion": "3.4.16",
  "updatedAt": "2024-06-24T20:41:54.218Z",
  "devdoc": {
    "author": "brandon@formless.xyz",
    "kind": "dev",
    "methods": {},
    "title": "Contract code verification.",
    "version": 1
  },
  "userdoc": {
    "kind": "user",
    "methods": {
      "readCodeHash(address)": {
        "notice": "Returns the keccak256 hash of the runtime bytecode stored at the supplied `address_`."
      }
    },
    "notice": "Code verification library for determining the keccak256 hash of the runtime bytecode for deployed contracts.",
    "version": 1
  }
}