{
  "contractName": "Immutable",
  "abi": [
    {
      "inputs": [],
      "name": "VERSION",
      "outputs": [
        {
          "internalType": "string",
          "name": "",
          "type": "string"
        }
      ],
      "stateMutability": "view",
      "type": "function"
    }
  ],
  "bytecode": "0x610a9c610053600b82828239805160001a607314610046577f4e487b7100000000000000000000000000000000000000000000000000000000600052600060045260246000fd5b30600052607381538281f3fe73000000000000000000000000000000000000000030146080604052600436106100875760003560e01c8063e9e3a8dd11610065578063e9e3a8dd14610107578063f00ca5af14610130578063febf70aa14610159578063ffa1ad741461018257610087565b806326a254401461008c5780634135c144146100b55780638213580d146100de575b600080fd5b81801561009857600080fd5b506100b360048036038101906100ae91906105f7565b6101a0565b005b8180156100c157600080fd5b506100dc60048036038101906100d791906106cb565b610221565b005b8180156100ea57600080fd5b5061010560048036038101906101009190610779565b6102d7565b005b81801561011357600080fd5b5061012e600480360381019061012991906107ef565b610366565b005b81801561013c57600080fd5b5061015760048036038101906101529190610865565b6103e2565b005b81801561016557600080fd5b50610180600480360381019061017b91906108ee565b610492565b005b61018a61054d565b60405161019791906109c7565b60405180910390f35b8160010160009054906101000a900460ff16156101f2576040517f08c379a00000000000000000000000000000000000000000000000000000000081526004016101e990610a46565b60405180910390fd5b816000018190806001815401808255809150506001900390600052602060002001600090919091909150555050565b8160000160149054906101000a900460ff1615610273576040517f08c379a000000000000000000000000000000000000000000000000000000000815260040161026a90610a46565b60405180910390fd5b808260000160006101000a81548173ffffffffffffffffffffffffffffffffffffffff021916908373ffffffffffffffffffffffffffffffffffffffff16021790555060018260000160146101000a81548160ff0219169083151502179055505050565b8160000160019054906101000a900460ff1615610329576040517f08c379a000000000000000000000000000000000000000000000000000000000815260040161032090610a46565b60405180910390fd5b808260000160006101000a81548160ff02191690831515021790555060018260000160016101000a81548160ff0219169083151502179055505050565b8160010160009054906101000a900460ff16156103b8576040517f08c379a00000000000000000000000000000000000000000000000000000000081526004016103af90610a46565b60405180910390fd5b80826000018190555060018260010160006101000a81548160ff0219169083151502179055505050565b8260010160009054906101000a900460ff1615610434576040517f08c379a000000000000000000000000000000000000000000000000000000000815260040161042b90610a46565b60405180910390fd5b808360000160008473ffffffffffffffffffffffffffffffffffffffff1673ffffffffffffffffffffffffffffffffffffffff16815260200190815260200160002060006101000a81548160ff021916908315150217905550505050565b8160010160009054906101000a900460ff16156104e4576040517f08c379a00000000000000000000000000000000000000000000000000000000081526004016104db90610a46565b60405180910390fd5b81600001819080600181540180825580915050600190039060005260206000200160009091909190916101000a81548173ffffffffffffffffffffffffffffffffffffffff021916908373ffffffffffffffffffffffffffffffffffffffff1602179055505050565b6040518060400160405280600581526020017f312e302e3000000000000000000000000000000000000000000000000000000081525081565b600080fd5b6000819050919050565b61059e8161058b565b81146105a957600080fd5b50565b6000813590506105bb81610595565b92915050565b6000819050919050565b6105d4816105c1565b81146105df57600080fd5b50565b6000813590506105f1816105cb565b92915050565b6000806040838503121561060e5761060d610586565b5b600061061c858286016105ac565b925050602061062d858286016105e2565b9150509250929050565b6000819050919050565b61064a81610637565b811461065557600080fd5b50565b60008135905061066781610641565b92915050565b600073ffffffffffffffffffffffffffffffffffffffff82169050919050565b60006106988261066d565b9050919050565b6106a88161068d565b81146106b357600080fd5b50565b6000813590506106c58161069f565b92915050565b600080604083850312156106e2576106e1610586565b5b60006106f085828601610658565b9250506020610701858286016106b6565b9150509250929050565b6000819050919050565b61071e8161070b565b811461072957600080fd5b50565b60008135905061073b81610715565b92915050565b60008115159050919050565b61075681610741565b811461076157600080fd5b50565b6000813590506107738161074d565b92915050565b600080604083850312156107905761078f610586565b5b600061079e8582860161072c565b92505060206107af85828601610764565b9150509250929050565b6000819050919050565b6107cc816107b9565b81146107d757600080fd5b50565b6000813590506107e9816107c3565b92915050565b6000806040838503121561080657610805610586565b5b6000610814858286016107da565b9250506020610825858286016105e2565b9150509250929050565b6000819050919050565b6108428161082f565b811461084d57600080fd5b50565b60008135905061085f81610839565b92915050565b60008060006060848603121561087e5761087d610586565b5b600061088c86828701610850565b935050602061089d868287016106b6565b92505060406108ae86828701610764565b9150509250925092565b6000819050919050565b6108cb816108b8565b81146108d657600080fd5b50565b6000813590506108e8816108c2565b92915050565b6000806040838503121561090557610904610586565b5b6000610913858286016108d9565b9250506020610924858286016106b6565b9150509250929050565b600081519050919050565b600082825260208201905092915050565b60005b8381101561096857808201518184015260208101905061094d565b83811115610977576000848401525b50505050565b6000601f19601f8301169050919050565b60006109998261092e565b6109a38185610939565b93506109b381856020860161094a565b6109bc8161097d565b840191505092915050565b600060208201905081810360008301526109e1818461098e565b905092915050565b600082825260208201905092915050565b7f5348415245303033000000000000000000000000000000000000000000000000600082015250565b6000610a306008836109e9565b9150610a3b826109fa565b602082019050919050565b60006020820190508181036000830152610a5f81610a23565b905091905056fea264697066735822122065ecf312b55d548967ffd7e8894e6c1af82f684b5084d98732da2598315181f264736f6c634300080b0033",
  "immutableReferences": {},
  "source": "// SPDX-License-Identifier: UNLICENSED\n// \n// \n// \n// \n// \n// \n// \n// https://formless.xyz/opportunities\n//\npragma solidity >=0.8.0 <0.9.0;\n\n/// @title Immutable state variable library.\n/// @author brandon@formless.xyz\n/// @notice Library for contracts to implement write-once\n/// post initialization immutable variables. This enables immutable\n/// variables that are not initialized in Solidity constructors.\n/// By not using parameterized constructors, stable construction\n/// parameter invariant runtime bytecode can be generated for the\n/// _source code_ associated with all SHARE contracts.\n/// @dev Assumes users of the `Immutable` library perform writes using\n/// the setters exposed in this contract and not by directly\n/// accessing the underlying state variables.\nlibrary Immutable {\n    string public constant VERSION = \"1.0.0\";\n\n    /// @notice Lockable uint256 type. Write-once state variable\n    /// that does not use the Solidity `immutable` keyword.\n    struct UnsignedInt256 {\n        uint256 value;\n        bool locked;\n    }\n\n    /// @notice Lockable address type. Write-once state variable\n    /// that does not use the Solidity `immutable` keyword.\n    struct Address {\n        address value;\n        bool locked;\n    }\n\n    /// @notice Lockable bool type. Write-once state variable\n    /// that does not use the Solidity `immutable` keyword.\n    struct Boolean {\n        bool value;\n        bool locked;\n    }\n\n    /// @notice Lockable address[] type. Write-once state variable\n    /// that does not use the Solidity `immutable` keyword.\n    struct AddressArray {\n        address[] value;\n        bool locked;\n    }\n\n    /// @notice Lockable uint256[] type. Write-once state variable\n    /// that does not use the Solidity `immutable` keyword.\n    struct UnsignedInt256Array {\n        uint256[] value;\n        bool locked;\n    }\n\n    /// @notice Lockable mapping(address => bool) type. Write-once state variable\n    /// that does not use the Solidity `immutable` keyword.\n    struct AddressToBooleanMap {\n        mapping(address => bool) value;\n        bool locked;\n    }\n\n    /// @notice Sets the value of a uint256 and locks it such\n    /// that subsequent attempts to write revert.\n    function setUnsignedInt256(\n        UnsignedInt256 storage object,\n        uint256 value\n    ) public {\n        require(!object.locked, \"SHARE003\");\n        object.value = value;\n        object.locked = true;\n    }\n\n    /// @notice Sets the value of an address and locks it such\n    /// that subsequent attempts to write revert.\n    function setAddress(Address storage object, address value) public {\n        require(!object.locked, \"SHARE003\");\n        object.value = value;\n        object.locked = true;\n    }\n\n    /// @notice Sets the value of a bool and locks it such\n    /// that subsequent attempts to write revert.\n    function setBoolean(Boolean storage object, bool value) public {\n        require(!object.locked, \"SHARE003\");\n        object.value = value;\n        object.locked = true;\n    }\n\n    /// @notice Pushes an address value onto an address array. Once\n    /// the associated lock for the array is set, subsequent attempts\n    /// to push revert.\n    function pushAddress(AddressArray storage object, address value) public {\n        require(!object.locked, \"SHARE003\");\n        object.value.push(value);\n    }\n\n    /// @notice Pushes an unsigned 256 integer value onto an unsigned 256\n    /// integer array. Once the associated lock for the array is set,\n    /// subsequent attempts to push revert.\n    function pushUnsignedInt256(\n        UnsignedInt256Array storage object,\n        uint256 value\n    ) public {\n        require(!object.locked, \"SHARE003\");\n        object.value.push(value);\n    }\n\n    /// @notice Inserts an address : bool pair into a map. Once\n    /// the associated lock for the map is set, subsequent attempts\n    /// to insert revert.\n    function insertBooleanAtAddress(\n        AddressToBooleanMap storage object,\n        address address_,\n        bool value\n    ) public {\n        require(!object.locked, \"SHARE003\");\n        object.value[address_] = value;\n    }\n}\n",
  "sourcePath": "/Users/xiang2011w/Desktop/formless/smartContractGithub/share-v1-core/contracts/libraries/Immutable.sol",
  "compiler": {
    "name": "solc",
    "version": "0.8.11+commit.d7f03943.Emscripten.clang"
  },
  "schemaVersion": "3.4.16",
  "updatedAt": "2024-06-24T20:41:54.219Z",
  "devdoc": {
    "author": "brandon@formless.xyz",
    "details": "Assumes users of the `Immutable` library perform writes using the setters exposed in this contract and not by directly accessing the underlying state variables.",
    "kind": "dev",
    "methods": {},
    "title": "Immutable state variable library.",
    "version": 1
  },
  "userdoc": {
    "kind": "user",
    "methods": {
      "insertBooleanAtAddress(Immutable.AddressToBooleanMap storage,address,bool)": {
        "notice": "Inserts an address : bool pair into a map. Once the associated lock for the map is set, subsequent attempts to insert revert."
      },
      "pushAddress(Immutable.AddressArray storage,address)": {
        "notice": "Pushes an address value onto an address array. Once the associated lock for the array is set, subsequent attempts to push revert."
      },
      "pushUnsignedInt256(Immutable.UnsignedInt256Array storage,uint256)": {
        "notice": "Pushes an unsigned 256 integer value onto an unsigned 256 integer array. Once the associated lock for the array is set, subsequent attempts to push revert."
      },
      "setAddress(Immutable.Address storage,address)": {
        "notice": "Sets the value of an address and locks it such that subsequent attempts to write revert."
      },
      "setBoolean(Immutable.Boolean storage,bool)": {
        "notice": "Sets the value of a bool and locks it such that subsequent attempts to write revert."
      },
      "setUnsignedInt256(Immutable.UnsignedInt256 storage,uint256)": {
        "notice": "Sets the value of a uint256 and locks it such that subsequent attempts to write revert."
      }
    },
    "notice": "Library for contracts to implement write-once post initialization immutable variables. This enables immutable variables that are not initialized in Solidity constructors. By not using parameterized constructors, stable construction parameter invariant runtime bytecode can be generated for the _source code_ associated with all SHARE contracts.",
    "version": 1
  }
}