{
  "contractName": "MockPFARevertsOnAccess",
  "abi": [
    {
      "inputs": [],
      "stateMutability": "nonpayable",
      "type": "constructor"
    },
    {
      "anonymous": false,
      "inputs": [
        {
          "indexed": true,
          "internalType": "address",
          "name": "owner",
          "type": "address"
        },
        {
          "indexed": true,
          "internalType": "address",
          "name": "approved",
          "type": "address"
        },
        {
          "indexed": true,
          "internalType": "uint256",
          "name": "tokenId",
          "type": "uint256"
        }
      ],
      "name": "Approval",
      "type": "event"
    },
    {
      "anonymous": false,
      "inputs": [
        {
          "indexed": true,
          "internalType": "address",
          "name": "owner",
          "type": "address"
        },
        {
          "indexed": true,
          "internalType": "address",
          "name": "operator",
          "type": "address"
        },
        {
          "indexed": false,
          "internalType": "bool",
          "name": "approved",
          "type": "bool"
        }
      ],
      "name": "ApprovalForAll",
      "type": "event"
    },
    {
      "anonymous": false,
      "inputs": [
        {
          "indexed": true,
          "internalType": "address",
          "name": "recipient",
          "type": "address"
        },
        {
          "indexed": true,
          "internalType": "uint256",
          "name": "tokenId",
          "type": "uint256"
        }
      ],
      "name": "Grant",
      "type": "event"
    },
    {
      "anonymous": false,
      "inputs": [
        {
          "indexed": true,
          "internalType": "address",
          "name": "licensee",
          "type": "address"
        }
      ],
      "name": "License",
      "type": "event"
    },
    {
      "anonymous": false,
      "inputs": [
        {
          "indexed": true,
          "internalType": "uint256",
          "name": "tokenId",
          "type": "uint256"
        },
        {
          "indexed": true,
          "internalType": "address",
          "name": "recipient",
          "type": "address"
        }
      ],
      "name": "MockPFARevertsOnAccessCall",
      "type": "event"
    },
    {
      "anonymous": false,
      "inputs": [
        {
          "indexed": true,
          "internalType": "address",
          "name": "previousOwner",
          "type": "address"
        },
        {
          "indexed": true,
          "internalType": "address",
          "name": "newOwner",
          "type": "address"
        }
      ],
      "name": "OwnershipTransferred",
      "type": "event"
    },
    {
      "anonymous": false,
      "inputs": [
        {
          "indexed": true,
          "internalType": "address",
          "name": "owner",
          "type": "address"
        },
        {
          "indexed": false,
          "internalType": "uint256",
          "name": "value",
          "type": "uint256"
        }
      ],
      "name": "PaymentToOwner",
      "type": "event"
    },
    {
      "anonymous": false,
      "inputs": [
        {
          "indexed": true,
          "internalType": "address",
          "name": "from",
          "type": "address"
        },
        {
          "indexed": true,
          "internalType": "address",
          "name": "to",
          "type": "address"
        },
        {
          "indexed": true,
          "internalType": "uint256",
          "name": "tokenId",
          "type": "uint256"
        }
      ],
      "name": "Transfer",
      "type": "event"
    },
    {
      "inputs": [],
      "name": "VERSION",
      "outputs": [
        {
          "internalType": "string",
          "name": "",
          "type": "string"
        }
      ],
      "stateMutability": "view",
      "type": "function"
    },
    {
      "inputs": [],
      "name": "_transactionCount",
      "outputs": [
        {
          "internalType": "uint256",
          "name": "",
          "type": "uint256"
        }
      ],
      "stateMutability": "view",
      "type": "function"
    },
    {
      "inputs": [
        {
          "internalType": "address",
          "name": "to",
          "type": "address"
        },
        {
          "internalType": "uint256",
          "name": "tokenId",
          "type": "uint256"
        }
      ],
      "name": "approve",
      "outputs": [],
      "stateMutability": "nonpayable",
      "type": "function"
    },
    {
      "inputs": [
        {
          "internalType": "address",
          "name": "owner",
          "type": "address"
        }
      ],
      "name": "balanceOf",
      "outputs": [
        {
          "internalType": "uint256",
          "name": "",
          "type": "uint256"
        }
      ],
      "stateMutability": "view",
      "type": "function"
    },
    {
      "inputs": [
        {
          "internalType": "uint256",
          "name": "tokenId",
          "type": "uint256"
        }
      ],
      "name": "getApproved",
      "outputs": [
        {
          "internalType": "address",
          "name": "",
          "type": "address"
        }
      ],
      "stateMutability": "view",
      "type": "function"
    },
    {
      "inputs": [],
      "name": "grantTTL",
      "outputs": [
        {
          "internalType": "uint256",
          "name": "",
          "type": "uint256"
        }
      ],
      "stateMutability": "view",
      "type": "function"
    },
    {
      "inputs": [
        {
          "internalType": "address",
          "name": "recipient_",
          "type": "address"
        }
      ],
      "name": "grantTimestamp",
      "outputs": [
        {
          "internalType": "uint256",
          "name": "",
          "type": "uint256"
        }
      ],
      "stateMutability": "view",
      "type": "function"
    },
    {
      "inputs": [],
      "name": "initialized",
      "outputs": [
        {
          "internalType": "bool",
          "name": "",
          "type": "bool"
        }
      ],
      "stateMutability": "view",
      "type": "function"
    },
    {
      "inputs": [
        {
          "internalType": "address",
          "name": "owner",
          "type": "address"
        },
        {
          "internalType": "address",
          "name": "operator",
          "type": "address"
        }
      ],
      "name": "isApprovedForAll",
      "outputs": [
        {
          "internalType": "bool",
          "name": "",
          "type": "bool"
        }
      ],
      "stateMutability": "view",
      "type": "function"
    },
    {
      "inputs": [
        {
          "internalType": "address",
          "name": "recipient_",
          "type": "address"
        }
      ],
      "name": "license",
      "outputs": [],
      "stateMutability": "payable",
      "type": "function"
    },
    {
      "inputs": [
        {
          "internalType": "address",
          "name": "recipient_",
          "type": "address"
        }
      ],
      "name": "licenseTimestamp",
      "outputs": [
        {
          "internalType": "uint256",
          "name": "",
          "type": "uint256"
        }
      ],
      "stateMutability": "view",
      "type": "function"
    },
    {
      "inputs": [],
      "name": "name",
      "outputs": [
        {
          "internalType": "string",
          "name": "",
          "type": "string"
        }
      ],
      "stateMutability": "view",
      "type": "function"
    },
    {
      "inputs": [],
      "name": "owner",
      "outputs": [
        {
          "internalType": "address",
          "name": "",
          "type": "address"
        }
      ],
      "stateMutability": "view",
      "type": "function"
    },
    {
      "inputs": [
        {
          "internalType": "uint256",
          "name": "tokenId",
          "type": "uint256"
        }
      ],
      "name": "ownerOf",
      "outputs": [
        {
          "internalType": "address",
          "name": "",
          "type": "address"
        }
      ],
      "stateMutability": "view",
      "type": "function"
    },
    {
      "inputs": [],
      "name": "pricePerAccess",
      "outputs": [
        {
          "internalType": "uint256",
          "name": "",
          "type": "uint256"
        }
      ],
      "stateMutability": "view",
      "type": "function"
    },
    {
      "inputs": [],
      "name": "pricePerLicense",
      "outputs": [
        {
          "internalType": "uint256",
          "name": "",
          "type": "uint256"
        }
      ],
      "stateMutability": "view",
      "type": "function"
    },
    {
      "inputs": [],
      "name": "renounceOwnership",
      "outputs": [],
      "stateMutability": "nonpayable",
      "type": "function"
    },
    {
      "inputs": [
        {
          "internalType": "address",
          "name": "from",
          "type": "address"
        },
        {
          "internalType": "address",
          "name": "to",
          "type": "address"
        },
        {
          "internalType": "uint256",
          "name": "tokenId",
          "type": "uint256"
        }
      ],
      "name": "safeTransferFrom",
      "outputs": [],
      "stateMutability": "nonpayable",
      "type": "function"
    },
    {
      "inputs": [
        {
          "internalType": "address",
          "name": "from",
          "type": "address"
        },
        {
          "internalType": "address",
          "name": "to",
          "type": "address"
        },
        {
          "internalType": "uint256",
          "name": "tokenId",
          "type": "uint256"
        },
        {
          "internalType": "bytes",
          "name": "data",
          "type": "bytes"
        }
      ],
      "name": "safeTransferFrom",
      "outputs": [],
      "stateMutability": "nonpayable",
      "type": "function"
    },
    {
      "inputs": [
        {
          "internalType": "address",
          "name": "operator",
          "type": "address"
        },
        {
          "internalType": "bool",
          "name": "approved",
          "type": "bool"
        }
      ],
      "name": "setApprovalForAll",
      "outputs": [],
      "stateMutability": "nonpayable",
      "type": "function"
    },
    {
      "inputs": [
        {
          "internalType": "uint256",
          "name": "pricePerAccess_",
          "type": "uint256"
        }
      ],
      "name": "setPricePerAccess",
      "outputs": [],
      "stateMutability": "nonpayable",
      "type": "function"
    },
    {
      "inputs": [
        {
          "internalType": "bytes4",
          "name": "interfaceId",
          "type": "bytes4"
        }
      ],
      "name": "supportsInterface",
      "outputs": [
        {
          "internalType": "bool",
          "name": "",
          "type": "bool"
        }
      ],
      "stateMutability": "view",
      "type": "function"
    },
    {
      "inputs": [],
      "name": "supportsLicensing",
      "outputs": [
        {
          "internalType": "bool",
          "name": "",
          "type": "bool"
        }
      ],
      "stateMutability": "view",
      "type": "function"
    },
    {
      "inputs": [],
      "name": "symbol",
      "outputs": [
        {
          "internalType": "string",
          "name": "",
          "type": "string"
        }
      ],
      "stateMutability": "view",
      "type": "function"
    },
    {
      "inputs": [
        {
          "internalType": "uint256",
          "name": "tokenId",
          "type": "uint256"
        }
      ],
      "name": "tokenURI",
      "outputs": [
        {
          "internalType": "string",
          "name": "",
          "type": "string"
        }
      ],
      "stateMutability": "view",
      "type": "function"
    },
    {
      "inputs": [
        {
          "internalType": "address",
          "name": "from",
          "type": "address"
        },
        {
          "internalType": "address",
          "name": "to",
          "type": "address"
        },
        {
          "internalType": "uint256",
          "name": "tokenId",
          "type": "uint256"
        }
      ],
      "name": "transferFrom",
      "outputs": [],
      "stateMutability": "nonpayable",
      "type": "function"
    },
    {
      "inputs": [
        {
          "internalType": "address",
          "name": "newOwner",
          "type": "address"
        }
      ],
      "name": "transferOwnership",
      "outputs": [],
      "stateMutability": "nonpayable",
      "type": "function"
    },
    {
      "inputs": [
        {
          "internalType": "uint256",
          "name": "pricePerAccess_",
          "type": "uint256"
        },
        {
          "internalType": "uint256",
          "name": "grantTTL_",
          "type": "uint256"
        },
        {
          "internalType": "bool",
          "name": "supportsLicensing_",
          "type": "bool"
        },
        {
          "internalType": "uint256",
          "name": "pricePerLicense_",
          "type": "uint256"
        },
        {
          "internalType": "address",
          "name": "shareContractAddress_",
          "type": "address"
        }
      ],
      "name": "initialize",
      "outputs": [],
      "stateMutability": "nonpayable",
      "type": "function"
    },
    {
      "inputs": [
        {
          "internalType": "uint256",
          "name": "tokenId_",
          "type": "uint256"
        },
        {
          "internalType": "address",
          "name": "recipient_",
          "type": "address"
        }
      ],
      "name": "access",
      "outputs": [],
      "stateMutability": "payable",
      "type": "function"
    }
  ],
  "bytecode": "0x60806040526000600c553480156200001657600080fd5b506040518060400160405280600581526020017f53484152450000000000000000000000000000000000000000000000000000008152506040518060400160405280600881526020017f4d4f434b5f504641000000000000000000000000000000000000000000000000815250600180620000a66200009a6200024d60201b60201c565b6200025560201b60201c565b600180819055503373ffffffffffffffffffffffffffffffffffffffff163273ffffffffffffffffffffffffffffffffffffffff16146200011e576040517f08c379a0000000000000000000000000000000000000000000000000000000008152600401620001159062000964565b60405180910390fd5b81156200017e576002600090806001815401808255809150506001900390600052602060002090602091828204019190069091909190916101000a81548160ff0219169083600381111562000178576200017762000986565b5b02179055505b8015620001de576002600190806001815401808255809150506001900390600052602060002090602091828204019190069091909190916101000a81548160ff02191690836003811115620001d857620001d762000986565b5b02179055505b620001fe620001f26200024d60201b60201c565b6200025560201b60201c565b505081600f90805190602001906200021892919062000853565b5080601090805190602001906200023192919062000853565b505050620002473360006200031960201b60201c565b62000d82565b600033905090565b60008060009054906101000a900473ffffffffffffffffffffffffffffffffffffffff169050816000806101000a81548173ffffffffffffffffffffffffffffffffffffffff021916908373ffffffffffffffffffffffffffffffffffffffff1602179055508173ffffffffffffffffffffffffffffffffffffffff168173ffffffffffffffffffffffffffffffffffffffff167f8be0079c531659141344cd1fd0a4f28419497f9722a3daafe3b4186f6b6457e060405160405180910390a35050565b6200033b8282604051806020016040528060008152506200033f60201b60201c565b5050565b620003518383620003ad60201b60201c565b620003666000848484620005f460201b60201c565b620003a8576040517f08c379a00000000000000000000000000000000000000000000000000000000081526004016200039f9062000a2b565b60405180910390fd5b505050565b600073ffffffffffffffffffffffffffffffffffffffff168273ffffffffffffffffffffffffffffffffffffffff16141562000420576040517f08c379a0000000000000000000000000000000000000000000000000000000008152600401620004179062000a9d565b60405180910390fd5b62000431816200079e60201b60201c565b1562000474576040517f08c379a00000000000000000000000000000000000000000000000000000000081526004016200046b9062000b0f565b60405180910390fd5b6200048a600083836001620007e760201b60201c565b6200049b816200079e60201b60201c565b15620004de576040517f08c379a0000000000000000000000000000000000000000000000000000000008152600401620004d59062000b0f565b60405180910390fd5b6001601260008473ffffffffffffffffffffffffffffffffffffffff1673ffffffffffffffffffffffffffffffffffffffff16815260200190815260200160002060008282540192505081905550816011600083815260200190815260200160002060006101000a81548173ffffffffffffffffffffffffffffffffffffffff021916908373ffffffffffffffffffffffffffffffffffffffff160217905550808273ffffffffffffffffffffffffffffffffffffffff16600073ffffffffffffffffffffffffffffffffffffffff167fddf252ad1be2c89b69c2b068fc378daa952ba7f163c4a11628f55a4df523b3ef60405160405180910390a4620005f0600083836001620007ed60201b60201c565b5050565b6000620006228473ffffffffffffffffffffffffffffffffffffffff16620007f360201b62001a0e1760201c565b1562000791578373ffffffffffffffffffffffffffffffffffffffff1663150b7a02620006546200024d60201b60201c565b8786866040518563ffffffff1660e01b815260040162000678949392919062000c35565b6020604051808303816000875af1925050508015620006b757506040513d601f19601f82011682018060405250810190620006b4919062000ceb565b60015b62000740573d8060008114620006ea576040519150601f19603f3d011682016040523d82523d6000602084013e620006ef565b606091505b5060008151141562000738576040517f08c379a00000000000000000000000000000000000000000000000000000000081526004016200072f9062000a2b565b60405180910390fd5b805181602001fd5b63150b7a0260e01b7bffffffffffffffffffffffffffffffffffffffffffffffffffffffff1916817bffffffffffffffffffffffffffffffffffffffffffffffffffffffff19161491505062000796565b600190505b949350505050565b60008073ffffffffffffffffffffffffffffffffffffffff16620007c8836200081660201b60201c565b73ffffffffffffffffffffffffffffffffffffffff1614159050919050565b50505050565b50505050565b6000808273ffffffffffffffffffffffffffffffffffffffff163b119050919050565b60006011600083815260200190815260200160002060009054906101000a900473ffffffffffffffffffffffffffffffffffffffff169050919050565b828054620008619062000d4c565b90600052602060002090601f016020900481019282620008855760008555620008d1565b82601f10620008a057805160ff1916838001178555620008d1565b82800160010185558215620008d1579182015b82811115620008d0578251825591602001919060010190620008b3565b5b509050620008e09190620008e4565b5090565b5b80821115620008ff576000816000905550600101620008e5565b5090565b600082825260208201905092915050565b7f5348415245303132000000000000000000000000000000000000000000000000600082015250565b60006200094c60088362000903565b9150620009598262000914565b602082019050919050565b600060208201905081810360008301526200097f816200093d565b9050919050565b7f4e487b7100000000000000000000000000000000000000000000000000000000600052602160045260246000fd5b7f4552433732313a207472616e7366657220746f206e6f6e20455243373231526560008201527f63656976657220696d706c656d656e7465720000000000000000000000000000602082015250565b600062000a1360328362000903565b915062000a2082620009b5565b604082019050919050565b6000602082019050818103600083015262000a468162000a04565b9050919050565b7f4552433732313a206d696e7420746f20746865207a65726f2061646472657373600082015250565b600062000a8560208362000903565b915062000a928262000a4d565b602082019050919050565b6000602082019050818103600083015262000ab88162000a76565b9050919050565b7f4552433732313a20746f6b656e20616c7265616479206d696e74656400000000600082015250565b600062000af7601c8362000903565b915062000b048262000abf565b602082019050919050565b6000602082019050818103600083015262000b2a8162000ae8565b9050919050565b600073ffffffffffffffffffffffffffffffffffffffff82169050919050565b600062000b5e8262000b31565b9050919050565b62000b708162000b51565b82525050565b6000819050919050565b62000b8b8162000b76565b82525050565b600081519050919050565b600082825260208201905092915050565b60005b8381101562000bcd57808201518184015260208101905062000bb0565b8381111562000bdd576000848401525b50505050565b6000601f19601f8301169050919050565b600062000c018262000b91565b62000c0d818562000b9c565b935062000c1f81856020860162000bad565b62000c2a8162000be3565b840191505092915050565b600060808201905062000c4c600083018762000b65565b62000c5b602083018662000b65565b62000c6a604083018562000b80565b818103606083015262000c7e818462000bf4565b905095945050505050565b600080fd5b60007fffffffff0000000000000000000000000000000000000000000000000000000082169050919050565b62000cc58162000c8e565b811462000cd157600080fd5b50565b60008151905062000ce58162000cba565b92915050565b60006020828403121562000d045762000d0362000c89565b5b600062000d148482850162000cd4565b91505092915050565b7f4e487b7100000000000000000000000000000000000000000000000000000000600052602260045260246000fd5b6000600282049050600182168062000d6557607f821691505b6020821081141562000d7c5762000d7b62000d1d565b5b50919050565b613cd58062000d926000396000f3fe6080604052600436106101c25760003560e01c8063715018a6116100f7578063b88d4fde11610095578063e985e9c511610064578063e985e9c51461063a578063e9a98fa814610677578063f2fde38b146106a0578063ffa1ad74146106c9576101c2565b8063b88d4fde1461058d578063c87b56dd146105b6578063ce1ebbf8146105f3578063d6062e441461061e576101c2565b806395e9463f116100d157806395e9463f146104e057806398a47451146104fc578063a22cb46514610539578063a92ddbb314610562576101c2565b8063715018a6146104735780638da5cb5b1461048a57806395d89b41146104b5576101c2565b806323b872dd116101645780634d6eeb761161013e5780634d6eeb76146103a55780635bc3c82c146103ce5780636352211e146103f957806370a0823114610436576101c2565b806323b872dd146103165780632cc1bd9e1461033f57806342842e0e1461037c576101c2565b806306fdde03116101a057806306fdde031461025a578063081812fc14610285578063095ea7b3146102c2578063158ef93e146102eb576101c2565b80630122407e146101c757806301ffc9a7146101f257806306df48151461022f575b600080fd5b3480156101d357600080fd5b506101dc6106f4565b6040516101e99190612815565b60405180910390f35b3480156101fe57600080fd5b506102196004803603810190610214919061289c565b610750565b60405161022691906128e4565b60405180910390f35b34801561023b57600080fd5b50610244610832565b6040516102519190612815565b60405180910390f35b34801561026657600080fd5b5061026f610838565b60405161027c9190612998565b60405180910390f35b34801561029157600080fd5b506102ac60048036038101906102a791906129e6565b6108ca565b6040516102b99190612a54565b60405180910390f35b3480156102ce57600080fd5b506102e960048036038101906102e49190612a9b565b610910565b005b3480156102f757600080fd5b50610300610a28565b60405161030d91906128e4565b60405180910390f35b34801561032257600080fd5b5061033d60048036038101906103389190612adb565b610a3f565b005b34801561034b57600080fd5b5061036660048036038101906103619190612b2e565b610a9f565b6040516103739190612815565b60405180910390f35b34801561038857600080fd5b506103a3600480360381019061039e9190612adb565b610b37565b005b3480156103b157600080fd5b506103cc60048036038101906103c791906129e6565b610b57565b005b3480156103da57600080fd5b506103e3610c9c565b6040516103f09190612815565b60405180910390f35b34801561040557600080fd5b50610420600480360381019061041b91906129e6565b610cf8565b60405161042d9190612a54565b60405180910390f35b34801561044257600080fd5b5061045d60048036038101906104589190612b2e565b610d7f565b60405161046a9190612815565b60405180910390f35b34801561047f57600080fd5b50610488610e37565b005b34801561049657600080fd5b5061049f610e4b565b6040516104ac9190612a54565b60405180910390f35b3480156104c157600080fd5b506104ca610e74565b6040516104d79190612998565b60405180910390f35b6104fa60048036038101906104f59190612b5b565b610f06565b005b34801561050857600080fd5b50610523600480360381019061051e9190612b2e565b610fd4565b6040516105309190612815565b60405180910390f35b34801561054557600080fd5b50610560600480360381019061055b9190612bc7565b61106c565b005b34801561056e57600080fd5b50610577611082565b60405161058491906128e4565b60405180910390f35b34801561059957600080fd5b506105b460048036038101906105af9190612d3c565b6110eb565b005b3480156105c257600080fd5b506105dd60048036038101906105d891906129e6565b61114d565b6040516105ea9190612998565b60405180910390f35b3480156105ff57600080fd5b506106086111b5565b6040516106159190612815565b60405180910390f35b61063860048036038101906106339190612b2e565b611211565b005b34801561064657600080fd5b50610661600480360381019061065c9190612dbf565b61152d565b60405161066e91906128e4565b60405180910390f35b34801561068357600080fd5b5061069e60048036038101906106999190612dff565b6115c1565b005b3480156106ac57600080fd5b506106c760048036038101906106c29190612b2e565b6117d2565b005b3480156106d557600080fd5b506106de6119d5565b6040516106eb9190612998565b60405180910390f35b6000600460009054906101000a900460ff16610745576040517f08c379a000000000000000000000000000000000000000000000000000000000815260040161073c90612ec6565b60405180910390fd5b600960000154905090565b60007f80ac58cd000000000000000000000000000000000000000000000000000000007bffffffffffffffffffffffffffffffffffffffffffffffffffffffff1916827bffffffffffffffffffffffffffffffffffffffffffffffffffffffff1916148061081b57507f5b5e139f000000000000000000000000000000000000000000000000000000007bffffffffffffffffffffffffffffffffffffffffffffffffffffffff1916827bffffffffffffffffffffffffffffffffffffffffffffffffffffffff1916145b8061082b575061082a82611a31565b5b9050919050565b600c5481565b6060600f805461084790612f15565b80601f016020809104026020016040519081016040528092919081815260200182805461087390612f15565b80156108c05780601f10610895576101008083540402835291602001916108c0565b820191906000526020600020905b8154815290600101906020018083116108a357829003601f168201915b5050505050905090565b60006108d582611a9b565b6013600083815260200190815260200160002060009054906101000a900473ffffffffffffffffffffffffffffffffffffffff169050919050565b600061091b82610cf8565b90508073ffffffffffffffffffffffffffffffffffffffff168373ffffffffffffffffffffffffffffffffffffffff16141561098c576040517f08c379a000000000000000000000000000000000000000000000000000000000815260040161098390612fb9565b60405180910390fd5b8073ffffffffffffffffffffffffffffffffffffffff166109ab611ae6565b73ffffffffffffffffffffffffffffffffffffffff1614806109da57506109d9816109d4611ae6565b61152d565b5b610a19576040517f08c379a0000000000000000000000000000000000000000000000000000000008152600401610a109061304b565b60405180910390fd5b610a238383611aee565b505050565b6000600460009054906101000a900460ff16905090565b610a50610a4a611ae6565b82611ba7565b610a8f576040517f08c379a0000000000000000000000000000000000000000000000000000000008152600401610a86906130dd565b60405180910390fd5b610a9a838383611c3c565b505050565b6000600460009054906101000a900460ff16610af0576040517f08c379a0000000000000000000000000000000000000000000000000000000008152600401610ae790612ec6565b60405180910390fd5b600d60008373ffffffffffffffffffffffffffffffffffffffff1673ffffffffffffffffffffffffffffffffffffffff168152602001908152602001600020549050919050565b610b52838383604051806020016040528060008152506110eb565b505050565b610b5f611f36565b610b67611f86565b600460009054906101000a900460ff16610bb6576040517f08c379a0000000000000000000000000000000000000000000000000000000008152600401610bad90612ec6565b60405180910390fd5b600b60000160009054906101000a900460ff1615610c09576040517f08c379a0000000000000000000000000000000000000000000000000000000008152600401610c0090613149565b60405180910390fd5b6000600560010160006101000a81548160ff02191690831515021790555073__Immutable_____________________________63e9e3a8dd6005836040518363ffffffff1660e01b8152600401610c6192919061317f565b60006040518083038186803b158015610c7957600080fd5b505af4158015610c8d573d6000803e3d6000fd5b50505050610c99612004565b50565b6000600460009054906101000a900460ff16610ced576040517f08c379a0000000000000000000000000000000000000000000000000000000008152600401610ce490612ec6565b60405180910390fd5b600560000154905090565b600080610d048361200d565b9050600073ffffffffffffffffffffffffffffffffffffffff168173ffffffffffffffffffffffffffffffffffffffff161415610d76576040517f08c379a0000000000000000000000000000000000000000000000000000000008152600401610d6d906131f4565b60405180910390fd5b80915050919050565b60008073ffffffffffffffffffffffffffffffffffffffff168273ffffffffffffffffffffffffffffffffffffffff161415610df0576040517f08c379a0000000000000000000000000000000000000000000000000000000008152600401610de790613286565b60405180910390fd5b601260008373ffffffffffffffffffffffffffffffffffffffff1673ffffffffffffffffffffffffffffffffffffffff168152602001908152602001600020549050919050565b610e3f611f86565b610e49600061204a565b565b60008060009054906101000a900473ffffffffffffffffffffffffffffffffffffffff16905090565b606060108054610e8390612f15565b80601f0160208091040260200160405190810160405280929190818152602001828054610eaf90612f15565b8015610efc5780601f10610ed157610100808354040283529160200191610efc565b820191906000526020600020905b815481529060010190602001808311610edf57829003601f168201915b5050505050905090565b600460009054906101000a900460ff16610f55576040517f08c379a0000000000000000000000000000000000000000000000000000000008152600401610f4c90612ec6565b60405180910390fd5b8073ffffffffffffffffffffffffffffffffffffffff16827f8ad1e00d2a07efe140e73842e8a5711e13e3a15b6b3e56861af821707532070360405160405180910390a36040517f08c379a0000000000000000000000000000000000000000000000000000000008152600401610fcb906132f2565b60405180910390fd5b6000600460009054906101000a900460ff16611025576040517f08c379a000000000000000000000000000000000000000000000000000000000815260040161101c90612ec6565b60405180910390fd5b600e60008373ffffffffffffffffffffffffffffffffffffffff1673ffffffffffffffffffffffffffffffffffffffff168152602001908152602001600020549050919050565b61107e611077611ae6565b838361210e565b5050565b6000600460009054906101000a900460ff166110d3576040517f08c379a00000000000000000000000000000000000000000000000000000000081526004016110ca90612ec6565b60405180910390fd5b600b60000160009054906101000a900460ff16905090565b6110fc6110f6611ae6565b83611ba7565b61113b576040517f08c379a0000000000000000000000000000000000000000000000000000000008152600401611132906130dd565b60405180910390fd5b6111478484848461227b565b50505050565b606061115882611a9b565b60006111626122d7565b9050600081511161118257604051806020016040528060008152506111ad565b8061118c846122ee565b60405160200161119d92919061334e565b6040516020818303038152906040525b915050919050565b6000600460009054906101000a900460ff16611206576040517f08c379a00000000000000000000000000000000000000000000000000000000081526004016111fd90612ec6565b60405180910390fd5b600760000154905090565b611219611f36565b600460009054906101000a900460ff16611268576040517f08c379a000000000000000000000000000000000000000000000000000000000815260040161125f90612ec6565b60405180910390fd5b600b60000160009054906101000a900460ff166112ba576040517f08c379a00000000000000000000000000000000000000000000000000000000081526004016112b1906133be565b60405180910390fd5b6007600001543414611301576040517f08c379a00000000000000000000000000000000000000000000000000000000081526004016112f89061342a565b60405180910390fd5b600061130b6123c6565b90508073ffffffffffffffffffffffffffffffffffffffff16633cef5f768360036040518363ffffffff1660e01b81526004016113499291906134c1565b602060405180830381865afa158015611366573d6000803e3d6000fd5b505050506040513d601f19601f8201168201806040525081019061138a91906134ff565b6113c9576040517f08c379a00000000000000000000000000000000000000000000000000000000081526004016113c090613578565b60405180910390fd5b8173ffffffffffffffffffffffffffffffffffffffff16635dbe47e8306040518263ffffffff1660e01b81526004016114029190612a54565b602060405180830381865afa15801561141f573d6000803e3d6000fd5b505050506040513d601f19601f8201168201806040525081019061144391906134ff565b611482576040517f08c379a0000000000000000000000000000000000000000000000000000000008152600401611479906135e4565b60405180910390fd5b42600e60008473ffffffffffffffffffffffffffffffffffffffff1673ffffffffffffffffffffffffffffffffffffffff168152602001908152602001600020819055508173ffffffffffffffffffffffffffffffffffffffff167f92c8946d126a1974fc68523f77c1ad26341fa2bf3adee2484d4188b22d64c34a60405160405180910390a2600c600081548092919061151c90613633565b91905055505061152a612004565b50565b6000601460008473ffffffffffffffffffffffffffffffffffffffff1673ffffffffffffffffffffffffffffffffffffffff16815260200190815260200160002060008373ffffffffffffffffffffffffffffffffffffffff1673ffffffffffffffffffffffffffffffffffffffff16815260200190815260200160002060009054906101000a900460ff16905092915050565b6115c9611f86565b73__Immutable_____________________________63e9e3a8dd6005876040518363ffffffff1660e01b815260040161160392919061317f565b60006040518083038186803b15801561161b57600080fd5b505af415801561162f573d6000803e3d6000fd5b5050505073__Immutable_____________________________63e9e3a8dd6009866040518363ffffffff1660e01b815260040161166d92919061317f565b60006040518083038186803b15801561168557600080fd5b505af4158015611699573d6000803e3d6000fd5b5050505073__Immutable_____________________________638213580d600b856040518363ffffffff1660e01b81526004016116d7929190613692565b60006040518083038186803b1580156116ef57600080fd5b505af4158015611703573d6000803e3d6000fd5b5050505082611750576000821461174f576040517f08c379a000000000000000000000000000000000000000000000000000000000815260040161174690613707565b60405180910390fd5b5b73__Immutable_____________________________63e9e3a8dd6007846040518363ffffffff1660e01b815260040161178a92919061317f565b60006040518083038186803b1580156117a257600080fd5b505af41580156117b6573d6000803e3d6000fd5b505050506117c381612442565b6117cb6124af565b5050505050565b6117da611f86565b600460009054906101000a900460ff16611829576040517f08c379a000000000000000000000000000000000000000000000000000000000815260040161182090612ec6565b60405180910390fd5b60006118336123c6565b90506000805b600280549050811015611916578273ffffffffffffffffffffffffffffffffffffffff16633cef5f76856002848154811061187757611876613727565b5b90600052602060002090602091828204019190069054906101000a900460ff166040518363ffffffff1660e01b81526004016118b49291906134c1565b602060405180830381865afa1580156118d1573d6000803e3d6000fd5b505050506040513d601f19601f820116820180604052508101906118f591906134ff565b156119035760019150611916565b808061190e90613633565b915050611839565b5080611957576040517f08c379a000000000000000000000000000000000000000000000000000000000815260040161194e906137a2565b60405180910390fd5b600073ffffffffffffffffffffffffffffffffffffffff168373ffffffffffffffffffffffffffffffffffffffff1614156119c7576040517f08c379a00000000000000000000000000000000000000000000000000000000081526004016119be90613834565b60405180910390fd5b6119d08361204a565b505050565b6040518060400160405280600581526020017f312e302e3000000000000000000000000000000000000000000000000000000081525081565b6000808273ffffffffffffffffffffffffffffffffffffffff163b119050919050565b60007f01ffc9a7000000000000000000000000000000000000000000000000000000007bffffffffffffffffffffffffffffffffffffffffffffffffffffffff1916827bffffffffffffffffffffffffffffffffffffffffffffffffffffffff1916149050919050565b611aa4816124d4565b611ae3576040517f08c379a0000000000000000000000000000000000000000000000000000000008152600401611ada906131f4565b60405180910390fd5b50565b600033905090565b816013600083815260200190815260200160002060006101000a81548173ffffffffffffffffffffffffffffffffffffffff021916908373ffffffffffffffffffffffffffffffffffffffff160217905550808273ffffffffffffffffffffffffffffffffffffffff16611b6183610cf8565b73ffffffffffffffffffffffffffffffffffffffff167f8c5be1e5ebec7d5bd14f71427d1e84f3dd0314c0f7b2291e5b200ac8c7c3b92560405160405180910390a45050565b600080611bb383610cf8565b90508073ffffffffffffffffffffffffffffffffffffffff168473ffffffffffffffffffffffffffffffffffffffff161480611bf55750611bf4818561152d565b5b80611c3357508373ffffffffffffffffffffffffffffffffffffffff16611c1b846108ca565b73ffffffffffffffffffffffffffffffffffffffff16145b91505092915050565b8273ffffffffffffffffffffffffffffffffffffffff16611c5c82610cf8565b73ffffffffffffffffffffffffffffffffffffffff1614611cb2576040517f08c379a0000000000000000000000000000000000000000000000000000000008152600401611ca9906138c6565b60405180910390fd5b600073ffffffffffffffffffffffffffffffffffffffff168273ffffffffffffffffffffffffffffffffffffffff161415611d22576040517f08c379a0000000000000000000000000000000000000000000000000000000008152600401611d1990613958565b60405180910390fd5b611d2f8383836001612515565b8273ffffffffffffffffffffffffffffffffffffffff16611d4f82610cf8565b73ffffffffffffffffffffffffffffffffffffffff1614611da5576040517f08c379a0000000000000000000000000000000000000000000000000000000008152600401611d9c906138c6565b60405180910390fd5b6013600082815260200190815260200160002060006101000a81549073ffffffffffffffffffffffffffffffffffffffff02191690556001601260008573ffffffffffffffffffffffffffffffffffffffff1673ffffffffffffffffffffffffffffffffffffffff168152602001908152602001600020600082825403925050819055506001601260008473ffffffffffffffffffffffffffffffffffffffff1673ffffffffffffffffffffffffffffffffffffffff16815260200190815260200160002060008282540192505081905550816011600083815260200190815260200160002060006101000a81548173ffffffffffffffffffffffffffffffffffffffff021916908373ffffffffffffffffffffffffffffffffffffffff160217905550808273ffffffffffffffffffffffffffffffffffffffff168473ffffffffffffffffffffffffffffffffffffffff167fddf252ad1be2c89b69c2b068fc378daa952ba7f163c4a11628f55a4df523b3ef60405160405180910390a4611f31838383600161251b565b505050565b60026001541415611f7c576040517f08c379a0000000000000000000000000000000000000000000000000000000008152600401611f73906139c4565b60405180910390fd5b6002600181905550565b611f8e611ae6565b73ffffffffffffffffffffffffffffffffffffffff16611fac610e4b565b73ffffffffffffffffffffffffffffffffffffffff1614612002576040517f08c379a0000000000000000000000000000000000000000000000000000000008152600401611ff990613a30565b60405180910390fd5b565b60018081905550565b60006011600083815260200190815260200160002060009054906101000a900473ffffffffffffffffffffffffffffffffffffffff169050919050565b60008060009054906101000a900473ffffffffffffffffffffffffffffffffffffffff169050816000806101000a81548173ffffffffffffffffffffffffffffffffffffffff021916908373ffffffffffffffffffffffffffffffffffffffff1602179055508173ffffffffffffffffffffffffffffffffffffffff168173ffffffffffffffffffffffffffffffffffffffff167f8be0079c531659141344cd1fd0a4f28419497f9722a3daafe3b4186f6b6457e060405160405180910390a35050565b8173ffffffffffffffffffffffffffffffffffffffff168373ffffffffffffffffffffffffffffffffffffffff16141561217d576040517f08c379a000000000000000000000000000000000000000000000000000000000815260040161217490613a9c565b60405180910390fd5b80601460008573ffffffffffffffffffffffffffffffffffffffff1673ffffffffffffffffffffffffffffffffffffffff16815260200190815260200160002060008473ffffffffffffffffffffffffffffffffffffffff1673ffffffffffffffffffffffffffffffffffffffff16815260200190815260200160002060006101000a81548160ff0219169083151502179055508173ffffffffffffffffffffffffffffffffffffffff168373ffffffffffffffffffffffffffffffffffffffff167f17307eab39ab6107e8899845ad3d59bd9653f200f220920489ca2b5937696c318360405161226e91906128e4565b60405180910390a3505050565b612286848484611c3c565b61229284848484612521565b6122d1576040517f08c379a00000000000000000000000000000000000000000000000000000000081526004016122c890613b2e565b60405180910390fd5b50505050565b606060405180602001604052806000815250905090565b6060600060016122fd846126a9565b01905060008167ffffffffffffffff81111561231c5761231b612c11565b5b6040519080825280601f01601f19166020018201604052801561234e5781602001600182028036833780820191505090505b509050600082602001820190505b6001156123bb578080600190039150507f3031323334353637383961626364656600000000000000000000000000000000600a86061a8153600a85816123a5576123a4613b4e565b5b04945060008514156123b6576123bb565b61235c565b819350505050919050565b6000600460009054906101000a900460ff16612417576040517f08c379a000000000000000000000000000000000000000000000000000000000815260040161240e90612ec6565b60405180910390fd5b600360000160009054906101000a900473ffffffffffffffffffffffffffffffffffffffff16905090565b73__Immutable_____________________________634135c1446003836040518363ffffffff1660e01b815260040161247c929190613b93565b60006040518083038186803b15801561249457600080fd5b505af41580156124a8573d6000803e3d6000fd5b5050505050565b6124b7611f86565b6001600460006101000a81548160ff021916908315150217905550565b60008073ffffffffffffffffffffffffffffffffffffffff166124f68361200d565b73ffffffffffffffffffffffffffffffffffffffff1614159050919050565b50505050565b50505050565b60006125428473ffffffffffffffffffffffffffffffffffffffff16611a0e565b1561269c578373ffffffffffffffffffffffffffffffffffffffff1663150b7a0261256b611ae6565b8786866040518563ffffffff1660e01b815260040161258d9493929190613c11565b6020604051808303816000875af19250505080156125c957506040513d601f19601f820116820180604052508101906125c69190613c72565b60015b61264c573d80600081146125f9576040519150601f19603f3d011682016040523d82523d6000602084013e6125fe565b606091505b50600081511415612644576040517f08c379a000000000000000000000000000000000000000000000000000000000815260040161263b90613b2e565b60405180910390fd5b805181602001fd5b63150b7a0260e01b7bffffffffffffffffffffffffffffffffffffffffffffffffffffffff1916817bffffffffffffffffffffffffffffffffffffffffffffffffffffffff1916149150506126a1565b600190505b949350505050565b600080600090507a184f03e93ff9f4daa797ed6e38ed64bf6a1f0100000000000000008310612707577a184f03e93ff9f4daa797ed6e38ed64bf6a1f01000000000000000083816126fd576126fc613b4e565b5b0492506040810190505b6d04ee2d6d415b85acef81000000008310612744576d04ee2d6d415b85acef8100000000838161273a57612739613b4e565b5b0492506020810190505b662386f26fc10000831061277357662386f26fc10000838161276957612768613b4e565b5b0492506010810190505b6305f5e100831061279c576305f5e100838161279257612791613b4e565b5b0492506008810190505b61271083106127c15761271083816127b7576127b6613b4e565b5b0492506004810190505b606483106127e457606483816127da576127d9613b4e565b5b0492506002810190505b600a83106127f3576001810190505b80915050919050565b6000819050919050565b61280f816127fc565b82525050565b600060208201905061282a6000830184612806565b92915050565b6000604051905090565b600080fd5b600080fd5b60007fffffffff0000000000000000000000000000000000000000000000000000000082169050919050565b61287981612844565b811461288457600080fd5b50565b60008135905061289681612870565b92915050565b6000602082840312156128b2576128b161283a565b5b60006128c084828501612887565b91505092915050565b60008115159050919050565b6128de816128c9565b82525050565b60006020820190506128f960008301846128d5565b92915050565b600081519050919050565b600082825260208201905092915050565b60005b8381101561293957808201518184015260208101905061291e565b83811115612948576000848401525b50505050565b6000601f19601f8301169050919050565b600061296a826128ff565b612974818561290a565b935061298481856020860161291b565b61298d8161294e565b840191505092915050565b600060208201905081810360008301526129b2818461295f565b905092915050565b6129c3816127fc565b81146129ce57600080fd5b50565b6000813590506129e0816129ba565b92915050565b6000602082840312156129fc576129fb61283a565b5b6000612a0a848285016129d1565b91505092915050565b600073ffffffffffffffffffffffffffffffffffffffff82169050919050565b6000612a3e82612a13565b9050919050565b612a4e81612a33565b82525050565b6000602082019050612a696000830184612a45565b92915050565b612a7881612a33565b8114612a8357600080fd5b50565b600081359050612a9581612a6f565b92915050565b60008060408385031215612ab257612ab161283a565b5b6000612ac085828601612a86565b9250506020612ad1858286016129d1565b9150509250929050565b600080600060608486031215612af457612af361283a565b5b6000612b0286828701612a86565b9350506020612b1386828701612a86565b9250506040612b24868287016129d1565b9150509250925092565b600060208284031215612b4457612b4361283a565b5b6000612b5284828501612a86565b91505092915050565b60008060408385031215612b7257612b7161283a565b5b6000612b80858286016129d1565b9250506020612b9185828601612a86565b9150509250929050565b612ba4816128c9565b8114612baf57600080fd5b50565b600081359050612bc181612b9b565b92915050565b60008060408385031215612bde57612bdd61283a565b5b6000612bec85828601612a86565b9250506020612bfd85828601612bb2565b9150509250929050565b600080fd5b600080fd5b7f4e487b7100000000000000000000000000000000000000000000000000000000600052604160045260246000fd5b612c498261294e565b810181811067ffffffffffffffff82111715612c6857612c67612c11565b5b80604052505050565b6000612c7b612830565b9050612c878282612c40565b919050565b600067ffffffffffffffff821115612ca757612ca6612c11565b5b612cb08261294e565b9050602081019050919050565b82818337600083830152505050565b6000612cdf612cda84612c8c565b612c71565b905082815260208101848484011115612cfb57612cfa612c0c565b5b612d06848285612cbd565b509392505050565b600082601f830112612d2357612d22612c07565b5b8135612d33848260208601612ccc565b91505092915050565b60008060008060808587031215612d5657612d5561283a565b5b6000612d6487828801612a86565b9450506020612d7587828801612a86565b9350506040612d86878288016129d1565b925050606085013567ffffffffffffffff811115612da757612da661283f565b5b612db387828801612d0e565b91505092959194509250565b60008060408385031215612dd657612dd561283a565b5b6000612de485828601612a86565b9250506020612df585828601612a86565b9150509250929050565b600080600080600060a08688031215612e1b57612e1a61283a565b5b6000612e29888289016129d1565b9550506020612e3a888289016129d1565b9450506040612e4b88828901612bb2565b9350506060612e5c888289016129d1565b9250506080612e6d88828901612a86565b9150509295509295909350565b7f5348415245303134000000000000000000000000000000000000000000000000600082015250565b6000612eb060088361290a565b9150612ebb82612e7a565b602082019050919050565b60006020820190508181036000830152612edf81612ea3565b9050919050565b7f4e487b7100000000000000000000000000000000000000000000000000000000600052602260045260246000fd5b60006002820490506001821680612f2d57607f821691505b60208210811415612f4157612f40612ee6565b5b50919050565b7f4552433732313a20617070726f76616c20746f2063757272656e74206f776e6560008201527f7200000000000000000000000000000000000000000000000000000000000000602082015250565b6000612fa360218361290a565b9150612fae82612f47565b604082019050919050565b60006020820190508181036000830152612fd281612f96565b9050919050565b7f4552433732313a20617070726f76652063616c6c6572206973206e6f7420746f60008201527f6b656e206f776e6572206f7220617070726f76656420666f7220616c6c000000602082015250565b6000613035603d8361290a565b915061304082612fd9565b604082019050919050565b6000602082019050818103600083015261306481613028565b9050919050565b7f4552433732313a2063616c6c6572206973206e6f7420746f6b656e206f776e6560008201527f72206f7220617070726f76656400000000000000000000000000000000000000602082015250565b60006130c7602d8361290a565b91506130d28261306b565b604082019050919050565b600060208201905081810360008301526130f6816130ba565b9050919050565b7f5348415245303139000000000000000000000000000000000000000000000000600082015250565b600061313360088361290a565b915061313e826130fd565b602082019050919050565b6000602082019050818103600083015261316281613126565b9050919050565b8082525050565b613179816127fc565b82525050565b60006040820190506131946000830185613169565b6131a16020830184613170565b9392505050565b7f4552433732313a20696e76616c696420746f6b656e2049440000000000000000600082015250565b60006131de60188361290a565b91506131e9826131a8565b602082019050919050565b6000602082019050818103600083015261320d816131d1565b9050919050565b7f4552433732313a2061646472657373207a65726f206973206e6f74206120766160008201527f6c6964206f776e65720000000000000000000000000000000000000000000000602082015250565b600061327060298361290a565b915061327b82613214565b604082019050919050565b6000602082019050818103600083015261329f81613263565b9050919050565b7f666f726365642072657665727400000000000000000000000000000000000000600082015250565b60006132dc600d8361290a565b91506132e7826132a6565b602082019050919050565b6000602082019050818103600083015261330b816132cf565b9050919050565b600081905092915050565b6000613328826128ff565b6133328185613312565b935061334281856020860161291b565b80840191505092915050565b600061335a828561331d565b9150613366828461331d565b91508190509392505050565b7f5348415245303138000000000000000000000000000000000000000000000000600082015250565b60006133a860088361290a565b91506133b382613372565b602082019050919050565b600060208201905081810360008301526133d78161339b565b9050919050565b7f5348415245303233000000000000000000000000000000000000000000000000600082015250565b600061341460088361290a565b915061341f826133de565b602082019050919050565b6000602082019050818103600083015261344381613407565b9050919050565b7f4e487b7100000000000000000000000000000000000000000000000000000000600052602160045260246000fd5b6004811061348a5761348961344a565b5b50565b600081905061349b82613479565b919050565b60006134ab8261348d565b9050919050565b6134bb816134a0565b82525050565b60006040820190506134d66000830185612a45565b6134e360208301846134b2565b9392505050565b6000815190506134f981612b9b565b92915050565b6000602082840312156135155761351461283a565b5b6000613523848285016134ea565b91505092915050565b7f5348415245303030000000000000000000000000000000000000000000000000600082015250565b600061356260088361290a565b915061356d8261352c565b602082019050919050565b6000602082019050818103600083015261359181613555565b9050919050565b7f5348415245303031000000000000000000000000000000000000000000000000600082015250565b60006135ce60088361290a565b91506135d982613598565b602082019050919050565b600060208201905081810360008301526135fd816135c1565b9050919050565b7f4e487b7100000000000000000000000000000000000000000000000000000000600052601160045260246000fd5b600061363e826127fc565b91507fffffffffffffffffffffffffffffffffffffffffffffffffffffffffffffffff82141561367157613670613604565b5b600182019050919050565b8082525050565b61368c816128c9565b82525050565b60006040820190506136a7600083018561367c565b6136b46020830184613683565b9392505050565b7f5348415245303236000000000000000000000000000000000000000000000000600082015250565b60006136f160088361290a565b91506136fc826136bb565b602082019050919050565b60006020820190508181036000830152613720816136e4565b9050919050565b7f4e487b7100000000000000000000000000000000000000000000000000000000600052603260045260246000fd5b7f5348415245303032000000000000000000000000000000000000000000000000600082015250565b600061378c60088361290a565b915061379782613756565b602082019050919050565b600060208201905081810360008301526137bb8161377f565b9050919050565b7f4f776e61626c653a206e6577206f776e657220697320746865207a65726f206160008201527f6464726573730000000000000000000000000000000000000000000000000000602082015250565b600061381e60268361290a565b9150613829826137c2565b604082019050919050565b6000602082019050818103600083015261384d81613811565b9050919050565b7f4552433732313a207472616e736665722066726f6d20696e636f72726563742060008201527f6f776e6572000000000000000000000000000000000000000000000000000000602082015250565b60006138b060258361290a565b91506138bb82613854565b604082019050919050565b600060208201905081810360008301526138df816138a3565b9050919050565b7f4552433732313a207472616e7366657220746f20746865207a65726f2061646460008201527f7265737300000000000000000000000000000000000000000000000000000000602082015250565b600061394260248361290a565b915061394d826138e6565b604082019050919050565b6000602082019050818103600083015261397181613935565b9050919050565b7f5265656e7472616e637947756172643a207265656e7472616e742063616c6c00600082015250565b60006139ae601f8361290a565b91506139b982613978565b602082019050919050565b600060208201905081810360008301526139dd816139a1565b9050919050565b7f4f776e61626c653a2063616c6c6572206973206e6f7420746865206f776e6572600082015250565b6000613a1a60208361290a565b9150613a25826139e4565b602082019050919050565b60006020820190508181036000830152613a4981613a0d565b9050919050565b7f4552433732313a20617070726f766520746f2063616c6c657200000000000000600082015250565b6000613a8660198361290a565b9150613a9182613a50565b602082019050919050565b60006020820190508181036000830152613ab581613a79565b9050919050565b7f4552433732313a207472616e7366657220746f206e6f6e20455243373231526560008201527f63656976657220696d706c656d656e7465720000000000000000000000000000602082015250565b6000613b1860328361290a565b9150613b2382613abc565b604082019050919050565b60006020820190508181036000830152613b4781613b0b565b9050919050565b7f4e487b7100000000000000000000000000000000000000000000000000000000600052601260045260246000fd5b8082525050565b613b8d81612a33565b82525050565b6000604082019050613ba86000830185613b7d565b613bb56020830184613b84565b9392505050565b600081519050919050565b600082825260208201905092915050565b6000613be382613bbc565b613bed8185613bc7565b9350613bfd81856020860161291b565b613c068161294e565b840191505092915050565b6000608082019050613c266000830187612a45565b613c336020830186612a45565b613c406040830185612806565b8181036060830152613c528184613bd8565b905095945050505050565b600081519050613c6c81612870565b92915050565b600060208284031215613c8857613c8761283a565b5b6000613c9684828501613c5d565b9150509291505056fea264697066735822122060c4cd45600ea3d8417a89e3bf53a7e5250b459aed69726dc1b495d7bd2b000264736f6c634300080b0033",
  "immutableReferences": {},
  "source": "// SPDX-License-Identifier: UNLICENSED\n// \n// \n// \n// \n// \n// \n// \n// https://formless.xyz/opportunities\n//\npragma solidity >=0.8.0 <0.9.0;\n\nimport \"@openzeppelin/contracts/security/ReentrancyGuard.sol\";\nimport \"@openzeppelin/contracts/token/ERC721/ERC721.sol\";\nimport \"..//PFA.sol\";\nimport \"../libraries/CodeVerification.sol\";\nimport \"../libraries/Immutable.sol\";\n\n/// @title Mock PFA contract which unconditionally reverts on access.\n/// For testing purposes only.\n/// @author brandon@formless.xyz\ncontract MockPFARevertsOnAccess is PFA, ERC721 {\n    event PaymentToOwner(address indexed owner, uint256 value);\n    event MockPFARevertsOnAccessCall(\n        uint256 indexed tokenId,\n        address indexed recipient\n    );\n    uint256 private constant UNIT_TOKEN_INDEX = 0;\n\n    constructor()\n        public\n        ERC721(\"SHARE\", \"MOCK_PFA\")\n        LimitedOwnable(\n            true, /* WALLET */\n            true /* SPLIT */\n        )\n    {\n        _safeMint(msg.sender, UNIT_TOKEN_INDEX);\n    }\n\n    function initialize(\n        uint256 pricePerAccess_,\n        uint256 grantTTL_,\n        bool supportsLicensing_,\n        uint256 pricePerLicense_,\n        address shareContractAddress_\n    ) public onlyOwner {\n        Immutable.setUnsignedInt256(_pricePerAccess, pricePerAccess_);\n        Immutable.setUnsignedInt256(_grantTTL, grantTTL_);\n        Immutable.setBoolean(_supportsLicensing, supportsLicensing_);\n        if (!supportsLicensing_) {\n            require(pricePerLicense_ == 0, \"SHARE026\");\n        }\n        Immutable.setUnsignedInt256(_pricePerLicense, pricePerLicense_);\n        setShareContractAddress(shareContractAddress_);\n        setInitialized();\n    }\n\n    function access(uint256 tokenId_, address recipient_)\n        public\n        override\n        payable\n        afterInit\n    {\n        emit MockPFARevertsOnAccessCall(tokenId_, recipient_);\n        revert(\"forced revert\");\n    }\n}\n",
  "sourcePath": "/Users/xiang2011w/Desktop/formless/smartContractGithub/share-v1-core/contracts/mocks/MockPFARevertsOnAccess.sol",
  "compiler": {
    "name": "solc",
    "version": "0.8.11+commit.d7f03943.Emscripten.clang"
  },
  "schemaVersion": "3.4.16",
  "updatedAt": "2024-06-24T20:41:54.228Z",
  "devdoc": {
    "author": "brandon@formless.xyz",
    "kind": "dev",
    "methods": {
      "approve(address,uint256)": {
        "details": "See {IERC721-approve}."
      },
      "balanceOf(address)": {
        "details": "See {IERC721-balanceOf}."
      },
      "getApproved(uint256)": {
        "details": "See {IERC721-getApproved}."
      },
      "isApprovedForAll(address,address)": {
        "details": "See {IERC721-isApprovedForAll}."
      },
      "license(address)": {
        "details": "Proof of inclusion is in the form of source code verification of the licensee, as well as the assertion of immutable state of the licensee contract payout distribution table. Immutable state is verified using knowledge of the keccak256 hash of the runtime bytecode of the source code for approved licensees which implement a write-once distribution address table."
      },
      "name()": {
        "details": "See {IERC721Metadata-name}."
      },
      "owner()": {
        "details": "Returns the address of the current owner."
      },
      "ownerOf(uint256)": {
        "details": "See {IERC721-ownerOf}."
      },
      "renounceOwnership()": {
        "details": "Leaves the contract without owner. It will not be possible to call `onlyOwner` functions. Can only be called by the current owner. NOTE: Renouncing ownership will leave the contract without an owner, thereby disabling any functionality that is only available to the owner."
      },
      "safeTransferFrom(address,address,uint256)": {
        "details": "See {IERC721-safeTransferFrom}."
      },
      "safeTransferFrom(address,address,uint256,bytes)": {
        "details": "See {IERC721-safeTransferFrom}."
      },
      "setApprovalForAll(address,bool)": {
        "details": "See {IERC721-setApprovalForAll}."
      },
      "supportsInterface(bytes4)": {
        "details": "See {IERC165-supportsInterface}."
      },
      "symbol()": {
        "details": "See {IERC721Metadata-symbol}."
      },
      "tokenURI(uint256)": {
        "details": "See {IERC721Metadata-tokenURI}."
      },
      "transferFrom(address,address,uint256)": {
        "details": "See {IERC721-transferFrom}."
      }
    },
    "title": "Mock PFA contract which unconditionally reverts on access. For testing purposes only.",
    "version": 1
  },
  "userdoc": {
    "events": {
      "Grant(address,uint256)": {
        "notice": "Emitted when a successful access grant is awarded to a recipient address."
      },
      "License(address)": {
        "notice": "Emitted when a successful license grant is awarded to a recipient (licensee) address."
      }
    },
    "kind": "user",
    "methods": {
      "grantTTL()": {
        "notice": "Returns the time-to-live (TTL) in seconds of an awarded access grant for this PFA. Access to the associated content expires at `grant award timestamp + grant TTL`."
      },
      "grantTimestamp(address)": {
        "notice": "Returns the timestamp in seconds of the award of a grant recorded on chain for the access of the content associated with this PFA."
      },
      "initialized()": {
        "notice": "Returns true if and only if the contract has been initialized by invoking the `initialize` function."
      },
      "license(address)": {
        "notice": "If called with a `recipient` (licensee) contract which has proof of inclusion of this PFA (licensor) address in its payout distribution table, records a license timestamp on chain which is read by decentralized distribution network (DDN) microservices to decrypt and serve the associated content for the tokenURI to users who have paid to access the licensee contract."
      },
      "licenseTimestamp(address)": {
        "notice": "Returns the timestamp in seconds of the award of a grant recorded on chain for the licensing of the content associated with this PFA."
      },
      "pricePerAccess()": {
        "notice": "Returns non-zero value if this asset requires payment for access. Zero otherwise."
      },
      "pricePerLicense()": {
        "notice": "Returns non-zero value if this asset requires payment for licensing. Zero otherwise. This value is immutable after contract initialization."
      },
      "setPricePerAccess(uint256)": {
        "notice": "Sets the price per access in wei for content backed by this contract."
      },
      "supportsLicensing()": {
        "notice": "Returns true if this PFA supports licensing, where licensing is the ability for a separate contract to forward payment to this PFA in exchange for the ability to perpetually serve the underlying content on its behalf. For example, licensing may be used to achieve transaction gated playlisting of a collection of PFAs."
      },
      "transferOwnership(address)": {
        "notice": "Transfers ownership of the contract to `newOwner` if and only if `newOwner` satisfies the limited ownership requirements established in the constructor, otherwise, reverts the transaction."
      }
    },
    "version": 1
  }
}