{
  "contractName": "MockImmutable",
  "abi": [
    {
      "inputs": [],
      "name": "_mockAddress",
      "outputs": [
        {
          "internalType": "address",
          "name": "value",
          "type": "address"
        },
        {
          "internalType": "bool",
          "name": "locked",
          "type": "bool"
        }
      ],
      "stateMutability": "view",
      "type": "function"
    },
    {
      "inputs": [],
      "name": "_mockAddressArray",
      "outputs": [
        {
          "internalType": "bool",
          "name": "locked",
          "type": "bool"
        }
      ],
      "stateMutability": "view",
      "type": "function"
    },
    {
      "inputs": [],
      "name": "_mockAddressToBooleanMap",
      "outputs": [
        {
          "internalType": "bool",
          "name": "locked",
          "type": "bool"
        }
      ],
      "stateMutability": "view",
      "type": "function"
    },
    {
      "inputs": [],
      "name": "_mockBoolean",
      "outputs": [
        {
          "internalType": "bool",
          "name": "value",
          "type": "bool"
        },
        {
          "internalType": "bool",
          "name": "locked",
          "type": "bool"
        }
      ],
      "stateMutability": "view",
      "type": "function"
    },
    {
      "inputs": [],
      "name": "_mockUnsignedInt256",
      "outputs": [
        {
          "internalType": "uint256",
          "name": "value",
          "type": "uint256"
        },
        {
          "internalType": "bool",
          "name": "locked",
          "type": "bool"
        }
      ],
      "stateMutability": "view",
      "type": "function"
    },
    {
      "inputs": [
        {
          "internalType": "uint256",
          "name": "value",
          "type": "uint256"
        }
      ],
      "name": "setMockUnsignedInt256",
      "outputs": [],
      "stateMutability": "nonpayable",
      "type": "function"
    },
    {
      "inputs": [],
      "name": "getMockUnsignedInt256",
      "outputs": [
        {
          "internalType": "uint256",
          "name": "",
          "type": "uint256"
        }
      ],
      "stateMutability": "view",
      "type": "function"
    },
    {
      "inputs": [
        {
          "internalType": "address",
          "name": "value",
          "type": "address"
        }
      ],
      "name": "setMockAddress",
      "outputs": [],
      "stateMutability": "nonpayable",
      "type": "function"
    },
    {
      "inputs": [],
      "name": "getMockAddress",
      "outputs": [
        {
          "internalType": "address",
          "name": "",
          "type": "address"
        }
      ],
      "stateMutability": "view",
      "type": "function"
    },
    {
      "inputs": [
        {
          "internalType": "bool",
          "name": "value",
          "type": "bool"
        }
      ],
      "name": "setMockBoolean",
      "outputs": [],
      "stateMutability": "nonpayable",
      "type": "function"
    },
    {
      "inputs": [],
      "name": "getMockBoolean",
      "outputs": [
        {
          "internalType": "bool",
          "name": "",
          "type": "bool"
        }
      ],
      "stateMutability": "view",
      "type": "function"
    },
    {
      "inputs": [
        {
          "internalType": "address",
          "name": "value",
          "type": "address"
        }
      ],
      "name": "pushToMockAddressArray",
      "outputs": [],
      "stateMutability": "nonpayable",
      "type": "function"
    },
    {
      "inputs": [],
      "name": "getMockAddressArray",
      "outputs": [
        {
          "internalType": "address[]",
          "name": "",
          "type": "address[]"
        }
      ],
      "stateMutability": "view",
      "type": "function"
    },
    {
      "inputs": [],
      "name": "lockMockAddressArray",
      "outputs": [],
      "stateMutability": "nonpayable",
      "type": "function"
    },
    {
      "inputs": [
        {
          "internalType": "address",
          "name": "address_",
          "type": "address"
        },
        {
          "internalType": "bool",
          "name": "value",
          "type": "bool"
        }
      ],
      "name": "insertIntoMockAddressToBooleanMap",
      "outputs": [],
      "stateMutability": "nonpayable",
      "type": "function"
    },
    {
      "inputs": [
        {
          "internalType": "address",
          "name": "address_",
          "type": "address"
        }
      ],
      "name": "getMockAddressToBooeanMapValue",
      "outputs": [
        {
          "internalType": "bool",
          "name": "",
          "type": "bool"
        }
      ],
      "stateMutability": "view",
      "type": "function"
    },
    {
      "inputs": [],
      "name": "lockMockAddressToBooleanMap",
      "outputs": [],
      "stateMutability": "nonpayable",
      "type": "function"
    }
  ],
  "bytecode": "0x608060405234801561001057600080fd5b50610c20806100206000396000f3fe608060405234801561001057600080fd5b506004361061010b5760003560e01c8063752d6542116100a2578063c113084f11610071578063c113084f1461026f578063c8b1007d1461028e578063dd4e83f514610298578063df474415146102b7578063fcefbc59146102d55761010b565b8063752d6542146101fa57806380c407e61461021657806380ce40f314610232578063b733f55f146102515761010b565b8063359c99ea116100de578063359c99ea1461019657806359f217d7146101b45780636bd35fdb146101d2578063704b0fcf146101f05761010b565b8063122a47c21461011057806315a2a1eb1461012e5780631b16b4fd1461015e57806325a386691461017a575b600080fd5b6101186102f1565b6040516101259190610769565b60405180910390f35b610148600480360381019061014391906107e7565b61030a565b6040516101559190610769565b60405180910390f35b6101786004803603810190610173919061084a565b610363565b005b610194600480360381019061018f91906108a3565b6103d0565b005b61019e61043d565b6040516101ab9190610769565b60405180910390f35b6101bc610457565b6040516101c991906108df565b60405180910390f35b6101da610463565b6040516101e79190610769565b60405180910390f35b6101f861047c565b005b610214600480360381019061020f91906107e7565b61049c565b005b610230600480360381019061022b91906107e7565b610509565b005b61023a610576565b6040516102489291906108fa565b60405180910390f35b6102596105a2565b6040516102669190610932565b60405180910390f35b6102776105cf565b60405161028592919061094d565b60405180910390f35b6102966105ee565b005b6102a061060e565b6040516102ae929190610976565b60405180910390f35b6102bf61064d565b6040516102cc9190610a5d565b60405180910390f35b6102ef60048036038101906102ea9190610a7f565b6106de565b005b60048060010160009054906101000a900460ff16905081565b6000600660000160008373ffffffffffffffffffffffffffffffffffffffff1673ffffffffffffffffffffffffffffffffffffffff16815260200190815260200160002060009054906101000a900460ff169050919050565b73__Immutable_____________________________63e9e3a8dd6000836040518363ffffffff1660e01b815260040161039d929190610ad5565b60006040518083038186803b1580156103b557600080fd5b505af41580156103c9573d6000803e3d6000fd5b5050505050565b73__Immutable_____________________________638213580d6003836040518363ffffffff1660e01b815260040161040a929190610b14565b60006040518083038186803b15801561042257600080fd5b505af4158015610436573d6000803e3d6000fd5b5050505050565b6000600360000160009054906101000a900460ff16905090565b60008060000154905090565b60068060010160009054906101000a900460ff16905081565b6001600660010160006101000a81548160ff021916908315150217905550565b73__Immutable_____________________________634135c1446002836040518363ffffffff1660e01b81526004016104d6929190610b53565b60006040518083038186803b1580156104ee57600080fd5b505af4158015610502573d6000803e3d6000fd5b5050505050565b73__Immutable_____________________________63febf70aa6004836040518363ffffffff1660e01b8152600401610543929190610b83565b60006040518083038186803b15801561055b57600080fd5b505af415801561056f573d6000803e3d6000fd5b5050505050565b60038060000160009054906101000a900460ff16908060000160019054906101000a900460ff16905082565b6000600260000160009054906101000a900473ffffffffffffffffffffffffffffffffffffffff16905090565b60008060000154908060010160009054906101000a900460ff16905082565b6001600460010160006101000a81548160ff021916908315150217905550565b60028060000160009054906101000a900473ffffffffffffffffffffffffffffffffffffffff16908060000160149054906101000a900460ff16905082565b606060046000018054806020026020016040519081016040528092919081815260200182805480156106d457602002820191906000526020600020905b8160009054906101000a900473ffffffffffffffffffffffffffffffffffffffff1673ffffffffffffffffffffffffffffffffffffffff168152602001906001019080831161068a575b5050505050905090565b73__Immutable_____________________________63f00ca5af600684846040518463ffffffff1660e01b815260040161071a93929190610bb3565b60006040518083038186803b15801561073257600080fd5b505af4158015610746573d6000803e3d6000fd5b505050505050565b60008115159050919050565b6107638161074e565b82525050565b600060208201905061077e600083018461075a565b92915050565b600080fd5b600073ffffffffffffffffffffffffffffffffffffffff82169050919050565b60006107b482610789565b9050919050565b6107c4816107a9565b81146107cf57600080fd5b50565b6000813590506107e1816107bb565b92915050565b6000602082840312156107fd576107fc610784565b5b600061080b848285016107d2565b91505092915050565b6000819050919050565b61082781610814565b811461083257600080fd5b50565b6000813590506108448161081e565b92915050565b6000602082840312156108605761085f610784565b5b600061086e84828501610835565b91505092915050565b6108808161074e565b811461088b57600080fd5b50565b60008135905061089d81610877565b92915050565b6000602082840312156108b9576108b8610784565b5b60006108c78482850161088e565b91505092915050565b6108d981610814565b82525050565b60006020820190506108f460008301846108d0565b92915050565b600060408201905061090f600083018561075a565b61091c602083018461075a565b9392505050565b61092c816107a9565b82525050565b60006020820190506109476000830184610923565b92915050565b600060408201905061096260008301856108d0565b61096f602083018461075a565b9392505050565b600060408201905061098b6000830185610923565b610998602083018461075a565b9392505050565b600081519050919050565b600082825260208201905092915050565b6000819050602082019050919050565b6109d4816107a9565b82525050565b60006109e683836109cb565b60208301905092915050565b6000602082019050919050565b6000610a0a8261099f565b610a1481856109aa565b9350610a1f836109bb565b8060005b83811015610a50578151610a3788826109da565b9750610a42836109f2565b925050600181019050610a23565b5085935050505092915050565b60006020820190508181036000830152610a7781846109ff565b905092915050565b60008060408385031215610a9657610a95610784565b5b6000610aa4858286016107d2565b9250506020610ab58582860161088e565b9150509250929050565b8082525050565b610acf81610814565b82525050565b6000604082019050610aea6000830185610abf565b610af76020830184610ac6565b9392505050565b8082525050565b610b0e8161074e565b82525050565b6000604082019050610b296000830185610afe565b610b366020830184610b05565b9392505050565b8082525050565b610b4d816107a9565b82525050565b6000604082019050610b686000830185610b3d565b610b756020830184610b44565b9392505050565b8082525050565b6000604082019050610b986000830185610b7c565b610ba56020830184610b44565b9392505050565b8082525050565b6000606082019050610bc86000830186610bac565b610bd56020830185610b44565b610be26040830184610b05565b94935050505056fea264697066735822122005451e936fd1bb33416830e7133af6aeaa1fbbb0d3bdd00be37aa1648a98869664736f6c634300080b0033",
  "immutableReferences": {},
  "source": "// SPDX-License-Identifier: UNLICENSED\n// \n// \n// \n// \n// \n// \n// \n// https://formless.xyz/opportunities\n//\npragma solidity >=0.8.0 <0.9.0;\n\nimport \"../libraries/Immutable.sol\";\n\n/// @title Mock contract which links to the Immutable library. For\n/// testing purposes only.\n/// @author brandon@formless.xyz\ncontract MockImmutable {\n    Immutable.UnsignedInt256 public _mockUnsignedInt256;\n    Immutable.Address public _mockAddress;\n    Immutable.Boolean public _mockBoolean;\n    Immutable.AddressArray public _mockAddressArray;\n    Immutable.AddressToBooleanMap public _mockAddressToBooleanMap;\n\n    function setMockUnsignedInt256(uint256 value) public {\n        Immutable.setUnsignedInt256(_mockUnsignedInt256, value);\n    }\n\n    function getMockUnsignedInt256() public view returns (uint256) {\n        return _mockUnsignedInt256.value;\n    }\n\n    function setMockAddress(address value) public {\n        Immutable.setAddress(_mockAddress, value);\n    }\n\n    function getMockAddress() public view returns (address) {\n        return _mockAddress.value;\n    }\n\n    function setMockBoolean(bool value) public {\n        Immutable.setBoolean(_mockBoolean, value);\n    }\n\n    function getMockBoolean() public view returns (bool) {\n        return _mockBoolean.value;\n    }\n\n    function pushToMockAddressArray(address value) public {\n        Immutable.pushAddress(_mockAddressArray, value);\n    }\n\n    function getMockAddressArray() public view returns (address[] memory) {\n        return _mockAddressArray.value;\n    }\n\n    function lockMockAddressArray() public {\n        _mockAddressArray.locked = true;\n    }\n\n    function insertIntoMockAddressToBooleanMap(address address_, bool value)\n        public\n    {\n        Immutable.insertBooleanAtAddress(\n            _mockAddressToBooleanMap,\n            address_,\n            value\n        );\n    }\n\n    function getMockAddressToBooeanMapValue(address address_)\n        public\n        view\n        returns (bool)\n    {\n        return _mockAddressToBooleanMap.value[address_];\n    }\n\n    function lockMockAddressToBooleanMap() public {\n        _mockAddressToBooleanMap.locked = true;\n    }\n}\n",
  "sourcePath": "/Users/xiang2011w/Desktop/formless/smartContractGithub/share-v1-core/contracts/mocks/MockImmutable.sol",
  "compiler": {
    "name": "solc",
    "version": "0.8.11+commit.d7f03943.Emscripten.clang"
  },
  "schemaVersion": "3.4.16",
  "updatedAt": "2024-06-24T20:41:54.225Z",
  "devdoc": {
    "author": "brandon@formless.xyz",
    "kind": "dev",
    "methods": {},
    "title": "Mock contract which links to the Immutable library. For testing purposes only.",
    "version": 1
  },
  "userdoc": {
    "kind": "user",
    "methods": {},
    "version": 1
  }
}