{
  "contractName": "OperatorRegistry",
  "abi": [
    {
      "anonymous": false,
      "inputs": [
        {
          "indexed": true,
          "internalType": "address",
          "name": "previousOwner",
          "type": "address"
        },
        {
          "indexed": true,
          "internalType": "address",
          "name": "newOwner",
          "type": "address"
        }
      ],
      "name": "OwnershipTransferred",
      "type": "event"
    },
    {
      "inputs": [],
      "name": "owner",
      "outputs": [
        {
          "internalType": "address",
          "name": "",
          "type": "address"
        }
      ],
      "stateMutability": "view",
      "type": "function"
    },
    {
      "inputs": [],
      "name": "renounceOwnership",
      "outputs": [],
      "stateMutability": "nonpayable",
      "type": "function"
    },
    {
      "inputs": [
        {
          "internalType": "address",
          "name": "newOwner",
          "type": "address"
        }
      ],
      "name": "transferOwnership",
      "outputs": [],
      "stateMutability": "nonpayable",
      "type": "function"
    },
    {
      "inputs": [
        {
          "internalType": "address[]",
          "name": "shareOperatorsAddresses_",
          "type": "address[]"
        }
      ],
      "name": "initialize",
      "outputs": [],
      "stateMutability": "nonpayable",
      "type": "function"
    },
    {
      "inputs": [
        {
          "internalType": "address",
          "name": "shareOperatorAddress_",
          "type": "address"
        }
      ],
      "name": "addVerifiedOperator",
      "outputs": [],
      "stateMutability": "nonpayable",
      "type": "function"
    },
    {
      "inputs": [
        {
          "internalType": "address",
          "name": "shareOperatorAddress_",
          "type": "address"
        }
      ],
      "name": "removeVerifiedOperator",
      "outputs": [],
      "stateMutability": "nonpayable",
      "type": "function"
    },
    {
      "inputs": [
        {
          "internalType": "uint256",
          "name": "totalFunding_",
          "type": "uint256"
        },
        {
          "internalType": "uint256",
          "name": "fundingPerOperator_",
          "type": "uint256"
        }
      ],
      "name": "fundOperatorAddresses",
      "outputs": [],
      "stateMutability": "payable",
      "type": "function"
    },
    {
      "inputs": [],
      "name": "countOperatorAddresses",
      "outputs": [
        {
          "internalType": "uint256",
          "name": "",
          "type": "uint256"
        }
      ],
      "stateMutability": "view",
      "type": "function"
    },
    {
      "inputs": [
        {
          "internalType": "address",
          "name": "address_",
          "type": "address"
        }
      ],
      "name": "isOperator",
      "outputs": [
        {
          "internalType": "bool",
          "name": "",
          "type": "bool"
        }
      ],
      "stateMutability": "view",
      "type": "function"
    },
    {
      "inputs": [],
      "name": "listOperatorAddresses",
      "outputs": [
        {
          "internalType": "address[]",
          "name": "",
          "type": "address[]"
        }
      ],
      "stateMutability": "view",
      "type": "function"
    }
  ],
  "bytecode": "0x608060405234801561001057600080fd5b5061002d61002261003960201b60201c565b61004160201b60201c565b60018081905550610105565b600033905090565b60008060009054906101000a900473ffffffffffffffffffffffffffffffffffffffff169050816000806101000a81548173ffffffffffffffffffffffffffffffffffffffff021916908373ffffffffffffffffffffffffffffffffffffffff1602179055508173ffffffffffffffffffffffffffffffffffffffff168173ffffffffffffffffffffffffffffffffffffffff167f8be0079c531659141344cd1fd0a4f28419497f9722a3daafe3b4186f6b6457e060405160405180910390a35050565b611294806101146000396000f3fe6080604052600436106100915760003560e01c8063a017e3b311610059578063a017e3b314610169578063a224cee714610194578063e0bb6883146101bd578063ebffbdb6146101d9578063f2fde38b1461020257610091565b8063669984df146100965780636d70f7ae146100c1578063715018a6146100fe5780638da5cb5b146101155780638df3b02214610140575b600080fd5b3480156100a257600080fd5b506100ab61022b565b6040516100b89190610b1e565b60405180910390f35b3480156100cd57600080fd5b506100e860048036038101906100e39190610b80565b610251565b6040516100f59190610bc8565b60405180910390f35b34801561010a57600080fd5b5061011361026e565b005b34801561012157600080fd5b5061012a610282565b6040516101379190610bf2565b60405180910390f35b34801561014c57600080fd5b5061016760048036038101906101629190610b80565b6102ab565b005b34801561017557600080fd5b5061017e6102cb565b60405161018b9190610c26565b60405180910390f35b3480156101a057600080fd5b506101bb60048036038101906101b69190610d9a565b6102dc565b005b6101d760048036038101906101d29190610e0f565b610336565b005b3480156101e557600080fd5b5061020060048036038101906101fb9190610b80565b6104c8565b005b34801561020e57600080fd5b5061022960048036038101906102249190610b80565b6104e8565b005b60606000610239600261056c565b905060006102476002610581565b9050809250505090565b60006102678260026105a290919063ffffffff16565b9050919050565b6102766105d2565b6102806000610650565b565b60008060009054906101000a900473ffffffffffffffffffffffffffffffffffffffff16905090565b6102b36105d2565b6102c781600261071490919063ffffffff16565b5050565b60006102d7600261056c565b905090565b6102e46105d2565b60005b81518110156103325761031e82828151811061030657610305610e4f565b5b6020026020010151600261074490919063ffffffff16565b50808061032a90610ead565b9150506102e7565b5050565b61033e6105d2565b610346610774565b813414610388576040517f08c379a000000000000000000000000000000000000000000000000000000000815260040161037f90610f53565b60405180910390fd5b6000610394600261056c565b116103d4576040517f08c379a00000000000000000000000000000000000000000000000000000000081526004016103cb90610fbf565b60405180910390fd5b60005b6103e1600261056c565b8110156104bb5760006103fe8260026107c490919063ffffffff16565b73ffffffffffffffffffffffffffffffffffffffff168360405161042190611010565b60006040518083038185875af1925050503d806000811461045e576040519150601f19603f3d011682016040523d82523d6000602084013e610463565b606091505b50509050806104a7576040517f08c379a000000000000000000000000000000000000000000000000000000000815260040161049e90611071565b60405180910390fd5b5080806104b390610ead565b9150506103d7565b506104c46107de565b5050565b6104d06105d2565b6104e481600261074490919063ffffffff16565b5050565b6104f06105d2565b600073ffffffffffffffffffffffffffffffffffffffff168173ffffffffffffffffffffffffffffffffffffffff161415610560576040517f08c379a000000000000000000000000000000000000000000000000000000000815260040161055790611103565b60405180910390fd5b61056981610650565b50565b600061057a826000016107e7565b9050919050565b60606000610591836000016107f8565b905060608190508092505050919050565b60006105ca836000018373ffffffffffffffffffffffffffffffffffffffff1660001b610854565b905092915050565b6105da610877565b73ffffffffffffffffffffffffffffffffffffffff166105f8610282565b73ffffffffffffffffffffffffffffffffffffffff161461064e576040517f08c379a00000000000000000000000000000000000000000000000000000000081526004016106459061116f565b60405180910390fd5b565b60008060009054906101000a900473ffffffffffffffffffffffffffffffffffffffff169050816000806101000a81548173ffffffffffffffffffffffffffffffffffffffff021916908373ffffffffffffffffffffffffffffffffffffffff1602179055508173ffffffffffffffffffffffffffffffffffffffff168173ffffffffffffffffffffffffffffffffffffffff167f8be0079c531659141344cd1fd0a4f28419497f9722a3daafe3b4186f6b6457e060405160405180910390a35050565b600061073c836000018373ffffffffffffffffffffffffffffffffffffffff1660001b61087f565b905092915050565b600061076c836000018373ffffffffffffffffffffffffffffffffffffffff1660001b610993565b905092915050565b600260015414156107ba576040517f08c379a00000000000000000000000000000000000000000000000000000000081526004016107b1906111db565b60405180910390fd5b6002600181905550565b60006107d38360000183610a03565b60001c905092915050565b60018081905550565b600081600001805490509050919050565b60608160000180548060200260200160405190810160405280929190818152602001828054801561084857602002820191906000526020600020905b815481526020019060010190808311610834575b50505050509050919050565b600080836001016000848152602001908152602001600020541415905092915050565b600033905090565b600080836001016000848152602001908152602001600020549050600081146109875760006001826108b191906111fb565b90506000600186600001805490506108c991906111fb565b90508181146109385760008660000182815481106108ea576108e9610e4f565b5b906000526020600020015490508087600001848154811061090e5761090d610e4f565b5b90600052602060002001819055508387600101600083815260200190815260200160002081905550505b8560000180548061094c5761094b61122f565b5b60019003818190600052602060002001600090559055856001016000868152602001908152602001600020600090556001935050505061098d565b60009150505b92915050565b600061099f8383610854565b6109f85782600001829080600181540180825580915050600190039060005260206000200160009091909190915055826000018054905083600101600084815260200190815260200160002081905550600190506109fd565b600090505b92915050565b6000826000018281548110610a1b57610a1a610e4f565b5b9060005260206000200154905092915050565b600081519050919050565b600082825260208201905092915050565b6000819050602082019050919050565b600073ffffffffffffffffffffffffffffffffffffffff82169050919050565b6000610a8582610a5a565b9050919050565b610a9581610a7a565b82525050565b6000610aa78383610a8c565b60208301905092915050565b6000602082019050919050565b6000610acb82610a2e565b610ad58185610a39565b9350610ae083610a4a565b8060005b83811015610b11578151610af88882610a9b565b9750610b0383610ab3565b925050600181019050610ae4565b5085935050505092915050565b60006020820190508181036000830152610b388184610ac0565b905092915050565b6000604051905090565b600080fd5b600080fd5b610b5d81610a7a565b8114610b6857600080fd5b50565b600081359050610b7a81610b54565b92915050565b600060208284031215610b9657610b95610b4a565b5b6000610ba484828501610b6b565b91505092915050565b60008115159050919050565b610bc281610bad565b82525050565b6000602082019050610bdd6000830184610bb9565b92915050565b610bec81610a7a565b82525050565b6000602082019050610c076000830184610be3565b92915050565b6000819050919050565b610c2081610c0d565b82525050565b6000602082019050610c3b6000830184610c17565b92915050565b600080fd5b6000601f19601f8301169050919050565b7f4e487b7100000000000000000000000000000000000000000000000000000000600052604160045260246000fd5b610c8f82610c46565b810181811067ffffffffffffffff82111715610cae57610cad610c57565b5b80604052505050565b6000610cc1610b40565b9050610ccd8282610c86565b919050565b600067ffffffffffffffff821115610ced57610cec610c57565b5b602082029050602081019050919050565b600080fd5b6000610d16610d1184610cd2565b610cb7565b90508083825260208201905060208402830185811115610d3957610d38610cfe565b5b835b81811015610d625780610d4e8882610b6b565b845260208401935050602081019050610d3b565b5050509392505050565b600082601f830112610d8157610d80610c41565b5b8135610d91848260208601610d03565b91505092915050565b600060208284031215610db057610daf610b4a565b5b600082013567ffffffffffffffff811115610dce57610dcd610b4f565b5b610dda84828501610d6c565b91505092915050565b610dec81610c0d565b8114610df757600080fd5b50565b600081359050610e0981610de3565b92915050565b60008060408385031215610e2657610e25610b4a565b5b6000610e3485828601610dfa565b9250506020610e4585828601610dfa565b9150509250929050565b7f4e487b7100000000000000000000000000000000000000000000000000000000600052603260045260246000fd5b7f4e487b7100000000000000000000000000000000000000000000000000000000600052601160045260246000fd5b6000610eb882610c0d565b91507fffffffffffffffffffffffffffffffffffffffffffffffffffffffffffffffff821415610eeb57610eea610e7e565b5b600182019050919050565b600082825260208201905092915050565b7f5348415245303333000000000000000000000000000000000000000000000000600082015250565b6000610f3d600883610ef6565b9150610f4882610f07565b602082019050919050565b60006020820190508181036000830152610f6c81610f30565b9050919050565b7f5348415245303334000000000000000000000000000000000000000000000000600082015250565b6000610fa9600883610ef6565b9150610fb482610f73565b602082019050919050565b60006020820190508181036000830152610fd881610f9c565b9050919050565b600081905092915050565b50565b6000610ffa600083610fdf565b915061100582610fea565b600082019050919050565b600061101b82610fed565b9150819050919050565b7f5348415245303336000000000000000000000000000000000000000000000000600082015250565b600061105b600883610ef6565b915061106682611025565b602082019050919050565b6000602082019050818103600083015261108a8161104e565b9050919050565b7f4f776e61626c653a206e6577206f776e657220697320746865207a65726f206160008201527f6464726573730000000000000000000000000000000000000000000000000000602082015250565b60006110ed602683610ef6565b91506110f882611091565b604082019050919050565b6000602082019050818103600083015261111c816110e0565b9050919050565b7f4f776e61626c653a2063616c6c6572206973206e6f7420746865206f776e6572600082015250565b6000611159602083610ef6565b915061116482611123565b602082019050919050565b600060208201905081810360008301526111888161114c565b9050919050565b7f5265656e7472616e637947756172643a207265656e7472616e742063616c6c00600082015250565b60006111c5601f83610ef6565b91506111d08261118f565b602082019050919050565b600060208201905081810360008301526111f4816111b8565b9050919050565b600061120682610c0d565b915061121183610c0d565b92508282101561122457611223610e7e565b5b828203905092915050565b7f4e487b7100000000000000000000000000000000000000000000000000000000600052603160045260246000fdfea2646970667358221220ac7724ccc9b8bdfd129082496fd37229055df6cbc86912779e9d674757134b8964736f6c634300080b0033",
  "immutableReferences": {},
  "source": "// SPDX-License-Identifier: UNLICENSED\n// \n// \n// \n// \n// \n// \n// \n// https://formless.xyz/opportunities\n//\npragma solidity >=0.8.0 <0.9.0;\n\nimport \"@openzeppelin/contracts/security/ReentrancyGuard.sol\";\nimport \"@openzeppelin/contracts/utils/structs/EnumerableSet.sol\";\nimport \"@openzeppelin/contracts/access/Ownable.sol\";\n\n/// @title Share Operator Registry contract.\n/// @notice A living canonical registry of all SHARE protocol operator\n/// EOAs (Externally Owned Accounts).\n/// @author john-paul@formless.xyz\ncontract OperatorRegistry is Ownable, ReentrancyGuard {\n    using EnumerableSet for EnumerableSet.AddressSet;\n\n    // Private set of operator addresses\n    EnumerableSet.AddressSet private _operatorAddresses;\n\n    /// @notice Initialize the contract with an initial set of operator addresses.\n    /// @param shareOperatorsAddresses_ array of operator addresses to add to the registry initially\n    function initialize(\n        address[] memory shareOperatorsAddresses_\n    ) public onlyOwner {\n        for (uint256 i = 0; i < shareOperatorsAddresses_.length; i++) {\n            _operatorAddresses.add(shareOperatorsAddresses_[i]);\n        }\n    }\n\n    /// @notice Add a new verified operator to the registry.\n    /// @param shareOperatorAddress_ the address of the operator to add.\n    function addVerifiedOperator(\n        address shareOperatorAddress_\n    ) public onlyOwner {\n        _operatorAddresses.add(shareOperatorAddress_);\n    }\n\n    /// @notice Remove a verified operator from the registry.\n    /// @param shareOperatorAddress_ the address of the operator to remove.\n    function removeVerifiedOperator(\n        address shareOperatorAddress_\n    ) public onlyOwner {\n        _operatorAddresses.remove(shareOperatorAddress_);\n    }\n\n    /// @notice Provide funds to all registered operators. The funds sent with the transaction\n    /// will be evenly distributed amongst all registered operators according to per operator\n    /// amount.\n    /// @param totalFunding_ This is the total ETH sent during the call, that is appropriated\n    /// for funding the operator addresses.\n    /// @param fundingPerOperator_ This is the per operator allocation of funds that is calculated\n    /// off-chain.\n    function fundOperatorAddresses(\n        uint256 totalFunding_,\n        uint256 fundingPerOperator_\n    ) public payable onlyOwner nonReentrant {\n        require(msg.value == totalFunding_, \"SHARE033\");\n        require(_operatorAddresses.length() > 0, \"SHARE034\");\n        for (uint256 i = 0; i < _operatorAddresses.length(); i++) {\n            (bool success, ) = payable(_operatorAddresses.at(i)).call{\n                value: fundingPerOperator_\n            }(\"\");\n            require(success, \"SHARE036\");\n        }\n    }\n\n    function countOperatorAddresses() public view returns (uint256) {\n        return _operatorAddresses.length();\n    }\n\n    /// @notice Check if a given address is a verified operator in the registry.\n    /// @param address_ the address to check.\n    /// @return true if the address is a verified operator, false otherwise.\n    function isOperator(address address_) public view returns (bool) {\n        return _operatorAddresses.contains(address_);\n    }\n\n    /// @notice List all of the operators in the current registry.\n    /// @return array containing the operator addresses.\n    function listOperatorAddresses() public view returns (address[] memory) {\n        uint256 length = _operatorAddresses.length();\n        address[] memory operators = _operatorAddresses.values();\n\n        return operators;\n    }\n}\n",
  "sourcePath": "/Users/xiang2011w/Desktop/formless/smartContractGithub/share-v1-core/contracts/OperatorRegistry.sol",
  "compiler": {
    "name": "solc",
    "version": "0.8.11+commit.d7f03943.Emscripten.clang"
  },
  "schemaVersion": "3.4.16",
  "updatedAt": "2024-06-24T20:41:54.156Z",
  "devdoc": {
    "author": "john-paul@formless.xyz",
    "kind": "dev",
    "methods": {
      "addVerifiedOperator(address)": {
        "params": {
          "shareOperatorAddress_": "the address of the operator to add."
        }
      },
      "fundOperatorAddresses(uint256,uint256)": {
        "params": {
          "fundingPerOperator_": "This is the per operator allocation of funds that is calculated off-chain.",
          "totalFunding_": "This is the total ETH sent during the call, that is appropriated for funding the operator addresses."
        }
      },
      "initialize(address[])": {
        "params": {
          "shareOperatorsAddresses_": "array of operator addresses to add to the registry initially"
        }
      },
      "isOperator(address)": {
        "params": {
          "address_": "the address to check."
        },
        "returns": {
          "_0": "true if the address is a verified operator, false otherwise."
        }
      },
      "listOperatorAddresses()": {
        "returns": {
          "_0": "array containing the operator addresses."
        }
      },
      "owner()": {
        "details": "Returns the address of the current owner."
      },
      "removeVerifiedOperator(address)": {
        "params": {
          "shareOperatorAddress_": "the address of the operator to remove."
        }
      },
      "renounceOwnership()": {
        "details": "Leaves the contract without owner. It will not be possible to call `onlyOwner` functions. Can only be called by the current owner. NOTE: Renouncing ownership will leave the contract without an owner, thereby disabling any functionality that is only available to the owner."
      },
      "transferOwnership(address)": {
        "details": "Transfers ownership of the contract to a new account (`newOwner`). Can only be called by the current owner."
      }
    },
    "title": "Share Operator Registry contract.",
    "version": 1
  },
  "userdoc": {
    "kind": "user",
    "methods": {
      "addVerifiedOperator(address)": {
        "notice": "Add a new verified operator to the registry."
      },
      "fundOperatorAddresses(uint256,uint256)": {
        "notice": "Provide funds to all registered operators. The funds sent with the transaction will be evenly distributed amongst all registered operators according to per operator amount."
      },
      "initialize(address[])": {
        "notice": "Initialize the contract with an initial set of operator addresses."
      },
      "isOperator(address)": {
        "notice": "Check if a given address is a verified operator in the registry."
      },
      "listOperatorAddresses()": {
        "notice": "List all of the operators in the current registry."
      },
      "removeVerifiedOperator(address)": {
        "notice": "Remove a verified operator from the registry."
      }
    },
    "notice": "A living canonical registry of all SHARE protocol operator EOAs (Externally Owned Accounts).",
    "version": 1
  }
}