{
  "contractName": "PFACollection",
  "abi": [
    {
      "inputs": [],
      "stateMutability": "nonpayable",
      "type": "constructor"
    },
    {
      "anonymous": false,
      "inputs": [
        {
          "indexed": true,
          "internalType": "address",
          "name": "owner",
          "type": "address"
        },
        {
          "indexed": true,
          "internalType": "address",
          "name": "approved",
          "type": "address"
        },
        {
          "indexed": true,
          "internalType": "uint256",
          "name": "tokenId",
          "type": "uint256"
        }
      ],
      "name": "Approval",
      "type": "event"
    },
    {
      "anonymous": false,
      "inputs": [
        {
          "indexed": true,
          "internalType": "address",
          "name": "owner",
          "type": "address"
        },
        {
          "indexed": true,
          "internalType": "address",
          "name": "operator",
          "type": "address"
        },
        {
          "indexed": false,
          "internalType": "bool",
          "name": "approved",
          "type": "bool"
        }
      ],
      "name": "ApprovalForAll",
      "type": "event"
    },
    {
      "anonymous": false,
      "inputs": [
        {
          "indexed": true,
          "internalType": "address",
          "name": "recipient",
          "type": "address"
        },
        {
          "indexed": true,
          "internalType": "uint256",
          "name": "tokenId",
          "type": "uint256"
        }
      ],
      "name": "Grant",
      "type": "event"
    },
    {
      "anonymous": false,
      "inputs": [
        {
          "indexed": true,
          "internalType": "address",
          "name": "owner",
          "type": "address"
        },
        {
          "indexed": true,
          "internalType": "address",
          "name": "item",
          "type": "address"
        }
      ],
      "name": "ItemPaymentSkipped",
      "type": "event"
    },
    {
      "anonymous": false,
      "inputs": [
        {
          "indexed": true,
          "internalType": "address",
          "name": "licensee",
          "type": "address"
        }
      ],
      "name": "License",
      "type": "event"
    },
    {
      "anonymous": false,
      "inputs": [
        {
          "indexed": true,
          "internalType": "address",
          "name": "previousOwner",
          "type": "address"
        },
        {
          "indexed": true,
          "internalType": "address",
          "name": "newOwner",
          "type": "address"
        }
      ],
      "name": "OwnershipTransferred",
      "type": "event"
    },
    {
      "anonymous": false,
      "inputs": [
        {
          "indexed": true,
          "internalType": "address",
          "name": "from",
          "type": "address"
        },
        {
          "indexed": true,
          "internalType": "address",
          "name": "recipient",
          "type": "address"
        },
        {
          "indexed": true,
          "internalType": "uint256",
          "name": "addressIndex",
          "type": "uint256"
        },
        {
          "indexed": false,
          "internalType": "uint256",
          "name": "value",
          "type": "uint256"
        }
      ],
      "name": "Payment",
      "type": "event"
    },
    {
      "anonymous": false,
      "inputs": [
        {
          "indexed": true,
          "internalType": "address",
          "name": "from",
          "type": "address"
        },
        {
          "indexed": true,
          "internalType": "address",
          "name": "to",
          "type": "address"
        },
        {
          "indexed": true,
          "internalType": "uint256",
          "name": "tokenId",
          "type": "uint256"
        }
      ],
      "name": "Transfer",
      "type": "event"
    },
    {
      "inputs": [],
      "name": "NAME",
      "outputs": [
        {
          "internalType": "string",
          "name": "",
          "type": "string"
        }
      ],
      "stateMutability": "view",
      "type": "function"
    },
    {
      "inputs": [],
      "name": "SYMBOL",
      "outputs": [
        {
          "internalType": "string",
          "name": "",
          "type": "string"
        }
      ],
      "stateMutability": "view",
      "type": "function"
    },
    {
      "inputs": [],
      "name": "VERSION",
      "outputs": [
        {
          "internalType": "string",
          "name": "",
          "type": "string"
        }
      ],
      "stateMutability": "view",
      "type": "function"
    },
    {
      "inputs": [],
      "name": "_transactionCount",
      "outputs": [
        {
          "internalType": "uint256",
          "name": "",
          "type": "uint256"
        }
      ],
      "stateMutability": "view",
      "type": "function"
    },
    {
      "inputs": [
        {
          "internalType": "address",
          "name": "to",
          "type": "address"
        },
        {
          "internalType": "uint256",
          "name": "tokenId",
          "type": "uint256"
        }
      ],
      "name": "approve",
      "outputs": [],
      "stateMutability": "nonpayable",
      "type": "function"
    },
    {
      "inputs": [
        {
          "internalType": "address",
          "name": "owner",
          "type": "address"
        }
      ],
      "name": "balanceOf",
      "outputs": [
        {
          "internalType": "uint256",
          "name": "",
          "type": "uint256"
        }
      ],
      "stateMutability": "view",
      "type": "function"
    },
    {
      "inputs": [
        {
          "internalType": "uint256",
          "name": "tokenId",
          "type": "uint256"
        }
      ],
      "name": "getApproved",
      "outputs": [
        {
          "internalType": "address",
          "name": "",
          "type": "address"
        }
      ],
      "stateMutability": "view",
      "type": "function"
    },
    {
      "inputs": [],
      "name": "grantTTL",
      "outputs": [
        {
          "internalType": "uint256",
          "name": "",
          "type": "uint256"
        }
      ],
      "stateMutability": "view",
      "type": "function"
    },
    {
      "inputs": [
        {
          "internalType": "address",
          "name": "recipient_",
          "type": "address"
        }
      ],
      "name": "grantTimestamp",
      "outputs": [
        {
          "internalType": "uint256",
          "name": "",
          "type": "uint256"
        }
      ],
      "stateMutability": "view",
      "type": "function"
    },
    {
      "inputs": [],
      "name": "initialized",
      "outputs": [
        {
          "internalType": "bool",
          "name": "",
          "type": "bool"
        }
      ],
      "stateMutability": "view",
      "type": "function"
    },
    {
      "inputs": [
        {
          "internalType": "address",
          "name": "owner",
          "type": "address"
        },
        {
          "internalType": "address",
          "name": "operator",
          "type": "address"
        }
      ],
      "name": "isApprovedForAll",
      "outputs": [
        {
          "internalType": "bool",
          "name": "",
          "type": "bool"
        }
      ],
      "stateMutability": "view",
      "type": "function"
    },
    {
      "inputs": [
        {
          "internalType": "address",
          "name": "recipient_",
          "type": "address"
        }
      ],
      "name": "license",
      "outputs": [],
      "stateMutability": "payable",
      "type": "function"
    },
    {
      "inputs": [
        {
          "internalType": "address",
          "name": "recipient_",
          "type": "address"
        }
      ],
      "name": "licenseTimestamp",
      "outputs": [
        {
          "internalType": "uint256",
          "name": "",
          "type": "uint256"
        }
      ],
      "stateMutability": "view",
      "type": "function"
    },
    {
      "inputs": [],
      "name": "name",
      "outputs": [
        {
          "internalType": "string",
          "name": "",
          "type": "string"
        }
      ],
      "stateMutability": "view",
      "type": "function"
    },
    {
      "inputs": [],
      "name": "owner",
      "outputs": [
        {
          "internalType": "address",
          "name": "",
          "type": "address"
        }
      ],
      "stateMutability": "view",
      "type": "function"
    },
    {
      "inputs": [
        {
          "internalType": "uint256",
          "name": "tokenId",
          "type": "uint256"
        }
      ],
      "name": "ownerOf",
      "outputs": [
        {
          "internalType": "address",
          "name": "",
          "type": "address"
        }
      ],
      "stateMutability": "view",
      "type": "function"
    },
    {
      "inputs": [],
      "name": "pricePerAccess",
      "outputs": [
        {
          "internalType": "uint256",
          "name": "",
          "type": "uint256"
        }
      ],
      "stateMutability": "view",
      "type": "function"
    },
    {
      "inputs": [],
      "name": "pricePerLicense",
      "outputs": [
        {
          "internalType": "uint256",
          "name": "",
          "type": "uint256"
        }
      ],
      "stateMutability": "view",
      "type": "function"
    },
    {
      "inputs": [],
      "name": "renounceOwnership",
      "outputs": [],
      "stateMutability": "nonpayable",
      "type": "function"
    },
    {
      "inputs": [
        {
          "internalType": "address",
          "name": "from",
          "type": "address"
        },
        {
          "internalType": "address",
          "name": "to",
          "type": "address"
        },
        {
          "internalType": "uint256",
          "name": "tokenId",
          "type": "uint256"
        }
      ],
      "name": "safeTransferFrom",
      "outputs": [],
      "stateMutability": "nonpayable",
      "type": "function"
    },
    {
      "inputs": [
        {
          "internalType": "address",
          "name": "from",
          "type": "address"
        },
        {
          "internalType": "address",
          "name": "to",
          "type": "address"
        },
        {
          "internalType": "uint256",
          "name": "tokenId",
          "type": "uint256"
        },
        {
          "internalType": "bytes",
          "name": "data",
          "type": "bytes"
        }
      ],
      "name": "safeTransferFrom",
      "outputs": [],
      "stateMutability": "nonpayable",
      "type": "function"
    },
    {
      "inputs": [
        {
          "internalType": "address",
          "name": "operator",
          "type": "address"
        },
        {
          "internalType": "bool",
          "name": "approved",
          "type": "bool"
        }
      ],
      "name": "setApprovalForAll",
      "outputs": [],
      "stateMutability": "nonpayable",
      "type": "function"
    },
    {
      "inputs": [
        {
          "internalType": "uint256",
          "name": "pricePerAccess_",
          "type": "uint256"
        }
      ],
      "name": "setPricePerAccess",
      "outputs": [],
      "stateMutability": "nonpayable",
      "type": "function"
    },
    {
      "inputs": [
        {
          "internalType": "bytes4",
          "name": "interfaceId",
          "type": "bytes4"
        }
      ],
      "name": "supportsInterface",
      "outputs": [
        {
          "internalType": "bool",
          "name": "",
          "type": "bool"
        }
      ],
      "stateMutability": "view",
      "type": "function"
    },
    {
      "inputs": [],
      "name": "supportsLicensing",
      "outputs": [
        {
          "internalType": "bool",
          "name": "",
          "type": "bool"
        }
      ],
      "stateMutability": "view",
      "type": "function"
    },
    {
      "inputs": [],
      "name": "symbol",
      "outputs": [
        {
          "internalType": "string",
          "name": "",
          "type": "string"
        }
      ],
      "stateMutability": "view",
      "type": "function"
    },
    {
      "inputs": [
        {
          "internalType": "address",
          "name": "from",
          "type": "address"
        },
        {
          "internalType": "address",
          "name": "to",
          "type": "address"
        },
        {
          "internalType": "uint256",
          "name": "tokenId",
          "type": "uint256"
        }
      ],
      "name": "transferFrom",
      "outputs": [],
      "stateMutability": "nonpayable",
      "type": "function"
    },
    {
      "inputs": [
        {
          "internalType": "address",
          "name": "newOwner",
          "type": "address"
        }
      ],
      "name": "transferOwnership",
      "outputs": [],
      "stateMutability": "nonpayable",
      "type": "function"
    },
    {
      "inputs": [
        {
          "internalType": "address[]",
          "name": "addresses_",
          "type": "address[]"
        },
        {
          "internalType": "string",
          "name": "tokenURI_",
          "type": "string"
        },
        {
          "internalType": "uint256",
          "name": "pricePerAccess_",
          "type": "uint256"
        },
        {
          "internalType": "uint256",
          "name": "grantTTL_",
          "type": "uint256"
        },
        {
          "internalType": "bool",
          "name": "supportsLicensing_",
          "type": "bool"
        },
        {
          "internalType": "uint256",
          "name": "pricePerLicense_",
          "type": "uint256"
        },
        {
          "internalType": "address",
          "name": "shareContractAddress_",
          "type": "address"
        }
      ],
      "name": "initialize",
      "outputs": [],
      "stateMutability": "nonpayable",
      "type": "function"
    },
    {
      "inputs": [],
      "name": "addressIndex",
      "outputs": [
        {
          "internalType": "uint256",
          "name": "",
          "type": "uint256"
        }
      ],
      "stateMutability": "view",
      "type": "function"
    },
    {
      "inputs": [
        {
          "internalType": "uint256",
          "name": "tokenId_",
          "type": "uint256"
        },
        {
          "internalType": "address",
          "name": "recipient_",
          "type": "address"
        }
      ],
      "name": "access",
      "outputs": [],
      "stateMutability": "payable",
      "type": "function"
    },
    {
      "inputs": [
        {
          "internalType": "address",
          "name": "account_",
          "type": "address"
        }
      ],
      "name": "contains",
      "outputs": [
        {
          "internalType": "bool",
          "name": "",
          "type": "bool"
        }
      ],
      "stateMutability": "view",
      "type": "function"
    },
    {
      "inputs": [
        {
          "internalType": "uint256",
          "name": "tokenId_",
          "type": "uint256"
        }
      ],
      "name": "tokenURI",
      "outputs": [
        {
          "internalType": "string",
          "name": "",
          "type": "string"
        }
      ],
      "stateMutability": "view",
      "type": "function"
    },
    {
      "inputs": [
        {
          "internalType": "string",
          "name": "tokenURI_",
          "type": "string"
        }
      ],
      "name": "setTokenURI",
      "outputs": [],
      "stateMutability": "nonpayable",
      "type": "function"
    }
  ],
  "bytecode": "0x60806040526000600c5560006019553480156200001b57600080fd5b506040518060400160405280600e81526020017f5046415f434f4c4c454354494f4e0000000000000000000000000000000000008152506040518060400160405280600581526020017f5348415245000000000000000000000000000000000000000000000000000000815250600180620000ab6200009f6200025260201b60201c565b6200025a60201b60201c565b600180819055503373ffffffffffffffffffffffffffffffffffffffff163273ffffffffffffffffffffffffffffffffffffffff161462000123576040517f08c379a00000000000000000000000000000000000000000000000000000000081526004016200011a9062000969565b60405180910390fd5b811562000183576002600090806001815401808255809150506001900390600052602060002090602091828204019190069091909190916101000a81548160ff021916908360038111156200017d576200017c6200098b565b5b02179055505b8015620001e3576002600190806001815401808255809150506001900390600052602060002090602091828204019190069091909190916101000a81548160ff02191690836003811115620001dd57620001dc6200098b565b5b02179055505b62000203620001f76200025260201b60201c565b6200025a60201b60201c565b505081600f90805190602001906200021d92919062000858565b5080601090805190602001906200023692919062000858565b5050506200024c3360006200031e60201b60201c565b62000d87565b600033905090565b60008060009054906101000a900473ffffffffffffffffffffffffffffffffffffffff169050816000806101000a81548173ffffffffffffffffffffffffffffffffffffffff021916908373ffffffffffffffffffffffffffffffffffffffff1602179055508173ffffffffffffffffffffffffffffffffffffffff168173ffffffffffffffffffffffffffffffffffffffff167f8be0079c531659141344cd1fd0a4f28419497f9722a3daafe3b4186f6b6457e060405160405180910390a35050565b620003408282604051806020016040528060008152506200034460201b60201c565b5050565b620003568383620003b260201b60201c565b6200036b6000848484620005f960201b60201c565b620003ad576040517f08c379a0000000000000000000000000000000000000000000000000000000008152600401620003a49062000a30565b60405180910390fd5b505050565b600073ffffffffffffffffffffffffffffffffffffffff168273ffffffffffffffffffffffffffffffffffffffff16141562000425576040517f08c379a00000000000000000000000000000000000000000000000000000000081526004016200041c9062000aa2565b60405180910390fd5b6200043681620007a360201b60201c565b1562000479576040517f08c379a0000000000000000000000000000000000000000000000000000000008152600401620004709062000b14565b60405180910390fd5b6200048f600083836001620007ec60201b60201c565b620004a081620007a360201b60201c565b15620004e3576040517f08c379a0000000000000000000000000000000000000000000000000000000008152600401620004da9062000b14565b60405180910390fd5b6001601260008473ffffffffffffffffffffffffffffffffffffffff1673ffffffffffffffffffffffffffffffffffffffff16815260200190815260200160002060008282540192505081905550816011600083815260200190815260200160002060006101000a81548173ffffffffffffffffffffffffffffffffffffffff021916908373ffffffffffffffffffffffffffffffffffffffff160217905550808273ffffffffffffffffffffffffffffffffffffffff16600073ffffffffffffffffffffffffffffffffffffffff167fddf252ad1be2c89b69c2b068fc378daa952ba7f163c4a11628f55a4df523b3ef60405160405180910390a4620005f5600083836001620007f260201b60201c565b5050565b6000620006278473ffffffffffffffffffffffffffffffffffffffff16620007f860201b620029041760201c565b1562000796578373ffffffffffffffffffffffffffffffffffffffff1663150b7a02620006596200025260201b60201c565b8786866040518563ffffffff1660e01b81526004016200067d949392919062000c3a565b6020604051808303816000875af1925050508015620006bc57506040513d601f19601f82011682018060405250810190620006b9919062000cf0565b60015b62000745573d8060008114620006ef576040519150601f19603f3d011682016040523d82523d6000602084013e620006f4565b606091505b506000815114156200073d576040517f08c379a0000000000000000000000000000000000000000000000000000000008152600401620007349062000a30565b60405180910390fd5b805181602001fd5b63150b7a0260e01b7bffffffffffffffffffffffffffffffffffffffffffffffffffffffff1916817bffffffffffffffffffffffffffffffffffffffffffffffffffffffff1916149150506200079b565b600190505b949350505050565b60008073ffffffffffffffffffffffffffffffffffffffff16620007cd836200081b60201b60201c565b73ffffffffffffffffffffffffffffffffffffffff1614159050919050565b50505050565b50505050565b6000808273ffffffffffffffffffffffffffffffffffffffff163b119050919050565b60006011600083815260200190815260200160002060009054906101000a900473ffffffffffffffffffffffffffffffffffffffff169050919050565b828054620008669062000d51565b90600052602060002090601f0160209004810192826200088a5760008555620008d6565b82601f10620008a557805160ff1916838001178555620008d6565b82800160010185558215620008d6579182015b82811115620008d5578251825591602001919060010190620008b8565b5b509050620008e59190620008e9565b5090565b5b8082111562000904576000816000905550600101620008ea565b5090565b600082825260208201905092915050565b7f5348415245303132000000000000000000000000000000000000000000000000600082015250565b60006200095160088362000908565b91506200095e8262000919565b602082019050919050565b60006020820190508181036000830152620009848162000942565b9050919050565b7f4e487b7100000000000000000000000000000000000000000000000000000000600052602160045260246000fd5b7f4552433732313a207472616e7366657220746f206e6f6e20455243373231526560008201527f63656976657220696d706c656d656e7465720000000000000000000000000000602082015250565b600062000a1860328362000908565b915062000a2582620009ba565b604082019050919050565b6000602082019050818103600083015262000a4b8162000a09565b9050919050565b7f4552433732313a206d696e7420746f20746865207a65726f2061646472657373600082015250565b600062000a8a60208362000908565b915062000a978262000a52565b602082019050919050565b6000602082019050818103600083015262000abd8162000a7b565b9050919050565b7f4552433732313a20746f6b656e20616c7265616479206d696e74656400000000600082015250565b600062000afc601c8362000908565b915062000b098262000ac4565b602082019050919050565b6000602082019050818103600083015262000b2f8162000aed565b9050919050565b600073ffffffffffffffffffffffffffffffffffffffff82169050919050565b600062000b638262000b36565b9050919050565b62000b758162000b56565b82525050565b6000819050919050565b62000b908162000b7b565b82525050565b600081519050919050565b600082825260208201905092915050565b60005b8381101562000bd257808201518184015260208101905062000bb5565b8381111562000be2576000848401525b50505050565b6000601f19601f8301169050919050565b600062000c068262000b96565b62000c12818562000ba1565b935062000c2481856020860162000bb2565b62000c2f8162000be8565b840191505092915050565b600060808201905062000c51600083018762000b6a565b62000c60602083018662000b6a565b62000c6f604083018562000b85565b818103606083015262000c83818462000bf9565b905095945050505050565b600080fd5b60007fffffffff0000000000000000000000000000000000000000000000000000000082169050919050565b62000cca8162000c93565b811462000cd657600080fd5b50565b60008151905062000cea8162000cbf565b92915050565b60006020828403121562000d095762000d0862000c8e565b5b600062000d198482850162000cd9565b91505092915050565b7f4e487b7100000000000000000000000000000000000000000000000000000000600052602260045260246000fd5b6000600282049050600182168062000d6a57607f821691505b6020821081141562000d815762000d8062000d22565b5b50919050565b6151358062000d976000396000f3fe6080604052600436106101f95760003560e01c8063715018a61161010d578063b88d4fde116100a0578063e0df5b6f1161006f578063e0df5b6f1461072d578063e985e9c514610756578063f2fde38b14610793578063f76f8d78146107bc578063ffa1ad74146107e7576101f9565b8063b88d4fde14610680578063c87b56dd146106a9578063ce1ebbf8146106e6578063d6062e4414610711576101f9565b806398a47451116100dc57806398a47451146105c4578063a22cb46514610601578063a3f4df7e1461062a578063a92ddbb314610655576101f9565b8063715018a61461053b5780638da5cb5b1461055257806395d89b411461057d57806395e9463f146105a8576101f9565b806323b872dd116101905780635bc3c82c1161015f5780635bc3c82c1461042e5780635dbe47e8146104595780635ebd1e44146104965780636352211e146104c157806370a08231146104fe576101f9565b806323b872dd146103765780632cc1bd9e1461039f57806342842e0e146103dc5780634d6eeb7614610405576101f9565b8063081812fc116101cc578063081812fc146102bc578063095ea7b3146102f95780630c4a453514610322578063158ef93e1461034b576101f9565b80630122407e146101fe57806301ffc9a71461022957806306df48151461026657806306fdde0314610291575b600080fd5b34801561020a57600080fd5b50610213610812565b604051610220919061356c565b60405180910390f35b34801561023557600080fd5b50610250600480360381019061024b91906135f3565b61086e565b60405161025d919061363b565b60405180910390f35b34801561027257600080fd5b5061027b610950565b604051610288919061356c565b60405180910390f35b34801561029d57600080fd5b506102a6610956565b6040516102b391906136ef565b60405180910390f35b3480156102c857600080fd5b506102e360048036038101906102de919061373d565b6109e8565b6040516102f091906137ab565b60405180910390f35b34801561030557600080fd5b50610320600480360381019061031b91906137f2565b610a2e565b005b34801561032e57600080fd5b5061034960048036038101906103449190613a5b565b610b46565b005b34801561035757600080fd5b506103606111e2565b60405161036d919061363b565b60405180910390f35b34801561038257600080fd5b5061039d60048036038101906103989190613b35565b6111f9565b005b3480156103ab57600080fd5b506103c660048036038101906103c19190613b88565b611259565b6040516103d3919061356c565b60405180910390f35b3480156103e857600080fd5b5061040360048036038101906103fe9190613b35565b6112f1565b005b34801561041157600080fd5b5061042c6004803603810190610427919061373d565b611311565b005b34801561043a57600080fd5b50610443611456565b604051610450919061356c565b60405180910390f35b34801561046557600080fd5b50610480600480360381019061047b9190613b88565b6114b2565b60405161048d919061363b565b60405180910390f35b3480156104a257600080fd5b506104ab61155a565b6040516104b8919061356c565b60405180910390f35b3480156104cd57600080fd5b506104e860048036038101906104e3919061373d565b6115b3565b6040516104f591906137ab565b60405180910390f35b34801561050a57600080fd5b5061052560048036038101906105209190613b88565b61163a565b604051610532919061356c565b60405180910390f35b34801561054757600080fd5b506105506116f2565b005b34801561055e57600080fd5b50610567611706565b60405161057491906137ab565b60405180910390f35b34801561058957600080fd5b5061059261172f565b60405161059f91906136ef565b60405180910390f35b6105c260048036038101906105bd9190613bb5565b6117c1565b005b3480156105d057600080fd5b506105eb60048036038101906105e69190613b88565b611fc8565b6040516105f8919061356c565b60405180910390f35b34801561060d57600080fd5b5061062860048036038101906106239190613bf5565b612060565b005b34801561063657600080fd5b5061063f612076565b60405161064c91906136ef565b60405180910390f35b34801561066157600080fd5b5061066a6120af565b604051610677919061363b565b60405180910390f35b34801561068c57600080fd5b506106a760048036038101906106a29190613cd6565b612118565b005b3480156106b557600080fd5b506106d060048036038101906106cb919061373d565b61217a565b6040516106dd91906136ef565b60405180910390f35b3480156106f257600080fd5b506106fb612251565b604051610708919061356c565b60405180910390f35b61072b60048036038101906107269190613b88565b6122ad565b005b34801561073957600080fd5b50610754600480360381019061074f9190613d59565b6125c9565b005b34801561076257600080fd5b5061077d60048036038101906107789190613da2565b6125fb565b60405161078a919061363b565b60405180910390f35b34801561079f57600080fd5b506107ba60048036038101906107b59190613b88565b61268f565b005b3480156107c857600080fd5b506107d1612892565b6040516107de91906136ef565b60405180910390f35b3480156107f357600080fd5b506107fc6128cb565b60405161080991906136ef565b60405180910390f35b6000600460009054906101000a900460ff16610863576040517f08c379a000000000000000000000000000000000000000000000000000000000815260040161085a90613e2e565b60405180910390fd5b600960000154905090565b60007f80ac58cd000000000000000000000000000000000000000000000000000000007bffffffffffffffffffffffffffffffffffffffffffffffffffffffff1916827bffffffffffffffffffffffffffffffffffffffffffffffffffffffff1916148061093957507f5b5e139f000000000000000000000000000000000000000000000000000000007bffffffffffffffffffffffffffffffffffffffffffffffffffffffff1916827bffffffffffffffffffffffffffffffffffffffffffffffffffffffff1916145b80610949575061094882612927565b5b9050919050565b600c5481565b6060600f805461096590613e7d565b80601f016020809104026020016040519081016040528092919081815260200182805461099190613e7d565b80156109de5780601f106109b3576101008083540402835291602001916109de565b820191906000526020600020905b8154815290600101906020018083116109c157829003601f168201915b5050505050905090565b60006109f382612991565b6013600083815260200190815260200160002060009054906101000a900473ffffffffffffffffffffffffffffffffffffffff169050919050565b6000610a39826115b3565b90508073ffffffffffffffffffffffffffffffffffffffff168373ffffffffffffffffffffffffffffffffffffffff161415610aaa576040517f08c379a0000000000000000000000000000000000000000000000000000000008152600401610aa190613f21565b60405180910390fd5b8073ffffffffffffffffffffffffffffffffffffffff16610ac96129dc565b73ffffffffffffffffffffffffffffffffffffffff161480610af85750610af781610af26129dc565b6125fb565b5b610b37576040517f08c379a0000000000000000000000000000000000000000000000000000000008152600401610b2e90613fb3565b60405180910390fd5b610b4183836129e4565b505050565b610b4e612a9d565b73__Immutable_____________________________63e9e3a8dd6005876040518363ffffffff1660e01b8152600401610b88929190613fe9565b60006040518083038186803b158015610ba057600080fd5b505af4158015610bb4573d6000803e3d6000fd5b5050505073__Immutable_____________________________63e9e3a8dd6009866040518363ffffffff1660e01b8152600401610bf2929190613fe9565b60006040518083038186803b158015610c0a57600080fd5b505af4158015610c1e573d6000803e3d6000fd5b5050505073__Immutable_____________________________638213580d600b856040518363ffffffff1660e01b8152600401610c5c929190614028565b60006040518083038186803b158015610c7457600080fd5b505af4158015610c88573d6000803e3d6000fd5b5050505082610cd55760008214610cd4576040517f08c379a0000000000000000000000000000000000000000000000000000000008152600401610ccb9061409d565b60405180910390fd5b5b73__Immutable_____________________________63e9e3a8dd6007846040518363ffffffff1660e01b8152600401610d0f929190613fe9565b60006040518083038186803b158015610d2757600080fd5b505af4158015610d3b573d6000803e3d6000fd5b5050505085601a9080519060200190610d559291906134b0565b50610d5f81612b1b565b600081905060c8885110610da8576040517f08c379a0000000000000000000000000000000000000000000000000000000008152600401610d9f90614109565b60405180910390fd5b60005b88518110156111b1576000898281518110610dc957610dc8614129565b5b602002602001015190508273ffffffffffffffffffffffffffffffffffffffff16633cef5f768260026040518363ffffffff1660e01b8152600401610e0f9291906141cf565b602060405180830381865afa158015610e2c573d6000803e3d6000fd5b505050506040513d601f19601f82011682018060405250810190610e50919061420d565b610e8f576040517f08c379a0000000000000000000000000000000000000000000000000000000008152600401610e8690614286565b60405180910390fd5b60008190508073ffffffffffffffffffffffffffffffffffffffff16635bc3c82c6040518163ffffffff1660e01b8152600401602060405180830381865afa158015610edf573d6000803e3d6000fd5b505050506040513d601f19601f82011682018060405250810190610f0391906142bb565b891015610f45576040517f08c379a0000000000000000000000000000000000000000000000000000000008152600401610f3c90614334565b60405180910390fd5b8073ffffffffffffffffffffffffffffffffffffffff1663a92ddbb36040518163ffffffff1660e01b8152600401602060405180830381865afa158015610f90573d6000803e3d6000fd5b505050506040513d601f19601f82011682018060405250810190610fb4919061420d565b610ff3576040517f08c379a0000000000000000000000000000000000000000000000000000000008152600401610fea906143a0565b60405180910390fd5b86156110ab578073ffffffffffffffffffffffffffffffffffffffff1663ce1ebbf86040518163ffffffff1660e01b8152600401602060405180830381865afa158015611044573d6000803e3d6000fd5b505050506040513d601f19601f8201168201806040525081019061106891906142bb565b8610156110aa576040517f08c379a00000000000000000000000000000000000000000000000000000000081526004016110a19061440c565b60405180910390fd5b5b73__Immutable_____________________________63febf70aa60158d86815181106110da576110d9614129565b5b60200260200101516040518363ffffffff1660e01b81526004016110ff929190614442565b60006040518083038186803b15801561111757600080fd5b505af415801561112b573d6000803e3d6000fd5b5050505073__Immutable_____________________________63f00ca5af60178460016040518463ffffffff1660e01b815260040161116c93929190614472565b60006040518083038186803b15801561118457600080fd5b505af4158015611198573d6000803e3d6000fd5b50505050505080806111a9906144d8565b915050610dab565b506001601560010160006101000a81548160ff0219169083151502179055506111d8612b88565b5050505050505050565b6000600460009054906101000a900460ff16905090565b61120a6112046129dc565b82612bad565b611249576040517f08c379a000000000000000000000000000000000000000000000000000000000815260040161124090614593565b60405180910390fd5b611254838383612c42565b505050565b6000600460009054906101000a900460ff166112aa576040517f08c379a00000000000000000000000000000000000000000000000000000000081526004016112a190613e2e565b60405180910390fd5b600d60008373ffffffffffffffffffffffffffffffffffffffff1673ffffffffffffffffffffffffffffffffffffffff168152602001908152602001600020549050919050565b61130c83838360405180602001604052806000815250612118565b505050565b611319612f3c565b611321612a9d565b600460009054906101000a900460ff16611370576040517f08c379a000000000000000000000000000000000000000000000000000000000815260040161136790613e2e565b60405180910390fd5b600b60000160009054906101000a900460ff16156113c3576040517f08c379a00000000000000000000000000000000000000000000000000000000081526004016113ba906145ff565b60405180910390fd5b6000600560010160006101000a81548160ff02191690831515021790555073__Immutable_____________________________63e9e3a8dd6005836040518363ffffffff1660e01b815260040161141b929190613fe9565b60006040518083038186803b15801561143357600080fd5b505af4158015611447573d6000803e3d6000fd5b50505050611453612f8c565b50565b6000600460009054906101000a900460ff166114a7576040517f08c379a000000000000000000000000000000000000000000000000000000000815260040161149e90613e2e565b60405180910390fd5b600560000154905090565b6000600460009054906101000a900460ff16611503576040517f08c379a00000000000000000000000000000000000000000000000000000000081526004016114fa90613e2e565b60405180910390fd5b601760000160008373ffffffffffffffffffffffffffffffffffffffff1673ffffffffffffffffffffffffffffffffffffffff16815260200190815260200160002060009054906101000a900460ff169050919050565b6000600460009054906101000a900460ff166115ab576040517f08c379a00000000000000000000000000000000000000000000000000000000081526004016115a290613e2e565b60405180910390fd5b601954905090565b6000806115bf83612f95565b9050600073ffffffffffffffffffffffffffffffffffffffff168173ffffffffffffffffffffffffffffffffffffffff161415611631576040517f08c379a00000000000000000000000000000000000000000000000000000000081526004016116289061466b565b60405180910390fd5b80915050919050565b60008073ffffffffffffffffffffffffffffffffffffffff168273ffffffffffffffffffffffffffffffffffffffff1614156116ab576040517f08c379a00000000000000000000000000000000000000000000000000000000081526004016116a2906146fd565b60405180910390fd5b601260008373ffffffffffffffffffffffffffffffffffffffff1673ffffffffffffffffffffffffffffffffffffffff168152602001908152602001600020549050919050565b6116fa612a9d565b6117046000612fd2565b565b60008060009054906101000a900473ffffffffffffffffffffffffffffffffffffffff16905090565b60606010805461173e90613e7d565b80601f016020809104026020016040519081016040528092919081815260200182805461176a90613e7d565b80156117b75780601f1061178c576101008083540402835291602001916117b7565b820191906000526020600020905b81548152906001019060200180831161179a57829003601f168201915b5050505050905090565b6117c9612f3c565b600460009054906101000a900460ff16611818576040517f08c379a000000000000000000000000000000000000000000000000000000000815260040161180f90613e2e565b60405180910390fd5b6000611822613096565b9050600060156000016019548154811061183f5761183e614129565b5b9060005260206000200160009054906101000a900473ffffffffffffffffffffffffffffffffffffffff1690506000819050600061187b611706565b905060008273ffffffffffffffffffffffffffffffffffffffff16638da5cb5b6040518163ffffffff1660e01b8152600401602060405180830381865afa1580156118ca573d6000803e3d6000fd5b505050506040513d601f19601f820116820180604052508101906118ee9190614732565b90506005600001543414611937576040517f08c379a000000000000000000000000000000000000000000000000000000000815260040161192e906147ab565b60405180910390fd5b601560000180549050600160195461194f91906147cb565b6119599190614850565b6019819055508473ffffffffffffffffffffffffffffffffffffffff16633cef5f768260006040518363ffffffff1660e01b815260040161199b9291906141cf565b602060405180830381865afa1580156119b8573d6000803e3d6000fd5b505050506040513d601f19601f820116820180604052508101906119dc919061420d565b80611a6057508473ffffffffffffffffffffffffffffffffffffffff16633cef5f768260016040518363ffffffff1660e01b8152600401611a1e9291906141cf565b602060405180830381865afa158015611a3b573d6000803e3d6000fd5b505050506040513d601f19601f82011682018060405250810190611a5f919061420d565b5b15611f445760008373ffffffffffffffffffffffffffffffffffffffff16635bc3c82c6040518163ffffffff1660e01b8152600401602060405180830381865afa158015611ab2573d6000803e3d6000fd5b505050506040513d601f19601f82011682018060405250810190611ad691906142bb565b905060008473ffffffffffffffffffffffffffffffffffffffff16828a8a604051602401611b05929190614881565b6040516020818303038152906040527f95e9463f000000000000000000000000000000000000000000000000000000007bffffffffffffffffffffffffffffffffffffffffffffffffffffffff19166020820180517bffffffffffffffffffffffffffffffffffffffffffffffffffffffff8381831617835250505050604051611b8f91906148f1565b60006040518083038185875af1925050503d8060008114611bcc576040519150601f19603f3d011682016040523d82523d6000602084013e611bd1565b606091505b505090508015611c48576019548573ffffffffffffffffffffffffffffffffffffffff163373ffffffffffffffffffffffffffffffffffffffff167f10258bfd896826cf69e885380049b1d1be0424a813d5117744373ec9f51bc86c85604051611c3b919061356c565b60405180910390a4611ca3565b8473ffffffffffffffffffffffffffffffffffffffff168373ffffffffffffffffffffffffffffffffffffffff167fafd1e46ef12a052d2bef7ce57dc06c8a335a56a192bdfd4349a55417a8aaa51f60405160405180910390a35b60008473ffffffffffffffffffffffffffffffffffffffff168673ffffffffffffffffffffffffffffffffffffffff16635bc3c82c6040518163ffffffff1660e01b8152600401602060405180830381865afa158015611d07573d6000803e3d6000fd5b505050506040513d601f19601f82011682018060405250810190611d2b91906142bb565b600560000154611d3b9190614908565b604051611d4790614962565b60006040518083038185875af1925050503d8060008114611d84576040519150601f19603f3d011682016040523d82523d6000602084013e611d89565b606091505b5050905080611dcd576040517f08c379a0000000000000000000000000000000000000000000000000000000008152600401611dc4906149c3565b60405180910390fd5b6019548573ffffffffffffffffffffffffffffffffffffffff163373ffffffffffffffffffffffffffffffffffffffff167f10258bfd896826cf69e885380049b1d1be0424a813d5117744373ec9f51bc86c8973ffffffffffffffffffffffffffffffffffffffff16635bc3c82c6040518163ffffffff1660e01b8152600401602060405180830381865afa158015611e6a573d6000803e3d6000fd5b505050506040513d601f19601f82011682018060405250810190611e8e91906142bb565b600560000154611e9e9190614908565b604051611eab919061356c565b60405180910390a442600d60008b73ffffffffffffffffffffffffffffffffffffffff1673ffffffffffffffffffffffffffffffffffffffff1681526020019081526020016000208190555060008973ffffffffffffffffffffffffffffffffffffffff167f939a71706a68cf386c2bf838a39a42d40513dc244377b286608cea04c7ed3ae160405160405180910390a3505050611f9f565b8273ffffffffffffffffffffffffffffffffffffffff168173ffffffffffffffffffffffffffffffffffffffff167fafd1e46ef12a052d2bef7ce57dc06c8a335a56a192bdfd4349a55417a8aaa51f60405160405180910390a35b600c6000815480929190611fb2906144d8565b91905055505050505050611fc4612f8c565b5050565b6000600460009054906101000a900460ff16612019576040517f08c379a000000000000000000000000000000000000000000000000000000000815260040161201090613e2e565b60405180910390fd5b600e60008373ffffffffffffffffffffffffffffffffffffffff1673ffffffffffffffffffffffffffffffffffffffff168152602001908152602001600020549050919050565b61207261206b6129dc565b8383613112565b5050565b6040518060400160405280600e81526020017f5046415f434f4c4c454354494f4e00000000000000000000000000000000000081525081565b6000600460009054906101000a900460ff16612100576040517f08c379a00000000000000000000000000000000000000000000000000000000081526004016120f790613e2e565b60405180910390fd5b600b60000160009054906101000a900460ff16905090565b6121296121236129dc565b83612bad565b612168576040517f08c379a000000000000000000000000000000000000000000000000000000000815260040161215f90614593565b60405180910390fd5b6121748484848461327f565b50505050565b6060600082146121bf576040517f08c379a00000000000000000000000000000000000000000000000000000000081526004016121b690614a2f565b60405180910390fd5b601a80546121cc90613e7d565b80601f01602080910402602001604051908101604052809291908181526020018280546121f890613e7d565b80156122455780601f1061221a57610100808354040283529160200191612245565b820191906000526020600020905b81548152906001019060200180831161222857829003601f168201915b50505050509050919050565b6000600460009054906101000a900460ff166122a2576040517f08c379a000000000000000000000000000000000000000000000000000000000815260040161229990613e2e565b60405180910390fd5b600760000154905090565b6122b5612f3c565b600460009054906101000a900460ff16612304576040517f08c379a00000000000000000000000000000000000000000000000000000000081526004016122fb90613e2e565b60405180910390fd5b600b60000160009054906101000a900460ff16612356576040517f08c379a000000000000000000000000000000000000000000000000000000000815260040161234d90614a9b565b60405180910390fd5b600760000154341461239d576040517f08c379a000000000000000000000000000000000000000000000000000000000815260040161239490614b07565b60405180910390fd5b60006123a7613096565b90508073ffffffffffffffffffffffffffffffffffffffff16633cef5f768360036040518363ffffffff1660e01b81526004016123e59291906141cf565b602060405180830381865afa158015612402573d6000803e3d6000fd5b505050506040513d601f19601f82011682018060405250810190612426919061420d565b612465576040517f08c379a000000000000000000000000000000000000000000000000000000000815260040161245c90614b73565b60405180910390fd5b8173ffffffffffffffffffffffffffffffffffffffff16635dbe47e8306040518263ffffffff1660e01b815260040161249e91906137ab565b602060405180830381865afa1580156124bb573d6000803e3d6000fd5b505050506040513d601f19601f820116820180604052508101906124df919061420d565b61251e576040517f08c379a000000000000000000000000000000000000000000000000000000000815260040161251590614bdf565b60405180910390fd5b42600e60008473ffffffffffffffffffffffffffffffffffffffff1673ffffffffffffffffffffffffffffffffffffffff168152602001908152602001600020819055508173ffffffffffffffffffffffffffffffffffffffff167f92c8946d126a1974fc68523f77c1ad26341fa2bf3adee2484d4188b22d64c34a60405160405180910390a2600c60008154809291906125b8906144d8565b9190505550506125c6612f8c565b50565b6125d1612f3c565b6125d9612a9d565b80601a90805190602001906125ef9291906134b0565b506125f8612f8c565b50565b6000601460008473ffffffffffffffffffffffffffffffffffffffff1673ffffffffffffffffffffffffffffffffffffffff16815260200190815260200160002060008373ffffffffffffffffffffffffffffffffffffffff1673ffffffffffffffffffffffffffffffffffffffff16815260200190815260200160002060009054906101000a900460ff16905092915050565b612697612a9d565b600460009054906101000a900460ff166126e6576040517f08c379a00000000000000000000000000000000000000000000000000000000081526004016126dd90613e2e565b60405180910390fd5b60006126f0613096565b90506000805b6002805490508110156127d3578273ffffffffffffffffffffffffffffffffffffffff16633cef5f76856002848154811061273457612733614129565b5b90600052602060002090602091828204019190069054906101000a900460ff166040518363ffffffff1660e01b81526004016127719291906141cf565b602060405180830381865afa15801561278e573d6000803e3d6000fd5b505050506040513d601f19601f820116820180604052508101906127b2919061420d565b156127c057600191506127d3565b80806127cb906144d8565b9150506126f6565b5080612814576040517f08c379a000000000000000000000000000000000000000000000000000000000815260040161280b90614c4b565b60405180910390fd5b600073ffffffffffffffffffffffffffffffffffffffff168373ffffffffffffffffffffffffffffffffffffffff161415612884576040517f08c379a000000000000000000000000000000000000000000000000000000000815260040161287b90614cdd565b60405180910390fd5b61288d83612fd2565b505050565b6040518060400160405280600581526020017f534841524500000000000000000000000000000000000000000000000000000081525081565b6040518060400160405280600581526020017f312e302e3000000000000000000000000000000000000000000000000000000081525081565b6000808273ffffffffffffffffffffffffffffffffffffffff163b119050919050565b60007f01ffc9a7000000000000000000000000000000000000000000000000000000007bffffffffffffffffffffffffffffffffffffffffffffffffffffffff1916827bffffffffffffffffffffffffffffffffffffffffffffffffffffffff1916149050919050565b61299a816132db565b6129d9576040517f08c379a00000000000000000000000000000000000000000000000000000000081526004016129d09061466b565b60405180910390fd5b50565b600033905090565b816013600083815260200190815260200160002060006101000a81548173ffffffffffffffffffffffffffffffffffffffff021916908373ffffffffffffffffffffffffffffffffffffffff160217905550808273ffffffffffffffffffffffffffffffffffffffff16612a57836115b3565b73ffffffffffffffffffffffffffffffffffffffff167f8c5be1e5ebec7d5bd14f71427d1e84f3dd0314c0f7b2291e5b200ac8c7c3b92560405160405180910390a45050565b612aa56129dc565b73ffffffffffffffffffffffffffffffffffffffff16612ac3611706565b73ffffffffffffffffffffffffffffffffffffffff1614612b19576040517f08c379a0000000000000000000000000000000000000000000000000000000008152600401612b1090614d49565b60405180910390fd5b565b73__Immutable_____________________________634135c1446003836040518363ffffffff1660e01b8152600401612b55929190614d70565b60006040518083038186803b158015612b6d57600080fd5b505af4158015612b81573d6000803e3d6000fd5b5050505050565b612b90612a9d565b6001600460006101000a81548160ff021916908315150217905550565b600080612bb9836115b3565b90508073ffffffffffffffffffffffffffffffffffffffff168473ffffffffffffffffffffffffffffffffffffffff161480612bfb5750612bfa81856125fb565b5b80612c3957508373ffffffffffffffffffffffffffffffffffffffff16612c21846109e8565b73ffffffffffffffffffffffffffffffffffffffff16145b91505092915050565b8273ffffffffffffffffffffffffffffffffffffffff16612c62826115b3565b73ffffffffffffffffffffffffffffffffffffffff1614612cb8576040517f08c379a0000000000000000000000000000000000000000000000000000000008152600401612caf90614e0b565b60405180910390fd5b600073ffffffffffffffffffffffffffffffffffffffff168273ffffffffffffffffffffffffffffffffffffffff161415612d28576040517f08c379a0000000000000000000000000000000000000000000000000000000008152600401612d1f90614e9d565b60405180910390fd5b612d35838383600161331c565b8273ffffffffffffffffffffffffffffffffffffffff16612d55826115b3565b73ffffffffffffffffffffffffffffffffffffffff1614612dab576040517f08c379a0000000000000000000000000000000000000000000000000000000008152600401612da290614e0b565b60405180910390fd5b6013600082815260200190815260200160002060006101000a81549073ffffffffffffffffffffffffffffffffffffffff02191690556001601260008573ffffffffffffffffffffffffffffffffffffffff1673ffffffffffffffffffffffffffffffffffffffff168152602001908152602001600020600082825403925050819055506001601260008473ffffffffffffffffffffffffffffffffffffffff1673ffffffffffffffffffffffffffffffffffffffff16815260200190815260200160002060008282540192505081905550816011600083815260200190815260200160002060006101000a81548173ffffffffffffffffffffffffffffffffffffffff021916908373ffffffffffffffffffffffffffffffffffffffff160217905550808273ffffffffffffffffffffffffffffffffffffffff168473ffffffffffffffffffffffffffffffffffffffff167fddf252ad1be2c89b69c2b068fc378daa952ba7f163c4a11628f55a4df523b3ef60405160405180910390a4612f378383836001613322565b505050565b60026001541415612f82576040517f08c379a0000000000000000000000000000000000000000000000000000000008152600401612f7990614f09565b60405180910390fd5b6002600181905550565b60018081905550565b60006011600083815260200190815260200160002060009054906101000a900473ffffffffffffffffffffffffffffffffffffffff169050919050565b60008060009054906101000a900473ffffffffffffffffffffffffffffffffffffffff169050816000806101000a81548173ffffffffffffffffffffffffffffffffffffffff021916908373ffffffffffffffffffffffffffffffffffffffff1602179055508173ffffffffffffffffffffffffffffffffffffffff168173ffffffffffffffffffffffffffffffffffffffff167f8be0079c531659141344cd1fd0a4f28419497f9722a3daafe3b4186f6b6457e060405160405180910390a35050565b6000600460009054906101000a900460ff166130e7576040517f08c379a00000000000000000000000000000000000000000000000000000000081526004016130de90613e2e565b60405180910390fd5b600360000160009054906101000a900473ffffffffffffffffffffffffffffffffffffffff16905090565b8173ffffffffffffffffffffffffffffffffffffffff168373ffffffffffffffffffffffffffffffffffffffff161415613181576040517f08c379a000000000000000000000000000000000000000000000000000000000815260040161317890614f75565b60405180910390fd5b80601460008573ffffffffffffffffffffffffffffffffffffffff1673ffffffffffffffffffffffffffffffffffffffff16815260200190815260200160002060008473ffffffffffffffffffffffffffffffffffffffff1673ffffffffffffffffffffffffffffffffffffffff16815260200190815260200160002060006101000a81548160ff0219169083151502179055508173ffffffffffffffffffffffffffffffffffffffff168373ffffffffffffffffffffffffffffffffffffffff167f17307eab39ab6107e8899845ad3d59bd9653f200f220920489ca2b5937696c3183604051613272919061363b565b60405180910390a3505050565b61328a848484612c42565b61329684848484613328565b6132d5576040517f08c379a00000000000000000000000000000000000000000000000000000000081526004016132cc90615007565b60405180910390fd5b50505050565b60008073ffffffffffffffffffffffffffffffffffffffff166132fd83612f95565b73ffffffffffffffffffffffffffffffffffffffff1614159050919050565b50505050565b50505050565b60006133498473ffffffffffffffffffffffffffffffffffffffff16612904565b156134a3578373ffffffffffffffffffffffffffffffffffffffff1663150b7a026133726129dc565b8786866040518563ffffffff1660e01b81526004016133949493929190615071565b6020604051808303816000875af19250505080156133d057506040513d601f19601f820116820180604052508101906133cd91906150d2565b60015b613453573d8060008114613400576040519150601f19603f3d011682016040523d82523d6000602084013e613405565b606091505b5060008151141561344b576040517f08c379a000000000000000000000000000000000000000000000000000000000815260040161344290615007565b60405180910390fd5b805181602001fd5b63150b7a0260e01b7bffffffffffffffffffffffffffffffffffffffffffffffffffffffff1916817bffffffffffffffffffffffffffffffffffffffffffffffffffffffff1916149150506134a8565b600190505b949350505050565b8280546134bc90613e7d565b90600052602060002090601f0160209004810192826134de5760008555613525565b82601f106134f757805160ff1916838001178555613525565b82800160010185558215613525579182015b82811115613524578251825591602001919060010190613509565b5b5090506135329190613536565b5090565b5b8082111561354f576000816000905550600101613537565b5090565b6000819050919050565b61356681613553565b82525050565b6000602082019050613581600083018461355d565b92915050565b6000604051905090565b600080fd5b600080fd5b60007fffffffff0000000000000000000000000000000000000000000000000000000082169050919050565b6135d08161359b565b81146135db57600080fd5b50565b6000813590506135ed816135c7565b92915050565b60006020828403121561360957613608613591565b5b6000613617848285016135de565b91505092915050565b60008115159050919050565b61363581613620565b82525050565b6000602082019050613650600083018461362c565b92915050565b600081519050919050565b600082825260208201905092915050565b60005b83811015613690578082015181840152602081019050613675565b8381111561369f576000848401525b50505050565b6000601f19601f8301169050919050565b60006136c182613656565b6136cb8185613661565b93506136db818560208601613672565b6136e4816136a5565b840191505092915050565b6000602082019050818103600083015261370981846136b6565b905092915050565b61371a81613553565b811461372557600080fd5b50565b60008135905061373781613711565b92915050565b60006020828403121561375357613752613591565b5b600061376184828501613728565b91505092915050565b600073ffffffffffffffffffffffffffffffffffffffff82169050919050565b60006137958261376a565b9050919050565b6137a58161378a565b82525050565b60006020820190506137c0600083018461379c565b92915050565b6137cf8161378a565b81146137da57600080fd5b50565b6000813590506137ec816137c6565b92915050565b6000806040838503121561380957613808613591565b5b6000613817858286016137dd565b925050602061382885828601613728565b9150509250929050565b600080fd5b7f4e487b7100000000000000000000000000000000000000000000000000000000600052604160045260246000fd5b61386f826136a5565b810181811067ffffffffffffffff8211171561388e5761388d613837565b5b80604052505050565b60006138a1613587565b90506138ad8282613866565b919050565b600067ffffffffffffffff8211156138cd576138cc613837565b5b602082029050602081019050919050565b600080fd5b60006138f66138f1846138b2565b613897565b90508083825260208201905060208402830185811115613919576139186138de565b5b835b81811015613942578061392e88826137dd565b84526020840193505060208101905061391b565b5050509392505050565b600082601f83011261396157613960613832565b5b81356139718482602086016138e3565b91505092915050565b600080fd5b600067ffffffffffffffff82111561399a57613999613837565b5b6139a3826136a5565b9050602081019050919050565b82818337600083830152505050565b60006139d26139cd8461397f565b613897565b9050828152602081018484840111156139ee576139ed61397a565b5b6139f98482856139b0565b509392505050565b600082601f830112613a1657613a15613832565b5b8135613a268482602086016139bf565b91505092915050565b613a3881613620565b8114613a4357600080fd5b50565b600081359050613a5581613a2f565b92915050565b600080600080600080600060e0888a031215613a7a57613a79613591565b5b600088013567ffffffffffffffff811115613a9857613a97613596565b5b613aa48a828b0161394c565b975050602088013567ffffffffffffffff811115613ac557613ac4613596565b5b613ad18a828b01613a01565b9650506040613ae28a828b01613728565b9550506060613af38a828b01613728565b9450506080613b048a828b01613a46565b93505060a0613b158a828b01613728565b92505060c0613b268a828b016137dd565b91505092959891949750929550565b600080600060608486031215613b4e57613b4d613591565b5b6000613b5c868287016137dd565b9350506020613b6d868287016137dd565b9250506040613b7e86828701613728565b9150509250925092565b600060208284031215613b9e57613b9d613591565b5b6000613bac848285016137dd565b91505092915050565b60008060408385031215613bcc57613bcb613591565b5b6000613bda85828601613728565b9250506020613beb858286016137dd565b9150509250929050565b60008060408385031215613c0c57613c0b613591565b5b6000613c1a858286016137dd565b9250506020613c2b85828601613a46565b9150509250929050565b600067ffffffffffffffff821115613c5057613c4f613837565b5b613c59826136a5565b9050602081019050919050565b6000613c79613c7484613c35565b613897565b905082815260208101848484011115613c9557613c9461397a565b5b613ca08482856139b0565b509392505050565b600082601f830112613cbd57613cbc613832565b5b8135613ccd848260208601613c66565b91505092915050565b60008060008060808587031215613cf057613cef613591565b5b6000613cfe878288016137dd565b9450506020613d0f878288016137dd565b9350506040613d2087828801613728565b925050606085013567ffffffffffffffff811115613d4157613d40613596565b5b613d4d87828801613ca8565b91505092959194509250565b600060208284031215613d6f57613d6e613591565b5b600082013567ffffffffffffffff811115613d8d57613d8c613596565b5b613d9984828501613a01565b91505092915050565b60008060408385031215613db957613db8613591565b5b6000613dc7858286016137dd565b9250506020613dd8858286016137dd565b9150509250929050565b7f5348415245303134000000000000000000000000000000000000000000000000600082015250565b6000613e18600883613661565b9150613e2382613de2565b602082019050919050565b60006020820190508181036000830152613e4781613e0b565b9050919050565b7f4e487b7100000000000000000000000000000000000000000000000000000000600052602260045260246000fd5b60006002820490506001821680613e9557607f821691505b60208210811415613ea957613ea8613e4e565b5b50919050565b7f4552433732313a20617070726f76616c20746f2063757272656e74206f776e6560008201527f7200000000000000000000000000000000000000000000000000000000000000602082015250565b6000613f0b602183613661565b9150613f1682613eaf565b604082019050919050565b60006020820190508181036000830152613f3a81613efe565b9050919050565b7f4552433732313a20617070726f76652063616c6c6572206973206e6f7420746f60008201527f6b656e206f776e6572206f7220617070726f76656420666f7220616c6c000000602082015250565b6000613f9d603d83613661565b9150613fa882613f41565b604082019050919050565b60006020820190508181036000830152613fcc81613f90565b9050919050565b8082525050565b613fe381613553565b82525050565b6000604082019050613ffe6000830185613fd3565b61400b6020830184613fda565b9392505050565b8082525050565b61402281613620565b82525050565b600060408201905061403d6000830185614012565b61404a6020830184614019565b9392505050565b7f5348415245303236000000000000000000000000000000000000000000000000600082015250565b6000614087600883613661565b915061409282614051565b602082019050919050565b600060208201905081810360008301526140b68161407a565b9050919050565b7f5348415245303038000000000000000000000000000000000000000000000000600082015250565b60006140f3600883613661565b91506140fe826140bd565b602082019050919050565b60006020820190508181036000830152614122816140e6565b9050919050565b7f4e487b7100000000000000000000000000000000000000000000000000000000600052603260045260246000fd5b7f4e487b7100000000000000000000000000000000000000000000000000000000600052602160045260246000fd5b6004811061419857614197614158565b5b50565b60008190506141a982614187565b919050565b60006141b98261419b565b9050919050565b6141c9816141ae565b82525050565b60006040820190506141e4600083018561379c565b6141f160208301846141c0565b9392505050565b60008151905061420781613a2f565b92915050565b60006020828403121561422357614222613591565b5b6000614231848285016141f8565b91505092915050565b7f5348415245303039000000000000000000000000000000000000000000000000600082015250565b6000614270600883613661565b915061427b8261423a565b602082019050919050565b6000602082019050818103600083015261429f81614263565b9050919050565b6000815190506142b581613711565b92915050565b6000602082840312156142d1576142d0613591565b5b60006142df848285016142a6565b91505092915050565b7f5348415245303135000000000000000000000000000000000000000000000000600082015250565b600061431e600883613661565b9150614329826142e8565b602082019050919050565b6000602082019050818103600083015261434d81614311565b9050919050565b7f5348415245303232000000000000000000000000000000000000000000000000600082015250565b600061438a600883613661565b915061439582614354565b602082019050919050565b600060208201905081810360008301526143b98161437d565b9050919050565b7f5348415245303237000000000000000000000000000000000000000000000000600082015250565b60006143f6600883613661565b9150614401826143c0565b602082019050919050565b60006020820190508181036000830152614425816143e9565b9050919050565b8082525050565b61443c8161378a565b82525050565b6000604082019050614457600083018561442c565b6144646020830184614433565b9392505050565b8082525050565b6000606082019050614487600083018661446b565b6144946020830185614433565b6144a16040830184614019565b949350505050565b7f4e487b7100000000000000000000000000000000000000000000000000000000600052601160045260246000fd5b60006144e382613553565b91507fffffffffffffffffffffffffffffffffffffffffffffffffffffffffffffffff821415614516576145156144a9565b5b600182019050919050565b7f4552433732313a2063616c6c6572206973206e6f7420746f6b656e206f776e6560008201527f72206f7220617070726f76656400000000000000000000000000000000000000602082015250565b600061457d602d83613661565b915061458882614521565b604082019050919050565b600060208201905081810360008301526145ac81614570565b9050919050565b7f5348415245303139000000000000000000000000000000000000000000000000600082015250565b60006145e9600883613661565b91506145f4826145b3565b602082019050919050565b60006020820190508181036000830152614618816145dc565b9050919050565b7f4552433732313a20696e76616c696420746f6b656e2049440000000000000000600082015250565b6000614655601883613661565b91506146608261461f565b602082019050919050565b6000602082019050818103600083015261468481614648565b9050919050565b7f4552433732313a2061646472657373207a65726f206973206e6f74206120766160008201527f6c6964206f776e65720000000000000000000000000000000000000000000000602082015250565b60006146e7602983613661565b91506146f28261468b565b604082019050919050565b60006020820190508181036000830152614716816146da565b9050919050565b60008151905061472c816137c6565b92915050565b60006020828403121561474857614747613591565b5b60006147568482850161471d565b91505092915050565b7f5348415245303130000000000000000000000000000000000000000000000000600082015250565b6000614795600883613661565b91506147a08261475f565b602082019050919050565b600060208201905081810360008301526147c481614788565b9050919050565b60006147d682613553565b91506147e183613553565b9250827fffffffffffffffffffffffffffffffffffffffffffffffffffffffffffffffff03821115614816576148156144a9565b5b828201905092915050565b7f4e487b7100000000000000000000000000000000000000000000000000000000600052601260045260246000fd5b600061485b82613553565b915061486683613553565b92508261487657614875614821565b5b828206905092915050565b6000604082019050614896600083018561355d565b6148a3602083018461379c565b9392505050565b600081519050919050565b600081905092915050565b60006148cb826148aa565b6148d581856148b5565b93506148e5818560208601613672565b80840191505092915050565b60006148fd82846148c0565b915081905092915050565b600061491382613553565b915061491e83613553565b925082821015614931576149306144a9565b5b828203905092915050565b50565b600061494c6000836148b5565b91506149578261493c565b600082019050919050565b600061496d8261493f565b9150819050919050565b7f5348415245303231000000000000000000000000000000000000000000000000600082015250565b60006149ad600883613661565b91506149b882614977565b602082019050919050565b600060208201905081810360008301526149dc816149a0565b9050919050565b7f5348415245303034000000000000000000000000000000000000000000000000600082015250565b6000614a19600883613661565b9150614a24826149e3565b602082019050919050565b60006020820190508181036000830152614a4881614a0c565b9050919050565b7f5348415245303138000000000000000000000000000000000000000000000000600082015250565b6000614a85600883613661565b9150614a9082614a4f565b602082019050919050565b60006020820190508181036000830152614ab481614a78565b9050919050565b7f5348415245303233000000000000000000000000000000000000000000000000600082015250565b6000614af1600883613661565b9150614afc82614abb565b602082019050919050565b60006020820190508181036000830152614b2081614ae4565b9050919050565b7f5348415245303030000000000000000000000000000000000000000000000000600082015250565b6000614b5d600883613661565b9150614b6882614b27565b602082019050919050565b60006020820190508181036000830152614b8c81614b50565b9050919050565b7f5348415245303031000000000000000000000000000000000000000000000000600082015250565b6000614bc9600883613661565b9150614bd482614b93565b602082019050919050565b60006020820190508181036000830152614bf881614bbc565b9050919050565b7f5348415245303032000000000000000000000000000000000000000000000000600082015250565b6000614c35600883613661565b9150614c4082614bff565b602082019050919050565b60006020820190508181036000830152614c6481614c28565b9050919050565b7f4f776e61626c653a206e6577206f776e657220697320746865207a65726f206160008201527f6464726573730000000000000000000000000000000000000000000000000000602082015250565b6000614cc7602683613661565b9150614cd282614c6b565b604082019050919050565b60006020820190508181036000830152614cf681614cba565b9050919050565b7f4f776e61626c653a2063616c6c6572206973206e6f7420746865206f776e6572600082015250565b6000614d33602083613661565b9150614d3e82614cfd565b602082019050919050565b60006020820190508181036000830152614d6281614d26565b9050919050565b8082525050565b6000604082019050614d856000830185614d69565b614d926020830184614433565b9392505050565b7f4552433732313a207472616e736665722066726f6d20696e636f72726563742060008201527f6f776e6572000000000000000000000000000000000000000000000000000000602082015250565b6000614df5602583613661565b9150614e0082614d99565b604082019050919050565b60006020820190508181036000830152614e2481614de8565b9050919050565b7f4552433732313a207472616e7366657220746f20746865207a65726f2061646460008201527f7265737300000000000000000000000000000000000000000000000000000000602082015250565b6000614e87602483613661565b9150614e9282614e2b565b604082019050919050565b60006020820190508181036000830152614eb681614e7a565b9050919050565b7f5265656e7472616e637947756172643a207265656e7472616e742063616c6c00600082015250565b6000614ef3601f83613661565b9150614efe82614ebd565b602082019050919050565b60006020820190508181036000830152614f2281614ee6565b9050919050565b7f4552433732313a20617070726f766520746f2063616c6c657200000000000000600082015250565b6000614f5f601983613661565b9150614f6a82614f29565b602082019050919050565b60006020820190508181036000830152614f8e81614f52565b9050919050565b7f4552433732313a207472616e7366657220746f206e6f6e20455243373231526560008201527f63656976657220696d706c656d656e7465720000000000000000000000000000602082015250565b6000614ff1603283613661565b9150614ffc82614f95565b604082019050919050565b6000602082019050818103600083015261502081614fe4565b9050919050565b600082825260208201905092915050565b6000615043826148aa565b61504d8185615027565b935061505d818560208601613672565b615066816136a5565b840191505092915050565b6000608082019050615086600083018761379c565b615093602083018661379c565b6150a0604083018561355d565b81810360608301526150b28184615038565b905095945050505050565b6000815190506150cc816135c7565b92915050565b6000602082840312156150e8576150e7613591565b5b60006150f6848285016150bd565b9150509291505056fea2646970667358221220f805b352ace536bd07819437c208e69311fcd6474ee244dd0e1ce8f02adf48bb64736f6c634300080b0033",
  "immutableReferences": {},
  "source": "// SPDX-License-Identifier: UNLICENSED\n// \n// \n// \n// \n// \n// \n// \n// https://formless.xyz/opportunities\n//\npragma solidity >=0.8.0 <0.9.0;\n\nimport \"@openzeppelin/contracts/security/ReentrancyGuard.sol\";\nimport \"./SHARE.sol\";\nimport \"./PFA.sol\";\nimport \"./libraries/CodeVerification.sol\";\nimport \"./libraries/Immutable.sol\";\nimport \"./interfaces/IPFACollection.sol\";\nimport \"@openzeppelin/contracts/token/ERC721/ERC721.sol\";\n\n/// @title Standard pay-for-access (PFA) collection contract.\n/// @author brandon@formless.xyz\n/// @notice This contract can be used to implement PFA contract\n/// playlisting and licensing.\ncontract PFACollection is PFA, IPFACollection, ERC721 {\n    /// @notice Emitted when a payment is sent to a PFA item within\n    /// this collection.\n    event Payment(\n        address indexed from,\n        address indexed recipient,\n        uint256 indexed addressIndex,\n        uint256 value\n    );\n\n    /// @notice Emitted when a payment to a PFA item within this\n    /// collection is skipped. Payment is skipped if and only if\n    /// the `call` on the item PFA results in failure. Rather than\n    /// reverting the transaction, the collection state is updated\n    /// and the event is emitted.\n    /// @dev It is critical that independent of the success of an\n    /// individual PFA payment within this collection that the\n    /// collection counter increment such that a valid state is\n    /// always maintained for the lifetime of the collection.\n    event ItemPaymentSkipped(address indexed owner, address indexed item);\n\n    string public constant NAME = \"PFA_COLLECTION\";\n    string public constant SYMBOL = \"SHARE\";\n    uint256 private constant MAX_SIZE = 200;\n    uint256 private constant UNIT_TOKEN_INDEX = 0;\n\n    Immutable.AddressArray private _addresses;\n    Immutable.AddressToBooleanMap private _addressMap;\n\n    uint256 private _currentAddressIndex = 0;\n    string internal _tokenURI;\n\n    constructor()\n        public\n        ERC721(NAME, SYMBOL)\n        LimitedOwnable(\n            true, /* WALLET */\n            true /* SPLIT */\n        )\n    {\n        _safeMint(msg.sender, UNIT_TOKEN_INDEX);\n    }\n\n    /// @notice Initializes this collection with a set of PFA\n    /// items specified by `addresses_`. The `tokenURI_` is a DDN\n    /// microservice endpoint that returns PFA collection metadata,\n    /// conditionally, based on the presence of a grant or license\n    /// recorded on chain. On access of a collection, the collection\n    /// price per access is sent to the collection owner and the\n    /// remaining value is forwarded to the current child item. On\n    /// each transaction the child item index is incremented such that\n    /// as the number of transactions approaches infinity, revenues\n    /// are proportionally distributed among all items in the\n    /// collection. Collection price per access must be greater than\n    /// or equal to the maximum price per access of any item within\n    /// the collection. If a PFA supports licensing, e.g. it may be\n    /// added to a collection, then the PFAs TTL is upgraded to the\n    /// the grant TTL of the collection.\n    function initialize(\n        address[] memory addresses_,\n        string memory tokenURI_,\n        uint256 pricePerAccess_,\n        uint256 grantTTL_,\n        bool supportsLicensing_,\n        uint256 pricePerLicense_,\n        address shareContractAddress_\n    ) public onlyOwner {\n        Immutable.setUnsignedInt256(_pricePerAccess, pricePerAccess_);\n        Immutable.setUnsignedInt256(_grantTTL, grantTTL_);\n        Immutable.setBoolean(_supportsLicensing, supportsLicensing_);\n        if (!supportsLicensing_) {\n            require(pricePerLicense_ == 0, \"SHARE026\");\n        }\n        Immutable.setUnsignedInt256(_pricePerLicense, pricePerLicense_);\n        _tokenURI = tokenURI_;\n        setShareContractAddress(shareContractAddress_);\n        SHARE protocol = SHARE(shareContractAddress_);\n\n        require(addresses_.length < MAX_SIZE, \"SHARE008\");\n        for (uint256 i = 0; i < addresses_.length; i++) {\n            address itemAddress = addresses_[i];\n            require(\n                protocol.isApprovedBuild(\n                    itemAddress,\n                    CodeVerification.BuildType.PFA_UNIT\n                ),\n                \"SHARE009\"\n            );\n            PFA item = PFA(itemAddress);\n            require(pricePerAccess_ >= item.pricePerAccess(), \"SHARE015\");\n            require(item.supportsLicensing(), \"SHARE022\");\n            // If this collection supports licensing, the price\n            // to sub-license the collection must be greater than or\n            // equal to the maximum price to license any single item\n            // within the collection.\n            if (supportsLicensing_) {\n                require(pricePerLicense_ >= item.pricePerLicense(), \"SHARE027\");\n            }\n            Immutable.pushAddress(_addresses, addresses_[i]);\n            Immutable.insertBooleanAtAddress(_addressMap, itemAddress, true);\n        }\n        _addresses.locked = true;\n        setInitialized();\n    }\n\n    /// @notice Returns the index of the item in the collection which\n    /// is the next item to receive payment on an access of this\n    /// collection.\n    function addressIndex() public view afterInit returns (uint256) {\n        return _currentAddressIndex;\n    }\n\n    /// @notice If called with a value equal to the price per access\n    /// of this contract, records a grant timestamp on chain which is\n    /// read by decentralized distribution network (DDN) microservices\n    /// to decrypt and serve the associated content for the tokenURI.\n    function access(uint256 tokenId_, address recipient_)\n        public\n        override\n        payable\n        nonReentrant\n        afterInit\n    {\n        SHARE protocol = SHARE(shareContractAddress());\n        address itemAddress = _addresses.value[_currentAddressIndex];\n        PFA item = PFA(itemAddress);\n        address owner = owner(); /* collection owner */\n        address itemOwner = item.owner();\n\n        require(msg.value == _pricePerAccess.value, \"SHARE010\");\n\n        _currentAddressIndex =\n            (_currentAddressIndex + 1) %\n            (_addresses.value.length);\n\n        if (\n            protocol.isApprovedBuild(\n                itemOwner,\n                CodeVerification.BuildType.WALLET\n            ) ||\n            protocol.isApprovedBuild(\n                itemOwner,\n                CodeVerification.BuildType.SPLIT\n            )\n        ) {\n            // Pay for item access\n            // We use call with encodeWithSignature here to guarantee\n            // that a revert in the callee does not prevent the\n            // caller state from updating, e.g. the counter\n            // (_currentAddressIndex) _must_ increment in this\n            // transaction.\n            uint256 payment = item.pricePerAccess();\n            (bool itemPaymentSuccess, ) = payable(address(item)).call{\n                value: payment\n            }(\n                abi.encodeWithSignature(\n                    \"access(uint256,address)\",\n                    tokenId_,\n                    recipient_\n                )\n            );\n\n            if (itemPaymentSuccess) {\n                emit Payment(\n                    msg.sender,\n                    address(item),\n                    _currentAddressIndex,\n                    payment\n                );\n            } else {\n                emit ItemPaymentSkipped(itemOwner, address(item));\n            }\n\n            // Pay the collection owner\n            (bool ownerPaymentSuccess, ) = payable(owner).call{\n                value: _pricePerAccess.value - item.pricePerAccess()\n            }(\"\");\n            require(ownerPaymentSuccess, \"SHARE021\");\n\n            emit Payment(\n                msg.sender,\n                owner,\n                _currentAddressIndex,\n                _pricePerAccess.value - item.pricePerAccess()\n            );\n\n            _grantTimestamps[recipient_] = block.timestamp;\n            emit Grant(recipient_, UNIT_TOKEN_INDEX);\n        } else {\n            emit ItemPaymentSkipped(itemOwner, address(item));\n        }\n        _transactionCount++;\n    }\n\n    /// @notice Returns true if `account_` address is included in the\n    /// payout distribution table of the collection.\n    /// @dev Table for storing addresses is write-once (immutable\n    /// post initialization). This means the return value of\n    /// `contains` is stable in perpetuity after the initialization of\n    /// a SHARE PFA collection.\n    function contains(address account_) public view afterInit returns (bool) {\n        return _addressMap.value[account_];\n    }\n\n    /// @notice Returns the token URI (ERC-721) for the asset.\n    /// @dev In SHARE, this URI corresponds to a decentralized\n    /// distribution network (DDN) microservice endpoint which\n    /// conditionally renders token metadata based on contract state.\n    function tokenURI(uint256 tokenId_)\n        public\n        override\n        view\n        returns (string memory)\n    {\n        require(tokenId_ == UNIT_TOKEN_INDEX, \"SHARE004\");\n        return _tokenURI;\n    }\n\n    /// @notice Sets the token URI (ERC-721) for the asset.\n    /// @dev In SHARE, this URI corresponds to a decentralized\n    /// distribution network (DDN) microservice endpoint which\n    /// conditionally renders token metadata based on contract state.\n    function setTokenURI(string memory tokenURI_)\n        public\n        nonReentrant\n        onlyOwner\n    {\n        _tokenURI = tokenURI_;\n    }\n}\n",
  "sourcePath": "/Users/xiang2011w/Desktop/formless/smartContractGithub/share-v1-core/contracts/PFACollection.sol",
  "compiler": {
    "name": "solc",
    "version": "0.8.11+commit.d7f03943.Emscripten.clang"
  },
  "schemaVersion": "3.4.16",
  "updatedAt": "2024-06-24T20:41:54.163Z",
  "devdoc": {
    "author": "brandon@formless.xyz",
    "events": {
      "ItemPaymentSkipped(address,address)": {
        "details": "It is critical that independent of the success of an individual PFA payment within this collection that the collection counter increment such that a valid state is always maintained for the lifetime of the collection."
      }
    },
    "kind": "dev",
    "methods": {
      "approve(address,uint256)": {
        "details": "See {IERC721-approve}."
      },
      "balanceOf(address)": {
        "details": "See {IERC721-balanceOf}."
      },
      "contains(address)": {
        "details": "Table for storing addresses is write-once (immutable post initialization). This means the return value of `contains` is stable in perpetuity after the initialization of a SHARE PFA collection."
      },
      "getApproved(uint256)": {
        "details": "See {IERC721-getApproved}."
      },
      "isApprovedForAll(address,address)": {
        "details": "See {IERC721-isApprovedForAll}."
      },
      "license(address)": {
        "details": "Proof of inclusion is in the form of source code verification of the licensee, as well as the assertion of immutable state of the licensee contract payout distribution table. Immutable state is verified using knowledge of the keccak256 hash of the runtime bytecode of the source code for approved licensees which implement a write-once distribution address table."
      },
      "name()": {
        "details": "See {IERC721Metadata-name}."
      },
      "owner()": {
        "details": "Returns the address of the current owner."
      },
      "ownerOf(uint256)": {
        "details": "See {IERC721-ownerOf}."
      },
      "renounceOwnership()": {
        "details": "Leaves the contract without owner. It will not be possible to call `onlyOwner` functions. Can only be called by the current owner. NOTE: Renouncing ownership will leave the contract without an owner, thereby disabling any functionality that is only available to the owner."
      },
      "safeTransferFrom(address,address,uint256)": {
        "details": "See {IERC721-safeTransferFrom}."
      },
      "safeTransferFrom(address,address,uint256,bytes)": {
        "details": "See {IERC721-safeTransferFrom}."
      },
      "setApprovalForAll(address,bool)": {
        "details": "See {IERC721-setApprovalForAll}."
      },
      "setTokenURI(string)": {
        "details": "In SHARE, this URI corresponds to a decentralized distribution network (DDN) microservice endpoint which conditionally renders token metadata based on contract state."
      },
      "supportsInterface(bytes4)": {
        "details": "See {IERC165-supportsInterface}."
      },
      "symbol()": {
        "details": "See {IERC721Metadata-symbol}."
      },
      "tokenURI(uint256)": {
        "details": "In SHARE, this URI corresponds to a decentralized distribution network (DDN) microservice endpoint which conditionally renders token metadata based on contract state."
      },
      "transferFrom(address,address,uint256)": {
        "details": "See {IERC721-transferFrom}."
      }
    },
    "title": "Standard pay-for-access (PFA) collection contract.",
    "version": 1
  },
  "userdoc": {
    "events": {
      "Grant(address,uint256)": {
        "notice": "Emitted when a successful access grant is awarded to a recipient address."
      },
      "ItemPaymentSkipped(address,address)": {
        "notice": "Emitted when a payment to a PFA item within this collection is skipped. Payment is skipped if and only if the `call` on the item PFA results in failure. Rather than reverting the transaction, the collection state is updated and the event is emitted."
      },
      "License(address)": {
        "notice": "Emitted when a successful license grant is awarded to a recipient (licensee) address."
      },
      "Payment(address,address,uint256,uint256)": {
        "notice": "Emitted when a payment is sent to a PFA item within this collection."
      }
    },
    "kind": "user",
    "methods": {
      "access(uint256,address)": {
        "notice": "If called with a value equal to the price per access of this contract, records a grant timestamp on chain which is read by decentralized distribution network (DDN) microservices to decrypt and serve the associated content for the tokenURI."
      },
      "addressIndex()": {
        "notice": "Returns the index of the item in the collection which is the next item to receive payment on an access of this collection."
      },
      "contains(address)": {
        "notice": "Returns true if `account_` address is included in the payout distribution table of the collection."
      },
      "grantTTL()": {
        "notice": "Returns the time-to-live (TTL) in seconds of an awarded access grant for this PFA. Access to the associated content expires at `grant award timestamp + grant TTL`."
      },
      "grantTimestamp(address)": {
        "notice": "Returns the timestamp in seconds of the award of a grant recorded on chain for the access of the content associated with this PFA."
      },
      "initialize(address[],string,uint256,uint256,bool,uint256,address)": {
        "notice": "Initializes this collection with a set of PFA items specified by `addresses_`. The `tokenURI_` is a DDN microservice endpoint that returns PFA collection metadata, conditionally, based on the presence of a grant or license recorded on chain. On access of a collection, the collection price per access is sent to the collection owner and the remaining value is forwarded to the current child item. On each transaction the child item index is incremented such that as the number of transactions approaches infinity, revenues are proportionally distributed among all items in the collection. Collection price per access must be greater than or equal to the maximum price per access of any item within the collection. If a PFA supports licensing, e.g. it may be added to a collection, then the PFAs TTL is upgraded to the the grant TTL of the collection."
      },
      "initialized()": {
        "notice": "Returns true if and only if the contract has been initialized by invoking the `initialize` function."
      },
      "license(address)": {
        "notice": "If called with a `recipient` (licensee) contract which has proof of inclusion of this PFA (licensor) address in its payout distribution table, records a license timestamp on chain which is read by decentralized distribution network (DDN) microservices to decrypt and serve the associated content for the tokenURI to users who have paid to access the licensee contract."
      },
      "licenseTimestamp(address)": {
        "notice": "Returns the timestamp in seconds of the award of a grant recorded on chain for the licensing of the content associated with this PFA."
      },
      "pricePerAccess()": {
        "notice": "Returns non-zero value if this asset requires payment for access. Zero otherwise."
      },
      "pricePerLicense()": {
        "notice": "Returns non-zero value if this asset requires payment for licensing. Zero otherwise. This value is immutable after contract initialization."
      },
      "setPricePerAccess(uint256)": {
        "notice": "Sets the price per access in wei for content backed by this contract."
      },
      "setTokenURI(string)": {
        "notice": "Sets the token URI (ERC-721) for the asset."
      },
      "supportsLicensing()": {
        "notice": "Returns true if this PFA supports licensing, where licensing is the ability for a separate contract to forward payment to this PFA in exchange for the ability to perpetually serve the underlying content on its behalf. For example, licensing may be used to achieve transaction gated playlisting of a collection of PFAs."
      },
      "tokenURI(uint256)": {
        "notice": "Returns the token URI (ERC-721) for the asset."
      },
      "transferOwnership(address)": {
        "notice": "Transfers ownership of the contract to `newOwner` if and only if `newOwner` satisfies the limited ownership requirements established in the constructor, otherwise, reverts the transaction."
      }
    },
    "notice": "This contract can be used to implement PFA contract playlisting and licensing.",
    "version": 1
  }
}