{
  "contractName": "PFAUnit",
  "abi": [
    {
      "inputs": [],
      "stateMutability": "nonpayable",
      "type": "constructor"
    },
    {
      "anonymous": false,
      "inputs": [
        {
          "indexed": true,
          "internalType": "address",
          "name": "owner",
          "type": "address"
        },
        {
          "indexed": true,
          "internalType": "address",
          "name": "approved",
          "type": "address"
        },
        {
          "indexed": true,
          "internalType": "uint256",
          "name": "tokenId",
          "type": "uint256"
        }
      ],
      "name": "Approval",
      "type": "event"
    },
    {
      "anonymous": false,
      "inputs": [
        {
          "indexed": true,
          "internalType": "address",
          "name": "owner",
          "type": "address"
        },
        {
          "indexed": true,
          "internalType": "address",
          "name": "operator",
          "type": "address"
        },
        {
          "indexed": false,
          "internalType": "bool",
          "name": "approved",
          "type": "bool"
        }
      ],
      "name": "ApprovalForAll",
      "type": "event"
    },
    {
      "anonymous": false,
      "inputs": [
        {
          "indexed": true,
          "internalType": "address",
          "name": "recipient",
          "type": "address"
        },
        {
          "indexed": true,
          "internalType": "uint256",
          "name": "tokenId",
          "type": "uint256"
        }
      ],
      "name": "Grant",
      "type": "event"
    },
    {
      "anonymous": false,
      "inputs": [
        {
          "indexed": true,
          "internalType": "address",
          "name": "licensee",
          "type": "address"
        }
      ],
      "name": "License",
      "type": "event"
    },
    {
      "anonymous": false,
      "inputs": [
        {
          "indexed": true,
          "internalType": "address",
          "name": "previousOwner",
          "type": "address"
        },
        {
          "indexed": true,
          "internalType": "address",
          "name": "newOwner",
          "type": "address"
        }
      ],
      "name": "OwnershipTransferred",
      "type": "event"
    },
    {
      "anonymous": false,
      "inputs": [
        {
          "indexed": true,
          "internalType": "address",
          "name": "owner",
          "type": "address"
        },
        {
          "indexed": false,
          "internalType": "uint256",
          "name": "value",
          "type": "uint256"
        }
      ],
      "name": "PaymentToOwner",
      "type": "event"
    },
    {
      "anonymous": false,
      "inputs": [
        {
          "indexed": true,
          "internalType": "address",
          "name": "from",
          "type": "address"
        },
        {
          "indexed": true,
          "internalType": "address",
          "name": "to",
          "type": "address"
        },
        {
          "indexed": true,
          "internalType": "uint256",
          "name": "tokenId",
          "type": "uint256"
        }
      ],
      "name": "Transfer",
      "type": "event"
    },
    {
      "inputs": [],
      "name": "NAME",
      "outputs": [
        {
          "internalType": "string",
          "name": "",
          "type": "string"
        }
      ],
      "stateMutability": "view",
      "type": "function"
    },
    {
      "inputs": [],
      "name": "SYMBOL",
      "outputs": [
        {
          "internalType": "string",
          "name": "",
          "type": "string"
        }
      ],
      "stateMutability": "view",
      "type": "function"
    },
    {
      "inputs": [],
      "name": "VERSION",
      "outputs": [
        {
          "internalType": "string",
          "name": "",
          "type": "string"
        }
      ],
      "stateMutability": "view",
      "type": "function"
    },
    {
      "inputs": [],
      "name": "_transactionCount",
      "outputs": [
        {
          "internalType": "uint256",
          "name": "",
          "type": "uint256"
        }
      ],
      "stateMutability": "view",
      "type": "function"
    },
    {
      "inputs": [
        {
          "internalType": "address",
          "name": "to",
          "type": "address"
        },
        {
          "internalType": "uint256",
          "name": "tokenId",
          "type": "uint256"
        }
      ],
      "name": "approve",
      "outputs": [],
      "stateMutability": "nonpayable",
      "type": "function"
    },
    {
      "inputs": [
        {
          "internalType": "address",
          "name": "owner",
          "type": "address"
        }
      ],
      "name": "balanceOf",
      "outputs": [
        {
          "internalType": "uint256",
          "name": "",
          "type": "uint256"
        }
      ],
      "stateMutability": "view",
      "type": "function"
    },
    {
      "inputs": [
        {
          "internalType": "uint256",
          "name": "tokenId",
          "type": "uint256"
        }
      ],
      "name": "getApproved",
      "outputs": [
        {
          "internalType": "address",
          "name": "",
          "type": "address"
        }
      ],
      "stateMutability": "view",
      "type": "function"
    },
    {
      "inputs": [],
      "name": "grantTTL",
      "outputs": [
        {
          "internalType": "uint256",
          "name": "",
          "type": "uint256"
        }
      ],
      "stateMutability": "view",
      "type": "function"
    },
    {
      "inputs": [
        {
          "internalType": "address",
          "name": "recipient_",
          "type": "address"
        }
      ],
      "name": "grantTimestamp",
      "outputs": [
        {
          "internalType": "uint256",
          "name": "",
          "type": "uint256"
        }
      ],
      "stateMutability": "view",
      "type": "function"
    },
    {
      "inputs": [],
      "name": "initialized",
      "outputs": [
        {
          "internalType": "bool",
          "name": "",
          "type": "bool"
        }
      ],
      "stateMutability": "view",
      "type": "function"
    },
    {
      "inputs": [
        {
          "internalType": "address",
          "name": "owner",
          "type": "address"
        },
        {
          "internalType": "address",
          "name": "operator",
          "type": "address"
        }
      ],
      "name": "isApprovedForAll",
      "outputs": [
        {
          "internalType": "bool",
          "name": "",
          "type": "bool"
        }
      ],
      "stateMutability": "view",
      "type": "function"
    },
    {
      "inputs": [
        {
          "internalType": "address",
          "name": "recipient_",
          "type": "address"
        }
      ],
      "name": "license",
      "outputs": [],
      "stateMutability": "payable",
      "type": "function"
    },
    {
      "inputs": [
        {
          "internalType": "address",
          "name": "recipient_",
          "type": "address"
        }
      ],
      "name": "licenseTimestamp",
      "outputs": [
        {
          "internalType": "uint256",
          "name": "",
          "type": "uint256"
        }
      ],
      "stateMutability": "view",
      "type": "function"
    },
    {
      "inputs": [],
      "name": "name",
      "outputs": [
        {
          "internalType": "string",
          "name": "",
          "type": "string"
        }
      ],
      "stateMutability": "view",
      "type": "function"
    },
    {
      "inputs": [],
      "name": "owner",
      "outputs": [
        {
          "internalType": "address",
          "name": "",
          "type": "address"
        }
      ],
      "stateMutability": "view",
      "type": "function"
    },
    {
      "inputs": [
        {
          "internalType": "uint256",
          "name": "tokenId",
          "type": "uint256"
        }
      ],
      "name": "ownerOf",
      "outputs": [
        {
          "internalType": "address",
          "name": "",
          "type": "address"
        }
      ],
      "stateMutability": "view",
      "type": "function"
    },
    {
      "inputs": [],
      "name": "pricePerAccess",
      "outputs": [
        {
          "internalType": "uint256",
          "name": "",
          "type": "uint256"
        }
      ],
      "stateMutability": "view",
      "type": "function"
    },
    {
      "inputs": [],
      "name": "pricePerLicense",
      "outputs": [
        {
          "internalType": "uint256",
          "name": "",
          "type": "uint256"
        }
      ],
      "stateMutability": "view",
      "type": "function"
    },
    {
      "inputs": [],
      "name": "renounceOwnership",
      "outputs": [],
      "stateMutability": "nonpayable",
      "type": "function"
    },
    {
      "inputs": [
        {
          "internalType": "address",
          "name": "from",
          "type": "address"
        },
        {
          "internalType": "address",
          "name": "to",
          "type": "address"
        },
        {
          "internalType": "uint256",
          "name": "tokenId",
          "type": "uint256"
        }
      ],
      "name": "safeTransferFrom",
      "outputs": [],
      "stateMutability": "nonpayable",
      "type": "function"
    },
    {
      "inputs": [
        {
          "internalType": "address",
          "name": "from",
          "type": "address"
        },
        {
          "internalType": "address",
          "name": "to",
          "type": "address"
        },
        {
          "internalType": "uint256",
          "name": "tokenId",
          "type": "uint256"
        },
        {
          "internalType": "bytes",
          "name": "data",
          "type": "bytes"
        }
      ],
      "name": "safeTransferFrom",
      "outputs": [],
      "stateMutability": "nonpayable",
      "type": "function"
    },
    {
      "inputs": [
        {
          "internalType": "address",
          "name": "operator",
          "type": "address"
        },
        {
          "internalType": "bool",
          "name": "approved",
          "type": "bool"
        }
      ],
      "name": "setApprovalForAll",
      "outputs": [],
      "stateMutability": "nonpayable",
      "type": "function"
    },
    {
      "inputs": [
        {
          "internalType": "uint256",
          "name": "pricePerAccess_",
          "type": "uint256"
        }
      ],
      "name": "setPricePerAccess",
      "outputs": [],
      "stateMutability": "nonpayable",
      "type": "function"
    },
    {
      "inputs": [
        {
          "internalType": "bytes4",
          "name": "interfaceId",
          "type": "bytes4"
        }
      ],
      "name": "supportsInterface",
      "outputs": [
        {
          "internalType": "bool",
          "name": "",
          "type": "bool"
        }
      ],
      "stateMutability": "view",
      "type": "function"
    },
    {
      "inputs": [],
      "name": "supportsLicensing",
      "outputs": [
        {
          "internalType": "bool",
          "name": "",
          "type": "bool"
        }
      ],
      "stateMutability": "view",
      "type": "function"
    },
    {
      "inputs": [],
      "name": "symbol",
      "outputs": [
        {
          "internalType": "string",
          "name": "",
          "type": "string"
        }
      ],
      "stateMutability": "view",
      "type": "function"
    },
    {
      "inputs": [
        {
          "internalType": "address",
          "name": "from",
          "type": "address"
        },
        {
          "internalType": "address",
          "name": "to",
          "type": "address"
        },
        {
          "internalType": "uint256",
          "name": "tokenId",
          "type": "uint256"
        }
      ],
      "name": "transferFrom",
      "outputs": [],
      "stateMutability": "nonpayable",
      "type": "function"
    },
    {
      "inputs": [
        {
          "internalType": "address",
          "name": "newOwner",
          "type": "address"
        }
      ],
      "name": "transferOwnership",
      "outputs": [],
      "stateMutability": "nonpayable",
      "type": "function"
    },
    {
      "inputs": [
        {
          "internalType": "string",
          "name": "tokenURI_",
          "type": "string"
        },
        {
          "internalType": "uint256",
          "name": "pricePerAccess_",
          "type": "uint256"
        },
        {
          "internalType": "uint256",
          "name": "grantTTL_",
          "type": "uint256"
        },
        {
          "internalType": "bool",
          "name": "supportsLicensing_",
          "type": "bool"
        },
        {
          "internalType": "uint256",
          "name": "pricePerLicense_",
          "type": "uint256"
        },
        {
          "internalType": "address",
          "name": "shareContractAddress_",
          "type": "address"
        }
      ],
      "name": "initialize",
      "outputs": [],
      "stateMutability": "nonpayable",
      "type": "function"
    },
    {
      "inputs": [
        {
          "internalType": "uint256",
          "name": "tokenId_",
          "type": "uint256"
        },
        {
          "internalType": "address",
          "name": "recipient_",
          "type": "address"
        }
      ],
      "name": "access",
      "outputs": [],
      "stateMutability": "payable",
      "type": "function"
    },
    {
      "inputs": [
        {
          "internalType": "uint256",
          "name": "tokenId_",
          "type": "uint256"
        }
      ],
      "name": "tokenURI",
      "outputs": [
        {
          "internalType": "string",
          "name": "",
          "type": "string"
        }
      ],
      "stateMutability": "view",
      "type": "function"
    },
    {
      "inputs": [
        {
          "internalType": "string",
          "name": "tokenURI_",
          "type": "string"
        }
      ],
      "name": "setTokenURI",
      "outputs": [],
      "stateMutability": "nonpayable",
      "type": "function"
    }
  ],
  "bytecode": "0x60806040526000600c553480156200001657600080fd5b506040518060400160405280600581526020017f53484152450000000000000000000000000000000000000000000000000000008152506040518060400160405280600381526020017f5046410000000000000000000000000000000000000000000000000000000000815250600180620000a66200009a6200024d60201b60201c565b6200025560201b60201c565b600180819055503373ffffffffffffffffffffffffffffffffffffffff163273ffffffffffffffffffffffffffffffffffffffff16146200011e576040517f08c379a0000000000000000000000000000000000000000000000000000000008152600401620001159062000964565b60405180910390fd5b81156200017e576002600090806001815401808255809150506001900390600052602060002090602091828204019190069091909190916101000a81548160ff0219169083600381111562000178576200017762000986565b5b02179055505b8015620001de576002600190806001815401808255809150506001900390600052602060002090602091828204019190069091909190916101000a81548160ff02191690836003811115620001d857620001d762000986565b5b02179055505b620001fe620001f26200024d60201b60201c565b6200025560201b60201c565b505081600f90805190602001906200021892919062000853565b5080601090805190602001906200023192919062000853565b505050620002473360006200031960201b60201c565b62000d82565b600033905090565b60008060009054906101000a900473ffffffffffffffffffffffffffffffffffffffff169050816000806101000a81548173ffffffffffffffffffffffffffffffffffffffff021916908373ffffffffffffffffffffffffffffffffffffffff1602179055508173ffffffffffffffffffffffffffffffffffffffff168173ffffffffffffffffffffffffffffffffffffffff167f8be0079c531659141344cd1fd0a4f28419497f9722a3daafe3b4186f6b6457e060405160405180910390a35050565b6200033b8282604051806020016040528060008152506200033f60201b60201c565b5050565b620003518383620003ad60201b60201c565b620003666000848484620005f460201b60201c565b620003a8576040517f08c379a00000000000000000000000000000000000000000000000000000000081526004016200039f9062000a2b565b60405180910390fd5b505050565b600073ffffffffffffffffffffffffffffffffffffffff168273ffffffffffffffffffffffffffffffffffffffff16141562000420576040517f08c379a0000000000000000000000000000000000000000000000000000000008152600401620004179062000a9d565b60405180910390fd5b62000431816200079e60201b60201c565b1562000474576040517f08c379a00000000000000000000000000000000000000000000000000000000081526004016200046b9062000b0f565b60405180910390fd5b6200048a600083836001620007e760201b60201c565b6200049b816200079e60201b60201c565b15620004de576040517f08c379a0000000000000000000000000000000000000000000000000000000008152600401620004d59062000b0f565b60405180910390fd5b6001601260008473ffffffffffffffffffffffffffffffffffffffff1673ffffffffffffffffffffffffffffffffffffffff16815260200190815260200160002060008282540192505081905550816011600083815260200190815260200160002060006101000a81548173ffffffffffffffffffffffffffffffffffffffff021916908373ffffffffffffffffffffffffffffffffffffffff160217905550808273ffffffffffffffffffffffffffffffffffffffff16600073ffffffffffffffffffffffffffffffffffffffff167fddf252ad1be2c89b69c2b068fc378daa952ba7f163c4a11628f55a4df523b3ef60405160405180910390a4620005f0600083836001620007ed60201b60201c565b5050565b6000620006228473ffffffffffffffffffffffffffffffffffffffff16620007f360201b62001d5d1760201c565b1562000791578373ffffffffffffffffffffffffffffffffffffffff1663150b7a02620006546200024d60201b60201c565b8786866040518563ffffffff1660e01b815260040162000678949392919062000c35565b6020604051808303816000875af1925050508015620006b757506040513d601f19601f82011682018060405250810190620006b4919062000ceb565b60015b62000740573d8060008114620006ea576040519150601f19603f3d011682016040523d82523d6000602084013e620006ef565b606091505b5060008151141562000738576040517f08c379a00000000000000000000000000000000000000000000000000000000081526004016200072f9062000a2b565b60405180910390fd5b805181602001fd5b63150b7a0260e01b7bffffffffffffffffffffffffffffffffffffffffffffffffffffffff1916817bffffffffffffffffffffffffffffffffffffffffffffffffffffffff19161491505062000796565b600190505b949350505050565b60008073ffffffffffffffffffffffffffffffffffffffff16620007c8836200081660201b60201c565b73ffffffffffffffffffffffffffffffffffffffff1614159050919050565b50505050565b50505050565b6000808273ffffffffffffffffffffffffffffffffffffffff163b119050919050565b60006011600083815260200190815260200160002060009054906101000a900473ffffffffffffffffffffffffffffffffffffffff169050919050565b828054620008619062000d4c565b90600052602060002090601f016020900481019282620008855760008555620008d1565b82601f10620008a057805160ff1916838001178555620008d1565b82800160010185558215620008d1579182015b82811115620008d0578251825591602001919060010190620008b3565b5b509050620008e09190620008e4565b5090565b5b80821115620008ff576000816000905550600101620008e5565b5090565b600082825260208201905092915050565b7f5348415245303132000000000000000000000000000000000000000000000000600082015250565b60006200094c60088362000903565b9150620009598262000914565b602082019050919050565b600060208201905081810360008301526200097f816200093d565b9050919050565b7f4e487b7100000000000000000000000000000000000000000000000000000000600052602160045260246000fd5b7f4552433732313a207472616e7366657220746f206e6f6e20455243373231526560008201527f63656976657220696d706c656d656e7465720000000000000000000000000000602082015250565b600062000a1360328362000903565b915062000a2082620009b5565b604082019050919050565b6000602082019050818103600083015262000a468162000a04565b9050919050565b7f4552433732313a206d696e7420746f20746865207a65726f2061646472657373600082015250565b600062000a8560208362000903565b915062000a928262000a4d565b602082019050919050565b6000602082019050818103600083015262000ab88162000a76565b9050919050565b7f4552433732313a20746f6b656e20616c7265616479206d696e74656400000000600082015250565b600062000af7601c8362000903565b915062000b048262000abf565b602082019050919050565b6000602082019050818103600083015262000b2a8162000ae8565b9050919050565b600073ffffffffffffffffffffffffffffffffffffffff82169050919050565b600062000b5e8262000b31565b9050919050565b62000b708162000b51565b82525050565b6000819050919050565b62000b8b8162000b76565b82525050565b600081519050919050565b600082825260208201905092915050565b60005b8381101562000bcd57808201518184015260208101905062000bb0565b8381111562000bdd576000848401525b50505050565b6000601f19601f8301169050919050565b600062000c018262000b91565b62000c0d818562000b9c565b935062000c1f81856020860162000bad565b62000c2a8162000be3565b840191505092915050565b600060808201905062000c4c600083018762000b65565b62000c5b602083018662000b65565b62000c6a604083018562000b80565b818103606083015262000c7e818462000bf4565b905095945050505050565b600080fd5b60007fffffffff0000000000000000000000000000000000000000000000000000000082169050919050565b62000cc58162000c8e565b811462000cd157600080fd5b50565b60008151905062000ce58162000cba565b92915050565b60006020828403121562000d045762000d0362000c89565b5b600062000d148482850162000cd4565b91505092915050565b7f4e487b7100000000000000000000000000000000000000000000000000000000600052602260045260246000fd5b6000600282049050600182168062000d6557607f821691505b6020821081141562000d7c5762000d7b62000d1d565b5b50919050565b61402c8062000d926000396000f3fe6080604052600436106101e35760003560e01c806395d89b4111610102578063ce1ebbf811610095578063e985e9c511610064578063e985e9c5146106d8578063f2fde38b14610715578063f76f8d781461073e578063ffa1ad7414610769576101e3565b8063ce1ebbf81461063f578063d6062e441461066a578063dc33f4fe14610686578063e0df5b6f146106af576101e3565b8063a3f4df7e116100d1578063a3f4df7e14610583578063a92ddbb3146105ae578063b88d4fde146105d9578063c87b56dd14610602576101e3565b806395d89b41146104d657806395e9463f1461050157806398a474511461051d578063a22cb4651461055a576101e3565b80632cc1bd9e1161017a5780636352211e116101495780636352211e1461041a57806370a0823114610457578063715018a6146104945780638da5cb5b146104ab576101e3565b80632cc1bd9e1461036057806342842e0e1461039d5780634d6eeb76146103c65780635bc3c82c146103ef576101e3565b8063081812fc116101b6578063081812fc146102a6578063095ea7b3146102e3578063158ef93e1461030c57806323b872dd14610337576101e3565b80630122407e146101e857806301ffc9a71461021357806306df48151461025057806306fdde031461027b575b600080fd5b3480156101f457600080fd5b506101fd610794565b60405161020a91906129c5565b60405180910390f35b34801561021f57600080fd5b5061023a60048036038101906102359190612a4c565b6107f0565b6040516102479190612a94565b60405180910390f35b34801561025c57600080fd5b506102656108d2565b60405161027291906129c5565b60405180910390f35b34801561028757600080fd5b506102906108d8565b60405161029d9190612b48565b60405180910390f35b3480156102b257600080fd5b506102cd60048036038101906102c89190612b96565b61096a565b6040516102da9190612c04565b60405180910390f35b3480156102ef57600080fd5b5061030a60048036038101906103059190612c4b565b6109b0565b005b34801561031857600080fd5b50610321610ac8565b60405161032e9190612a94565b60405180910390f35b34801561034357600080fd5b5061035e60048036038101906103599190612c8b565b610adf565b005b34801561036c57600080fd5b5061038760048036038101906103829190612cde565b610b3f565b60405161039491906129c5565b60405180910390f35b3480156103a957600080fd5b506103c460048036038101906103bf9190612c8b565b610bd7565b005b3480156103d257600080fd5b506103ed60048036038101906103e89190612b96565b610bf7565b005b3480156103fb57600080fd5b50610404610d3c565b60405161041191906129c5565b60405180910390f35b34801561042657600080fd5b50610441600480360381019061043c9190612b96565b610d98565b60405161044e9190612c04565b60405180910390f35b34801561046357600080fd5b5061047e60048036038101906104799190612cde565b610e1f565b60405161048b91906129c5565b60405180910390f35b3480156104a057600080fd5b506104a9610ed7565b005b3480156104b757600080fd5b506104c0610eeb565b6040516104cd9190612c04565b60405180910390f35b3480156104e257600080fd5b506104eb610f14565b6040516104f89190612b48565b60405180910390f35b61051b60048036038101906105169190612d0b565b610fa6565b005b34801561052957600080fd5b50610544600480360381019061053f9190612cde565b6111f8565b60405161055191906129c5565b60405180910390f35b34801561056657600080fd5b50610581600480360381019061057c9190612d77565b611290565b005b34801561058f57600080fd5b506105986112a6565b6040516105a59190612b48565b60405180910390f35b3480156105ba57600080fd5b506105c36112df565b6040516105d09190612a94565b60405180910390f35b3480156105e557600080fd5b5061060060048036038101906105fb9190612eec565b611348565b005b34801561060e57600080fd5b5061062960048036038101906106249190612b96565b6113aa565b6040516106369190612b48565b60405180910390f35b34801561064b57600080fd5b50610654611481565b60405161066191906129c5565b60405180910390f35b610684600480360381019061067f9190612cde565b6114dd565b005b34801561069257600080fd5b506106ad60048036038101906106a89190613010565b6117f9565b005b3480156106bb57600080fd5b506106d660048036038101906106d191906130b9565b611a22565b005b3480156106e457600080fd5b506106ff60048036038101906106fa9190613102565b611a54565b60405161070c9190612a94565b60405180910390f35b34801561072157600080fd5b5061073c60048036038101906107379190612cde565b611ae8565b005b34801561074a57600080fd5b50610753611ceb565b6040516107609190612b48565b60405180910390f35b34801561077557600080fd5b5061077e611d24565b60405161078b9190612b48565b60405180910390f35b6000600460009054906101000a900460ff166107e5576040517f08c379a00000000000000000000000000000000000000000000000000000000081526004016107dc9061318e565b60405180910390fd5b600960000154905090565b60007f80ac58cd000000000000000000000000000000000000000000000000000000007bffffffffffffffffffffffffffffffffffffffffffffffffffffffff1916827bffffffffffffffffffffffffffffffffffffffffffffffffffffffff191614806108bb57507f5b5e139f000000000000000000000000000000000000000000000000000000007bffffffffffffffffffffffffffffffffffffffffffffffffffffffff1916827bffffffffffffffffffffffffffffffffffffffffffffffffffffffff1916145b806108cb57506108ca82611d80565b5b9050919050565b600c5481565b6060600f80546108e7906131dd565b80601f0160208091040260200160405190810160405280929190818152602001828054610913906131dd565b80156109605780601f1061093557610100808354040283529160200191610960565b820191906000526020600020905b81548152906001019060200180831161094357829003601f168201915b5050505050905090565b600061097582611dea565b6013600083815260200190815260200160002060009054906101000a900473ffffffffffffffffffffffffffffffffffffffff169050919050565b60006109bb82610d98565b90508073ffffffffffffffffffffffffffffffffffffffff168373ffffffffffffffffffffffffffffffffffffffff161415610a2c576040517f08c379a0000000000000000000000000000000000000000000000000000000008152600401610a2390613281565b60405180910390fd5b8073ffffffffffffffffffffffffffffffffffffffff16610a4b611e35565b73ffffffffffffffffffffffffffffffffffffffff161480610a7a5750610a7981610a74611e35565b611a54565b5b610ab9576040517f08c379a0000000000000000000000000000000000000000000000000000000008152600401610ab090613313565b60405180910390fd5b610ac38383611e3d565b505050565b6000600460009054906101000a900460ff16905090565b610af0610aea611e35565b82611ef6565b610b2f576040517f08c379a0000000000000000000000000000000000000000000000000000000008152600401610b26906133a5565b60405180910390fd5b610b3a838383611f8b565b505050565b6000600460009054906101000a900460ff16610b90576040517f08c379a0000000000000000000000000000000000000000000000000000000008152600401610b879061318e565b60405180910390fd5b600d60008373ffffffffffffffffffffffffffffffffffffffff1673ffffffffffffffffffffffffffffffffffffffff168152602001908152602001600020549050919050565b610bf283838360405180602001604052806000815250611348565b505050565b610bff612285565b610c076122d5565b600460009054906101000a900460ff16610c56576040517f08c379a0000000000000000000000000000000000000000000000000000000008152600401610c4d9061318e565b60405180910390fd5b600b60000160009054906101000a900460ff1615610ca9576040517f08c379a0000000000000000000000000000000000000000000000000000000008152600401610ca090613411565b60405180910390fd5b6000600560010160006101000a81548160ff02191690831515021790555073__Immutable_____________________________63e9e3a8dd6005836040518363ffffffff1660e01b8152600401610d01929190613447565b60006040518083038186803b158015610d1957600080fd5b505af4158015610d2d573d6000803e3d6000fd5b50505050610d39612353565b50565b6000600460009054906101000a900460ff16610d8d576040517f08c379a0000000000000000000000000000000000000000000000000000000008152600401610d849061318e565b60405180910390fd5b600560000154905090565b600080610da48361235c565b9050600073ffffffffffffffffffffffffffffffffffffffff168173ffffffffffffffffffffffffffffffffffffffff161415610e16576040517f08c379a0000000000000000000000000000000000000000000000000000000008152600401610e0d906134bc565b60405180910390fd5b80915050919050565b60008073ffffffffffffffffffffffffffffffffffffffff168273ffffffffffffffffffffffffffffffffffffffff161415610e90576040517f08c379a0000000000000000000000000000000000000000000000000000000008152600401610e879061354e565b60405180910390fd5b601260008373ffffffffffffffffffffffffffffffffffffffff1673ffffffffffffffffffffffffffffffffffffffff168152602001908152602001600020549050919050565b610edf6122d5565b610ee96000612399565b565b60008060009054906101000a900473ffffffffffffffffffffffffffffffffffffffff16905090565b606060108054610f23906131dd565b80601f0160208091040260200160405190810160405280929190818152602001828054610f4f906131dd565b8015610f9c5780601f10610f7157610100808354040283529160200191610f9c565b820191906000526020600020905b815481529060010190602001808311610f7f57829003601f168201915b5050505050905090565b610fae612285565b600460009054906101000a900460ff16610ffd576040517f08c379a0000000000000000000000000000000000000000000000000000000008152600401610ff49061318e565b60405180910390fd5b6005600001543414611044576040517f08c379a000000000000000000000000000000000000000000000000000000000815260040161103b906135ba565b60405180910390fd5b600061104e610eeb565b905060008173ffffffffffffffffffffffffffffffffffffffff16346040516110769061360b565b60006040518083038185875af1925050503d80600081146110b3576040519150601f19603f3d011682016040523d82523d6000602084013e6110b8565b606091505b50509050806110fc576040517f08c379a00000000000000000000000000000000000000000000000000000000081526004016110f39061366c565b60405180910390fd5b42600d60008573ffffffffffffffffffffffffffffffffffffffff1673ffffffffffffffffffffffffffffffffffffffff168152602001908152602001600020819055508173ffffffffffffffffffffffffffffffffffffffff167fc9dd1ec7c2ee76fe6ac86ba9c388268f359c971c544e7dc66567d6229a7aee413460405161118691906129c5565b60405180910390a2838373ffffffffffffffffffffffffffffffffffffffff167f939a71706a68cf386c2bf838a39a42d40513dc244377b286608cea04c7ed3ae160405160405180910390a3600c60008154809291906111e5906136bb565b919050555050506111f4612353565b5050565b6000600460009054906101000a900460ff16611249576040517f08c379a00000000000000000000000000000000000000000000000000000000081526004016112409061318e565b60405180910390fd5b600e60008373ffffffffffffffffffffffffffffffffffffffff1673ffffffffffffffffffffffffffffffffffffffff168152602001908152602001600020549050919050565b6112a261129b611e35565b838361245d565b5050565b6040518060400160405280600581526020017f534841524500000000000000000000000000000000000000000000000000000081525081565b6000600460009054906101000a900460ff16611330576040517f08c379a00000000000000000000000000000000000000000000000000000000081526004016113279061318e565b60405180910390fd5b600b60000160009054906101000a900460ff16905090565b611359611353611e35565b83611ef6565b611398576040517f08c379a000000000000000000000000000000000000000000000000000000000815260040161138f906133a5565b60405180910390fd5b6113a4848484846125ca565b50505050565b6060600082146113ef576040517f08c379a00000000000000000000000000000000000000000000000000000000081526004016113e690613750565b60405180910390fd5b601580546113fc906131dd565b80601f0160208091040260200160405190810160405280929190818152602001828054611428906131dd565b80156114755780601f1061144a57610100808354040283529160200191611475565b820191906000526020600020905b81548152906001019060200180831161145857829003601f168201915b50505050509050919050565b6000600460009054906101000a900460ff166114d2576040517f08c379a00000000000000000000000000000000000000000000000000000000081526004016114c99061318e565b60405180910390fd5b600760000154905090565b6114e5612285565b600460009054906101000a900460ff16611534576040517f08c379a000000000000000000000000000000000000000000000000000000000815260040161152b9061318e565b60405180910390fd5b600b60000160009054906101000a900460ff16611586576040517f08c379a000000000000000000000000000000000000000000000000000000000815260040161157d906137bc565b60405180910390fd5b60076000015434146115cd576040517f08c379a00000000000000000000000000000000000000000000000000000000081526004016115c490613828565b60405180910390fd5b60006115d7612626565b90508073ffffffffffffffffffffffffffffffffffffffff16633cef5f768360036040518363ffffffff1660e01b81526004016116159291906138bf565b602060405180830381865afa158015611632573d6000803e3d6000fd5b505050506040513d601f19601f8201168201806040525081019061165691906138fd565b611695576040517f08c379a000000000000000000000000000000000000000000000000000000000815260040161168c90613976565b60405180910390fd5b8173ffffffffffffffffffffffffffffffffffffffff16635dbe47e8306040518263ffffffff1660e01b81526004016116ce9190612c04565b602060405180830381865afa1580156116eb573d6000803e3d6000fd5b505050506040513d601f19601f8201168201806040525081019061170f91906138fd565b61174e576040517f08c379a0000000000000000000000000000000000000000000000000000000008152600401611745906139e2565b60405180910390fd5b42600e60008473ffffffffffffffffffffffffffffffffffffffff1673ffffffffffffffffffffffffffffffffffffffff168152602001908152602001600020819055508173ffffffffffffffffffffffffffffffffffffffff167f92c8946d126a1974fc68523f77c1ad26341fa2bf3adee2484d4188b22d64c34a60405160405180910390a2600c60008154809291906117e8906136bb565b9190505550506117f6612353565b50565b6118016122d5565b73__Immutable_____________________________63e9e3a8dd6005876040518363ffffffff1660e01b815260040161183b929190613447565b60006040518083038186803b15801561185357600080fd5b505af4158015611867573d6000803e3d6000fd5b5050505073__Immutable_____________________________63e9e3a8dd6009866040518363ffffffff1660e01b81526004016118a5929190613447565b60006040518083038186803b1580156118bd57600080fd5b505af41580156118d1573d6000803e3d6000fd5b5050505073__Immutable_____________________________638213580d600b856040518363ffffffff1660e01b815260040161190f929190613a18565b60006040518083038186803b15801561192757600080fd5b505af415801561193b573d6000803e3d6000fd5b50505050826119885760008214611987576040517f08c379a000000000000000000000000000000000000000000000000000000000815260040161197e90613a8d565b60405180910390fd5b5b73__Immutable_____________________________63e9e3a8dd6007846040518363ffffffff1660e01b81526004016119c2929190613447565b60006040518083038186803b1580156119da57600080fd5b505af41580156119ee573d6000803e3d6000fd5b505050506119fb816126a2565b8560159080519060200190611a11929190612909565b50611a1a61270f565b505050505050565b611a2a612285565b611a326122d5565b8060159080519060200190611a48929190612909565b50611a51612353565b50565b6000601460008473ffffffffffffffffffffffffffffffffffffffff1673ffffffffffffffffffffffffffffffffffffffff16815260200190815260200160002060008373ffffffffffffffffffffffffffffffffffffffff1673ffffffffffffffffffffffffffffffffffffffff16815260200190815260200160002060009054906101000a900460ff16905092915050565b611af06122d5565b600460009054906101000a900460ff16611b3f576040517f08c379a0000000000000000000000000000000000000000000000000000000008152600401611b369061318e565b60405180910390fd5b6000611b49612626565b90506000805b600280549050811015611c2c578273ffffffffffffffffffffffffffffffffffffffff16633cef5f768560028481548110611b8d57611b8c613aad565b5b90600052602060002090602091828204019190069054906101000a900460ff166040518363ffffffff1660e01b8152600401611bca9291906138bf565b602060405180830381865afa158015611be7573d6000803e3d6000fd5b505050506040513d601f19601f82011682018060405250810190611c0b91906138fd565b15611c195760019150611c2c565b8080611c24906136bb565b915050611b4f565b5080611c6d576040517f08c379a0000000000000000000000000000000000000000000000000000000008152600401611c6490613b28565b60405180910390fd5b600073ffffffffffffffffffffffffffffffffffffffff168373ffffffffffffffffffffffffffffffffffffffff161415611cdd576040517f08c379a0000000000000000000000000000000000000000000000000000000008152600401611cd490613bba565b60405180910390fd5b611ce683612399565b505050565b6040518060400160405280600381526020017f504641000000000000000000000000000000000000000000000000000000000081525081565b6040518060400160405280600581526020017f312e302e3000000000000000000000000000000000000000000000000000000081525081565b6000808273ffffffffffffffffffffffffffffffffffffffff163b119050919050565b60007f01ffc9a7000000000000000000000000000000000000000000000000000000007bffffffffffffffffffffffffffffffffffffffffffffffffffffffff1916827bffffffffffffffffffffffffffffffffffffffffffffffffffffffff1916149050919050565b611df381612734565b611e32576040517f08c379a0000000000000000000000000000000000000000000000000000000008152600401611e29906134bc565b60405180910390fd5b50565b600033905090565b816013600083815260200190815260200160002060006101000a81548173ffffffffffffffffffffffffffffffffffffffff021916908373ffffffffffffffffffffffffffffffffffffffff160217905550808273ffffffffffffffffffffffffffffffffffffffff16611eb083610d98565b73ffffffffffffffffffffffffffffffffffffffff167f8c5be1e5ebec7d5bd14f71427d1e84f3dd0314c0f7b2291e5b200ac8c7c3b92560405160405180910390a45050565b600080611f0283610d98565b90508073ffffffffffffffffffffffffffffffffffffffff168473ffffffffffffffffffffffffffffffffffffffff161480611f445750611f438185611a54565b5b80611f8257508373ffffffffffffffffffffffffffffffffffffffff16611f6a8461096a565b73ffffffffffffffffffffffffffffffffffffffff16145b91505092915050565b8273ffffffffffffffffffffffffffffffffffffffff16611fab82610d98565b73ffffffffffffffffffffffffffffffffffffffff1614612001576040517f08c379a0000000000000000000000000000000000000000000000000000000008152600401611ff890613c4c565b60405180910390fd5b600073ffffffffffffffffffffffffffffffffffffffff168273ffffffffffffffffffffffffffffffffffffffff161415612071576040517f08c379a000000000000000000000000000000000000000000000000000000000815260040161206890613cde565b60405180910390fd5b61207e8383836001612775565b8273ffffffffffffffffffffffffffffffffffffffff1661209e82610d98565b73ffffffffffffffffffffffffffffffffffffffff16146120f4576040517f08c379a00000000000000000000000000000000000000000000000000000000081526004016120eb90613c4c565b60405180910390fd5b6013600082815260200190815260200160002060006101000a81549073ffffffffffffffffffffffffffffffffffffffff02191690556001601260008573ffffffffffffffffffffffffffffffffffffffff1673ffffffffffffffffffffffffffffffffffffffff168152602001908152602001600020600082825403925050819055506001601260008473ffffffffffffffffffffffffffffffffffffffff1673ffffffffffffffffffffffffffffffffffffffff16815260200190815260200160002060008282540192505081905550816011600083815260200190815260200160002060006101000a81548173ffffffffffffffffffffffffffffffffffffffff021916908373ffffffffffffffffffffffffffffffffffffffff160217905550808273ffffffffffffffffffffffffffffffffffffffff168473ffffffffffffffffffffffffffffffffffffffff167fddf252ad1be2c89b69c2b068fc378daa952ba7f163c4a11628f55a4df523b3ef60405160405180910390a4612280838383600161277b565b505050565b600260015414156122cb576040517f08c379a00000000000000000000000000000000000000000000000000000000081526004016122c290613d4a565b60405180910390fd5b6002600181905550565b6122dd611e35565b73ffffffffffffffffffffffffffffffffffffffff166122fb610eeb565b73ffffffffffffffffffffffffffffffffffffffff1614612351576040517f08c379a000000000000000000000000000000000000000000000000000000000815260040161234890613db6565b60405180910390fd5b565b60018081905550565b60006011600083815260200190815260200160002060009054906101000a900473ffffffffffffffffffffffffffffffffffffffff169050919050565b60008060009054906101000a900473ffffffffffffffffffffffffffffffffffffffff169050816000806101000a81548173ffffffffffffffffffffffffffffffffffffffff021916908373ffffffffffffffffffffffffffffffffffffffff1602179055508173ffffffffffffffffffffffffffffffffffffffff168173ffffffffffffffffffffffffffffffffffffffff167f8be0079c531659141344cd1fd0a4f28419497f9722a3daafe3b4186f6b6457e060405160405180910390a35050565b8173ffffffffffffffffffffffffffffffffffffffff168373ffffffffffffffffffffffffffffffffffffffff1614156124cc576040517f08c379a00000000000000000000000000000000000000000000000000000000081526004016124c390613e22565b60405180910390fd5b80601460008573ffffffffffffffffffffffffffffffffffffffff1673ffffffffffffffffffffffffffffffffffffffff16815260200190815260200160002060008473ffffffffffffffffffffffffffffffffffffffff1673ffffffffffffffffffffffffffffffffffffffff16815260200190815260200160002060006101000a81548160ff0219169083151502179055508173ffffffffffffffffffffffffffffffffffffffff168373ffffffffffffffffffffffffffffffffffffffff167f17307eab39ab6107e8899845ad3d59bd9653f200f220920489ca2b5937696c31836040516125bd9190612a94565b60405180910390a3505050565b6125d5848484611f8b565b6125e184848484612781565b612620576040517f08c379a000000000000000000000000000000000000000000000000000000000815260040161261790613eb4565b60405180910390fd5b50505050565b6000600460009054906101000a900460ff16612677576040517f08c379a000000000000000000000000000000000000000000000000000000000815260040161266e9061318e565b60405180910390fd5b600360000160009054906101000a900473ffffffffffffffffffffffffffffffffffffffff16905090565b73__Immutable_____________________________634135c1446003836040518363ffffffff1660e01b81526004016126dc929190613eea565b60006040518083038186803b1580156126f457600080fd5b505af4158015612708573d6000803e3d6000fd5b5050505050565b6127176122d5565b6001600460006101000a81548160ff021916908315150217905550565b60008073ffffffffffffffffffffffffffffffffffffffff166127568361235c565b73ffffffffffffffffffffffffffffffffffffffff1614159050919050565b50505050565b50505050565b60006127a28473ffffffffffffffffffffffffffffffffffffffff16611d5d565b156128fc578373ffffffffffffffffffffffffffffffffffffffff1663150b7a026127cb611e35565b8786866040518563ffffffff1660e01b81526004016127ed9493929190613f68565b6020604051808303816000875af192505050801561282957506040513d601f19601f820116820180604052508101906128269190613fc9565b60015b6128ac573d8060008114612859576040519150601f19603f3d011682016040523d82523d6000602084013e61285e565b606091505b506000815114156128a4576040517f08c379a000000000000000000000000000000000000000000000000000000000815260040161289b90613eb4565b60405180910390fd5b805181602001fd5b63150b7a0260e01b7bffffffffffffffffffffffffffffffffffffffffffffffffffffffff1916817bffffffffffffffffffffffffffffffffffffffffffffffffffffffff191614915050612901565b600190505b949350505050565b828054612915906131dd565b90600052602060002090601f016020900481019282612937576000855561297e565b82601f1061295057805160ff191683800117855561297e565b8280016001018555821561297e579182015b8281111561297d578251825591602001919060010190612962565b5b50905061298b919061298f565b5090565b5b808211156129a8576000816000905550600101612990565b5090565b6000819050919050565b6129bf816129ac565b82525050565b60006020820190506129da60008301846129b6565b92915050565b6000604051905090565b600080fd5b600080fd5b60007fffffffff0000000000000000000000000000000000000000000000000000000082169050919050565b612a29816129f4565b8114612a3457600080fd5b50565b600081359050612a4681612a20565b92915050565b600060208284031215612a6257612a616129ea565b5b6000612a7084828501612a37565b91505092915050565b60008115159050919050565b612a8e81612a79565b82525050565b6000602082019050612aa96000830184612a85565b92915050565b600081519050919050565b600082825260208201905092915050565b60005b83811015612ae9578082015181840152602081019050612ace565b83811115612af8576000848401525b50505050565b6000601f19601f8301169050919050565b6000612b1a82612aaf565b612b248185612aba565b9350612b34818560208601612acb565b612b3d81612afe565b840191505092915050565b60006020820190508181036000830152612b628184612b0f565b905092915050565b612b73816129ac565b8114612b7e57600080fd5b50565b600081359050612b9081612b6a565b92915050565b600060208284031215612bac57612bab6129ea565b5b6000612bba84828501612b81565b91505092915050565b600073ffffffffffffffffffffffffffffffffffffffff82169050919050565b6000612bee82612bc3565b9050919050565b612bfe81612be3565b82525050565b6000602082019050612c196000830184612bf5565b92915050565b612c2881612be3565b8114612c3357600080fd5b50565b600081359050612c4581612c1f565b92915050565b60008060408385031215612c6257612c616129ea565b5b6000612c7085828601612c36565b9250506020612c8185828601612b81565b9150509250929050565b600080600060608486031215612ca457612ca36129ea565b5b6000612cb286828701612c36565b9350506020612cc386828701612c36565b9250506040612cd486828701612b81565b9150509250925092565b600060208284031215612cf457612cf36129ea565b5b6000612d0284828501612c36565b91505092915050565b60008060408385031215612d2257612d216129ea565b5b6000612d3085828601612b81565b9250506020612d4185828601612c36565b9150509250929050565b612d5481612a79565b8114612d5f57600080fd5b50565b600081359050612d7181612d4b565b92915050565b60008060408385031215612d8e57612d8d6129ea565b5b6000612d9c85828601612c36565b9250506020612dad85828601612d62565b9150509250929050565b600080fd5b600080fd5b7f4e487b7100000000000000000000000000000000000000000000000000000000600052604160045260246000fd5b612df982612afe565b810181811067ffffffffffffffff82111715612e1857612e17612dc1565b5b80604052505050565b6000612e2b6129e0565b9050612e378282612df0565b919050565b600067ffffffffffffffff821115612e5757612e56612dc1565b5b612e6082612afe565b9050602081019050919050565b82818337600083830152505050565b6000612e8f612e8a84612e3c565b612e21565b905082815260208101848484011115612eab57612eaa612dbc565b5b612eb6848285612e6d565b509392505050565b600082601f830112612ed357612ed2612db7565b5b8135612ee3848260208601612e7c565b91505092915050565b60008060008060808587031215612f0657612f056129ea565b5b6000612f1487828801612c36565b9450506020612f2587828801612c36565b9350506040612f3687828801612b81565b925050606085013567ffffffffffffffff811115612f5757612f566129ef565b5b612f6387828801612ebe565b91505092959194509250565b600067ffffffffffffffff821115612f8a57612f89612dc1565b5b612f9382612afe565b9050602081019050919050565b6000612fb3612fae84612f6f565b612e21565b905082815260208101848484011115612fcf57612fce612dbc565b5b612fda848285612e6d565b509392505050565b600082601f830112612ff757612ff6612db7565b5b8135613007848260208601612fa0565b91505092915050565b60008060008060008060c0878903121561302d5761302c6129ea565b5b600087013567ffffffffffffffff81111561304b5761304a6129ef565b5b61305789828a01612fe2565b965050602061306889828a01612b81565b955050604061307989828a01612b81565b945050606061308a89828a01612d62565b935050608061309b89828a01612b81565b92505060a06130ac89828a01612c36565b9150509295509295509295565b6000602082840312156130cf576130ce6129ea565b5b600082013567ffffffffffffffff8111156130ed576130ec6129ef565b5b6130f984828501612fe2565b91505092915050565b60008060408385031215613119576131186129ea565b5b600061312785828601612c36565b925050602061313885828601612c36565b9150509250929050565b7f5348415245303134000000000000000000000000000000000000000000000000600082015250565b6000613178600883612aba565b915061318382613142565b602082019050919050565b600060208201905081810360008301526131a78161316b565b9050919050565b7f4e487b7100000000000000000000000000000000000000000000000000000000600052602260045260246000fd5b600060028204905060018216806131f557607f821691505b60208210811415613209576132086131ae565b5b50919050565b7f4552433732313a20617070726f76616c20746f2063757272656e74206f776e6560008201527f7200000000000000000000000000000000000000000000000000000000000000602082015250565b600061326b602183612aba565b91506132768261320f565b604082019050919050565b6000602082019050818103600083015261329a8161325e565b9050919050565b7f4552433732313a20617070726f76652063616c6c6572206973206e6f7420746f60008201527f6b656e206f776e6572206f7220617070726f76656420666f7220616c6c000000602082015250565b60006132fd603d83612aba565b9150613308826132a1565b604082019050919050565b6000602082019050818103600083015261332c816132f0565b9050919050565b7f4552433732313a2063616c6c6572206973206e6f7420746f6b656e206f776e6560008201527f72206f7220617070726f76656400000000000000000000000000000000000000602082015250565b600061338f602d83612aba565b915061339a82613333565b604082019050919050565b600060208201905081810360008301526133be81613382565b9050919050565b7f5348415245303139000000000000000000000000000000000000000000000000600082015250565b60006133fb600883612aba565b9150613406826133c5565b602082019050919050565b6000602082019050818103600083015261342a816133ee565b9050919050565b8082525050565b613441816129ac565b82525050565b600060408201905061345c6000830185613431565b6134696020830184613438565b9392505050565b7f4552433732313a20696e76616c696420746f6b656e2049440000000000000000600082015250565b60006134a6601883612aba565b91506134b182613470565b602082019050919050565b600060208201905081810360008301526134d581613499565b9050919050565b7f4552433732313a2061646472657373207a65726f206973206e6f74206120766160008201527f6c6964206f776e65720000000000000000000000000000000000000000000000602082015250565b6000613538602983612aba565b9150613543826134dc565b604082019050919050565b600060208201905081810360008301526135678161352b565b9050919050565b7f5348415245303035000000000000000000000000000000000000000000000000600082015250565b60006135a4600883612aba565b91506135af8261356e565b602082019050919050565b600060208201905081810360008301526135d381613597565b9050919050565b600081905092915050565b50565b60006135f56000836135da565b9150613600826135e5565b600082019050919050565b6000613616826135e8565b9150819050919050565b7f5348415245303231000000000000000000000000000000000000000000000000600082015250565b6000613656600883612aba565b915061366182613620565b602082019050919050565b6000602082019050818103600083015261368581613649565b9050919050565b7f4e487b7100000000000000000000000000000000000000000000000000000000600052601160045260246000fd5b60006136c6826129ac565b91507fffffffffffffffffffffffffffffffffffffffffffffffffffffffffffffffff8214156136f9576136f861368c565b5b600182019050919050565b7f5348415245303034000000000000000000000000000000000000000000000000600082015250565b600061373a600883612aba565b915061374582613704565b602082019050919050565b600060208201905081810360008301526137698161372d565b9050919050565b7f5348415245303138000000000000000000000000000000000000000000000000600082015250565b60006137a6600883612aba565b91506137b182613770565b602082019050919050565b600060208201905081810360008301526137d581613799565b9050919050565b7f5348415245303233000000000000000000000000000000000000000000000000600082015250565b6000613812600883612aba565b915061381d826137dc565b602082019050919050565b6000602082019050818103600083015261384181613805565b9050919050565b7f4e487b7100000000000000000000000000000000000000000000000000000000600052602160045260246000fd5b6004811061388857613887613848565b5b50565b600081905061389982613877565b919050565b60006138a98261388b565b9050919050565b6138b98161389e565b82525050565b60006040820190506138d46000830185612bf5565b6138e160208301846138b0565b9392505050565b6000815190506138f781612d4b565b92915050565b600060208284031215613913576139126129ea565b5b6000613921848285016138e8565b91505092915050565b7f5348415245303030000000000000000000000000000000000000000000000000600082015250565b6000613960600883612aba565b915061396b8261392a565b602082019050919050565b6000602082019050818103600083015261398f81613953565b9050919050565b7f5348415245303031000000000000000000000000000000000000000000000000600082015250565b60006139cc600883612aba565b91506139d782613996565b602082019050919050565b600060208201905081810360008301526139fb816139bf565b9050919050565b8082525050565b613a1281612a79565b82525050565b6000604082019050613a2d6000830185613a02565b613a3a6020830184613a09565b9392505050565b7f5348415245303236000000000000000000000000000000000000000000000000600082015250565b6000613a77600883612aba565b9150613a8282613a41565b602082019050919050565b60006020820190508181036000830152613aa681613a6a565b9050919050565b7f4e487b7100000000000000000000000000000000000000000000000000000000600052603260045260246000fd5b7f5348415245303032000000000000000000000000000000000000000000000000600082015250565b6000613b12600883612aba565b9150613b1d82613adc565b602082019050919050565b60006020820190508181036000830152613b4181613b05565b9050919050565b7f4f776e61626c653a206e6577206f776e657220697320746865207a65726f206160008201527f6464726573730000000000000000000000000000000000000000000000000000602082015250565b6000613ba4602683612aba565b9150613baf82613b48565b604082019050919050565b60006020820190508181036000830152613bd381613b97565b9050919050565b7f4552433732313a207472616e736665722066726f6d20696e636f72726563742060008201527f6f776e6572000000000000000000000000000000000000000000000000000000602082015250565b6000613c36602583612aba565b9150613c4182613bda565b604082019050919050565b60006020820190508181036000830152613c6581613c29565b9050919050565b7f4552433732313a207472616e7366657220746f20746865207a65726f2061646460008201527f7265737300000000000000000000000000000000000000000000000000000000602082015250565b6000613cc8602483612aba565b9150613cd382613c6c565b604082019050919050565b60006020820190508181036000830152613cf781613cbb565b9050919050565b7f5265656e7472616e637947756172643a207265656e7472616e742063616c6c00600082015250565b6000613d34601f83612aba565b9150613d3f82613cfe565b602082019050919050565b60006020820190508181036000830152613d6381613d27565b9050919050565b7f4f776e61626c653a2063616c6c6572206973206e6f7420746865206f776e6572600082015250565b6000613da0602083612aba565b9150613dab82613d6a565b602082019050919050565b60006020820190508181036000830152613dcf81613d93565b9050919050565b7f4552433732313a20617070726f766520746f2063616c6c657200000000000000600082015250565b6000613e0c601983612aba565b9150613e1782613dd6565b602082019050919050565b60006020820190508181036000830152613e3b81613dff565b9050919050565b7f4552433732313a207472616e7366657220746f206e6f6e20455243373231526560008201527f63656976657220696d706c656d656e7465720000000000000000000000000000602082015250565b6000613e9e603283612aba565b9150613ea982613e42565b604082019050919050565b60006020820190508181036000830152613ecd81613e91565b9050919050565b8082525050565b613ee481612be3565b82525050565b6000604082019050613eff6000830185613ed4565b613f0c6020830184613edb565b9392505050565b600081519050919050565b600082825260208201905092915050565b6000613f3a82613f13565b613f448185613f1e565b9350613f54818560208601612acb565b613f5d81612afe565b840191505092915050565b6000608082019050613f7d6000830187612bf5565b613f8a6020830186612bf5565b613f9760408301856129b6565b8181036060830152613fa98184613f2f565b905095945050505050565b600081519050613fc381612a20565b92915050565b600060208284031215613fdf57613fde6129ea565b5b6000613fed84828501613fb4565b9150509291505056fea2646970667358221220ba0fbce37d9bb0ad996dcfad86564fb32a6a7905551d1dcaf66b4cbfec188c8864736f6c634300080b0033",
  "immutableReferences": {},
  "source": "// SPDX-License-Identifier: UNLICENSED\n// \n// \n// \n// \n// \n// \n// \n// https://formless.xyz/opportunities\n//\npragma solidity >=0.8.0 <0.9.0;\n\nimport \"@openzeppelin/contracts/security/ReentrancyGuard.sol\";\nimport \"./PFA.sol\";\nimport \"./libraries/CodeVerification.sol\";\nimport \"./libraries/Immutable.sol\";\nimport \"@openzeppelin/contracts/token/ERC721/ERC721.sol\";\n\n/// @title Standard pay-for-access (PFA) contract. Also implements\n/// ERC-721 standard (G_NFT).\n/// @author brandon@formless.xyz\ncontract PFAUnit is\n    PFA,\n    ERC721 /* G_NFT */\n{\n    /// @notice Emitted when a payment is sent to the owner of this\n    /// PFA.\n    event PaymentToOwner(address indexed owner, uint256 value);\n\n    string public constant NAME = \"SHARE\";\n    string public constant SYMBOL = \"PFA\";\n    uint256 private constant UNIT_TOKEN_INDEX = 0;\n\n    string internal _tokenURI;\n\n    constructor()\n        public\n        ERC721(NAME, SYMBOL)\n        LimitedOwnable(\n            true, /* WALLET */\n            true /* SPLIT */\n        )\n    {\n        _safeMint(msg.sender, UNIT_TOKEN_INDEX);\n    }\n\n    /// @notice Initializes this contract.\n    function initialize(\n        string memory tokenURI_,\n        uint256 pricePerAccess_,\n        uint256 grantTTL_,\n        bool supportsLicensing_,\n        uint256 pricePerLicense_,\n        address shareContractAddress_\n    ) public onlyOwner {\n        Immutable.setUnsignedInt256(_pricePerAccess, pricePerAccess_);\n        Immutable.setUnsignedInt256(_grantTTL, grantTTL_);\n        Immutable.setBoolean(_supportsLicensing, supportsLicensing_);\n        if (!supportsLicensing_) {\n            require(pricePerLicense_ == 0, \"SHARE026\");\n        }\n        Immutable.setUnsignedInt256(_pricePerLicense, pricePerLicense_);\n        setShareContractAddress(shareContractAddress_);\n        _tokenURI = tokenURI_;\n        setInitialized();\n    }\n\n    /// @notice If called with a value equal to the price per access\n    /// of this contract, records a grant timestamp on chain which is\n    /// read by decentralized distribution network (DDN) microservices\n    /// to decrypt and serve the associated content for the tokenURI.\n    function access(uint256 tokenId_, address recipient_)\n        public\n        override\n        payable\n        nonReentrant\n        afterInit\n    {\n        require(msg.value == _pricePerAccess.value, \"SHARE005\");\n        address owner = owner();\n        // Since this contract is a LimitedOwnable, the code which\n        // may reside at the owner address is restricted to approved\n        // hashes, therefore the following call is explicitly safe.\n        (bool success, ) = payable(owner).call{value: msg.value}(\"\");\n        require(success, \"SHARE021\");\n        // The grants table contains the timestamp of the grant award.\n        // This is used in determining the expiration of the access\n        // TTL.\n        _grantTimestamps[recipient_] = block.timestamp;\n        emit PaymentToOwner(owner, msg.value);\n        emit Grant(recipient_, tokenId_);\n        _transactionCount++;\n    }\n\n    /// @notice Returns the token URI (ERC-721) for the asset.\n    /// @dev In SHARE, this URI corresponds to a decentralized\n    /// distribution network (DDN) microservice endpoint which\n    /// conditionally renders token metadata based on contract state.\n    function tokenURI(uint256 tokenId_)\n        public\n        override\n        view\n        returns (string memory)\n    {\n        require(tokenId_ == UNIT_TOKEN_INDEX, \"SHARE004\");\n        return _tokenURI;\n    }\n\n    /// @notice Sets the token URI (ERC-721) for the asset.\n    /// @dev In SHARE, this URI corresponds to a decentralized\n    /// distribution network (DDN) microservice endpoint which\n    /// conditionally renders token metadata based on contract state.\n    function setTokenURI(string memory tokenURI_)\n        public\n        nonReentrant\n        onlyOwner\n    {\n        _tokenURI = tokenURI_;\n    }\n}\n",
  "sourcePath": "/Users/xiang2011w/Desktop/formless/smartContractGithub/share-v1-core/contracts/PFAUnit.sol",
  "compiler": {
    "name": "solc",
    "version": "0.8.11+commit.d7f03943.Emscripten.clang"
  },
  "schemaVersion": "3.4.16",
  "updatedAt": "2024-06-24T20:41:54.176Z",
  "devdoc": {
    "author": "brandon@formless.xyz",
    "kind": "dev",
    "methods": {
      "approve(address,uint256)": {
        "details": "See {IERC721-approve}."
      },
      "balanceOf(address)": {
        "details": "See {IERC721-balanceOf}."
      },
      "getApproved(uint256)": {
        "details": "See {IERC721-getApproved}."
      },
      "isApprovedForAll(address,address)": {
        "details": "See {IERC721-isApprovedForAll}."
      },
      "license(address)": {
        "details": "Proof of inclusion is in the form of source code verification of the licensee, as well as the assertion of immutable state of the licensee contract payout distribution table. Immutable state is verified using knowledge of the keccak256 hash of the runtime bytecode of the source code for approved licensees which implement a write-once distribution address table."
      },
      "name()": {
        "details": "See {IERC721Metadata-name}."
      },
      "owner()": {
        "details": "Returns the address of the current owner."
      },
      "ownerOf(uint256)": {
        "details": "See {IERC721-ownerOf}."
      },
      "renounceOwnership()": {
        "details": "Leaves the contract without owner. It will not be possible to call `onlyOwner` functions. Can only be called by the current owner. NOTE: Renouncing ownership will leave the contract without an owner, thereby disabling any functionality that is only available to the owner."
      },
      "safeTransferFrom(address,address,uint256)": {
        "details": "See {IERC721-safeTransferFrom}."
      },
      "safeTransferFrom(address,address,uint256,bytes)": {
        "details": "See {IERC721-safeTransferFrom}."
      },
      "setApprovalForAll(address,bool)": {
        "details": "See {IERC721-setApprovalForAll}."
      },
      "setTokenURI(string)": {
        "details": "In SHARE, this URI corresponds to a decentralized distribution network (DDN) microservice endpoint which conditionally renders token metadata based on contract state."
      },
      "supportsInterface(bytes4)": {
        "details": "See {IERC165-supportsInterface}."
      },
      "symbol()": {
        "details": "See {IERC721Metadata-symbol}."
      },
      "tokenURI(uint256)": {
        "details": "In SHARE, this URI corresponds to a decentralized distribution network (DDN) microservice endpoint which conditionally renders token metadata based on contract state."
      },
      "transferFrom(address,address,uint256)": {
        "details": "See {IERC721-transferFrom}."
      }
    },
    "title": "Standard pay-for-access (PFA) contract. Also implements ERC-721 standard (G_NFT).",
    "version": 1
  },
  "userdoc": {
    "events": {
      "Grant(address,uint256)": {
        "notice": "Emitted when a successful access grant is awarded to a recipient address."
      },
      "License(address)": {
        "notice": "Emitted when a successful license grant is awarded to a recipient (licensee) address."
      },
      "PaymentToOwner(address,uint256)": {
        "notice": "Emitted when a payment is sent to the owner of this PFA."
      }
    },
    "kind": "user",
    "methods": {
      "access(uint256,address)": {
        "notice": "If called with a value equal to the price per access of this contract, records a grant timestamp on chain which is read by decentralized distribution network (DDN) microservices to decrypt and serve the associated content for the tokenURI."
      },
      "grantTTL()": {
        "notice": "Returns the time-to-live (TTL) in seconds of an awarded access grant for this PFA. Access to the associated content expires at `grant award timestamp + grant TTL`."
      },
      "grantTimestamp(address)": {
        "notice": "Returns the timestamp in seconds of the award of a grant recorded on chain for the access of the content associated with this PFA."
      },
      "initialize(string,uint256,uint256,bool,uint256,address)": {
        "notice": "Initializes this contract."
      },
      "initialized()": {
        "notice": "Returns true if and only if the contract has been initialized by invoking the `initialize` function."
      },
      "license(address)": {
        "notice": "If called with a `recipient` (licensee) contract which has proof of inclusion of this PFA (licensor) address in its payout distribution table, records a license timestamp on chain which is read by decentralized distribution network (DDN) microservices to decrypt and serve the associated content for the tokenURI to users who have paid to access the licensee contract."
      },
      "licenseTimestamp(address)": {
        "notice": "Returns the timestamp in seconds of the award of a grant recorded on chain for the licensing of the content associated with this PFA."
      },
      "pricePerAccess()": {
        "notice": "Returns non-zero value if this asset requires payment for access. Zero otherwise."
      },
      "pricePerLicense()": {
        "notice": "Returns non-zero value if this asset requires payment for licensing. Zero otherwise. This value is immutable after contract initialization."
      },
      "setPricePerAccess(uint256)": {
        "notice": "Sets the price per access in wei for content backed by this contract."
      },
      "setTokenURI(string)": {
        "notice": "Sets the token URI (ERC-721) for the asset."
      },
      "supportsLicensing()": {
        "notice": "Returns true if this PFA supports licensing, where licensing is the ability for a separate contract to forward payment to this PFA in exchange for the ability to perpetually serve the underlying content on its behalf. For example, licensing may be used to achieve transaction gated playlisting of a collection of PFAs."
      },
      "tokenURI(uint256)": {
        "notice": "Returns the token URI (ERC-721) for the asset."
      },
      "transferOwnership(address)": {
        "notice": "Transfers ownership of the contract to `newOwner` if and only if `newOwner` satisfies the limited ownership requirements established in the constructor, otherwise, reverts the transaction."
      }
    },
    "version": 1
  }
}