{
  "contractName": "S2RD",
  "abi": [
    {
      "inputs": [],
      "stateMutability": "nonpayable",
      "type": "constructor"
    },
    {
      "anonymous": false,
      "inputs": [
        {
          "indexed": true,
          "internalType": "address",
          "name": "previousOwner",
          "type": "address"
        },
        {
          "indexed": true,
          "internalType": "address",
          "name": "newOwner",
          "type": "address"
        }
      ],
      "name": "OwnershipTransferred",
      "type": "event"
    },
    {
      "anonymous": false,
      "inputs": [
        {
          "indexed": true,
          "internalType": "address",
          "name": "from",
          "type": "address"
        },
        {
          "indexed": true,
          "internalType": "address",
          "name": "recipient",
          "type": "address"
        },
        {
          "indexed": true,
          "internalType": "uint256",
          "name": "addressIndex",
          "type": "uint256"
        },
        {
          "indexed": false,
          "internalType": "uint256",
          "name": "value",
          "type": "uint256"
        }
      ],
      "name": "Payment",
      "type": "event"
    },
    {
      "inputs": [],
      "name": "MAX_SPLIT_COUNT",
      "outputs": [
        {
          "internalType": "uint256",
          "name": "",
          "type": "uint256"
        }
      ],
      "stateMutability": "view",
      "type": "function"
    },
    {
      "inputs": [],
      "name": "VERSION",
      "outputs": [
        {
          "internalType": "string",
          "name": "",
          "type": "string"
        }
      ],
      "stateMutability": "view",
      "type": "function"
    },
    {
      "inputs": [],
      "name": "initialized",
      "outputs": [
        {
          "internalType": "bool",
          "name": "",
          "type": "bool"
        }
      ],
      "stateMutability": "view",
      "type": "function"
    },
    {
      "inputs": [],
      "name": "owner",
      "outputs": [
        {
          "internalType": "address",
          "name": "",
          "type": "address"
        }
      ],
      "stateMutability": "view",
      "type": "function"
    },
    {
      "inputs": [],
      "name": "renounceOwnership",
      "outputs": [],
      "stateMutability": "nonpayable",
      "type": "function"
    },
    {
      "inputs": [
        {
          "internalType": "address",
          "name": "newOwner",
          "type": "address"
        }
      ],
      "name": "transferOwnership",
      "outputs": [],
      "stateMutability": "nonpayable",
      "type": "function"
    },
    {
      "stateMutability": "payable",
      "type": "receive"
    },
    {
      "inputs": [
        {
          "internalType": "address[]",
          "name": "addresses_",
          "type": "address[]"
        },
        {
          "internalType": "address",
          "name": "shareContractAddress_",
          "type": "address"
        }
      ],
      "name": "initialize",
      "outputs": [],
      "stateMutability": "nonpayable",
      "type": "function"
    },
    {
      "inputs": [],
      "name": "addressIndex",
      "outputs": [
        {
          "internalType": "uint256",
          "name": "",
          "type": "uint256"
        }
      ],
      "stateMutability": "view",
      "type": "function"
    },
    {
      "inputs": [
        {
          "internalType": "address",
          "name": "contractAddress_",
          "type": "address"
        }
      ],
      "name": "reclaim",
      "outputs": [],
      "stateMutability": "nonpayable",
      "type": "function"
    }
  ],
  "bytecode": "0x608060405260006007553480156200001657600080fd5b50600160006200003b6200002f6200019b60201b60201c565b620001a360201b60201c565b600180819055503373ffffffffffffffffffffffffffffffffffffffff163273ffffffffffffffffffffffffffffffffffffffff1614620000b3576040517f08c379a0000000000000000000000000000000000000000000000000000000008152600401620000aa90620002c8565b60405180910390fd5b811562000113576002600090806001815401808255809150506001900390600052602060002090602091828204019190069091909190916101000a81548160ff021916908360038111156200010d576200010c620002ea565b5b02179055505b801562000173576002600190806001815401808255809150506001900390600052602060002090602091828204019190069091909190916101000a81548160ff021916908360038111156200016d576200016c620002ea565b5b02179055505b62000193620001876200019b60201b60201c565b620001a360201b60201c565b505062000319565b600033905090565b60008060009054906101000a900473ffffffffffffffffffffffffffffffffffffffff169050816000806101000a81548173ffffffffffffffffffffffffffffffffffffffff021916908373ffffffffffffffffffffffffffffffffffffffff1602179055508173ffffffffffffffffffffffffffffffffffffffff168173ffffffffffffffffffffffffffffffffffffffff167f8be0079c531659141344cd1fd0a4f28419497f9722a3daafe3b4186f6b6457e060405160405180910390a35050565b600082825260208201905092915050565b7f5348415245303132000000000000000000000000000000000000000000000000600082015250565b6000620002b060088362000267565b9150620002bd8262000278565b602082019050919050565b60006020820190508181036000830152620002e381620002a1565b9050919050565b7f4e487b7100000000000000000000000000000000000000000000000000000000600052602160045260246000fd5b6117da80620003296000396000f3fe60806040526004361061008a5760003560e01c8063715018a611610059578063715018a6146102bf5780638da5cb5b146102d6578063f2fde38b14610301578063fc772c8b1461032a578063ffa1ad741461035357610210565b8063158ef93e14610215578063462d0b2e146102405780635968abd3146102695780635ebd1e441461029457610210565b366102105761009761037e565b600460009054906101000a900460ff166100e6576040517f08c379a00000000000000000000000000000000000000000000000000000000081526004016100dd90610d76565b60405180910390fd5b600060056000016007548154811061010157610100610d96565b5b9060005260206000200160009054906101000a900473ffffffffffffffffffffffffffffffffffffffff1690506007548173ffffffffffffffffffffffffffffffffffffffff163373ffffffffffffffffffffffffffffffffffffffff167f10258bfd896826cf69e885380049b1d1be0424a813d5117744373ec9f51bc86c3460405161018e9190610dde565b60405180910390a460056000018054905060016007546101ae9190610e28565b6101b89190610ead565b6007819055508073ffffffffffffffffffffffffffffffffffffffff166108fc349081150290604051600060405180830381858888f19350505050158015610204573d6000803e3d6000fd5b505061020e6103ce565b005b600080fd5b34801561022157600080fd5b5061022a6103d7565b6040516102379190610ef9565b60405180910390f35b34801561024c57600080fd5b50610267600480360381019061026291906110df565b6103ee565b005b34801561027557600080fd5b5061027e610633565b60405161028b9190610dde565b60405180910390f35b3480156102a057600080fd5b506102a9610638565b6040516102b69190610dde565b60405180910390f35b3480156102cb57600080fd5b506102d4610691565b005b3480156102e257600080fd5b506102eb6106a5565b6040516102f8919061114a565b60405180910390f35b34801561030d57600080fd5b5061032860048036038101906103239190611165565b6106ce565b005b34801561033657600080fd5b50610351600480360381019061034c9190611165565b6108d1565b005b34801561035f57600080fd5b50610368610a88565b6040516103759190611209565b60405180910390f35b600260015414156103c4576040517f08c379a00000000000000000000000000000000000000000000000000000000081526004016103bb90611277565b60405180910390fd5b6002600181905550565b60018081905550565b6000600460009054906101000a900460ff16905090565b6103f6610ac1565b60c88251111561043b576040517f08c379a0000000000000000000000000000000000000000000000000000000008152600401610432906112e3565b60405180910390fd5b600182511015610480576040517f08c379a00000000000000000000000000000000000000000000000000000000081526004016104779061134f565b60405180910390fd5b61048981610b3f565b600081905060005b8351811015610607578173ffffffffffffffffffffffffffffffffffffffff16633cef5f768583815181106104c9576104c8610d96565b5b602002602001015160006040518363ffffffff1660e01b81526004016104f09291906113e6565b602060405180830381865afa15801561050d573d6000803e3d6000fd5b505050506040513d601f19601f82011682018060405250810190610531919061143b565b610570576040517f08c379a0000000000000000000000000000000000000000000000000000000008152600401610567906114b4565b60405180910390fd5b73__Immutable_____________________________63febf70aa600586848151811061059f5761059e610d96565b5b60200260200101516040518363ffffffff1660e01b81526004016105c49291906114ea565b60006040518083038186803b1580156105dc57600080fd5b505af41580156105f0573d6000803e3d6000fd5b5050505080806105ff90611513565b915050610491565b506001600560010160006101000a81548160ff02191690831515021790555061062e610bac565b505050565b60c881565b6000600460009054906101000a900460ff16610689576040517f08c379a000000000000000000000000000000000000000000000000000000000815260040161068090610d76565b60405180910390fd5b600754905090565b610699610ac1565b6106a36000610bd1565b565b60008060009054906101000a900473ffffffffffffffffffffffffffffffffffffffff16905090565b6106d6610ac1565b600460009054906101000a900460ff16610725576040517f08c379a000000000000000000000000000000000000000000000000000000000815260040161071c90610d76565b60405180910390fd5b600061072f610c95565b90506000805b600280549050811015610812578273ffffffffffffffffffffffffffffffffffffffff16633cef5f76856002848154811061077357610772610d96565b5b90600052602060002090602091828204019190069054906101000a900460ff166040518363ffffffff1660e01b81526004016107b09291906113e6565b602060405180830381865afa1580156107cd573d6000803e3d6000fd5b505050506040513d601f19601f820116820180604052508101906107f1919061143b565b156107ff5760019150610812565b808061080a90611513565b915050610735565b5080610853576040517f08c379a000000000000000000000000000000000000000000000000000000000815260040161084a906115a8565b60405180910390fd5b600073ffffffffffffffffffffffffffffffffffffffff168373ffffffffffffffffffffffffffffffffffffffff1614156108c3576040517f08c379a00000000000000000000000000000000000000000000000000000000081526004016108ba9061163a565b60405180910390fd5b6108cc83610bd1565b505050565b600460009054906101000a900460ff16610920576040517f08c379a000000000000000000000000000000000000000000000000000000000815260040161091790610d76565b60405180910390fd5b610928610ac1565b61093061037e565b60008190503073ffffffffffffffffffffffffffffffffffffffff168173ffffffffffffffffffffffffffffffffffffffff16638da5cb5b6040518163ffffffff1660e01b8152600401602060405180830381865afa158015610997573d6000803e3d6000fd5b505050506040513d601f19601f820116820180604052508101906109bb919061166f565b73ffffffffffffffffffffffffffffffffffffffff1614610a11576040517f08c379a0000000000000000000000000000000000000000000000000000000008152600401610a08906116e8565b60405180910390fd5b8073ffffffffffffffffffffffffffffffffffffffff1663f2fde38b336040518263ffffffff1660e01b8152600401610a4a919061114a565b600060405180830381600087803b158015610a6457600080fd5b505af1158015610a78573d6000803e3d6000fd5b5050505050610a856103ce565b50565b6040518060400160405280600581526020017f312e302e3000000000000000000000000000000000000000000000000000000081525081565b610ac9610d11565b73ffffffffffffffffffffffffffffffffffffffff16610ae76106a5565b73ffffffffffffffffffffffffffffffffffffffff1614610b3d576040517f08c379a0000000000000000000000000000000000000000000000000000000008152600401610b3490611754565b60405180910390fd5b565b73__Immutable_____________________________634135c1446003836040518363ffffffff1660e01b8152600401610b7992919061177b565b60006040518083038186803b158015610b9157600080fd5b505af4158015610ba5573d6000803e3d6000fd5b5050505050565b610bb4610ac1565b6001600460006101000a81548160ff021916908315150217905550565b60008060009054906101000a900473ffffffffffffffffffffffffffffffffffffffff169050816000806101000a81548173ffffffffffffffffffffffffffffffffffffffff021916908373ffffffffffffffffffffffffffffffffffffffff1602179055508173ffffffffffffffffffffffffffffffffffffffff168173ffffffffffffffffffffffffffffffffffffffff167f8be0079c531659141344cd1fd0a4f28419497f9722a3daafe3b4186f6b6457e060405160405180910390a35050565b6000600460009054906101000a900460ff16610ce6576040517f08c379a0000000000000000000000000000000000000000000000000000000008152600401610cdd90610d76565b60405180910390fd5b600360000160009054906101000a900473ffffffffffffffffffffffffffffffffffffffff16905090565b600033905090565b600082825260208201905092915050565b7f5348415245303134000000000000000000000000000000000000000000000000600082015250565b6000610d60600883610d19565b9150610d6b82610d2a565b602082019050919050565b60006020820190508181036000830152610d8f81610d53565b9050919050565b7f4e487b7100000000000000000000000000000000000000000000000000000000600052603260045260246000fd5b6000819050919050565b610dd881610dc5565b82525050565b6000602082019050610df36000830184610dcf565b92915050565b7f4e487b7100000000000000000000000000000000000000000000000000000000600052601160045260246000fd5b6000610e3382610dc5565b9150610e3e83610dc5565b9250827fffffffffffffffffffffffffffffffffffffffffffffffffffffffffffffffff03821115610e7357610e72610df9565b5b828201905092915050565b7f4e487b7100000000000000000000000000000000000000000000000000000000600052601260045260246000fd5b6000610eb882610dc5565b9150610ec383610dc5565b925082610ed357610ed2610e7e565b5b828206905092915050565b60008115159050919050565b610ef381610ede565b82525050565b6000602082019050610f0e6000830184610eea565b92915050565b6000604051905090565b600080fd5b600080fd5b600080fd5b6000601f19601f8301169050919050565b7f4e487b7100000000000000000000000000000000000000000000000000000000600052604160045260246000fd5b610f7682610f2d565b810181811067ffffffffffffffff82111715610f9557610f94610f3e565b5b80604052505050565b6000610fa8610f14565b9050610fb48282610f6d565b919050565b600067ffffffffffffffff821115610fd457610fd3610f3e565b5b602082029050602081019050919050565b600080fd5b600073ffffffffffffffffffffffffffffffffffffffff82169050919050565b600061101582610fea565b9050919050565b6110258161100a565b811461103057600080fd5b50565b6000813590506110428161101c565b92915050565b600061105b61105684610fb9565b610f9e565b9050808382526020820190506020840283018581111561107e5761107d610fe5565b5b835b818110156110a757806110938882611033565b845260208401935050602081019050611080565b5050509392505050565b600082601f8301126110c6576110c5610f28565b5b81356110d6848260208601611048565b91505092915050565b600080604083850312156110f6576110f5610f1e565b5b600083013567ffffffffffffffff81111561111457611113610f23565b5b611120858286016110b1565b925050602061113185828601611033565b9150509250929050565b6111448161100a565b82525050565b600060208201905061115f600083018461113b565b92915050565b60006020828403121561117b5761117a610f1e565b5b600061118984828501611033565b91505092915050565b600081519050919050565b60005b838110156111bb5780820151818401526020810190506111a0565b838111156111ca576000848401525b50505050565b60006111db82611192565b6111e58185610d19565b93506111f581856020860161119d565b6111fe81610f2d565b840191505092915050565b6000602082019050818103600083015261122381846111d0565b905092915050565b7f5265656e7472616e637947756172643a207265656e7472616e742063616c6c00600082015250565b6000611261601f83610d19565b915061126c8261122b565b602082019050919050565b6000602082019050818103600083015261129081611254565b9050919050565b7f5348415245303036000000000000000000000000000000000000000000000000600082015250565b60006112cd600883610d19565b91506112d882611297565b602082019050919050565b600060208201905081810360008301526112fc816112c0565b9050919050565b7f5348415245303230000000000000000000000000000000000000000000000000600082015250565b6000611339600883610d19565b915061134482611303565b602082019050919050565b600060208201905081810360008301526113688161132c565b9050919050565b7f4e487b7100000000000000000000000000000000000000000000000000000000600052602160045260246000fd5b600481106113af576113ae61136f565b5b50565b60008190506113c08261139e565b919050565b60006113d0826113b2565b9050919050565b6113e0816113c5565b82525050565b60006040820190506113fb600083018561113b565b61140860208301846113d7565b9392505050565b61141881610ede565b811461142357600080fd5b50565b6000815190506114358161140f565b92915050565b60006020828403121561145157611450610f1e565b5b600061145f84828501611426565b91505092915050565b7f5348415245303037000000000000000000000000000000000000000000000000600082015250565b600061149e600883610d19565b91506114a982611468565b602082019050919050565b600060208201905081810360008301526114cd81611491565b9050919050565b8082525050565b6114e48161100a565b82525050565b60006040820190506114ff60008301856114d4565b61150c60208301846114db565b9392505050565b600061151e82610dc5565b91507fffffffffffffffffffffffffffffffffffffffffffffffffffffffffffffffff82141561155157611550610df9565b5b600182019050919050565b7f5348415245303032000000000000000000000000000000000000000000000000600082015250565b6000611592600883610d19565b915061159d8261155c565b602082019050919050565b600060208201905081810360008301526115c181611585565b9050919050565b7f4f776e61626c653a206e6577206f776e657220697320746865207a65726f206160008201527f6464726573730000000000000000000000000000000000000000000000000000602082015250565b6000611624602683610d19565b915061162f826115c8565b604082019050919050565b6000602082019050818103600083015261165381611617565b9050919050565b6000815190506116698161101c565b92915050565b60006020828403121561168557611684610f1e565b5b60006116938482850161165a565b91505092915050565b7f5348415245303235000000000000000000000000000000000000000000000000600082015250565b60006116d2600883610d19565b91506116dd8261169c565b602082019050919050565b60006020820190508181036000830152611701816116c5565b9050919050565b7f4f776e61626c653a2063616c6c6572206973206e6f7420746865206f776e6572600082015250565b600061173e602083610d19565b915061174982611708565b602082019050919050565b6000602082019050818103600083015261176d81611731565b9050919050565b8082525050565b60006040820190506117906000830185611774565b61179d60208301846114db565b939250505056fea2646970667358221220a53cb01bfd130b25eb21540c5a4a0747ac21dbbb4913633a6ec169fa6698ddf664736f6c634300080b0033",
  "immutableReferences": {},
  "source": "// SPDX-License-Identifier: UNLICENSED\n// \n// \n// \n// \n// \n// \n// \n// https://formless.xyz/opportunities\n//\npragma solidity >=0.8.0 <0.9.0;\n\nimport \"./libraries/Immutable.sol\";\nimport \"./LimitedOwnable.sol\";\n\n/// @title Swift Rotating Royalty Distributor (S2RD).\n/// @author brandon@formless.xyz\n/// @notice This contract implements efficient royalty splitting by\n/// shuffling recipients off chain into a random distribution and\n/// dealing transactions to those recipients on-chain atomically, e.g.\n/// royalties are \"dealt\" in a rotating fashion rather than \"split\".\n/// This results in immense gas savings and as the number of\n/// transactions approaches infinity the delta between revenue\n/// received and revenue owed by each recipient approaches zero.\ncontract S2RD is LimitedOwnable {\n    /// @notice Emitted when a payment is sent to a stakeholder\n    /// listed within this royalty distribution contract.\n    event Payment(\n        address indexed from,\n        address indexed recipient,\n        uint256 indexed addressIndex,\n        uint256 value\n    );\n\n    uint256 public constant MAX_SPLIT_COUNT = 200;\n    Immutable.AddressArray private _addresses;\n    uint256 private _currentAddressIndex = 0;\n\n    constructor()\n        public\n        LimitedOwnable(\n            true, /* WALLET */\n            false /* SPLIT */\n        )\n    {}\n\n    /// @notice Initializes this contract.\n    /// @dev Recipient address table is constructed off-chain and is\n    /// constructed as follows:\n    /// 1. A number of slots are allocated in an array corresponding\n    /// to 1 / minimum percentage of any stakeholder in this asset.\n    /// 2. Addresses are assigned to slots such that the probability\n    /// of an iterator pointing to a given address is equal to that\n    /// address's ownership stake in the asset.\n    /// 3. Additionally, the layout specified in (2) is randomized\n    /// such that primary stakeholders have no advantage in payment\n    /// time given that the iterator increments linearly through the\n    /// address table.\n    function initialize(\n        address[] memory addresses_,\n        address shareContractAddress_\n    ) public onlyOwner {\n        require(addresses_.length <= MAX_SPLIT_COUNT, \"SHARE006\");\n        require(addresses_.length >= 1, \"SHARE020\");\n        setShareContractAddress(shareContractAddress_);\n        SHARE protocol = SHARE(shareContractAddress_);\n        for (uint256 i = 0; i < addresses_.length; i++) {\n            // All addresses in the table are SHARE approved wallets,\n            // e.g. EOAs or wallets with approved code hashes.\n            require(\n                protocol.isApprovedBuild(\n                    addresses_[i],\n                    CodeVerification.BuildType.WALLET\n                ),\n                \"SHARE007\"\n            );\n            Immutable.pushAddress(_addresses, addresses_[i]);\n        }\n        _addresses.locked = true;\n        setInitialized();\n    }\n\n    /// @notice Returns the index of the address in the table which\n    /// is the next address to receive payment on the reception of\n    /// ether by this contract.\n    function addressIndex() public view afterInit returns (uint256) {\n        return _currentAddressIndex;\n    }\n\n    /// @notice Receives ether and distributes it among stakeholders\n    /// specified in this contract using the S2RD method described\n    /// above.\n    receive() external payable nonReentrant afterInit {\n        address recipient = _addresses.value[_currentAddressIndex];\n        emit Payment(msg.sender, recipient, _currentAddressIndex, msg.value);\n        _currentAddressIndex =\n            (_currentAddressIndex + 1) %\n            (_addresses.value.length);\n        payable(recipient).transfer(msg.value); // max 2300 gas\n    }\n\n    /// @notice Reclaims a contract owned by this S2RD, e.g. if a PFA\n    /// is owned by this split, the split owner may transfer\n    /// ownership of the PFA back to their account. This is intended\n    /// for maintenance purposes, e.g. the ability for S2RD owners to\n    /// update tokenURIs and prices of PFAs, after which they may\n    /// transfer (restore) ownership of the PFA back to the S2RD.\n    ///\n    /// 1: init  | 2:reclaim | 3: maintain | 4: restore\n    /// -----------------------------------------------\n    /// [Owner]     [Owner]     [Owner]     [Owner]\n    ///   |            |           |           |\n    ///   |            |           |           |\n    ///   |            |           |           |\n    /// [S2RD]       [PFA]       calls       [S2RD]\n    ///   |                  setTokenURI()     |\n    ///   |                                    |\n    ///   |                                    |\n    /// [PFA]                                [PFA]\n    function reclaim(address contractAddress_)\n        public\n        afterInit\n        onlyOwner\n        nonReentrant\n    {\n        Ownable asset = Ownable(contractAddress_);\n        require(asset.owner() == address(this), \"SHARE025\");\n        asset.transferOwnership(msg.sender);\n    }\n}\n",
  "sourcePath": "/Users/xiang2011w/Desktop/formless/smartContractGithub/share-v1-core/contracts/S2RD.sol",
  "compiler": {
    "name": "solc",
    "version": "0.8.11+commit.d7f03943.Emscripten.clang"
  },
  "schemaVersion": "3.4.16",
  "updatedAt": "2024-06-24T20:41:54.187Z",
  "devdoc": {
    "author": "brandon@formless.xyz",
    "kind": "dev",
    "methods": {
      "initialize(address[],address)": {
        "details": "Recipient address table is constructed off-chain and is constructed as follows: 1. A number of slots are allocated in an array corresponding to 1 / minimum percentage of any stakeholder in this asset. 2. Addresses are assigned to slots such that the probability of an iterator pointing to a given address is equal to that address's ownership stake in the asset. 3. Additionally, the layout specified in (2) is randomized such that primary stakeholders have no advantage in payment time given that the iterator increments linearly through the address table."
      },
      "owner()": {
        "details": "Returns the address of the current owner."
      },
      "renounceOwnership()": {
        "details": "Leaves the contract without owner. It will not be possible to call `onlyOwner` functions. Can only be called by the current owner. NOTE: Renouncing ownership will leave the contract without an owner, thereby disabling any functionality that is only available to the owner."
      }
    },
    "title": "Swift Rotating Royalty Distributor (S2RD).",
    "version": 1
  },
  "userdoc": {
    "events": {
      "Payment(address,address,uint256,uint256)": {
        "notice": "Emitted when a payment is sent to a stakeholder listed within this royalty distribution contract."
      }
    },
    "kind": "user",
    "methods": {
      "addressIndex()": {
        "notice": "Returns the index of the address in the table which is the next address to receive payment on the reception of ether by this contract."
      },
      "initialize(address[],address)": {
        "notice": "Initializes this contract."
      },
      "initialized()": {
        "notice": "Returns true if and only if the contract has been initialized by invoking the `initialize` function."
      },
      "reclaim(address)": {
        "notice": "Reclaims a contract owned by this S2RD, e.g. if a PFA is owned by this split, the split owner may transfer ownership of the PFA back to their account. This is intended for maintenance purposes, e.g. the ability for S2RD owners to update tokenURIs and prices of PFAs, after which they may transfer (restore) ownership of the PFA back to the S2RD. 1: init  | 2:reclaim | 3: maintain | 4: restore ----------------------------------------------- [Owner]     [Owner]     [Owner]     [Owner]   |            |           |           |   |            |           |           |   |            |           |           | [S2RD]       [PFA]       calls       [S2RD]   |                  setTokenURI()     |   |                                    |   |                                    | [PFA]                                [PFA]"
      },
      "transferOwnership(address)": {
        "notice": "Transfers ownership of the contract to `newOwner` if and only if `newOwner` satisfies the limited ownership requirements established in the constructor, otherwise, reverts the transaction."
      }
    },
    "notice": "This contract implements efficient royalty splitting by shuffling recipients off chain into a random distribution and dealing transactions to those recipients on-chain atomically, e.g. royalties are \"dealt\" in a rotating fashion rather than \"split\". This results in immense gas savings and as the number of transactions approaches infinity the delta between revenue received and revenue owed by each recipient approaches zero.",
    "version": 1
  }
}