{
  "contractName": "SHARE",
  "abi": [
    {
      "inputs": [],
      "stateMutability": "nonpayable",
      "type": "constructor"
    },
    {
      "anonymous": false,
      "inputs": [
        {
          "indexed": true,
          "internalType": "address",
          "name": "recipient",
          "type": "address"
        },
        {
          "indexed": true,
          "internalType": "address",
          "name": "contractAddress",
          "type": "address"
        },
        {
          "indexed": true,
          "internalType": "uint256",
          "name": "tokenId",
          "type": "uint256"
        }
      ],
      "name": "Grant",
      "type": "event"
    },
    {
      "anonymous": false,
      "inputs": [
        {
          "indexed": true,
          "internalType": "address",
          "name": "licensor",
          "type": "address"
        },
        {
          "indexed": true,
          "internalType": "address",
          "name": "licensee",
          "type": "address"
        }
      ],
      "name": "License",
      "type": "event"
    },
    {
      "anonymous": false,
      "inputs": [
        {
          "indexed": true,
          "internalType": "address",
          "name": "previousOwner",
          "type": "address"
        },
        {
          "indexed": true,
          "internalType": "address",
          "name": "newOwner",
          "type": "address"
        }
      ],
      "name": "OwnershipTransferred",
      "type": "event"
    },
    {
      "inputs": [],
      "name": "VERSION",
      "outputs": [
        {
          "internalType": "string",
          "name": "",
          "type": "string"
        }
      ],
      "stateMutability": "view",
      "type": "function"
    },
    {
      "inputs": [],
      "name": "_codeVerificationEnabled",
      "outputs": [
        {
          "internalType": "bool",
          "name": "",
          "type": "bool"
        }
      ],
      "stateMutability": "view",
      "type": "function"
    },
    {
      "inputs": [],
      "name": "_transactionCount",
      "outputs": [
        {
          "internalType": "uint256",
          "name": "",
          "type": "uint256"
        }
      ],
      "stateMutability": "view",
      "type": "function"
    },
    {
      "inputs": [],
      "name": "_transactionFeeDenominator",
      "outputs": [
        {
          "internalType": "uint256",
          "name": "",
          "type": "uint256"
        }
      ],
      "stateMutability": "view",
      "type": "function"
    },
    {
      "inputs": [],
      "name": "_transactionFeeNumerator",
      "outputs": [
        {
          "internalType": "uint256",
          "name": "",
          "type": "uint256"
        }
      ],
      "stateMutability": "view",
      "type": "function"
    },
    {
      "inputs": [],
      "name": "owner",
      "outputs": [
        {
          "internalType": "address",
          "name": "",
          "type": "address"
        }
      ],
      "stateMutability": "view",
      "type": "function"
    },
    {
      "inputs": [],
      "name": "renounceOwnership",
      "outputs": [],
      "stateMutability": "nonpayable",
      "type": "function"
    },
    {
      "inputs": [
        {
          "internalType": "address",
          "name": "newOwner",
          "type": "address"
        }
      ],
      "name": "transferOwnership",
      "outputs": [],
      "stateMutability": "nonpayable",
      "type": "function"
    },
    {
      "inputs": [
        {
          "internalType": "uint256",
          "name": "numerator_",
          "type": "uint256"
        },
        {
          "internalType": "uint256",
          "name": "denominator_",
          "type": "uint256"
        }
      ],
      "name": "setTransactionFee",
      "outputs": [],
      "stateMutability": "nonpayable",
      "type": "function"
    },
    {
      "inputs": [
        {
          "internalType": "address",
          "name": "contractAddress_",
          "type": "address"
        },
        {
          "internalType": "uint256",
          "name": "tokenId_",
          "type": "uint256"
        }
      ],
      "name": "grossPricePerAccess",
      "outputs": [
        {
          "internalType": "uint256",
          "name": "",
          "type": "uint256"
        }
      ],
      "stateMutability": "view",
      "type": "function"
    },
    {
      "inputs": [
        {
          "internalType": "address",
          "name": "contractAddress_",
          "type": "address"
        }
      ],
      "name": "grossPricePerLicense",
      "outputs": [
        {
          "internalType": "uint256",
          "name": "",
          "type": "uint256"
        }
      ],
      "stateMutability": "view",
      "type": "function"
    },
    {
      "inputs": [
        {
          "internalType": "address",
          "name": "contractAddress_",
          "type": "address"
        },
        {
          "internalType": "uint256",
          "name": "tokenId_",
          "type": "uint256"
        }
      ],
      "name": "access",
      "outputs": [],
      "stateMutability": "payable",
      "type": "function"
    },
    {
      "inputs": [
        {
          "internalType": "address",
          "name": "licensorContract_",
          "type": "address"
        },
        {
          "internalType": "address",
          "name": "licenseeContract_",
          "type": "address"
        }
      ],
      "name": "license",
      "outputs": [],
      "stateMutability": "payable",
      "type": "function"
    },
    {
      "inputs": [
        {
          "internalType": "address",
          "name": "contractAddress_",
          "type": "address"
        },
        {
          "internalType": "address",
          "name": "recipient_",
          "type": "address"
        }
      ],
      "name": "grantTimestamp",
      "outputs": [
        {
          "internalType": "uint256",
          "name": "",
          "type": "uint256"
        }
      ],
      "stateMutability": "view",
      "type": "function"
    },
    {
      "inputs": [
        {
          "internalType": "address",
          "name": "licensorAddress_",
          "type": "address"
        },
        {
          "internalType": "address",
          "name": "licenseeAddress_",
          "type": "address"
        }
      ],
      "name": "licenseTimestamp",
      "outputs": [
        {
          "internalType": "uint256",
          "name": "",
          "type": "uint256"
        }
      ],
      "stateMutability": "view",
      "type": "function"
    },
    {
      "inputs": [],
      "name": "withdraw",
      "outputs": [],
      "stateMutability": "nonpayable",
      "type": "function"
    },
    {
      "inputs": [
        {
          "internalType": "bool",
          "name": "enable",
          "type": "bool"
        }
      ],
      "name": "setCodeVerificationEnabled",
      "outputs": [],
      "stateMutability": "nonpayable",
      "type": "function"
    },
    {
      "inputs": [
        {
          "internalType": "bytes32",
          "name": "codeHash",
          "type": "bytes32"
        },
        {
          "internalType": "enum CodeVerification.BuildType",
          "name": "buildType_",
          "type": "uint8"
        },
        {
          "internalType": "string",
          "name": "compilerBinaryTarget_",
          "type": "string"
        },
        {
          "internalType": "string",
          "name": "compilerVersion_",
          "type": "string"
        },
        {
          "internalType": "address",
          "name": "authorAddress_",
          "type": "address"
        }
      ],
      "name": "addApprovedBuild",
      "outputs": [],
      "stateMutability": "nonpayable",
      "type": "function"
    },
    {
      "inputs": [
        {
          "internalType": "address",
          "name": "address_",
          "type": "address"
        },
        {
          "internalType": "enum CodeVerification.BuildType",
          "name": "buildType_",
          "type": "uint8"
        }
      ],
      "name": "isApprovedBuild",
      "outputs": [
        {
          "internalType": "bool",
          "name": "",
          "type": "bool"
        }
      ],
      "stateMutability": "view",
      "type": "function"
    },
    {
      "inputs": [
        {
          "internalType": "bytes32",
          "name": "hash",
          "type": "bytes32"
        },
        {
          "internalType": "enum CodeVerification.BuildType",
          "name": "buildType_",
          "type": "uint8"
        }
      ],
      "name": "isApprovedBuildHash",
      "outputs": [
        {
          "internalType": "bool",
          "name": "",
          "type": "bool"
        }
      ],
      "stateMutability": "view",
      "type": "function"
    }
  ],
  "bytecode": "0x60806040526001600255601460035560006004556001600560006101000a81548160ff0219169083151502179055503480156200003b57600080fd5b506200005c62000050620000c060201b60201c565b620000c860201b60201c565b60018081905550620000ba7fc5d2460186f7233c927e7db2dcc703c0e500b653ca82273b7bfad8045d85a47060001b60006040518060200160405280600081525060405180602001604052806000815250336200018c60201b60201c565b620007d8565b600033905090565b60008060009054906101000a900473ffffffffffffffffffffffffffffffffffffffff169050816000806101000a81548173ffffffffffffffffffffffffffffffffffffffff021916908373ffffffffffffffffffffffffffffffffffffffff1602179055508173ffffffffffffffffffffffffffffffffffffffff168173ffffffffffffffffffffffffffffffffffffffff167f8be0079c531659141344cd1fd0a4f28419497f9722a3daafe3b4186f6b6457e060405160405180910390a35050565b6200019c6200041760201b60201c565b620001ac620004a860201b60201c565b60006003811115620001c357620001c2620005dd565b5b846003811115620001d957620001d8620005dd565b5b148062000210575060016003811115620001f857620001f7620005dd565b5b8460038111156200020e576200020d620005dd565b5b145b80620002465750600260038111156200022e576200022d620005dd565b5b846003811115620002445762000243620005dd565b5b145b806200027b5750600380811115620002635762000262620005dd565b5b846003811115620002795762000278620005dd565b5b145b620002bd576040517f08c379a0000000000000000000000000000000000000000000000000000000008152600401620002b4906200066d565b60405180910390fd5b6040518060a00160405280856003811115620002de57620002dd620005dd565b5b81526020018481526020018381526020018273ffffffffffffffffffffffffffffffffffffffff168152602001600115158152506006600087815260200190815260200160002060008201518160000160006101000a81548160ff02191690836003811115620003535762000352620005dd565b5b02179055506020820151816001019080519060200190620003769291906200052d565b506040820151816002019080519060200190620003959291906200052d565b5060608201518160030160006101000a81548173ffffffffffffffffffffffffffffffffffffffff021916908373ffffffffffffffffffffffffffffffffffffffff16021790555060808201518160030160146101000a81548160ff02191690831515021790555090505062000410620004fb60201b60201c565b5050505050565b62000427620000c060201b60201c565b73ffffffffffffffffffffffffffffffffffffffff166200044d6200050460201b60201c565b73ffffffffffffffffffffffffffffffffffffffff1614620004a6576040517f08c379a00000000000000000000000000000000000000000000000000000000081526004016200049d90620006df565b60405180910390fd5b565b60026001541415620004f1576040517f08c379a0000000000000000000000000000000000000000000000000000000008152600401620004e89062000751565b60405180910390fd5b6002600181905550565b60018081905550565b60008060009054906101000a900473ffffffffffffffffffffffffffffffffffffffff16905090565b8280546200053b90620007a2565b90600052602060002090601f0160209004810192826200055f5760008555620005ab565b82601f106200057a57805160ff1916838001178555620005ab565b82800160010185558215620005ab579182015b82811115620005aa5782518255916020019190600101906200058d565b5b509050620005ba9190620005be565b5090565b5b80821115620005d9576000816000905550600101620005bf565b5090565b7f4e487b7100000000000000000000000000000000000000000000000000000000600052602160045260246000fd5b600082825260208201905092915050565b7f5348415245303137000000000000000000000000000000000000000000000000600082015250565b6000620006556008836200060c565b915062000662826200061d565b602082019050919050565b60006020820190508181036000830152620006888162000646565b9050919050565b7f4f776e61626c653a2063616c6c6572206973206e6f7420746865206f776e6572600082015250565b6000620006c76020836200060c565b9150620006d4826200068f565b602082019050919050565b60006020820190508181036000830152620006fa81620006b8565b9050919050565b7f5265656e7472616e637947756172643a207265656e7472616e742063616c6c00600082015250565b600062000739601f836200060c565b9150620007468262000701565b602082019050919050565b600060208201905081810360008301526200076c816200072a565b9050919050565b7f4e487b7100000000000000000000000000000000000000000000000000000000600052602260045260246000fd5b60006002820490506001821680620007bb57607f821691505b60208210811415620007d257620007d162000773565b5b50919050565b61219b80620007e86000396000f3fe60806040526004361061011f5760003560e01c806378b3c640116100a0578063da41c48411610064578063da41c484146103d5578063f2fde38b146103f1578063f581fb681461041a578063f6773eb514610436578063ffa1ad74146104735761011f565b806378b3c640146102dc578063807b944e1461030757806386ada51e146103305780638da5cb5b1461036d5780639816abf2146103985761011f565b806341e74b36116100e757806341e74b36146102095780634b3e5195146102465780634b4b02dd146102715780636eca7aaf1461029c578063715018a6146102c55761011f565b806306df481514610124578063332d13ad1461014f57806337d7d41e1461018c5780633ccfd60b146101b55780633cef5f76146101cc575b600080fd5b34801561013057600080fd5b5061013961049e565b60405161014691906114d1565b60405180910390f35b34801561015b57600080fd5b506101766004803603810190610171919061155b565b6104a4565b60405161018391906115b6565b60405180910390f35b34801561019857600080fd5b506101b360048036038101906101ae91906115fd565b610548565b005b3480156101c157600080fd5b506101ca610572565b005b3480156101d857600080fd5b506101f360048036038101906101ee919061169b565b6105d3565b60405161020091906115b6565b60405180910390f35b34801561021557600080fd5b50610230600480360381019061022b91906116db565b6106f5565b60405161023d91906114d1565b60405180910390f35b34801561025257600080fd5b5061025b6107e7565b60405161026891906114d1565b60405180910390f35b34801561027d57600080fd5b506102866107ed565b60405161029391906114d1565b60405180910390f35b3480156102a857600080fd5b506102c360048036038101906102be9190611747565b6107f3565b005b3480156102d157600080fd5b506102da610828565b005b3480156102e857600080fd5b506102f161083c565b6040516102fe91906115b6565b60405180910390f35b34801561031357600080fd5b5061032e600480360381019061032991906118ba565b61084f565b005b34801561033c57600080fd5b506103576004803603810190610352919061196d565b610a9a565b60405161036491906114d1565b60405180910390f35b34801561037957600080fd5b50610382610b21565b60405161038f91906119bc565b60405180910390f35b3480156103a457600080fd5b506103bf60048036038101906103ba919061196d565b610b4a565b6040516103cc91906114d1565b60405180910390f35b6103ef60048036038101906103ea919061196d565b610bd1565b005b3480156103fd57600080fd5b50610418600480360381019061041391906119d7565b610ecc565b005b610434600480360381019061042f91906116db565b610f50565b005b34801561044257600080fd5b5061045d600480360381019061045891906119d7565b61118b565b60405161046a91906114d1565b60405180910390f35b34801561047f57600080fd5b50610488611239565b6040516104959190611a8c565b60405180910390f35b60045481565b6000600560009054906101000a900460ff166104c35760019050610542565b6006600084815260200190815260200160002060030160149054906101000a900460ff161561053d578160038111156104ff576104fe611aae565b5b6006600085815260200190815260200160002060000160009054906101000a900460ff16600381111561053557610534611aae565b5b149050610542565b600090505b92915050565b610550611272565b6105586112c2565b816002819055508060038190555061056e611340565b5050565b61057a611272565b6105826112c2565b3373ffffffffffffffffffffffffffffffffffffffff166108fc479081150290604051600060405180830381858888f193505050501580156105c8573d6000803e3d6000fd5b506105d1611340565b565b6000600560009054906101000a900460ff166105f257600190506106ef565b600073__CodeVerification______________________636e1d8a9d856040518263ffffffff1660e01b815260040161062b9190611aec565b602060405180830381865af4158015610648573d6000803e3d6000fd5b505050506040513d601f19601f8201168201806040525081019061066c9190611b1c565b90506006600082815260200190815260200160002060030160149054906101000a900460ff16156106e9578260038111156106aa576106a9611aae565b5b6006600083815260200190815260200160002060000160009054906101000a900460ff1660038111156106e0576106df611aae565b5b149150506106ef565b60009150505b92915050565b6000808214610739576040517f08c379a000000000000000000000000000000000000000000000000000000000815260040161073090611b95565b60405180910390fd5b600083905060008173ffffffffffffffffffffffffffffffffffffffff16635bc3c82c6040518163ffffffff1660e01b8152600401602060405180830381865afa15801561078b573d6000803e3d6000fd5b505050506040513d601f19601f820116820180604052508101906107af9190611bca565b90506000600354600254836107c49190611c26565b6107ce9190611caf565b905080826107dc9190611ce0565b935050505092915050565b60035481565b60025481565b6107fb611272565b6108036112c2565b80600560006101000a81548160ff021916908315150217905550610825611340565b50565b6108306112c2565b61083a6000611349565b565b600560009054906101000a900460ff1681565b6108576112c2565b61085f611272565b6000600381111561087357610872611aae565b5b84600381111561088657610885611aae565b5b14806108b65750600160038111156108a1576108a0611aae565b5b8460038111156108b4576108b3611aae565b5b145b806108e55750600260038111156108d0576108cf611aae565b5b8460038111156108e3576108e2611aae565b5b145b8061091357506003808111156108fe576108fd611aae565b5b84600381111561091157610910611aae565b5b145b610952576040517f08c379a000000000000000000000000000000000000000000000000000000000815260040161094990611d82565b60405180910390fd5b6040518060a001604052808560038111156109705761096f611aae565b5b81526020018481526020018381526020018273ffffffffffffffffffffffffffffffffffffffff168152602001600115158152506006600087815260200190815260200160002060008201518160000160006101000a81548160ff021916908360038111156109e2576109e1611aae565b5b02179055506020820151816001019080519060200190610a03929190611415565b506040820151816002019080519060200190610a20929190611415565b5060608201518160030160006101000a81548173ffffffffffffffffffffffffffffffffffffffff021916908373ffffffffffffffffffffffffffffffffffffffff16021790555060808201518160030160146101000a81548160ff021916908315150217905550905050610a93611340565b5050505050565b6000600760008473ffffffffffffffffffffffffffffffffffffffff1673ffffffffffffffffffffffffffffffffffffffff16815260200190815260200160002060008373ffffffffffffffffffffffffffffffffffffffff1673ffffffffffffffffffffffffffffffffffffffff16815260200190815260200160002054905092915050565b60008060009054906101000a900473ffffffffffffffffffffffffffffffffffffffff16905090565b6000600860008473ffffffffffffffffffffffffffffffffffffffff1673ffffffffffffffffffffffffffffffffffffffff16815260200190815260200160002060008373ffffffffffffffffffffffffffffffffffffffff1673ffffffffffffffffffffffffffffffffffffffff16815260200190815260200160002054905092915050565b610bd9611272565b8073ffffffffffffffffffffffffffffffffffffffff16638da5cb5b6040518163ffffffff1660e01b8152600401602060405180830381865afa158015610c24573d6000803e3d6000fd5b505050506040513d601f19601f82011682018060405250810190610c489190611db7565b73ffffffffffffffffffffffffffffffffffffffff163373ffffffffffffffffffffffffffffffffffffffff1614610cb5576040517f08c379a0000000000000000000000000000000000000000000000000000000008152600401610cac90611e30565b60405180910390fd5b6000610cc08361118b565b9050803414610d04576040517f08c379a0000000000000000000000000000000000000000000000000000000008152600401610cfb90611e9c565b60405180910390fd5b60008390508073ffffffffffffffffffffffffffffffffffffffff1663d6062e448273ffffffffffffffffffffffffffffffffffffffff1663ce1ebbf86040518163ffffffff1660e01b8152600401602060405180830381865afa158015610d70573d6000803e3d6000fd5b505050506040513d601f19601f82011682018060405250810190610d949190611bca565b856040518363ffffffff1660e01b8152600401610db191906119bc565b6000604051808303818588803b158015610dca57600080fd5b505af1158015610dde573d6000803e3d6000fd5b505050505042600860008673ffffffffffffffffffffffffffffffffffffffff1673ffffffffffffffffffffffffffffffffffffffff16815260200190815260200160002060008573ffffffffffffffffffffffffffffffffffffffff1673ffffffffffffffffffffffffffffffffffffffff168152602001908152602001600020819055508273ffffffffffffffffffffffffffffffffffffffff168473ffffffffffffffffffffffffffffffffffffffff167f55310234f77cbf7ca00a671b7e7acf95d660ac8a428eec47b4cd377da8f5cc7a60405160405180910390a35050610ec8611340565b5050565b610ed46112c2565b600073ffffffffffffffffffffffffffffffffffffffff168173ffffffffffffffffffffffffffffffffffffffff161415610f44576040517f08c379a0000000000000000000000000000000000000000000000000000000008152600401610f3b90611f2e565b60405180910390fd5b610f4d81611349565b50565b610f58611272565b60008290506000610f6984846106f5565b9050803414610fad576040517f08c379a0000000000000000000000000000000000000000000000000000000008152600401610fa490611f9a565b60405180910390fd5b8173ffffffffffffffffffffffffffffffffffffffff166395e9463f8373ffffffffffffffffffffffffffffffffffffffff16635bc3c82c6040518163ffffffff1660e01b8152600401602060405180830381865afa158015611014573d6000803e3d6000fd5b505050506040513d601f19601f820116820180604052508101906110389190611bca565b85336040518463ffffffff1660e01b8152600401611057929190611fba565b6000604051808303818588803b15801561107057600080fd5b505af1158015611084573d6000803e3d6000fd5b505050505042600760008673ffffffffffffffffffffffffffffffffffffffff1673ffffffffffffffffffffffffffffffffffffffff16815260200190815260200160002060003373ffffffffffffffffffffffffffffffffffffffff1673ffffffffffffffffffffffffffffffffffffffff16815260200190815260200160002081905550828473ffffffffffffffffffffffffffffffffffffffff163373ffffffffffffffffffffffffffffffffffffffff167fdc1e872d7927b949dd471e2dd9d43153685b5564c9a6aaf82246e27c0a9f2a2860405160405180910390a46004600081548092919061117890611fe3565b91905055505050611187611340565b5050565b60008082905060008173ffffffffffffffffffffffffffffffffffffffff1663ce1ebbf86040518163ffffffff1660e01b8152600401602060405180830381865afa1580156111de573d6000803e3d6000fd5b505050506040513d601f19601f820116820180604052508101906112029190611bca565b90506000600354600254836112179190611c26565b6112219190611caf565b9050808261122f9190611ce0565b9350505050919050565b6040518060400160405280600581526020017f312e302e3000000000000000000000000000000000000000000000000000000081525081565b600260015414156112b8576040517f08c379a00000000000000000000000000000000000000000000000000000000081526004016112af90612078565b60405180910390fd5b6002600181905550565b6112ca61140d565b73ffffffffffffffffffffffffffffffffffffffff166112e8610b21565b73ffffffffffffffffffffffffffffffffffffffff161461133e576040517f08c379a0000000000000000000000000000000000000000000000000000000008152600401611335906120e4565b60405180910390fd5b565b60018081905550565b60008060009054906101000a900473ffffffffffffffffffffffffffffffffffffffff169050816000806101000a81548173ffffffffffffffffffffffffffffffffffffffff021916908373ffffffffffffffffffffffffffffffffffffffff1602179055508173ffffffffffffffffffffffffffffffffffffffff168173ffffffffffffffffffffffffffffffffffffffff167f8be0079c531659141344cd1fd0a4f28419497f9722a3daafe3b4186f6b6457e060405160405180910390a35050565b600033905090565b82805461142190612133565b90600052602060002090601f016020900481019282611443576000855561148a565b82601f1061145c57805160ff191683800117855561148a565b8280016001018555821561148a579182015b8281111561148957825182559160200191906001019061146e565b5b509050611497919061149b565b5090565b5b808211156114b457600081600090555060010161149c565b5090565b6000819050919050565b6114cb816114b8565b82525050565b60006020820190506114e660008301846114c2565b92915050565b6000604051905090565b600080fd5b600080fd5b6000819050919050565b61151381611500565b811461151e57600080fd5b50565b6000813590506115308161150a565b92915050565b6004811061154357600080fd5b50565b60008135905061155581611536565b92915050565b60008060408385031215611572576115716114f6565b5b600061158085828601611521565b925050602061159185828601611546565b9150509250929050565b60008115159050919050565b6115b08161159b565b82525050565b60006020820190506115cb60008301846115a7565b92915050565b6115da816114b8565b81146115e557600080fd5b50565b6000813590506115f7816115d1565b92915050565b60008060408385031215611614576116136114f6565b5b6000611622858286016115e8565b9250506020611633858286016115e8565b9150509250929050565b600073ffffffffffffffffffffffffffffffffffffffff82169050919050565b60006116688261163d565b9050919050565b6116788161165d565b811461168357600080fd5b50565b6000813590506116958161166f565b92915050565b600080604083850312156116b2576116b16114f6565b5b60006116c085828601611686565b92505060206116d185828601611546565b9150509250929050565b600080604083850312156116f2576116f16114f6565b5b600061170085828601611686565b9250506020611711858286016115e8565b9150509250929050565b6117248161159b565b811461172f57600080fd5b50565b6000813590506117418161171b565b92915050565b60006020828403121561175d5761175c6114f6565b5b600061176b84828501611732565b91505092915050565b600080fd5b600080fd5b6000601f19601f8301169050919050565b7f4e487b7100000000000000000000000000000000000000000000000000000000600052604160045260246000fd5b6117c78261177e565b810181811067ffffffffffffffff821117156117e6576117e561178f565b5b80604052505050565b60006117f96114ec565b905061180582826117be565b919050565b600067ffffffffffffffff8211156118255761182461178f565b5b61182e8261177e565b9050602081019050919050565b82818337600083830152505050565b600061185d6118588461180a565b6117ef565b90508281526020810184848401111561187957611878611779565b5b61188484828561183b565b509392505050565b600082601f8301126118a1576118a0611774565b5b81356118b184826020860161184a565b91505092915050565b600080600080600060a086880312156118d6576118d56114f6565b5b60006118e488828901611521565b95505060206118f588828901611546565b945050604086013567ffffffffffffffff811115611916576119156114fb565b5b6119228882890161188c565b935050606086013567ffffffffffffffff811115611943576119426114fb565b5b61194f8882890161188c565b925050608061196088828901611686565b9150509295509295909350565b60008060408385031215611984576119836114f6565b5b600061199285828601611686565b92505060206119a385828601611686565b9150509250929050565b6119b68161165d565b82525050565b60006020820190506119d160008301846119ad565b92915050565b6000602082840312156119ed576119ec6114f6565b5b60006119fb84828501611686565b91505092915050565b600081519050919050565b600082825260208201905092915050565b60005b83811015611a3e578082015181840152602081019050611a23565b83811115611a4d576000848401525b50505050565b6000611a5e82611a04565b611a688185611a0f565b9350611a78818560208601611a20565b611a818161177e565b840191505092915050565b60006020820190508181036000830152611aa68184611a53565b905092915050565b7f4e487b7100000000000000000000000000000000000000000000000000000000600052602160045260246000fd5b611ae68161165d565b82525050565b6000602082019050611b016000830184611add565b92915050565b600081519050611b168161150a565b92915050565b600060208284031215611b3257611b316114f6565b5b6000611b4084828501611b07565b91505092915050565b7f5348415245303034000000000000000000000000000000000000000000000000600082015250565b6000611b7f600883611a0f565b9150611b8a82611b49565b602082019050919050565b60006020820190508181036000830152611bae81611b72565b9050919050565b600081519050611bc4816115d1565b92915050565b600060208284031215611be057611bdf6114f6565b5b6000611bee84828501611bb5565b91505092915050565b7f4e487b7100000000000000000000000000000000000000000000000000000000600052601160045260246000fd5b6000611c31826114b8565b9150611c3c836114b8565b9250817fffffffffffffffffffffffffffffffffffffffffffffffffffffffffffffffff0483118215151615611c7557611c74611bf7565b5b828202905092915050565b7f4e487b7100000000000000000000000000000000000000000000000000000000600052601260045260246000fd5b6000611cba826114b8565b9150611cc5836114b8565b925082611cd557611cd4611c80565b5b828204905092915050565b6000611ceb826114b8565b9150611cf6836114b8565b9250827fffffffffffffffffffffffffffffffffffffffffffffffffffffffffffffffff03821115611d2b57611d2a611bf7565b5b828201905092915050565b7f5348415245303137000000000000000000000000000000000000000000000000600082015250565b6000611d6c600883611a0f565b9150611d7782611d36565b602082019050919050565b60006020820190508181036000830152611d9b81611d5f565b9050919050565b600081519050611db18161166f565b92915050565b600060208284031215611dcd57611dcc6114f6565b5b6000611ddb84828501611da2565b91505092915050565b7f5348415245303136000000000000000000000000000000000000000000000000600082015250565b6000611e1a600883611a0f565b9150611e2582611de4565b602082019050919050565b60006020820190508181036000830152611e4981611e0d565b9050919050565b7f5348415245303234000000000000000000000000000000000000000000000000600082015250565b6000611e86600883611a0f565b9150611e9182611e50565b602082019050919050565b60006020820190508181036000830152611eb581611e79565b9050919050565b7f4f776e61626c653a206e6577206f776e657220697320746865207a65726f206160008201527f6464726573730000000000000000000000000000000000000000000000000000602082015250565b6000611f18602683611a0f565b9150611f2382611ebc565b604082019050919050565b60006020820190508181036000830152611f4781611f0b565b9050919050565b7f5348415245303131000000000000000000000000000000000000000000000000600082015250565b6000611f84600883611a0f565b9150611f8f82611f4e565b602082019050919050565b60006020820190508181036000830152611fb381611f77565b9050919050565b6000604082019050611fcf60008301856114c2565b611fdc60208301846119ad565b9392505050565b6000611fee826114b8565b91507fffffffffffffffffffffffffffffffffffffffffffffffffffffffffffffffff82141561202157612020611bf7565b5b600182019050919050565b7f5265656e7472616e637947756172643a207265656e7472616e742063616c6c00600082015250565b6000612062601f83611a0f565b915061206d8261202c565b602082019050919050565b6000602082019050818103600083015261209181612055565b9050919050565b7f4f776e61626c653a2063616c6c6572206973206e6f7420746865206f776e6572600082015250565b60006120ce602083611a0f565b91506120d982612098565b602082019050919050565b600060208201905081810360008301526120fd816120c1565b9050919050565b7f4e487b7100000000000000000000000000000000000000000000000000000000600052602260045260246000fd5b6000600282049050600182168061214b57607f821691505b6020821081141561215f5761215e612104565b5b5091905056fea2646970667358221220d8e2e49cc6ad8e300ad838a330460a642d116b3293813fa460f1c3b31b986d6464736f6c634300080b0033",
  "immutableReferences": {},
  "source": "// SPDX-License-Identifier: UNLICENSED\n// \n// \n// \n// \n// \n// \n// \n// https://formless.xyz/opportunities\n//\npragma solidity >=0.8.0 <0.9.0;\n\nimport \"@openzeppelin/contracts/access/Ownable.sol\";\nimport \"@openzeppelin/contracts/security/ReentrancyGuard.sol\";\nimport \"./libraries/CodeVerification.sol\";\nimport \"./interfaces/IPFA.sol\";\n\n/// @title SHARE protocol contract.\n/// @author brandon@formless.xyz\n/// @notice A protocol which works in conjunction with SHARE\n/// decentralized distribution network (DDN) microservice endpoints\n/// to perform content distribtion on blockchain with creator\n/// controlled pay-for-access (PFA) micro-transactions.\ncontract SHARE is Ownable, ReentrancyGuard {\n    /// @notice Emitted when a successful access grant is awarded\n    /// to a recipient address for a given PFA contract.\n    event Grant(\n        address indexed recipient,\n        address indexed contractAddress,\n        uint256 indexed tokenId\n    );\n\n    /// @notice Emitted when a successful license grant is awarded\n    /// to a recipient (licensee) address for a given PFA (licensor) contract.\n    event License(address indexed licensor, address indexed licensee);\n\n    string public constant VERSION = \"1.0.0\";\n    bytes32\n        private constant EOA_KECCAK256 = 0xc5d2460186f7233c927e7db2dcc703c0e500b653ca82273b7bfad8045d85a470;\n    uint256 public _transactionFeeNumerator = 1;\n    uint256 public _transactionFeeDenominator = 20;\n    uint256 public _transactionCount = 0;\n    bool public _codeVerificationEnabled = true;\n    uint256 private constant UNIT_TOKEN_INDEX = 0;\n\n    mapping(bytes32 => ApprovedBuild) internal _approvedHashes;\n    mapping(address => mapping(address => uint256)) internal _grantTimestamps;\n    mapping(address => mapping(address => uint256)) internal _licenseTimestamps;\n\n    struct ApprovedBuild {\n        CodeVerification.BuildType buildType;\n        string compilerBinaryTarget;\n        string compilerVersion;\n        address authorAddress;\n        bool exists;\n    }\n\n    constructor() public {\n        addApprovedBuild(\n            EOA_KECCAK256,\n            CodeVerification.BuildType.WALLET,\n            \"\",\n            \"\",\n            msg.sender\n        );\n    }\n\n    /// @notice Used to set the transaction fee for the protocol.\n    /// Calculated using provided _numerator / _denominator. Note that\n    /// SHARE PFA contracts can (optionally) be accessed _without_\n    /// using the SHARE protocol contract if the URI microservice\n    /// endpoint is self-hosted, however the use of SHARE provided\n    /// DDN endpoints requires an associated payment to the protocol.\n    function setTransactionFee(uint256 numerator_, uint256 denominator_)\n        public\n        nonReentrant\n        onlyOwner\n    {\n        _transactionFeeNumerator = numerator_;\n        _transactionFeeDenominator = denominator_;\n    }\n\n    /// @notice Returns the consumer facing gross price to access the\n    /// the asset. This price is calculated using `access price` +\n    ///`access price` * `transaction fee`.\n    function grossPricePerAccess(address contractAddress_, uint256 tokenId_)\n        public\n        view\n        returns (uint256)\n    {\n        require(tokenId_ == UNIT_TOKEN_INDEX, \"SHARE004\");\n        IPFA asset = IPFA(contractAddress_);\n        uint256 pricePerAccess = asset.pricePerAccess();\n        // Note that this contract is implemented with Solidity\n        // version >=0.8.0 which has built-in overflow checks,\n        // therefore using SafeMath is not required.\n        uint256 protocolFee = (pricePerAccess * _transactionFeeNumerator) /\n            _transactionFeeDenominator;\n        return pricePerAccess + protocolFee;\n    }\n\n    /// @notice Returns the licensee facing gross price to license the\n    /// the asset. This price is calculated using `license price` +\n    ///`license price` * `transaction fee`.\n    function grossPricePerLicense(address contractAddress_)\n        public\n        view\n        returns (uint256)\n    {\n        IPFA asset = IPFA(contractAddress_);\n        uint256 pricePerLicense = asset.pricePerLicense();\n        // Note that this contract is implemented with Solidity\n        // version >=0.8.0 which has built-in overflow checks,\n        // therefore using SafeMath is not required.\n        uint256 protocolFee = (pricePerLicense * _transactionFeeNumerator) /\n            _transactionFeeDenominator;\n        return pricePerLicense + protocolFee;\n    }\n\n    /// @notice Instantiates the creator contract and calls the\n    /// access method. If successful, this transaction produces a\n    /// grant awarded to the sender with a corresponding TTL.\n    function access(address contractAddress_, uint256 tokenId_)\n        public\n        payable\n        nonReentrant\n    {\n        IPFA asset = IPFA(contractAddress_);\n        uint256 grossPrice = grossPricePerAccess(contractAddress_, tokenId_);\n        require(msg.value == grossPrice, \"SHARE011\");\n        asset.access{value: asset.pricePerAccess()}(tokenId_, msg.sender);\n        _grantTimestamps[contractAddress_][msg.sender] = block.timestamp;\n        emit Grant(msg.sender, contractAddress_, tokenId_);\n        _transactionCount++;\n    }\n\n    /// @notice If called with a `licenseeContract_` contract which\n    /// has proof of inclusion of the supplied `licensorContract_`\n    /// PFA address in its payout distribution table, records a\n    /// license timestamp on chain which is read by decentralized\n    /// distribution network (DDN) microservices to decrypt and serve\n    /// the associated content for the tokenURI to users who have\n    /// paid to access the licensee contract.\n    function license(address licensorContract_, address licenseeContract_)\n        public\n        payable\n        nonReentrant\n    {\n        require(msg.sender == Ownable(licenseeContract_).owner(), \"SHARE016\");\n        uint256 grossPrice = grossPricePerLicense(licensorContract_);\n        require(msg.value == grossPrice, \"SHARE024\");\n        IPFA asset = IPFA(licensorContract_);\n        asset.license{value: asset.pricePerLicense()}(licenseeContract_);\n        _licenseTimestamps[licensorContract_][licenseeContract_] = block\n            .timestamp;\n        emit License(licensorContract_, licenseeContract_);\n    }\n\n    /// @notice Returns the timestamp in seconds of the award of a\n    /// grant recorded on chain for the access of the content\n    /// associated with the supplied PFA and recipient address.\n    function grantTimestamp(address contractAddress_, address recipient_)\n        public\n        view\n        returns (uint256)\n    {\n        return _grantTimestamps[contractAddress_][recipient_];\n    }\n\n    /// @notice Returns the timestamp in seconds of the award of a\n    /// grant recorded on chain for the licensing of the content\n    /// associated with the supplied PFA and recipient address.\n    function licenseTimestamp(\n        address licensorAddress_,\n        address licenseeAddress_\n    ) public view returns (uint256) {\n        return _licenseTimestamps[licensorAddress_][licenseeAddress_];\n    }\n\n    /// @notice Withdraws contract balance.\n    function withdraw() public nonReentrant onlyOwner {\n        payable(msg.sender).transfer(address(this).balance);\n    }\n\n    /// @notice Enables or disables protocol source code verification\n    /// for contracts interacting with the protocol.\n    function setCodeVerificationEnabled(bool enable)\n        public\n        nonReentrant\n        onlyOwner\n    {\n        _codeVerificationEnabled = enable;\n    }\n\n    /// @notice Adds the keccak256 hash of the runtime bytecode of\n    /// an approved source code build for a SHARE protocol\n    /// interoperable contract. If source code verification is turned\n    /// on, the system will revert upon attempt to send ether to\n    /// a contract built from non-approved source code.\n    function addApprovedBuild(\n        bytes32 codeHash,\n        CodeVerification.BuildType buildType_,\n        string memory compilerBinaryTarget_,\n        string memory compilerVersion_,\n        address authorAddress_\n    ) public onlyOwner nonReentrant {\n        require(\n            (buildType_ == CodeVerification.BuildType.WALLET ||\n                buildType_ == CodeVerification.BuildType.SPLIT ||\n                buildType_ == CodeVerification.BuildType.PFA_UNIT ||\n                buildType_ == CodeVerification.BuildType.PFA_COLLECTION),\n            \"SHARE017\"\n        );\n        _approvedHashes[codeHash] = ApprovedBuild(\n            buildType_,\n            compilerBinaryTarget_,\n            compilerVersion_,\n            authorAddress_,\n            true\n        );\n    }\n\n    /// @notice Returns true if the keccak256 hash of the runtime\n    /// bytecode stored at the given `address_` corresponds to a build\n    /// of approved source code for SHARE protocol interoperability.\n    function isApprovedBuild(\n        address address_,\n        CodeVerification.BuildType buildType_\n    ) public view returns (bool) {\n        if (!_codeVerificationEnabled) {\n            return true;\n        } else {\n            bytes32 codeHash = CodeVerification.readCodeHash(address_);\n            if (_approvedHashes[codeHash].exists) {\n                return _approvedHashes[codeHash].buildType == buildType_;\n            } else {\n                return false;\n            }\n        }\n    }\n\n    /// @notice Returns true if the supplied keccak256\n    /// hash corresponds to a build of approved source code for SHARE\n    /// protocol interoperability.\n    function isApprovedBuildHash(\n        bytes32 hash,\n        CodeVerification.BuildType buildType_\n    ) public view returns (bool) {\n        if (!_codeVerificationEnabled) {\n            return true;\n        } else {\n            if (_approvedHashes[hash].exists) {\n                return _approvedHashes[hash].buildType == buildType_;\n            } else {\n                return false;\n            }\n        }\n    }\n}\n",
  "sourcePath": "/Users/xiang2011w/Desktop/formless/smartContractGithub/share-v1-core/contracts/SHARE.sol",
  "compiler": {
    "name": "solc",
    "version": "0.8.11+commit.d7f03943.Emscripten.clang"
  },
  "schemaVersion": "3.4.16",
  "updatedAt": "2024-06-24T20:41:54.192Z",
  "devdoc": {
    "author": "brandon@formless.xyz",
    "kind": "dev",
    "methods": {
      "owner()": {
        "details": "Returns the address of the current owner."
      },
      "renounceOwnership()": {
        "details": "Leaves the contract without owner. It will not be possible to call `onlyOwner` functions. Can only be called by the current owner. NOTE: Renouncing ownership will leave the contract without an owner, thereby disabling any functionality that is only available to the owner."
      },
      "transferOwnership(address)": {
        "details": "Transfers ownership of the contract to a new account (`newOwner`). Can only be called by the current owner."
      }
    },
    "title": "SHARE protocol contract.",
    "version": 1
  },
  "userdoc": {
    "events": {
      "Grant(address,address,uint256)": {
        "notice": "Emitted when a successful access grant is awarded to a recipient address for a given PFA contract."
      },
      "License(address,address)": {
        "notice": "Emitted when a successful license grant is awarded to a recipient (licensee) address for a given PFA (licensor) contract."
      }
    },
    "kind": "user",
    "methods": {
      "access(address,uint256)": {
        "notice": "Instantiates the creator contract and calls the access method. If successful, this transaction produces a grant awarded to the sender with a corresponding TTL."
      },
      "addApprovedBuild(bytes32,uint8,string,string,address)": {
        "notice": "Adds the keccak256 hash of the runtime bytecode of an approved source code build for a SHARE protocol interoperable contract. If source code verification is turned on, the system will revert upon attempt to send ether to a contract built from non-approved source code."
      },
      "grantTimestamp(address,address)": {
        "notice": "Returns the timestamp in seconds of the award of a grant recorded on chain for the access of the content associated with the supplied PFA and recipient address."
      },
      "grossPricePerAccess(address,uint256)": {
        "notice": "Returns the consumer facing gross price to access the the asset. This price is calculated using `access price` + `access price` * `transaction fee`."
      },
      "grossPricePerLicense(address)": {
        "notice": "Returns the licensee facing gross price to license the the asset. This price is calculated using `license price` + `license price` * `transaction fee`."
      },
      "isApprovedBuild(address,uint8)": {
        "notice": "Returns true if the keccak256 hash of the runtime bytecode stored at the given `address_` corresponds to a build of approved source code for SHARE protocol interoperability."
      },
      "isApprovedBuildHash(bytes32,uint8)": {
        "notice": "Returns true if the supplied keccak256 hash corresponds to a build of approved source code for SHARE protocol interoperability."
      },
      "license(address,address)": {
        "notice": "If called with a `licenseeContract_` contract which has proof of inclusion of the supplied `licensorContract_` PFA address in its payout distribution table, records a license timestamp on chain which is read by decentralized distribution network (DDN) microservices to decrypt and serve the associated content for the tokenURI to users who have paid to access the licensee contract."
      },
      "licenseTimestamp(address,address)": {
        "notice": "Returns the timestamp in seconds of the award of a grant recorded on chain for the licensing of the content associated with the supplied PFA and recipient address."
      },
      "setCodeVerificationEnabled(bool)": {
        "notice": "Enables or disables protocol source code verification for contracts interacting with the protocol."
      },
      "setTransactionFee(uint256,uint256)": {
        "notice": "Used to set the transaction fee for the protocol. Calculated using provided _numerator / _denominator. Note that SHARE PFA contracts can (optionally) be accessed _without_ using the SHARE protocol contract if the URI microservice endpoint is self-hosted, however the use of SHARE provided DDN endpoints requires an associated payment to the protocol."
      },
      "withdraw()": {
        "notice": "Withdraws contract balance."
      }
    },
    "notice": "A protocol which works in conjunction with SHARE decentralized distribution network (DDN) microservice endpoints to perform content distribtion on blockchain with creator controlled pay-for-access (PFA) micro-transactions.",
    "version": 1
  }
}