{
  "contractName": "SL2RD",
  "abi": [
    {
      "inputs": [],
      "stateMutability": "nonpayable",
      "type": "constructor"
    },
    {
      "anonymous": false,
      "inputs": [
        {
          "indexed": true,
          "internalType": "address",
          "name": "owner",
          "type": "address"
        },
        {
          "indexed": true,
          "internalType": "address",
          "name": "approved",
          "type": "address"
        },
        {
          "indexed": true,
          "internalType": "uint256",
          "name": "tokenId",
          "type": "uint256"
        }
      ],
      "name": "Approval",
      "type": "event"
    },
    {
      "anonymous": false,
      "inputs": [
        {
          "indexed": true,
          "internalType": "address",
          "name": "owner",
          "type": "address"
        },
        {
          "indexed": true,
          "internalType": "address",
          "name": "operator",
          "type": "address"
        },
        {
          "indexed": false,
          "internalType": "bool",
          "name": "approved",
          "type": "bool"
        }
      ],
      "name": "ApprovalForAll",
      "type": "event"
    },
    {
      "anonymous": false,
      "inputs": [
        {
          "indexed": true,
          "internalType": "uint256",
          "name": "tokenId",
          "type": "uint256"
        },
        {
          "indexed": true,
          "internalType": "address",
          "name": "toAddress",
          "type": "address"
        }
      ],
      "name": "MintingToken",
      "type": "event"
    },
    {
      "anonymous": false,
      "inputs": [
        {
          "indexed": true,
          "internalType": "address",
          "name": "previousOwner",
          "type": "address"
        },
        {
          "indexed": true,
          "internalType": "address",
          "name": "newOwner",
          "type": "address"
        }
      ],
      "name": "OwnershipTransferred",
      "type": "event"
    },
    {
      "anonymous": false,
      "inputs": [
        {
          "indexed": true,
          "internalType": "address",
          "name": "from",
          "type": "address"
        },
        {
          "indexed": true,
          "internalType": "address",
          "name": "recipient",
          "type": "address"
        },
        {
          "indexed": true,
          "internalType": "uint256",
          "name": "tokenIndex",
          "type": "uint256"
        },
        {
          "indexed": false,
          "internalType": "uint256",
          "name": "value",
          "type": "uint256"
        }
      ],
      "name": "Payment",
      "type": "event"
    },
    {
      "anonymous": false,
      "inputs": [
        {
          "indexed": true,
          "internalType": "address",
          "name": "from",
          "type": "address"
        },
        {
          "indexed": true,
          "internalType": "address",
          "name": "to",
          "type": "address"
        },
        {
          "indexed": true,
          "internalType": "uint256",
          "name": "tokenId",
          "type": "uint256"
        }
      ],
      "name": "Transfer",
      "type": "event"
    },
    {
      "inputs": [],
      "name": "MAX_BASIS_POINTS",
      "outputs": [
        {
          "internalType": "uint256",
          "name": "",
          "type": "uint256"
        }
      ],
      "stateMutability": "view",
      "type": "function"
    },
    {
      "inputs": [],
      "name": "MAX_PARTITION_SIZE",
      "outputs": [
        {
          "internalType": "uint256",
          "name": "",
          "type": "uint256"
        }
      ],
      "stateMutability": "view",
      "type": "function"
    },
    {
      "inputs": [],
      "name": "MAX_SPLIT_COUNT",
      "outputs": [
        {
          "internalType": "uint256",
          "name": "",
          "type": "uint256"
        }
      ],
      "stateMutability": "view",
      "type": "function"
    },
    {
      "inputs": [],
      "name": "VERSION",
      "outputs": [
        {
          "internalType": "string",
          "name": "",
          "type": "string"
        }
      ],
      "stateMutability": "view",
      "type": "function"
    },
    {
      "inputs": [
        {
          "internalType": "address",
          "name": "to",
          "type": "address"
        },
        {
          "internalType": "uint256",
          "name": "tokenId",
          "type": "uint256"
        }
      ],
      "name": "approve",
      "outputs": [],
      "stateMutability": "nonpayable",
      "type": "function"
    },
    {
      "inputs": [
        {
          "internalType": "address",
          "name": "owner",
          "type": "address"
        }
      ],
      "name": "balanceOf",
      "outputs": [
        {
          "internalType": "uint256",
          "name": "",
          "type": "uint256"
        }
      ],
      "stateMutability": "view",
      "type": "function"
    },
    {
      "inputs": [
        {
          "internalType": "uint256",
          "name": "tokenId",
          "type": "uint256"
        }
      ],
      "name": "getApproved",
      "outputs": [
        {
          "internalType": "address",
          "name": "",
          "type": "address"
        }
      ],
      "stateMutability": "view",
      "type": "function"
    },
    {
      "inputs": [],
      "name": "initialized",
      "outputs": [
        {
          "internalType": "bool",
          "name": "",
          "type": "bool"
        }
      ],
      "stateMutability": "view",
      "type": "function"
    },
    {
      "inputs": [
        {
          "internalType": "address",
          "name": "owner",
          "type": "address"
        },
        {
          "internalType": "address",
          "name": "operator",
          "type": "address"
        }
      ],
      "name": "isApprovedForAll",
      "outputs": [
        {
          "internalType": "bool",
          "name": "",
          "type": "bool"
        }
      ],
      "stateMutability": "view",
      "type": "function"
    },
    {
      "inputs": [],
      "name": "name",
      "outputs": [
        {
          "internalType": "string",
          "name": "",
          "type": "string"
        }
      ],
      "stateMutability": "view",
      "type": "function"
    },
    {
      "inputs": [],
      "name": "owner",
      "outputs": [
        {
          "internalType": "address",
          "name": "",
          "type": "address"
        }
      ],
      "stateMutability": "view",
      "type": "function"
    },
    {
      "inputs": [
        {
          "internalType": "uint256",
          "name": "tokenId",
          "type": "uint256"
        }
      ],
      "name": "ownerOf",
      "outputs": [
        {
          "internalType": "address",
          "name": "",
          "type": "address"
        }
      ],
      "stateMutability": "view",
      "type": "function"
    },
    {
      "inputs": [],
      "name": "renounceOwnership",
      "outputs": [],
      "stateMutability": "nonpayable",
      "type": "function"
    },
    {
      "inputs": [
        {
          "internalType": "address",
          "name": "operator",
          "type": "address"
        },
        {
          "internalType": "bool",
          "name": "approved",
          "type": "bool"
        }
      ],
      "name": "setApprovalForAll",
      "outputs": [],
      "stateMutability": "nonpayable",
      "type": "function"
    },
    {
      "inputs": [
        {
          "internalType": "bytes4",
          "name": "interfaceId",
          "type": "bytes4"
        }
      ],
      "name": "supportsInterface",
      "outputs": [
        {
          "internalType": "bool",
          "name": "",
          "type": "bool"
        }
      ],
      "stateMutability": "view",
      "type": "function"
    },
    {
      "inputs": [],
      "name": "symbol",
      "outputs": [
        {
          "internalType": "string",
          "name": "",
          "type": "string"
        }
      ],
      "stateMutability": "view",
      "type": "function"
    },
    {
      "inputs": [
        {
          "internalType": "uint256",
          "name": "tokenId",
          "type": "uint256"
        }
      ],
      "name": "tokenURI",
      "outputs": [
        {
          "internalType": "string",
          "name": "",
          "type": "string"
        }
      ],
      "stateMutability": "view",
      "type": "function"
    },
    {
      "inputs": [
        {
          "internalType": "address",
          "name": "newOwner",
          "type": "address"
        }
      ],
      "name": "transferOwnership",
      "outputs": [],
      "stateMutability": "nonpayable",
      "type": "function"
    },
    {
      "stateMutability": "payable",
      "type": "receive"
    },
    {
      "inputs": [
        {
          "internalType": "address[]",
          "name": "addresses_",
          "type": "address[]"
        },
        {
          "internalType": "uint256[]",
          "name": "tokenIds_",
          "type": "uint256[]"
        },
        {
          "internalType": "uint256",
          "name": "communitySplitsBasisPoints_",
          "type": "uint256"
        },
        {
          "internalType": "address",
          "name": "shareContractAddress_",
          "type": "address"
        },
        {
          "internalType": "address",
          "name": "operatorRegistryAddress_",
          "type": "address"
        }
      ],
      "name": "initialize",
      "outputs": [],
      "stateMutability": "nonpayable",
      "type": "function"
    },
    {
      "inputs": [
        {
          "internalType": "uint256",
          "name": "communitySplitsBasisPoints_",
          "type": "uint256"
        },
        {
          "internalType": "address",
          "name": "shareContractAddress_",
          "type": "address"
        },
        {
          "internalType": "address",
          "name": "operatorRegistryAddress_",
          "type": "address"
        }
      ],
      "name": "multipartInitializationBegin",
      "outputs": [],
      "stateMutability": "nonpayable",
      "type": "function"
    },
    {
      "inputs": [
        {
          "internalType": "uint256",
          "name": "partitionIndex_",
          "type": "uint256"
        },
        {
          "internalType": "address[]",
          "name": "addresses_",
          "type": "address[]"
        },
        {
          "internalType": "uint256[]",
          "name": "tokenIds_",
          "type": "uint256[]"
        }
      ],
      "name": "multipartAddPartition",
      "outputs": [],
      "stateMutability": "nonpayable",
      "type": "function"
    },
    {
      "inputs": [],
      "name": "multipartInitializationEnd",
      "outputs": [],
      "stateMutability": "nonpayable",
      "type": "function"
    },
    {
      "inputs": [],
      "name": "initialSplitDistributionTable",
      "outputs": [
        {
          "internalType": "address[]",
          "name": "",
          "type": "address[]"
        }
      ],
      "stateMutability": "view",
      "type": "function"
    },
    {
      "inputs": [],
      "name": "splitDistributionTable",
      "outputs": [
        {
          "internalType": "address[]",
          "name": "",
          "type": "address[]"
        }
      ],
      "stateMutability": "view",
      "type": "function"
    },
    {
      "inputs": [],
      "name": "tokenIdIndex",
      "outputs": [
        {
          "internalType": "uint256",
          "name": "",
          "type": "uint256"
        }
      ],
      "stateMutability": "view",
      "type": "function"
    },
    {
      "inputs": [],
      "name": "communitySplitsBasisPoints",
      "outputs": [
        {
          "internalType": "uint256",
          "name": "",
          "type": "uint256"
        }
      ],
      "stateMutability": "view",
      "type": "function"
    },
    {
      "inputs": [],
      "name": "countAllocatedCommunitySlots",
      "outputs": [
        {
          "internalType": "uint256",
          "name": "",
          "type": "uint256"
        }
      ],
      "stateMutability": "view",
      "type": "function"
    },
    {
      "inputs": [],
      "name": "totalSlots",
      "outputs": [
        {
          "internalType": "uint256",
          "name": "",
          "type": "uint256"
        }
      ],
      "stateMutability": "view",
      "type": "function"
    },
    {
      "inputs": [],
      "name": "totalCommunitySlots",
      "outputs": [
        {
          "internalType": "uint256",
          "name": "",
          "type": "uint256"
        }
      ],
      "stateMutability": "view",
      "type": "function"
    },
    {
      "inputs": [
        {
          "internalType": "address",
          "name": "from_",
          "type": "address"
        },
        {
          "internalType": "address",
          "name": "to_",
          "type": "address"
        },
        {
          "internalType": "uint256",
          "name": "tokenId_",
          "type": "uint256"
        }
      ],
      "name": "safeTransferFrom",
      "outputs": [],
      "stateMutability": "nonpayable",
      "type": "function"
    },
    {
      "inputs": [
        {
          "internalType": "address",
          "name": "from",
          "type": "address"
        },
        {
          "internalType": "address",
          "name": "to",
          "type": "address"
        },
        {
          "internalType": "uint256",
          "name": "tokenId",
          "type": "uint256"
        },
        {
          "internalType": "bytes",
          "name": "data",
          "type": "bytes"
        }
      ],
      "name": "safeTransferFrom",
      "outputs": [],
      "stateMutability": "nonpayable",
      "type": "function"
    },
    {
      "inputs": [
        {
          "internalType": "address",
          "name": "from_",
          "type": "address"
        },
        {
          "internalType": "address",
          "name": "to_",
          "type": "address"
        },
        {
          "internalType": "uint256",
          "name": "tokenId_",
          "type": "uint256"
        }
      ],
      "name": "transferFrom",
      "outputs": [],
      "stateMutability": "nonpayable",
      "type": "function"
    },
    {
      "inputs": [],
      "name": "slotTransferTimestamps",
      "outputs": [
        {
          "internalType": "uint256[10000]",
          "name": "",
          "type": "uint256[10000]"
        }
      ],
      "stateMutability": "view",
      "type": "function"
    },
    {
      "inputs": [
        {
          "internalType": "uint256",
          "name": "tokenId",
          "type": "uint256"
        }
      ],
      "name": "slotTransferTimestamp",
      "outputs": [
        {
          "internalType": "uint256",
          "name": "",
          "type": "uint256"
        }
      ],
      "stateMutability": "view",
      "type": "function"
    },
    {
      "inputs": [
        {
          "internalType": "address",
          "name": "to_",
          "type": "address"
        }
      ],
      "name": "transferNextAvailable",
      "outputs": [],
      "stateMutability": "nonpayable",
      "type": "function"
    },
    {
      "inputs": [
        {
          "internalType": "address",
          "name": "to_",
          "type": "address"
        },
        {
          "internalType": "uint256",
          "name": "slots_",
          "type": "uint256"
        }
      ],
      "name": "transferMultipleAvailable",
      "outputs": [],
      "stateMutability": "nonpayable",
      "type": "function"
    },
    {
      "inputs": [
        {
          "internalType": "address",
          "name": "contractAddress_",
          "type": "address"
        }
      ],
      "name": "reclaim",
      "outputs": [],
      "stateMutability": "nonpayable",
      "type": "function"
    }
  ],
  "bytecode": "0x60806040526000601455600060155560006016553480156200002057600080fd5b5060405180606001604052806029815260200162006373602991396040518060400160405280600581526020017f534c3252440000000000000000000000000000000000000000000000000000008152506001600062000095620000896200022960201b60201c565b6200023160201b60201c565b600180819055503373ffffffffffffffffffffffffffffffffffffffff163273ffffffffffffffffffffffffffffffffffffffff16146200010d576040517f08c379a0000000000000000000000000000000000000000000000000000000008152600401620001049062000406565b60405180910390fd5b81156200016d576002600090806001815401808255809150506001900390600052602060002090602091828204019190069091909190916101000a81548160ff0219169083600381111562000167576200016662000428565b5b02179055505b8015620001cd576002600190806001815401808255809150506001900390600052602060002090602091828204019190069091909190916101000a81548160ff02191690836003811115620001c757620001c662000428565b5b02179055505b620001ed620001e16200022960201b60201c565b6200023160201b60201c565b5050816005908051906020019062000207929190620002f5565b50806006908051906020019062000220929190620002f5565b505050620004bc565b600033905090565b60008060009054906101000a900473ffffffffffffffffffffffffffffffffffffffff169050816000806101000a81548173ffffffffffffffffffffffffffffffffffffffff021916908373ffffffffffffffffffffffffffffffffffffffff1602179055508173ffffffffffffffffffffffffffffffffffffffff168173ffffffffffffffffffffffffffffffffffffffff167f8be0079c531659141344cd1fd0a4f28419497f9722a3daafe3b4186f6b6457e060405160405180910390a35050565b828054620003039062000486565b90600052602060002090601f01602090048101928262000327576000855562000373565b82601f106200034257805160ff191683800117855562000373565b8280016001018555821562000373579182015b828111156200037257825182559160200191906001019062000355565b5b50905062000382919062000386565b5090565b5b80821115620003a157600081600090555060010162000387565b5090565b600082825260208201905092915050565b7f5348415245303132000000000000000000000000000000000000000000000000600082015250565b6000620003ee600883620003a5565b9150620003fb82620003b6565b602082019050919050565b600060208201905081810360008301526200042181620003df565b9050919050565b7f4e487b7100000000000000000000000000000000000000000000000000000000600052602160045260246000fd5b7f4e487b7100000000000000000000000000000000000000000000000000000000600052602260045260246000fd5b600060028204905060018216806200049f57607f821691505b60208210811415620004b657620004b562000457565b5b50919050565b615ea780620004cc6000396000f3fe60806040526004361061021e5760003560e01c8063715018a611610123578063c620760d116100ab578063f2fde38b1161006f578063f2fde38b14610954578063f4ea93d81461097d578063fc54bfa3146109a8578063fc772c8b146109d3578063ffa1ad74146109fc576103ad565b8063c620760d1461085d578063c87b56dd14610886578063cdd2e4c4146108c3578063e7c81885146108ee578063e985e9c514610917576103ad565b806395d89b41116100f257806395d89b411461079e578063a01d316f146107c9578063a22cb465146107e0578063a2529e0814610809578063b88d4fde14610834576103ad565b8063715018a61461070657806374595d841461071d578063784880b8146107485780638da5cb5b14610773576103ad565b806352a3dee0116101a65780636352211e116101755780636352211e1461060d578063641c8a8d1461064a5780636d5a7411146106755780636ed2cf68146106a057806370a08231146106c9576103ad565b806352a3dee0146105535780635968abd31461057c5780635d64edc8146105a757806360e54535146105d0576103ad565b8063158ef93e116101ed578063158ef93e1461048057806323b872dd146104ab57806332651906146104d4578063355f0e7f146104ff57806342842e0e1461052a576103ad565b806301ffc9a7146103b257806306fdde03146103ef578063081812fc1461041a578063095ea7b314610457576103ad565b366103ad5761022b610a27565b600460009054906101000a900460ff1661027a576040517f08c379a000000000000000000000000000000000000000000000000000000000815260040161027190614224565b60405180910390fd5b60006102a8600d6000016016548154811061029857610297614244565b5b9060005260206000200154610a77565b9050600d6000018054905060016016546102c291906142ac565b6102cc9190614331565b6016819055508073ffffffffffffffffffffffffffffffffffffffff166108fc349081150290604051600060405180830381858888f19350505050158015610318573d6000803e3d6000fd5b50600d6000016016548154811061033257610331614244565b5b90600052602060002001548173ffffffffffffffffffffffffffffffffffffffff163373ffffffffffffffffffffffffffffffffffffffff167f10258bfd896826cf69e885380049b1d1be0424a813d5117744373ec9f51bc86c3460405161039a9190614371565b60405180910390a4506103ab610afe565b005b600080fd5b3480156103be57600080fd5b506103d960048036038101906103d491906143f8565b610b07565b6040516103e69190614440565b60405180910390f35b3480156103fb57600080fd5b50610404610be9565b60405161041191906144e3565b60405180910390f35b34801561042657600080fd5b50610441600480360381019061043c9190614531565b610c7b565b60405161044e919061459f565b60405180910390f35b34801561046357600080fd5b5061047e600480360381019061047991906145e6565b610cc1565b005b34801561048c57600080fd5b50610495610dd9565b6040516104a29190614440565b60405180910390f35b3480156104b757600080fd5b506104d260048036038101906104cd9190614626565b610df0565b005b3480156104e057600080fd5b506104e9610f4c565b6040516104f69190614371565b60405180910390f35b34801561050b57600080fd5b50610514610fa8565b6040516105219190614371565b60405180910390f35b34801561053657600080fd5b50610551600480360381019061054c9190614626565b611004565b005b34801561055f57600080fd5b5061057a60048036038101906105759190614884565b611160565b005b34801561058857600080fd5b50610591611991565b60405161059e9190614371565b60405180910390f35b3480156105b357600080fd5b506105ce60048036038101906105c99190614937565b611997565b005b3480156105dc57600080fd5b506105f760048036038101906105f29190614531565b611dba565b6040516106049190614371565b60405180910390f35b34801561061957600080fd5b50610634600480360381019061062f9190614531565b610a77565b604051610641919061459f565b60405180910390f35b34801561065657600080fd5b5061065f611dda565b60405161066c9190614371565b60405180910390f35b34801561068157600080fd5b5061068a611e33565b6040516106979190614371565b60405180910390f35b3480156106ac57600080fd5b506106c760048036038101906106c29190614964565b611e8c565b005b3480156106d557600080fd5b506106f060048036038101906106eb9190614937565b6124b0565b6040516106fd9190614371565b60405180910390f35b34801561071257600080fd5b5061071b612568565b005b34801561072957600080fd5b5061073261257c565b60405161073f9190614aad565b60405180910390f35b34801561075457600080fd5b5061075d61260d565b60405161076a9190614b7b565b60405180910390f35b34801561077f57600080fd5b5061078861265a565b604051610795919061459f565b60405180910390f35b3480156107aa57600080fd5b506107b3612683565b6040516107c091906144e3565b60405180910390f35b3480156107d557600080fd5b506107de612715565b005b3480156107ec57600080fd5b5061080760048036038101906108029190614bc4565b6127f6565b005b34801561081557600080fd5b5061081e61280c565b60405161082b9190614aad565b60405180910390f35b34801561084057600080fd5b5061085b60048036038101906108569190614cb9565b612902565b005b34801561086957600080fd5b50610884600480360381019061087f91906145e6565b612964565b005b34801561089257600080fd5b506108ad60048036038101906108a89190614531565b612aa9565b6040516108ba91906144e3565b60405180910390f35b3480156108cf57600080fd5b506108d8612b11565b6040516108e59190614371565b60405180910390f35b3480156108fa57600080fd5b5061091560048036038101906109109190614d3c565b612b1b565b005b34801561092357600080fd5b5061093e60048036038101906109399190614d8f565b612c64565b60405161094b9190614440565b60405180910390f35b34801561096057600080fd5b5061097b60048036038101906109769190614937565b612cf8565b005b34801561098957600080fd5b50610992612efb565b60405161099f9190614371565b60405180910390f35b3480156109b457600080fd5b506109bd612f01565b6040516109ca9190614371565b60405180910390f35b3480156109df57600080fd5b506109fa60048036038101906109f59190614937565b612f06565b005b348015610a0857600080fd5b50610a116130bd565b604051610a1e91906144e3565b60405180910390f35b60026001541415610a6d576040517f08c379a0000000000000000000000000000000000000000000000000000000008152600401610a6490614e1b565b60405180910390fd5b6002600181905550565b600080610a83836130f6565b9050600073ffffffffffffffffffffffffffffffffffffffff168173ffffffffffffffffffffffffffffffffffffffff161415610af5576040517f08c379a0000000000000000000000000000000000000000000000000000000008152600401610aec90614e87565b60405180910390fd5b80915050919050565b60018081905550565b60007f80ac58cd000000000000000000000000000000000000000000000000000000007bffffffffffffffffffffffffffffffffffffffffffffffffffffffff1916827bffffffffffffffffffffffffffffffffffffffffffffffffffffffff19161480610bd257507f5b5e139f000000000000000000000000000000000000000000000000000000007bffffffffffffffffffffffffffffffffffffffffffffffffffffffff1916827bffffffffffffffffffffffffffffffffffffffffffffffffffffffff1916145b80610be25750610be182613133565b5b9050919050565b606060058054610bf890614ed6565b80601f0160208091040260200160405190810160405280929190818152602001828054610c2490614ed6565b8015610c715780601f10610c4657610100808354040283529160200191610c71565b820191906000526020600020905b815481529060010190602001808311610c5457829003601f168201915b5050505050905090565b6000610c868261319d565b6009600083815260200190815260200160002060009054906101000a900473ffffffffffffffffffffffffffffffffffffffff169050919050565b6000610ccc82610a77565b90508073ffffffffffffffffffffffffffffffffffffffff168373ffffffffffffffffffffffffffffffffffffffff161415610d3d576040517f08c379a0000000000000000000000000000000000000000000000000000000008152600401610d3490614f7a565b60405180910390fd5b8073ffffffffffffffffffffffffffffffffffffffff16610d5c6131e8565b73ffffffffffffffffffffffffffffffffffffffff161480610d8b5750610d8a81610d856131e8565b612c64565b5b610dca576040517f08c379a0000000000000000000000000000000000000000000000000000000008152600401610dc19061500c565b60405180910390fd5b610dd483836131f0565b505050565b6000600460009054906101000a900460ff16905090565b6014546015541015610e4257601454811015610e41576040517f08c379a0000000000000000000000000000000000000000000000000000000008152600401610e3890615078565b60405180910390fd5b5b61272960009054906101000a900473ffffffffffffffffffffffffffffffffffffffff1673ffffffffffffffffffffffffffffffffffffffff16633cef5f768360006040518363ffffffff1660e01b8152600401610ea192919061510f565b602060405180830381865afa158015610ebe573d6000803e3d6000fd5b505050506040513d601f19601f82011682018060405250810190610ee2919061514d565b610f21576040517f08c379a0000000000000000000000000000000000000000000000000000000008152600401610f18906151c6565b60405180910390fd5b610f2c8383836132a9565b426017826127108110610f4257610f41614244565b5b0181905550505050565b6000600460009054906101000a900460ff16610f9d576040517f08c379a0000000000000000000000000000000000000000000000000000000008152600401610f9490614224565b60405180910390fd5b600b60000154905090565b6000600460009054906101000a900460ff16610ff9576040517f08c379a0000000000000000000000000000000000000000000000000000000008152600401610ff090614224565b60405180910390fd5b601160000154905090565b601454601554101561105657601454811015611055576040517f08c379a000000000000000000000000000000000000000000000000000000000815260040161104c90615078565b60405180910390fd5b5b61272960009054906101000a900473ffffffffffffffffffffffffffffffffffffffff1673ffffffffffffffffffffffffffffffffffffffff16633cef5f768360006040518363ffffffff1660e01b81526004016110b592919061510f565b602060405180830381865afa1580156110d2573d6000803e3d6000fd5b505050506040513d601f19601f820116820180604052508101906110f6919061514d565b611135576040517f08c379a000000000000000000000000000000000000000000000000000000000815260040161112c906151c6565b60405180910390fd5b611140838383613309565b42601782612710811061115657611155614244565b5b0181905550505050565b611168613329565b84518451146111ac576040517f08c379a00000000000000000000000000000000000000000000000000000000081526004016111a390615232565b60405180910390fd5b612710845111156111f2576040517f08c379a00000000000000000000000000000000000000000000000000000000081526004016111e99061529e565b60405180910390fd5b600184511015611237576040517f08c379a000000000000000000000000000000000000000000000000000000000815260040161122e9061530a565b60405180910390fd5b61271083111561127c576040517f08c379a000000000000000000000000000000000000000000000000000000000815260040161127390615376565b60405180910390fd5b611285826133a7565b8161272960006101000a81548173ffffffffffffffffffffffffffffffffffffffff021916908373ffffffffffffffffffffffffffffffffffffffff1602179055508061272860006101000a81548173ffffffffffffffffffffffffffffffffffffffff021916908373ffffffffffffffffffffffffffffffffffffffff16021790555073__Immutable_____________________________63e9e3a8dd600b86516040518363ffffffff1660e01b81526004016113449291906153ac565b60006040518083038186803b15801561135c57600080fd5b505af4158015611370573d6000803e3d6000fd5b5050505073__Immutable_____________________________63e9e3a8dd6011856040518363ffffffff1660e01b81526004016113ae9291906153ac565b60006040518083038186803b1580156113c657600080fd5b505af41580156113da573d6000803e3d6000fd5b5050505073__Immutable_____________________________634135c14460138760008151811061140e5761140d614244565b5b60200260200101516040518363ffffffff1660e01b81526004016114339291906153eb565b60006040518083038186803b15801561144b57600080fd5b505af415801561145f573d6000803e3d6000fd5b50505050612710601160000154600b6000015461147c9190615414565b611486919061546e565b60148190555060005b85518110156116285761272960009054906101000a900473ffffffffffffffffffffffffffffffffffffffff1673ffffffffffffffffffffffffffffffffffffffff16633cef5f768783815181106114ea576114e9614244565b5b602002602001015160006040518363ffffffff1660e01b815260040161151192919061510f565b602060405180830381865afa15801561152e573d6000803e3d6000fd5b505050506040513d601f19601f82011682018060405250810190611552919061514d565b611591576040517f08c379a0000000000000000000000000000000000000000000000000000000008152600401611588906151c6565b60405180910390fd5b73__Immutable_____________________________63febf70aa600f8884815181106115c0576115bf614244565b5b60200260200101516040518363ffffffff1660e01b81526004016115e59291906154a6565b60006040518083038186803b1580156115fd57600080fd5b505af4158015611611573d6000803e3d6000fd5b505050508080611620906154cf565b91505061148f565b506001600f60010160006101000a81548160ff02191690831515021790555060005b84518110156116ea5773__Immutable_____________________________6326a25440600d87848151811061168257611681614244565b5b60200260200101516040518363ffffffff1660e01b81526004016116a792919061551f565b60006040518083038186803b1580156116bf57600080fd5b505af41580156116d3573d6000803e3d6000fd5b5050505080806116e2906154cf565b91505061164a565b506001600d60010160006101000a81548160ff02191690831515021790555060005b600d6000018054905081101561198157600073ffffffffffffffffffffffffffffffffffffffff166127276000600d60000184815481106117505761174f614244565b5b9060005260206000200154815260200190815260200160002060009054906101000a900473ffffffffffffffffffffffffffffffffffffffff1673ffffffffffffffffffffffffffffffffffffffff16141561196e57600f60000181815481106117bd576117bc614244565b5b9060005260206000200160009054906101000a900473ffffffffffffffffffffffffffffffffffffffff1673ffffffffffffffffffffffffffffffffffffffff16600d600001828154811061181557611814614244565b5b90600052602060002001547f2ac14d5dc5d61b410c8d19ba7edc1f3dea52cbd0f9c8c804e5e31bd90d51778260405160405180910390a36118b8600f600001828154811061186657611865614244565b5b9060005260206000200160009054906101000a900473ffffffffffffffffffffffffffffffffffffffff16600d60000183815481106118a8576118a7614244565b5b9060005260206000200154613414565b600f60000181815481106118cf576118ce614244565b5b9060005260206000200160009054906101000a900473ffffffffffffffffffffffffffffffffffffffff166127276000600d600001848154811061191657611915614244565b5b9060005260206000200154815260200190815260200160002060006101000a81548173ffffffffffffffffffffffffffffffffffffffff021916908373ffffffffffffffffffffffffffffffffffffffff1602179055505b8080611979906154cf565b91505061170c565b5061198a613432565b5050505050565b61271081565b61272860009054906101000a900473ffffffffffffffffffffffffffffffffffffffff1673ffffffffffffffffffffffffffffffffffffffff16636d70f7ae336040518263ffffffff1660e01b81526004016119f3919061459f565b602060405180830381865afa158015611a10573d6000803e3d6000fd5b505050506040513d601f19601f82011682018060405250810190611a34919061514d565b80611a715750611a4261265a565b73ffffffffffffffffffffffffffffffffffffffff163373ffffffffffffffffffffffffffffffffffffffff16145b611ab0576040517f08c379a0000000000000000000000000000000000000000000000000000000008152600401611aa790615594565b60405180910390fd5b611ab8610a27565b60145460155410611afe576040517f08c379a0000000000000000000000000000000000000000000000000000000008152600401611af590615600565b60405180910390fd5b601360000160009054906101000a900473ffffffffffffffffffffffffffffffffffffffff1673ffffffffffffffffffffffffffffffffffffffff16611b45601554610a77565b73ffffffffffffffffffffffffffffffffffffffff1614611b9b576040517f08c379a0000000000000000000000000000000000000000000000000000000008152600401611b929061566c565b60405180910390fd5b61272960009054906101000a900473ffffffffffffffffffffffffffffffffffffffff1673ffffffffffffffffffffffffffffffffffffffff16633cef5f768260006040518363ffffffff1660e01b8152600401611bfa92919061510f565b602060405180830381865afa158015611c17573d6000803e3d6000fd5b505050506040513d601f19601f82011682018060405250810190611c3b919061514d565b611c7a576040517f08c379a0000000000000000000000000000000000000000000000000000000008152600401611c71906151c6565b60405180910390fd5b61272860009054906101000a900473ffffffffffffffffffffffffffffffffffffffff1673ffffffffffffffffffffffffffffffffffffffff16636d70f7ae336040518263ffffffff1660e01b8152600401611cd6919061459f565b602060405180830381865afa158015611cf3573d6000803e3d6000fd5b505050506040513d601f19601f82011682018060405250810190611d17919061514d565b80611d545750611d2561265a565b73ffffffffffffffffffffffffffffffffffffffff163373ffffffffffffffffffffffffffffffffffffffff16145b15611d6657611d65336015546131f0565b5b611d7a611d7161265a565b826015546132a9565b4260176015546127108110611d9257611d91614244565b5b018190555060156000815480929190611daa906154cf565b9190505550611db7610afe565b50565b60006017826127108110611dd157611dd0614244565b5b01549050919050565b6000600460009054906101000a900460ff16611e2b576040517f08c379a0000000000000000000000000000000000000000000000000000000008152600401611e2290614224565b60405180910390fd5b601454905090565b6000600460009054906101000a900460ff16611e84576040517f08c379a0000000000000000000000000000000000000000000000000000000008152600401611e7b90614224565b60405180910390fd5b601654905090565b611e94613329565b8151815114611ed8576040517f08c379a0000000000000000000000000000000000000000000000000000000008152600401611ecf90615232565b60405180910390fd5b606481511115611f1d576040517f08c379a0000000000000000000000000000000000000000000000000000000008152600401611f14906156d8565b60405180910390fd5b600181511015611f62576040517f08c379a0000000000000000000000000000000000000000000000000000000008152600401611f599061530a565b60405180910390fd5b6000831415611ff15773__Immutable_____________________________634135c144601384600081518110611f9b57611f9a614244565b5b60200260200101516040518363ffffffff1660e01b8152600401611fc09291906153eb565b60006040518083038186803b158015611fd857600080fd5b505af4158015611fec573d6000803e3d6000fd5b505050505b60005b825181101561218d5761272960009054906101000a900473ffffffffffffffffffffffffffffffffffffffff1673ffffffffffffffffffffffffffffffffffffffff16633cef5f7684838151811061204f5761204e614244565b5b602002602001015160006040518363ffffffff1660e01b815260040161207692919061510f565b602060405180830381865afa158015612093573d6000803e3d6000fd5b505050506040513d601f19601f820116820180604052508101906120b7919061514d565b6120f6576040517f08c379a00000000000000000000000000000000000000000000000000000000081526004016120ed906151c6565b60405180910390fd5b73__Immutable_____________________________63febf70aa600f85848151811061212557612124614244565b5b60200260200101516040518363ffffffff1660e01b815260040161214a9291906154a6565b60006040518083038186803b15801561216257600080fd5b505af4158015612176573d6000803e3d6000fd5b505050508080612185906154cf565b915050611ff4565b5060005b81518110156122315773__Immutable_____________________________6326a25440600d8484815181106121c9576121c8614244565b5b60200260200101516040518363ffffffff1660e01b81526004016121ee92919061551f565b60006040518083038186803b15801561220657600080fd5b505af415801561221a573d6000803e3d6000fd5b505050508080612229906154cf565b915050612191565b5060005b600d600001805490508110156124aa57600073ffffffffffffffffffffffffffffffffffffffff166127276000600d600001848154811061227957612278614244565b5b9060005260206000200154815260200190815260200160002060009054906101000a900473ffffffffffffffffffffffffffffffffffffffff1673ffffffffffffffffffffffffffffffffffffffff16141561249757600f60000181815481106122e6576122e5614244565b5b9060005260206000200160009054906101000a900473ffffffffffffffffffffffffffffffffffffffff1673ffffffffffffffffffffffffffffffffffffffff16600d600001828154811061233e5761233d614244565b5b90600052602060002001547f2ac14d5dc5d61b410c8d19ba7edc1f3dea52cbd0f9c8c804e5e31bd90d51778260405160405180910390a36123e1600f600001828154811061238f5761238e614244565b5b9060005260206000200160009054906101000a900473ffffffffffffffffffffffffffffffffffffffff16600d60000183815481106123d1576123d0614244565b5b9060005260206000200154613414565b600f60000181815481106123f8576123f7614244565b5b9060005260206000200160009054906101000a900473ffffffffffffffffffffffffffffffffffffffff166127276000600d600001848154811061243f5761243e614244565b5b9060005260206000200154815260200190815260200160002060006101000a81548173ffffffffffffffffffffffffffffffffffffffff021916908373ffffffffffffffffffffffffffffffffffffffff1602179055505b80806124a2906154cf565b915050612235565b50505050565b60008073ffffffffffffffffffffffffffffffffffffffff168273ffffffffffffffffffffffffffffffffffffffff161415612521576040517f08c379a00000000000000000000000000000000000000000000000000000000081526004016125189061576a565b60405180910390fd5b600860008373ffffffffffffffffffffffffffffffffffffffff1673ffffffffffffffffffffffffffffffffffffffff168152602001908152602001600020549050919050565b612570613329565b61257a6000613457565b565b6060600f60000180548060200260200160405190810160405280929190818152602001828054801561260357602002820191906000526020600020905b8160009054906101000a900473ffffffffffffffffffffffffffffffffffffffff1673ffffffffffffffffffffffffffffffffffffffff16815260200190600101908083116125b9575b5050505050905090565b6126156141a2565b60176127108060200260405190810160405280929190826127108015612650576020028201915b81548152602001906001019080831161263c575b5050505050905090565b60008060009054906101000a900473ffffffffffffffffffffffffffffffffffffffff16905090565b60606006805461269290614ed6565b80601f01602080910402602001604051908101604052809291908181526020018280546126be90614ed6565b801561270b5780601f106126e05761010080835404028352916020019161270b565b820191906000526020600020905b8154815290600101906020018083116126ee57829003601f168201915b5050505050905090565b6001600f60010160006101000a81548160ff0219169083151502179055506001600d60010160006101000a81548160ff02191690831515021790555073__Immutable_____________________________63e9e3a8dd600b600d600001805490506040518363ffffffff1660e01b81526004016127939291906153ac565b60006040518083038186803b1580156127ab57600080fd5b505af41580156127bf573d6000803e3d6000fd5b50505050612710601160000154600b600001546127dc9190615414565b6127e6919061546e565b6014819055506127f4613432565b565b6128086128016131e8565b838361351b565b5050565b60606000600b6000015467ffffffffffffffff81111561282f5761282e61467e565b5b60405190808252806020026020018201604052801561285d5781602001602082028036833780820191505090505b50905060005b600b600001548110156128fa5761289a600d600001828154811061288a57612889614244565b5b9060005260206000200154610a77565b8282815181106128ad576128ac614244565b5b602002602001019073ffffffffffffffffffffffffffffffffffffffff16908173ffffffffffffffffffffffffffffffffffffffff168152505080806128f2906154cf565b915050612863565b508091505090565b61291361290d6131e8565b83613688565b612952576040517f08c379a0000000000000000000000000000000000000000000000000000000008152600401612949906157fc565b60405180910390fd5b61295e8484848461371d565b50505050565b61272860009054906101000a900473ffffffffffffffffffffffffffffffffffffffff1673ffffffffffffffffffffffffffffffffffffffff16636d70f7ae336040518263ffffffff1660e01b81526004016129c0919061459f565b602060405180830381865afa1580156129dd573d6000803e3d6000fd5b505050506040513d601f19601f82011682018060405250810190612a01919061514d565b80612a3e5750612a0f61265a565b73ffffffffffffffffffffffffffffffffffffffff163373ffffffffffffffffffffffffffffffffffffffff16145b612a7d576040517f08c379a0000000000000000000000000000000000000000000000000000000008152600401612a7490615594565b60405180910390fd5b60005b81811015612aa457612a9183611997565b8080612a9c906154cf565b915050612a80565b505050565b6060612ab48261319d565b6000612abe613779565b90506000815111612ade5760405180602001604052806000815250612b09565b80612ae884613790565b604051602001612af9929190615858565b6040516020818303038152906040525b915050919050565b6000601554905090565b612b23613329565b612710831115612b68576040517f08c379a0000000000000000000000000000000000000000000000000000000008152600401612b5f90615376565b60405180910390fd5b612b71826133a7565b8161272960006101000a81548173ffffffffffffffffffffffffffffffffffffffff021916908373ffffffffffffffffffffffffffffffffffffffff1602179055508061272860006101000a81548173ffffffffffffffffffffffffffffffffffffffff021916908373ffffffffffffffffffffffffffffffffffffffff16021790555073__Immutable_____________________________63e9e3a8dd6011856040518363ffffffff1660e01b8152600401612c2f9291906153ac565b60006040518083038186803b158015612c4757600080fd5b505af4158015612c5b573d6000803e3d6000fd5b50505050505050565b6000600a60008473ffffffffffffffffffffffffffffffffffffffff1673ffffffffffffffffffffffffffffffffffffffff16815260200190815260200160002060008373ffffffffffffffffffffffffffffffffffffffff1673ffffffffffffffffffffffffffffffffffffffff16815260200190815260200160002060009054906101000a900460ff16905092915050565b612d00613329565b600460009054906101000a900460ff16612d4f576040517f08c379a0000000000000000000000000000000000000000000000000000000008152600401612d4690614224565b60405180910390fd5b6000612d59613868565b90506000805b600280549050811015612e3c578273ffffffffffffffffffffffffffffffffffffffff16633cef5f768560028481548110612d9d57612d9c614244565b5b90600052602060002090602091828204019190069054906101000a900460ff166040518363ffffffff1660e01b8152600401612dda92919061510f565b602060405180830381865afa158015612df7573d6000803e3d6000fd5b505050506040513d601f19601f82011682018060405250810190612e1b919061514d565b15612e295760019150612e3c565b8080612e34906154cf565b915050612d5f565b5080612e7d576040517f08c379a0000000000000000000000000000000000000000000000000000000008152600401612e74906158c8565b60405180910390fd5b600073ffffffffffffffffffffffffffffffffffffffff168373ffffffffffffffffffffffffffffffffffffffff161415612eed576040517f08c379a0000000000000000000000000000000000000000000000000000000008152600401612ee49061595a565b60405180910390fd5b612ef683613457565b505050565b61271081565b606481565b600460009054906101000a900460ff16612f55576040517f08c379a0000000000000000000000000000000000000000000000000000000008152600401612f4c90614224565b60405180910390fd5b612f5d613329565b612f65610a27565b60008190503073ffffffffffffffffffffffffffffffffffffffff168173ffffffffffffffffffffffffffffffffffffffff16638da5cb5b6040518163ffffffff1660e01b8152600401602060405180830381865afa158015612fcc573d6000803e3d6000fd5b505050506040513d601f19601f82011682018060405250810190612ff0919061598f565b73ffffffffffffffffffffffffffffffffffffffff1614613046576040517f08c379a000000000000000000000000000000000000000000000000000000000815260040161303d90615a08565b60405180910390fd5b8073ffffffffffffffffffffffffffffffffffffffff1663f2fde38b336040518263ffffffff1660e01b815260040161307f919061459f565b600060405180830381600087803b15801561309957600080fd5b505af11580156130ad573d6000803e3d6000fd5b50505050506130ba610afe565b50565b6040518060400160405280600581526020017f312e302e3000000000000000000000000000000000000000000000000000000081525081565b60006007600083815260200190815260200160002060009054906101000a900473ffffffffffffffffffffffffffffffffffffffff169050919050565b60007f01ffc9a7000000000000000000000000000000000000000000000000000000007bffffffffffffffffffffffffffffffffffffffffffffffffffffffff1916827bffffffffffffffffffffffffffffffffffffffffffffffffffffffff1916149050919050565b6131a6816138e4565b6131e5576040517f08c379a00000000000000000000000000000000000000000000000000000000081526004016131dc90614e87565b60405180910390fd5b50565b600033905090565b816009600083815260200190815260200160002060006101000a81548173ffffffffffffffffffffffffffffffffffffffff021916908373ffffffffffffffffffffffffffffffffffffffff160217905550808273ffffffffffffffffffffffffffffffffffffffff1661326383610a77565b73ffffffffffffffffffffffffffffffffffffffff167f8c5be1e5ebec7d5bd14f71427d1e84f3dd0314c0f7b2291e5b200ac8c7c3b92560405160405180910390a45050565b6132ba6132b46131e8565b82613688565b6132f9576040517f08c379a00000000000000000000000000000000000000000000000000000000081526004016132f0906157fc565b60405180910390fd5b613304838383613925565b505050565b61332483838360405180602001604052806000815250612902565b505050565b6133316131e8565b73ffffffffffffffffffffffffffffffffffffffff1661334f61265a565b73ffffffffffffffffffffffffffffffffffffffff16146133a5576040517f08c379a000000000000000000000000000000000000000000000000000000000815260040161339c90615a74565b60405180910390fd5b565b73__Immutable_____________________________634135c1446003836040518363ffffffff1660e01b81526004016133e19291906153eb565b60006040518083038186803b1580156133f957600080fd5b505af415801561340d573d6000803e3d6000fd5b5050505050565b61342e828260405180602001604052806000815250613c1f565b5050565b61343a613329565b6001600460006101000a81548160ff021916908315150217905550565b60008060009054906101000a900473ffffffffffffffffffffffffffffffffffffffff169050816000806101000a81548173ffffffffffffffffffffffffffffffffffffffff021916908373ffffffffffffffffffffffffffffffffffffffff1602179055508173ffffffffffffffffffffffffffffffffffffffff168173ffffffffffffffffffffffffffffffffffffffff167f8be0079c531659141344cd1fd0a4f28419497f9722a3daafe3b4186f6b6457e060405160405180910390a35050565b8173ffffffffffffffffffffffffffffffffffffffff168373ffffffffffffffffffffffffffffffffffffffff16141561358a576040517f08c379a000000000000000000000000000000000000000000000000000000000815260040161358190615ae0565b60405180910390fd5b80600a60008573ffffffffffffffffffffffffffffffffffffffff1673ffffffffffffffffffffffffffffffffffffffff16815260200190815260200160002060008473ffffffffffffffffffffffffffffffffffffffff1673ffffffffffffffffffffffffffffffffffffffff16815260200190815260200160002060006101000a81548160ff0219169083151502179055508173ffffffffffffffffffffffffffffffffffffffff168373ffffffffffffffffffffffffffffffffffffffff167f17307eab39ab6107e8899845ad3d59bd9653f200f220920489ca2b5937696c318360405161367b9190614440565b60405180910390a3505050565b60008061369483610a77565b90508073ffffffffffffffffffffffffffffffffffffffff168473ffffffffffffffffffffffffffffffffffffffff1614806136d657506136d58185612c64565b5b8061371457508373ffffffffffffffffffffffffffffffffffffffff166136fc84610c7b565b73ffffffffffffffffffffffffffffffffffffffff16145b91505092915050565b613728848484613925565b61373484848484613c7a565b613773576040517f08c379a000000000000000000000000000000000000000000000000000000000815260040161376a90615b72565b60405180910390fd5b50505050565b606060405180602001604052806000815250905090565b60606000600161379f84613e02565b01905060008167ffffffffffffffff8111156137be576137bd61467e565b5b6040519080825280601f01601f1916602001820160405280156137f05781602001600182028036833780820191505090505b509050600082602001820190505b60011561385d578080600190039150507f3031323334353637383961626364656600000000000000000000000000000000600a86061a8153600a858161384757613846614302565b5b04945060008514156138585761385d565b6137fe565b819350505050919050565b6000600460009054906101000a900460ff166138b9576040517f08c379a00000000000000000000000000000000000000000000000000000000081526004016138b090614224565b60405180910390fd5b600360000160009054906101000a900473ffffffffffffffffffffffffffffffffffffffff16905090565b60008073ffffffffffffffffffffffffffffffffffffffff16613906836130f6565b73ffffffffffffffffffffffffffffffffffffffff1614159050919050565b8273ffffffffffffffffffffffffffffffffffffffff1661394582610a77565b73ffffffffffffffffffffffffffffffffffffffff161461399b576040517f08c379a000000000000000000000000000000000000000000000000000000000815260040161399290615c04565b60405180910390fd5b600073ffffffffffffffffffffffffffffffffffffffff168273ffffffffffffffffffffffffffffffffffffffff161415613a0b576040517f08c379a0000000000000000000000000000000000000000000000000000000008152600401613a0290615c96565b60405180910390fd5b613a188383836001613f55565b8273ffffffffffffffffffffffffffffffffffffffff16613a3882610a77565b73ffffffffffffffffffffffffffffffffffffffff1614613a8e576040517f08c379a0000000000000000000000000000000000000000000000000000000008152600401613a8590615c04565b60405180910390fd5b6009600082815260200190815260200160002060006101000a81549073ffffffffffffffffffffffffffffffffffffffff02191690556001600860008573ffffffffffffffffffffffffffffffffffffffff1673ffffffffffffffffffffffffffffffffffffffff168152602001908152602001600020600082825403925050819055506001600860008473ffffffffffffffffffffffffffffffffffffffff1673ffffffffffffffffffffffffffffffffffffffff16815260200190815260200160002060008282540192505081905550816007600083815260200190815260200160002060006101000a81548173ffffffffffffffffffffffffffffffffffffffff021916908373ffffffffffffffffffffffffffffffffffffffff160217905550808273ffffffffffffffffffffffffffffffffffffffff168473ffffffffffffffffffffffffffffffffffffffff167fddf252ad1be2c89b69c2b068fc378daa952ba7f163c4a11628f55a4df523b3ef60405160405180910390a4613c1a8383836001613f5b565b505050565b613c298383613f61565b613c366000848484613c7a565b613c75576040517f08c379a0000000000000000000000000000000000000000000000000000000008152600401613c6c90615b72565b60405180910390fd5b505050565b6000613c9b8473ffffffffffffffffffffffffffffffffffffffff1661417f565b15613df5578373ffffffffffffffffffffffffffffffffffffffff1663150b7a02613cc46131e8565b8786866040518563ffffffff1660e01b8152600401613ce69493929190615d0b565b6020604051808303816000875af1925050508015613d2257506040513d601f19601f82011682018060405250810190613d1f9190615d6c565b60015b613da5573d8060008114613d52576040519150601f19603f3d011682016040523d82523d6000602084013e613d57565b606091505b50600081511415613d9d576040517f08c379a0000000000000000000000000000000000000000000000000000000008152600401613d9490615b72565b60405180910390fd5b805181602001fd5b63150b7a0260e01b7bffffffffffffffffffffffffffffffffffffffffffffffffffffffff1916817bffffffffffffffffffffffffffffffffffffffffffffffffffffffff191614915050613dfa565b600190505b949350505050565b600080600090507a184f03e93ff9f4daa797ed6e38ed64bf6a1f0100000000000000008310613e60577a184f03e93ff9f4daa797ed6e38ed64bf6a1f0100000000000000008381613e5657613e55614302565b5b0492506040810190505b6d04ee2d6d415b85acef81000000008310613e9d576d04ee2d6d415b85acef81000000008381613e9357613e92614302565b5b0492506020810190505b662386f26fc100008310613ecc57662386f26fc100008381613ec257613ec1614302565b5b0492506010810190505b6305f5e1008310613ef5576305f5e1008381613eeb57613eea614302565b5b0492506008810190505b6127108310613f1a576127108381613f1057613f0f614302565b5b0492506004810190505b60648310613f3d5760648381613f3357613f32614302565b5b0492506002810190505b600a8310613f4c576001810190505b80915050919050565b50505050565b50505050565b600073ffffffffffffffffffffffffffffffffffffffff168273ffffffffffffffffffffffffffffffffffffffff161415613fd1576040517f08c379a0000000000000000000000000000000000000000000000000000000008152600401613fc890615de5565b60405180910390fd5b613fda816138e4565b1561401a576040517f08c379a000000000000000000000000000000000000000000000000000000000815260040161401190615e51565b60405180910390fd5b614028600083836001613f55565b614031816138e4565b15614071576040517f08c379a000000000000000000000000000000000000000000000000000000000815260040161406890615e51565b60405180910390fd5b6001600860008473ffffffffffffffffffffffffffffffffffffffff1673ffffffffffffffffffffffffffffffffffffffff16815260200190815260200160002060008282540192505081905550816007600083815260200190815260200160002060006101000a81548173ffffffffffffffffffffffffffffffffffffffff021916908373ffffffffffffffffffffffffffffffffffffffff160217905550808273ffffffffffffffffffffffffffffffffffffffff16600073ffffffffffffffffffffffffffffffffffffffff167fddf252ad1be2c89b69c2b068fc378daa952ba7f163c4a11628f55a4df523b3ef60405160405180910390a461417b600083836001613f5b565b5050565b6000808273ffffffffffffffffffffffffffffffffffffffff163b119050919050565b604051806204e200016040528061271090602082028036833780820191505090505090565b600082825260208201905092915050565b7f5348415245303134000000000000000000000000000000000000000000000000600082015250565b600061420e6008836141c7565b9150614219826141d8565b602082019050919050565b6000602082019050818103600083015261423d81614201565b9050919050565b7f4e487b7100000000000000000000000000000000000000000000000000000000600052603260045260246000fd5b6000819050919050565b7f4e487b7100000000000000000000000000000000000000000000000000000000600052601160045260246000fd5b60006142b782614273565b91506142c283614273565b9250827fffffffffffffffffffffffffffffffffffffffffffffffffffffffffffffffff038211156142f7576142f661427d565b5b828201905092915050565b7f4e487b7100000000000000000000000000000000000000000000000000000000600052601260045260246000fd5b600061433c82614273565b915061434783614273565b92508261435757614356614302565b5b828206905092915050565b61436b81614273565b82525050565b60006020820190506143866000830184614362565b92915050565b6000604051905090565b600080fd5b600080fd5b60007fffffffff0000000000000000000000000000000000000000000000000000000082169050919050565b6143d5816143a0565b81146143e057600080fd5b50565b6000813590506143f2816143cc565b92915050565b60006020828403121561440e5761440d614396565b5b600061441c848285016143e3565b91505092915050565b60008115159050919050565b61443a81614425565b82525050565b60006020820190506144556000830184614431565b92915050565b600081519050919050565b60005b83811015614484578082015181840152602081019050614469565b83811115614493576000848401525b50505050565b6000601f19601f8301169050919050565b60006144b58261445b565b6144bf81856141c7565b93506144cf818560208601614466565b6144d881614499565b840191505092915050565b600060208201905081810360008301526144fd81846144aa565b905092915050565b61450e81614273565b811461451957600080fd5b50565b60008135905061452b81614505565b92915050565b60006020828403121561454757614546614396565b5b60006145558482850161451c565b91505092915050565b600073ffffffffffffffffffffffffffffffffffffffff82169050919050565b60006145898261455e565b9050919050565b6145998161457e565b82525050565b60006020820190506145b46000830184614590565b92915050565b6145c38161457e565b81146145ce57600080fd5b50565b6000813590506145e0816145ba565b92915050565b600080604083850312156145fd576145fc614396565b5b600061460b858286016145d1565b925050602061461c8582860161451c565b9150509250929050565b60008060006060848603121561463f5761463e614396565b5b600061464d868287016145d1565b935050602061465e868287016145d1565b925050604061466f8682870161451c565b9150509250925092565b600080fd5b7f4e487b7100000000000000000000000000000000000000000000000000000000600052604160045260246000fd5b6146b682614499565b810181811067ffffffffffffffff821117156146d5576146d461467e565b5b80604052505050565b60006146e861438c565b90506146f482826146ad565b919050565b600067ffffffffffffffff8211156147145761471361467e565b5b602082029050602081019050919050565b600080fd5b600061473d614738846146f9565b6146de565b905080838252602082019050602084028301858111156147605761475f614725565b5b835b81811015614789578061477588826145d1565b845260208401935050602081019050614762565b5050509392505050565b600082601f8301126147a8576147a7614679565b5b81356147b884826020860161472a565b91505092915050565b600067ffffffffffffffff8211156147dc576147db61467e565b5b602082029050602081019050919050565b60006148006147fb846147c1565b6146de565b9050808382526020820190506020840283018581111561482357614822614725565b5b835b8181101561484c5780614838888261451c565b845260208401935050602081019050614825565b5050509392505050565b600082601f83011261486b5761486a614679565b5b813561487b8482602086016147ed565b91505092915050565b600080600080600060a086880312156148a05761489f614396565b5b600086013567ffffffffffffffff8111156148be576148bd61439b565b5b6148ca88828901614793565b955050602086013567ffffffffffffffff8111156148eb576148ea61439b565b5b6148f788828901614856565b94505060406149088882890161451c565b9350506060614919888289016145d1565b925050608061492a888289016145d1565b9150509295509295909350565b60006020828403121561494d5761494c614396565b5b600061495b848285016145d1565b91505092915050565b60008060006060848603121561497d5761497c614396565b5b600061498b8682870161451c565b935050602084013567ffffffffffffffff8111156149ac576149ab61439b565b5b6149b886828701614793565b925050604084013567ffffffffffffffff8111156149d9576149d861439b565b5b6149e586828701614856565b9150509250925092565b600081519050919050565b600082825260208201905092915050565b6000819050602082019050919050565b614a248161457e565b82525050565b6000614a368383614a1b565b60208301905092915050565b6000602082019050919050565b6000614a5a826149ef565b614a6481856149fa565b9350614a6f83614a0b565b8060005b83811015614aa0578151614a878882614a2a565b9750614a9283614a42565b925050600181019050614a73565b5085935050505092915050565b60006020820190508181036000830152614ac78184614a4f565b905092915050565b60006127109050919050565b600081905092915050565b6000819050919050565b614af981614273565b82525050565b6000614b0b8383614af0565b60208301905092915050565b6000602082019050919050565b614b2d81614acf565b614b378184614adb565b9250614b4282614ae6565b8060005b83811015614b73578151614b5a8782614aff565b9650614b6583614b17565b925050600181019050614b46565b505050505050565b60006204e20082019050614b926000830184614b24565b92915050565b614ba181614425565b8114614bac57600080fd5b50565b600081359050614bbe81614b98565b92915050565b60008060408385031215614bdb57614bda614396565b5b6000614be9858286016145d1565b9250506020614bfa85828601614baf565b9150509250929050565b600080fd5b600067ffffffffffffffff821115614c2457614c2361467e565b5b614c2d82614499565b9050602081019050919050565b82818337600083830152505050565b6000614c5c614c5784614c09565b6146de565b905082815260208101848484011115614c7857614c77614c04565b5b614c83848285614c3a565b509392505050565b600082601f830112614ca057614c9f614679565b5b8135614cb0848260208601614c49565b91505092915050565b60008060008060808587031215614cd357614cd2614396565b5b6000614ce1878288016145d1565b9450506020614cf2878288016145d1565b9350506040614d038782880161451c565b925050606085013567ffffffffffffffff811115614d2457614d2361439b565b5b614d3087828801614c8b565b91505092959194509250565b600080600060608486031215614d5557614d54614396565b5b6000614d638682870161451c565b9350506020614d74868287016145d1565b9250506040614d85868287016145d1565b9150509250925092565b60008060408385031215614da657614da5614396565b5b6000614db4858286016145d1565b9250506020614dc5858286016145d1565b9150509250929050565b7f5265656e7472616e637947756172643a207265656e7472616e742063616c6c00600082015250565b6000614e05601f836141c7565b9150614e1082614dcf565b602082019050919050565b60006020820190508181036000830152614e3481614df8565b9050919050565b7f4552433732313a20696e76616c696420746f6b656e2049440000000000000000600082015250565b6000614e716018836141c7565b9150614e7c82614e3b565b602082019050919050565b60006020820190508181036000830152614ea081614e64565b9050919050565b7f4e487b7100000000000000000000000000000000000000000000000000000000600052602260045260246000fd5b60006002820490506001821680614eee57607f821691505b60208210811415614f0257614f01614ea7565b5b50919050565b7f4552433732313a20617070726f76616c20746f2063757272656e74206f776e6560008201527f7200000000000000000000000000000000000000000000000000000000000000602082015250565b6000614f646021836141c7565b9150614f6f82614f08565b604082019050919050565b60006020820190508181036000830152614f9381614f57565b9050919050565b7f4552433732313a20617070726f76652063616c6c6572206973206e6f7420746f60008201527f6b656e206f776e6572206f7220617070726f76656420666f7220616c6c000000602082015250565b6000614ff6603d836141c7565b915061500182614f9a565b604082019050919050565b6000602082019050818103600083015261502581614fe9565b9050919050565b7f5348415245303337000000000000000000000000000000000000000000000000600082015250565b60006150626008836141c7565b915061506d8261502c565b602082019050919050565b6000602082019050818103600083015261509181615055565b9050919050565b7f4e487b7100000000000000000000000000000000000000000000000000000000600052602160045260246000fd5b600481106150d8576150d7615098565b5b50565b60008190506150e9826150c7565b919050565b60006150f9826150db565b9050919050565b615109816150ee565b82525050565b60006040820190506151246000830185614590565b6151316020830184615100565b9392505050565b60008151905061514781614b98565b92915050565b60006020828403121561516357615162614396565b5b600061517184828501615138565b91505092915050565b7f5348415245303037000000000000000000000000000000000000000000000000600082015250565b60006151b06008836141c7565b91506151bb8261517a565b602082019050919050565b600060208201905081810360008301526151df816151a3565b9050919050565b7f5348415245303238000000000000000000000000000000000000000000000000600082015250565b600061521c6008836141c7565b9150615227826151e6565b602082019050919050565b6000602082019050818103600083015261524b8161520f565b9050919050565b7f5348415245303036000000000000000000000000000000000000000000000000600082015250565b60006152886008836141c7565b915061529382615252565b602082019050919050565b600060208201905081810360008301526152b78161527b565b9050919050565b7f5348415245303230000000000000000000000000000000000000000000000000600082015250565b60006152f46008836141c7565b91506152ff826152be565b602082019050919050565b60006020820190508181036000830152615323816152e7565b9050919050565b7f5348415245303239000000000000000000000000000000000000000000000000600082015250565b60006153606008836141c7565b915061536b8261532a565b602082019050919050565b6000602082019050818103600083015261538f81615353565b9050919050565b8082525050565b6153a681614273565b82525050565b60006040820190506153c16000830185615396565b6153ce602083018461539d565b9392505050565b8082525050565b6153e58161457e565b82525050565b600060408201905061540060008301856153d5565b61540d60208301846153dc565b9392505050565b600061541f82614273565b915061542a83614273565b9250817fffffffffffffffffffffffffffffffffffffffffffffffffffffffffffffffff04831182151516156154635761546261427d565b5b828202905092915050565b600061547982614273565b915061548483614273565b92508261549457615493614302565b5b828204905092915050565b8082525050565b60006040820190506154bb600083018561549f565b6154c860208301846153dc565b9392505050565b60006154da82614273565b91507fffffffffffffffffffffffffffffffffffffffffffffffffffffffffffffffff82141561550d5761550c61427d565b5b600182019050919050565b8082525050565b60006040820190506155346000830185615518565b615541602083018461539d565b9392505050565b7f5348415245303330000000000000000000000000000000000000000000000000600082015250565b600061557e6008836141c7565b915061558982615548565b602082019050919050565b600060208201905081810360008301526155ad81615571565b9050919050565b7f5348415245303331000000000000000000000000000000000000000000000000600082015250565b60006155ea6008836141c7565b91506155f5826155b4565b602082019050919050565b60006020820190508181036000830152615619816155dd565b9050919050565b7f5348415245303335000000000000000000000000000000000000000000000000600082015250565b60006156566008836141c7565b915061566182615620565b602082019050919050565b6000602082019050818103600083015261568581615649565b9050919050565b7f5348415245303338000000000000000000000000000000000000000000000000600082015250565b60006156c26008836141c7565b91506156cd8261568c565b602082019050919050565b600060208201905081810360008301526156f1816156b5565b9050919050565b7f4552433732313a2061646472657373207a65726f206973206e6f74206120766160008201527f6c6964206f776e65720000000000000000000000000000000000000000000000602082015250565b60006157546029836141c7565b915061575f826156f8565b604082019050919050565b6000602082019050818103600083015261578381615747565b9050919050565b7f4552433732313a2063616c6c6572206973206e6f7420746f6b656e206f776e6560008201527f72206f7220617070726f76656400000000000000000000000000000000000000602082015250565b60006157e6602d836141c7565b91506157f18261578a565b604082019050919050565b60006020820190508181036000830152615815816157d9565b9050919050565b600081905092915050565b60006158328261445b565b61583c818561581c565b935061584c818560208601614466565b80840191505092915050565b60006158648285615827565b91506158708284615827565b91508190509392505050565b7f5348415245303032000000000000000000000000000000000000000000000000600082015250565b60006158b26008836141c7565b91506158bd8261587c565b602082019050919050565b600060208201905081810360008301526158e1816158a5565b9050919050565b7f4f776e61626c653a206e6577206f776e657220697320746865207a65726f206160008201527f6464726573730000000000000000000000000000000000000000000000000000602082015250565b60006159446026836141c7565b915061594f826158e8565b604082019050919050565b6000602082019050818103600083015261597381615937565b9050919050565b600081519050615989816145ba565b92915050565b6000602082840312156159a5576159a4614396565b5b60006159b38482850161597a565b91505092915050565b7f5348415245303235000000000000000000000000000000000000000000000000600082015250565b60006159f26008836141c7565b91506159fd826159bc565b602082019050919050565b60006020820190508181036000830152615a21816159e5565b9050919050565b7f4f776e61626c653a2063616c6c6572206973206e6f7420746865206f776e6572600082015250565b6000615a5e6020836141c7565b9150615a6982615a28565b602082019050919050565b60006020820190508181036000830152615a8d81615a51565b9050919050565b7f4552433732313a20617070726f766520746f2063616c6c657200000000000000600082015250565b6000615aca6019836141c7565b9150615ad582615a94565b602082019050919050565b60006020820190508181036000830152615af981615abd565b9050919050565b7f4552433732313a207472616e7366657220746f206e6f6e20455243373231526560008201527f63656976657220696d706c656d656e7465720000000000000000000000000000602082015250565b6000615b5c6032836141c7565b9150615b6782615b00565b604082019050919050565b60006020820190508181036000830152615b8b81615b4f565b9050919050565b7f4552433732313a207472616e736665722066726f6d20696e636f72726563742060008201527f6f776e6572000000000000000000000000000000000000000000000000000000602082015250565b6000615bee6025836141c7565b9150615bf982615b92565b604082019050919050565b60006020820190508181036000830152615c1d81615be1565b9050919050565b7f4552433732313a207472616e7366657220746f20746865207a65726f2061646460008201527f7265737300000000000000000000000000000000000000000000000000000000602082015250565b6000615c806024836141c7565b9150615c8b82615c24565b604082019050919050565b60006020820190508181036000830152615caf81615c73565b9050919050565b600081519050919050565b600082825260208201905092915050565b6000615cdd82615cb6565b615ce78185615cc1565b9350615cf7818560208601614466565b615d0081614499565b840191505092915050565b6000608082019050615d206000830187614590565b615d2d6020830186614590565b615d3a6040830185614362565b8181036060830152615d4c8184615cd2565b905095945050505050565b600081519050615d66816143cc565b92915050565b600060208284031215615d8257615d81614396565b5b6000615d9084828501615d57565b91505092915050565b7f4552433732313a206d696e7420746f20746865207a65726f2061646472657373600082015250565b6000615dcf6020836141c7565b9150615dda82615d99565b602082019050919050565b60006020820190508181036000830152615dfe81615dc2565b9050919050565b7f4552433732313a20746f6b656e20616c7265616479206d696e74656400000000600082015250565b6000615e3b601c836141c7565b9150615e4682615e05565b602082019050919050565b60006020820190508181036000830152615e6a81615e2e565b905091905056fea2646970667358221220bbf638b5701ea54523f6897c758433bb12e09dd292d33b8f0ca62f3b4d9de5d764736f6c634300080b00335377696674204c697175696420526f746174696e6720526f79616c7479204469737472696275746f72",
  "immutableReferences": {},
  "source": "// SPDX-License-Identifier: UNLICENSED\n// \n// \n// \n// \n// \n// \n// \n// https://formless.xyz/opportunities\n//\npragma solidity >=0.8.0 <0.9.0;\n\nimport \"@openzeppelin/contracts/token/ERC721/ERC721.sol\";\nimport \"./libraries/Immutable.sol\";\nimport \"./LimitedOwnable.sol\";\nimport \"./OperatorRegistry.sol\";\n\n/// @title Swift Liquid Rotating Royalty Distributor (SL2RD).\n/// @author john-paul@formless.xyz, brandon@formless.xyz\n/// @notice This contract implements efficient liquid payment splitting\n/// by shuffling recipient tokenIds off-chain into a random distribution\n/// and dealing transactions to those recipient slot entries atomically, e.g.\n/// payments are \"dealt\" in a rotating fashion rather than \"split\". This\n/// results in immense gas savings and as the number of transactions\n/// approaches infinity the delta between revenue received and revenue owed\n/// by each recipient approaches zero.\ncontract SL2RD is\n    LimitedOwnable,\n    ERC721(\"Swift Liquid Rotating Royalty Distributor\", \"SL2RD\")\n{\n    /// @notice Emitted when a payment is sent to a stakeholder\n    /// slot listed within this payment distribution contract.\n    event Payment(\n        address indexed from,\n        address indexed recipient,\n        uint256 indexed tokenIndex,\n        uint256 value\n    );\n    event MintingToken(uint256 indexed tokenId, address indexed toAddress);\n\n    uint256 public constant MAX_SPLIT_COUNT = 10000;\n    /// Max partition size empirically derived as a result of 30M gas\n    /// block limit on L2 blockchains. For a 10000 slot distribution\n    /// this would take 100 multipart transactions to initialize.\n    uint256 public constant MAX_PARTITION_SIZE = 100;\n    /// Max basis points of 10000 corresponds to 10000 splits each\n    /// at 0.01% ownership.\n    uint256 public constant MAX_BASIS_POINTS = 10000;\n    Immutable.UnsignedInt256 private _totalSlots;\n    Immutable.UnsignedInt256Array private _tokenIds;\n    Immutable.AddressArray private _addresses;\n    Immutable.UnsignedInt256 private _communitySplitsBasisPoints;\n    Immutable.Address private _initialOwner;\n    uint256 private _totalCommunitySlots = 0;\n    uint256 private _nextAvailableCommunitySlot = 0;\n    uint256 private _currentTokenIdIndex = 0;\n    uint256[MAX_SPLIT_COUNT] private _transferTimestamps;\n    mapping(uint256 => address) private _tokenOwners;\n\n    OperatorRegistry private _shareOperatorRegistry;\n    SHARE private _protocol;\n\n    /// @notice Modifier to allow only the owner or a verified operator\n    /// to call the function\n    modifier onlyOwnerOrOperator() {\n        require(\n            _shareOperatorRegistry.isOperator(msg.sender) ||\n                msg.sender == owner(),\n            \"SHARE030\"\n        );\n        _;\n    }\n\n    constructor() public LimitedOwnable(true /* WALLET */, false /* SPLIT */) {}\n\n    /// @notice Initializes this contract.\n    /// @dev Recipient tokenId table is constructed off-chain and is\n    /// constructed as follows:\n    /// 1. A number of slots are allocated in an array corresponding\n    /// to 1 / minimum percentage of any stakeholder in this asset.\n    /// 2. IDs are assigned to slots such that the probability\n    /// of an iterator pointing to a given ID is equal to that\n    /// ID's ownership stake in the asset.\n    /// 3. Additionally, the layout specified in (2) is randomized\n    /// such that primary stakeholders have no advantage in payment\n    /// time given that the iterator increments linearly through the\n    /// ID table.\n    /// 4. A parallel addresses array is filled with the corresponding\n    /// owner for each tokenId. This is prefilled with the owner's\n    /// address for each token, but designed with flexibilty to include\n    /// others during initialization if they are known.\n    /// The communitySplitsBasisPoints is a constant percentage denoted in\n    /// basis points for how many of the slots the creator initially wants\n    /// to allocate for everyone else.\n    /// @param addresses_ The addresses for initial distribution.\n    /// @param tokenIds_ The tokenIds for initial distribution.\n    /// @param communitySplitsBasisPoints_ The percentage of slots allocated\n    /// for the community (denoted in basis points); e.g. 20% is denoted as 2000.\n    /// @param shareContractAddress_ The address of the share contract.\n    /// @param operatorRegistryAddress_ The address of the share operator registry.\n    function initialize(\n        address[] memory addresses_,\n        uint256[] memory tokenIds_,\n        uint256 communitySplitsBasisPoints_,\n        address shareContractAddress_,\n        address operatorRegistryAddress_\n    ) public onlyOwner {\n        require(tokenIds_.length == addresses_.length, \"SHARE028\");\n        require(tokenIds_.length <= MAX_SPLIT_COUNT, \"SHARE006\");\n        require(tokenIds_.length >= 1, \"SHARE020\");\n        require(communitySplitsBasisPoints_ <= MAX_BASIS_POINTS, \"SHARE029\");\n\n        setShareContractAddress(shareContractAddress_);\n        _protocol = SHARE(shareContractAddress_);\n\n        _shareOperatorRegistry = OperatorRegistry(operatorRegistryAddress_);\n        Immutable.setUnsignedInt256(_totalSlots, tokenIds_.length);\n        Immutable.setUnsignedInt256(\n            _communitySplitsBasisPoints,\n            communitySplitsBasisPoints_\n        );\n        Immutable.setAddress(_initialOwner, addresses_[0]);\n\n        _totalCommunitySlots =\n            (_totalSlots.value * _communitySplitsBasisPoints.value) /\n            MAX_BASIS_POINTS;\n\n        // The owner addresses are SHARE approved wallets,\n        // e.g. EOAs or wallets with approved code hashes.\n        for (uint256 i = 0; i < addresses_.length; i++) {\n            // Check that all addresses in the table are SHARE approved wallets,\n            // e.g. EOAs or wallets with approved code hashes.\n            require(\n                _protocol.isApprovedBuild(\n                    addresses_[i],\n                    CodeVerification.BuildType.WALLET\n                ),\n                \"SHARE007\"\n            );\n            Immutable.pushAddress(_addresses, addresses_[i]);\n        }\n        _addresses.locked = true;\n\n        for (uint256 i = 0; i < tokenIds_.length; i++) {\n            Immutable.pushUnsignedInt256(_tokenIds, tokenIds_[i]);\n        }\n        _tokenIds.locked = true;\n\n        // Mint all of the slots to the corresponding address (default owner).\n        for (uint256 i = 0; i < _tokenIds.value.length; i++) {\n            // Duplicate verification ensures tokenIds are minted once.\n            if (_tokenOwners[_tokenIds.value[i]] == address(0)) {\n                emit MintingToken(_tokenIds.value[i], _addresses.value[i]);\n                _safeMint(_addresses.value[i], _tokenIds.value[i]);\n                _tokenOwners[_tokenIds.value[i]] = _addresses.value[i];\n            }\n        }\n        setInitialized();\n    }\n\n    /// @notice Prepares the contract for multipart initialization.\n    /// @dev Recipient tokenId table is constructed off-chain and is\n    /// constructed as follows:\n    /// 1. A number of slots are allocated in an array corresponding\n    /// to 1 / minimum percentage of any stakeholder in this asset.\n    /// 2. IDs are assigned to slots redundantly such that the probability\n    /// of an iterator pointing to a given ID is equal to that\n    /// ID's ownership stake in the asset.\n    /// 3. Additionally, the layout specified in (2) is randomized\n    /// such that primary stakeholders have no advantage in payment\n    /// time given that the iterator increments linearly through the\n    /// ID table.\n    /// 4. A parallel addresses array is filled with the corresponding\n    /// owner for each tokenId. This is prefilled with the owner's\n    /// address for each token, but designed with flexibilty to include\n    /// others during initialization if they are known.\n    /// The communitySplitsBasisPoints is a constant percentage denoted in\n    /// basis points for how many of the slots the owner initially wants\n    /// to allocate for everyone else.\n    /// 5. The array noted in (1) is partitioned into multiple arrays\n    /// such that a composite array is constructed through a series of\n    /// calls to `multipartAddPartition`, followed by a final call to\n    /// `multipartInitializationEnd`. This is a requirement for large\n    /// distributions where the block gas limit would otherwise be\n    /// exceeded when attempting to initialize the contract.\n    /// @param communitySplitsBasisPoints_ The percentage of slots allocated\n    /// for the community (denoted in basis points); e.g. 20% is denoted as 2000.\n    /// @param shareContractAddress_ The address of the share contract.\n    /// @param operatorRegistryAddress_ The address of the share operator registry.\n    function multipartInitializationBegin(\n        uint256 communitySplitsBasisPoints_,\n        address shareContractAddress_,\n        address operatorRegistryAddress_\n    ) public onlyOwner {\n        require(communitySplitsBasisPoints_ <= MAX_BASIS_POINTS, \"SHARE029\");\n        setShareContractAddress(shareContractAddress_);\n        _protocol = SHARE(shareContractAddress_);\n        _shareOperatorRegistry = OperatorRegistry(operatorRegistryAddress_);\n        Immutable.setUnsignedInt256(\n            _communitySplitsBasisPoints,\n            communitySplitsBasisPoints_\n        );\n    }\n\n    /// @notice Initializes a specified partition of the distribution\n    /// vector. Called for each sub-partition until the entire distribution\n    /// vector is stored on-chain.\n    /// @param addresses_ The addresses for initial distribution.\n    /// @param tokenIds_ The tokenIds for initial distribution.\n    function multipartAddPartition(\n        uint256 partitionIndex_,\n        address[] memory addresses_,\n        uint256[] memory tokenIds_\n    ) public onlyOwner {\n        require(tokenIds_.length == addresses_.length, \"SHARE028\");\n        require(tokenIds_.length <= MAX_PARTITION_SIZE, \"SHARE038\");\n        require(tokenIds_.length >= 1, \"SHARE020\");\n        if (partitionIndex_ == 0) {\n            Immutable.setAddress(_initialOwner, addresses_[0]);\n        }\n        // The owner addresses are SHARE approved wallets,\n        // e.g. EOAs or wallets with approved code hashes.\n        for (uint256 i = 0; i < addresses_.length; i++) {\n            // Check that all addresses in the table are SHARE approved wallets,\n            // e.g. EOAs or wallets with approved code hashes.\n            require(\n                _protocol.isApprovedBuild(\n                    addresses_[i],\n                    CodeVerification.BuildType.WALLET\n                ),\n                \"SHARE007\"\n            );\n            Immutable.pushAddress(_addresses, addresses_[i]);\n        }\n\n        for (uint256 i = 0; i < tokenIds_.length; i++) {\n            Immutable.pushUnsignedInt256(_tokenIds, tokenIds_[i]);\n        }\n\n        // Mint all of the slots to the corresponding address (default owner).\n        for (uint256 i = 0; i < _tokenIds.value.length; i++) {\n            // Duplicate verification ensures tokenIds are minted once.\n            if (_tokenOwners[_tokenIds.value[i]] == address(0)) {\n                emit MintingToken(_tokenIds.value[i], _addresses.value[i]);\n                _safeMint(_addresses.value[i], _tokenIds.value[i]);\n                _tokenOwners[_tokenIds.value[i]] = _addresses.value[i];\n            }\n        }\n    }\n\n    /// @notice Completes multipart initilization and sets\n    /// addresses_ and tokenIds_ write state to immutable.\n    function multipartInitializationEnd() public {\n        _addresses.locked = true;\n        _tokenIds.locked = true;\n        Immutable.setUnsignedInt256(_totalSlots, _tokenIds.value.length);\n        _totalCommunitySlots =\n            (_totalSlots.value * _communitySplitsBasisPoints.value) /\n            MAX_BASIS_POINTS;\n        setInitialized();\n    }\n\n    /// @notice This function provides access to the initial distribution table of\n    /// addresses.\n    function initialSplitDistributionTable()\n        public\n        view\n        returns (address[] memory)\n    {\n        return _addresses.value;\n    }\n\n    /// @notice This function provides access to the live distribution table of\n    /// addresses, derived from the current slot owners based on the most recent\n    /// block data.\n    function splitDistributionTable() public view returns (address[] memory) {\n        address[] memory owners = new address[](_totalSlots.value);\n        for (uint256 i = 0; i < _totalSlots.value; i++) {\n            owners[i] = ownerOf(_tokenIds.value[i]);\n        }\n        return owners;\n    }\n\n    /// @notice Returns the index of the tokenId in the table which\n    /// is the next tokenId to receive payment on the reception of\n    /// payment by this contract.\n    function tokenIdIndex() public view afterInit returns (uint256) {\n        return _currentTokenIdIndex;\n    }\n\n    /// @notice Returns the community splits initialization basis points.\n    function communitySplitsBasisPoints()\n        public\n        view\n        afterInit\n        returns (uint256)\n    {\n        return _communitySplitsBasisPoints.value;\n    }\n\n    /// @notice Returns the next available community slot id.\n    function countAllocatedCommunitySlots() public view returns (uint256) {\n        return _nextAvailableCommunitySlot;\n    }\n\n    /// @notice Returns the total ownership slots created for this contract.\n    function totalSlots() public view afterInit returns (uint256) {\n        return _totalSlots.value;\n    }\n\n    /// @notice Returns the initial allocation of community slots.\n    function totalCommunitySlots() public view afterInit returns (uint256) {\n        return _totalCommunitySlots;\n    }\n\n    /// @notice Receives payment funds and distributes them among\n    /// stakeholders specified in this contract using the SL2RD\n    /// method described above.\n    receive() external payable nonReentrant afterInit {\n        address recipient = ownerOf(_tokenIds.value[_currentTokenIdIndex]);\n\n        _currentTokenIdIndex =\n            (_currentTokenIdIndex + 1) %\n            (_tokenIds.value.length);\n        payable(recipient).transfer(msg.value);\n\n        emit Payment(\n            msg.sender,\n            recipient,\n            _tokenIds.value[_currentTokenIdIndex],\n            msg.value\n        );\n    }\n\n    /// @notice Allows for an ERC-721 token to be transferred to a new address.\n    /// @dev Overrides the ERC721 version to add additional check that ensures\n    // the recipient address is a SHARE approved wallet hash.\n    function safeTransferFrom(\n        address from_,\n        address to_,\n        uint256 tokenId_\n    ) public override {\n        // Restrict trading of community slots until distribution process is complete.\n        if (_nextAvailableCommunitySlot < _totalCommunitySlots) {\n            require(tokenId_ >= _totalCommunitySlots, \"SHARE037\");\n        }\n\n        // Check if 'to' address is a SHARE approved wallet.\n        require(\n            _protocol.isApprovedBuild(to_, CodeVerification.BuildType.WALLET),\n            \"SHARE007\"\n        );\n\n        // Call the parent's transferFrom function\n        super.safeTransferFrom(from_, to_, tokenId_);\n\n        // Update the transfer timestamp\n        _transferTimestamps[tokenId_] = block.timestamp;\n    }\n\n    /// @notice Allows for an ERC-721 token to be transferred to a new address.\n    /// @dev Overrides the ERC721 version to add additional check that ensures\n    // the recipient address is a SHARE approved wallet hash.\n    function transferFrom(\n        address from_,\n        address to_,\n        uint256 tokenId_\n    ) public override {\n        // Restrict trading of community slots until distribution process is complete.\n        if (_nextAvailableCommunitySlot < _totalCommunitySlots) {\n            require(tokenId_ >= _totalCommunitySlots, \"SHARE037\");\n        }\n\n        // Check if 'to' address is a SHARE approved wallet.\n        require(\n            _protocol.isApprovedBuild(to_, CodeVerification.BuildType.WALLET),\n            \"SHARE007\"\n        );\n\n        // Call the parent's transferFrom function\n        super.transferFrom(from_, to_, tokenId_);\n\n        // Update the transfer timestamp\n        _transferTimestamps[tokenId_] = block.timestamp;\n    }\n\n    /// @notice Returns an array of the latest transfer timestamps for each tokenId.\n    function slotTransferTimestamps()\n        public\n        view\n        returns (uint256[MAX_SPLIT_COUNT] memory)\n    {\n        return (_transferTimestamps);\n    }\n\n    /// @notice Returns the timestamp of the most recent transfer of a specific tokenId.\n    function slotTransferTimestamp(\n        uint256 tokenId\n    ) public view returns (uint256) {\n        return (_transferTimestamps[tokenId]);\n    }\n\n    /// @notice Function to transfer the next available slot to a specified address. Self contained\n    /// distribution logic that is only called during the distribution period and wholly handles the\n    /// process, including transfers.\n    /// Monitors the availability of community slot allocation while delegating the next slot.\n    /// It reverts if all community apportioned slots are allocated.\n    function transferNextAvailable(\n        address to_\n    ) public onlyOwnerOrOperator nonReentrant {\n        // Gates process to only continue until community reservations are depleted.\n        require(_nextAvailableCommunitySlot < _totalCommunitySlots, \"SHARE031\");\n\n        // Ensure the initial owner still owns the community slot before transfer.\n        require(\n            ownerOf(_nextAvailableCommunitySlot) == _initialOwner.value,\n            \"SHARE035\"\n        );\n\n        // Check if 'to_' address is a SHARE approved wallet.\n        require(\n            _protocol.isApprovedBuild(to_, CodeVerification.BuildType.WALLET),\n            \"SHARE007\"\n        );\n\n        // Allows the operator to call transfer without revert\n        if (\n            _shareOperatorRegistry.isOperator(msg.sender) ||\n            msg.sender == owner()\n        ) {\n            super._approve(msg.sender, _nextAvailableCommunitySlot);\n        }\n\n        super.transferFrom(owner(), to_, _nextAvailableCommunitySlot);\n\n        // Update the transfer timestamp\n        _transferTimestamps[_nextAvailableCommunitySlot] = block.timestamp;\n\n        _nextAvailableCommunitySlot++;\n    }\n\n    /// @notice Function to transfer multiple available slots to a specifed address.\n    function transferMultipleAvailable(\n        address to_,\n        uint256 slots_\n    ) public onlyOwnerOrOperator {\n        for (uint256 i = 0; i < slots_; i++) {\n            transferNextAvailable(to_);\n        }\n    }\n\n    /// @notice Reclaims a contract owned by this SL2RD, e.g. if a PFA\n    /// is owned by this split, the split owner may transfer\n    /// ownership of the PFA back to their account. This is intended\n    /// for maintenance purposes, e.g. the ability for SL2RD owners to\n    /// update tokenURIs and prices of PFAs, after which they may\n    /// transfer (restore) ownership of the PFA back to the SL2RD.\n    ///\n    /// 1: init  | 2:reclaim | 3: maintain | 4: restore\n    /// -----------------------------------------------\n    /// [Owner]     [Owner]     [Owner]     [Owner]\n    ///   |            |           |           |\n    ///   |            |           |           |\n    ///   |            |           |           |\n    /// [SL2RD]       [PFA]       calls     [SL2RD]\n    ///   |                  setTokenURI()     |\n    ///   |                                    |\n    ///   |                                    |\n    /// [PFA]                                [PFA]\n    function reclaim(\n        address contractAddress_\n    ) public afterInit onlyOwner nonReentrant {\n        Ownable asset = Ownable(contractAddress_);\n        require(asset.owner() == address(this), \"SHARE025\");\n        asset.transferOwnership(msg.sender);\n    }\n}\n",
  "sourcePath": "/Users/xiang2011w/Desktop/formless/smartContractGithub/share-v1-core/contracts/SL2RD.sol",
  "compiler": {
    "name": "solc",
    "version": "0.8.11+commit.d7f03943.Emscripten.clang"
  },
  "schemaVersion": "3.4.16",
  "updatedAt": "2024-06-24T20:41:54.200Z",
  "devdoc": {
    "author": "john-paul@formless.xyz, brandon@formless.xyz",
    "kind": "dev",
    "methods": {
      "approve(address,uint256)": {
        "details": "See {IERC721-approve}."
      },
      "balanceOf(address)": {
        "details": "See {IERC721-balanceOf}."
      },
      "getApproved(uint256)": {
        "details": "See {IERC721-getApproved}."
      },
      "initialize(address[],uint256[],uint256,address,address)": {
        "details": "Recipient tokenId table is constructed off-chain and is constructed as follows: 1. A number of slots are allocated in an array corresponding to 1 / minimum percentage of any stakeholder in this asset. 2. IDs are assigned to slots such that the probability of an iterator pointing to a given ID is equal to that ID's ownership stake in the asset. 3. Additionally, the layout specified in (2) is randomized such that primary stakeholders have no advantage in payment time given that the iterator increments linearly through the ID table. 4. A parallel addresses array is filled with the corresponding owner for each tokenId. This is prefilled with the owner's address for each token, but designed with flexibilty to include others during initialization if they are known. The communitySplitsBasisPoints is a constant percentage denoted in basis points for how many of the slots the creator initially wants to allocate for everyone else.",
        "params": {
          "addresses_": "The addresses for initial distribution.",
          "communitySplitsBasisPoints_": "The percentage of slots allocated for the community (denoted in basis points); e.g. 20% is denoted as 2000.",
          "operatorRegistryAddress_": "The address of the share operator registry.",
          "shareContractAddress_": "The address of the share contract.",
          "tokenIds_": "The tokenIds for initial distribution."
        }
      },
      "isApprovedForAll(address,address)": {
        "details": "See {IERC721-isApprovedForAll}."
      },
      "multipartAddPartition(uint256,address[],uint256[])": {
        "params": {
          "addresses_": "The addresses for initial distribution.",
          "tokenIds_": "The tokenIds for initial distribution."
        }
      },
      "multipartInitializationBegin(uint256,address,address)": {
        "details": "Recipient tokenId table is constructed off-chain and is constructed as follows: 1. A number of slots are allocated in an array corresponding to 1 / minimum percentage of any stakeholder in this asset. 2. IDs are assigned to slots redundantly such that the probability of an iterator pointing to a given ID is equal to that ID's ownership stake in the asset. 3. Additionally, the layout specified in (2) is randomized such that primary stakeholders have no advantage in payment time given that the iterator increments linearly through the ID table. 4. A parallel addresses array is filled with the corresponding owner for each tokenId. This is prefilled with the owner's address for each token, but designed with flexibilty to include others during initialization if they are known. The communitySplitsBasisPoints is a constant percentage denoted in basis points for how many of the slots the owner initially wants to allocate for everyone else. 5. The array noted in (1) is partitioned into multiple arrays such that a composite array is constructed through a series of calls to `multipartAddPartition`, followed by a final call to `multipartInitializationEnd`. This is a requirement for large distributions where the block gas limit would otherwise be exceeded when attempting to initialize the contract.",
        "params": {
          "communitySplitsBasisPoints_": "The percentage of slots allocated for the community (denoted in basis points); e.g. 20% is denoted as 2000.",
          "operatorRegistryAddress_": "The address of the share operator registry.",
          "shareContractAddress_": "The address of the share contract."
        }
      },
      "name()": {
        "details": "See {IERC721Metadata-name}."
      },
      "owner()": {
        "details": "Returns the address of the current owner."
      },
      "ownerOf(uint256)": {
        "details": "See {IERC721-ownerOf}."
      },
      "renounceOwnership()": {
        "details": "Leaves the contract without owner. It will not be possible to call `onlyOwner` functions. Can only be called by the current owner. NOTE: Renouncing ownership will leave the contract without an owner, thereby disabling any functionality that is only available to the owner."
      },
      "safeTransferFrom(address,address,uint256)": {
        "details": "Overrides the ERC721 version to add additional check that ensures"
      },
      "safeTransferFrom(address,address,uint256,bytes)": {
        "details": "See {IERC721-safeTransferFrom}."
      },
      "setApprovalForAll(address,bool)": {
        "details": "See {IERC721-setApprovalForAll}."
      },
      "supportsInterface(bytes4)": {
        "details": "See {IERC165-supportsInterface}."
      },
      "symbol()": {
        "details": "See {IERC721Metadata-symbol}."
      },
      "tokenURI(uint256)": {
        "details": "See {IERC721Metadata-tokenURI}."
      },
      "transferFrom(address,address,uint256)": {
        "details": "Overrides the ERC721 version to add additional check that ensures"
      }
    },
    "title": "Swift Liquid Rotating Royalty Distributor (SL2RD).",
    "version": 1
  },
  "userdoc": {
    "events": {
      "Payment(address,address,uint256,uint256)": {
        "notice": "Emitted when a payment is sent to a stakeholder slot listed within this payment distribution contract."
      }
    },
    "kind": "user",
    "methods": {
      "MAX_BASIS_POINTS()": {
        "notice": "Max basis points of 10000 corresponds to 10000 splits each at 0.01% ownership."
      },
      "MAX_PARTITION_SIZE()": {
        "notice": "Max partition size empirically derived as a result of 30M gas block limit on L2 blockchains. For a 10000 slot distribution this would take 100 multipart transactions to initialize."
      },
      "communitySplitsBasisPoints()": {
        "notice": "Returns the community splits initialization basis points."
      },
      "countAllocatedCommunitySlots()": {
        "notice": "Returns the next available community slot id."
      },
      "initialSplitDistributionTable()": {
        "notice": "This function provides access to the initial distribution table of addresses."
      },
      "initialize(address[],uint256[],uint256,address,address)": {
        "notice": "Initializes this contract."
      },
      "initialized()": {
        "notice": "Returns true if and only if the contract has been initialized by invoking the `initialize` function."
      },
      "multipartAddPartition(uint256,address[],uint256[])": {
        "notice": "Initializes a specified partition of the distribution vector. Called for each sub-partition until the entire distribution vector is stored on-chain."
      },
      "multipartInitializationBegin(uint256,address,address)": {
        "notice": "Prepares the contract for multipart initialization."
      },
      "multipartInitializationEnd()": {
        "notice": "Completes multipart initilization and sets addresses_ and tokenIds_ write state to immutable."
      },
      "reclaim(address)": {
        "notice": "Reclaims a contract owned by this SL2RD, e.g. if a PFA is owned by this split, the split owner may transfer ownership of the PFA back to their account. This is intended for maintenance purposes, e.g. the ability for SL2RD owners to update tokenURIs and prices of PFAs, after which they may transfer (restore) ownership of the PFA back to the SL2RD. 1: init  | 2:reclaim | 3: maintain | 4: restore ----------------------------------------------- [Owner]     [Owner]     [Owner]     [Owner]   |            |           |           |   |            |           |           |   |            |           |           | [SL2RD]       [PFA]       calls     [SL2RD]   |                  setTokenURI()     |   |                                    |   |                                    | [PFA]                                [PFA]"
      },
      "safeTransferFrom(address,address,uint256)": {
        "notice": "Allows for an ERC-721 token to be transferred to a new address."
      },
      "slotTransferTimestamp(uint256)": {
        "notice": "Returns the timestamp of the most recent transfer of a specific tokenId."
      },
      "slotTransferTimestamps()": {
        "notice": "Returns an array of the latest transfer timestamps for each tokenId."
      },
      "splitDistributionTable()": {
        "notice": "This function provides access to the live distribution table of addresses, derived from the current slot owners based on the most recent block data."
      },
      "tokenIdIndex()": {
        "notice": "Returns the index of the tokenId in the table which is the next tokenId to receive payment on the reception of payment by this contract."
      },
      "totalCommunitySlots()": {
        "notice": "Returns the initial allocation of community slots."
      },
      "totalSlots()": {
        "notice": "Returns the total ownership slots created for this contract."
      },
      "transferFrom(address,address,uint256)": {
        "notice": "Allows for an ERC-721 token to be transferred to a new address."
      },
      "transferMultipleAvailable(address,uint256)": {
        "notice": "Function to transfer multiple available slots to a specifed address."
      },
      "transferNextAvailable(address)": {
        "notice": "Function to transfer the next available slot to a specified address. Self contained distribution logic that is only called during the distribution period and wholly handles the process, including transfers. Monitors the availability of community slot allocation while delegating the next slot. It reverts if all community apportioned slots are allocated."
      },
      "transferOwnership(address)": {
        "notice": "Transfers ownership of the contract to `newOwner` if and only if `newOwner` satisfies the limited ownership requirements established in the constructor, otherwise, reverts the transaction."
      }
    },
    "notice": "This contract implements efficient liquid payment splitting by shuffling recipient tokenIds off-chain into a random distribution and dealing transactions to those recipient slot entries atomically, e.g. payments are \"dealt\" in a rotating fashion rather than \"split\". This results in immense gas savings and as the number of transactions approaches infinity the delta between revenue received and revenue owed by each recipient approaches zero.",
    "version": 1
  }
}